{
  "contractName": "AuctionsSCBA",
  "abi": [
    {
      "inputs": [
        {
          "internalType": "contract IERC20",
          "name": "_jusToken",
          "type": "address"
        }
      ],
      "stateMutability": "nonpayable",
      "type": "constructor"
    },
    {
      "anonymous": false,
      "inputs": [
        {
          "indexed": true,
          "internalType": "address",
          "name": "previousOwner",
          "type": "address"
        },
        {
          "indexed": true,
          "internalType": "address",
          "name": "newOwner",
          "type": "address"
        }
      ],
      "name": "OwnershipTransferred",
      "type": "event"
    },
    {
      "anonymous": false,
      "inputs": [],
      "name": "evt_AuctionInit",
      "type": "event"
    },
    {
      "anonymous": false,
      "inputs": [],
      "name": "evt_LotInit",
      "type": "event"
    },
    {
      "anonymous": false,
      "inputs": [
        {
          "indexed": false,
          "internalType": "uint256",
          "name": "timeStamp",
          "type": "uint256"
        },
        {
          "indexed": false,
          "internalType": "string",
          "name": "auctionID",
          "type": "string"
        },
        {
          "indexed": false,
          "internalType": "string",
          "name": "cause",
          "type": "string"
        }
      ],
      "name": "evt_auctionCanceled",
      "type": "event"
    },
    {
      "anonymous": false,
      "inputs": [
        {
          "indexed": false,
          "internalType": "uint256",
          "name": "timeStamp",
          "type": "uint256"
        },
        {
          "indexed": false,
          "internalType": "string",
          "name": "auctionID",
          "type": "string"
        }
      ],
      "name": "evt_auctionClosed",
      "type": "event"
    },
    {
      "anonymous": false,
      "inputs": [
        {
          "indexed": false,
          "internalType": "uint256",
          "name": "timeStamp",
          "type": "uint256"
        },
        {
          "indexed": false,
          "internalType": "uint256",
          "name": "lotId",
          "type": "uint256"
        },
        {
          "indexed": false,
          "internalType": "uint256",
          "name": "newEndDate",
          "type": "uint256"
        }
      ],
      "name": "evt_auctionLotExtended",
      "type": "event"
    },
    {
      "anonymous": false,
      "inputs": [
        {
          "indexed": false,
          "internalType": "uint256",
          "name": "timeStamp",
          "type": "uint256"
        },
        {
          "indexed": false,
          "internalType": "string",
          "name": "auctionID",
          "type": "string"
        }
      ],
      "name": "evt_auctionStart",
      "type": "event"
    },
    {
      "anonymous": false,
      "inputs": [
        {
          "indexed": false,
          "internalType": "uint256",
          "name": "timeStamp",
          "type": "uint256"
        },
        {
          "indexed": false,
          "internalType": "uint256",
          "name": "lotId",
          "type": "uint256"
        },
        {
          "indexed": false,
          "internalType": "uint256",
          "name": "trancheId",
          "type": "uint256"
        },
        {
          "indexed": false,
          "internalType": "address",
          "name": "_bidder",
          "type": "address"
        }
      ],
      "name": "evt_bidConfirmed",
      "type": "event"
    },
    {
      "anonymous": false,
      "inputs": [
        {
          "indexed": false,
          "internalType": "uint256",
          "name": "timeStamp",
          "type": "uint256"
        },
        {
          "indexed": false,
          "internalType": "address",
          "name": "bidderId",
          "type": "address"
        }
      ],
      "name": "evt_bidderEnabledToWithDraw",
      "type": "event"
    },
    {
      "anonymous": false,
      "inputs": [
        {
          "indexed": false,
          "internalType": "uint256",
          "name": "timeStamp",
          "type": "uint256"
        },
        {
          "indexed": false,
          "internalType": "address",
          "name": "_bidder",
          "type": "address"
        }
      ],
      "name": "evt_bidderInscription",
      "type": "event"
    },
    {
      "anonymous": false,
      "inputs": [
        {
          "indexed": false,
          "internalType": "uint256",
          "name": "timeStamp",
          "type": "uint256"
        },
        {
          "indexed": false,
          "internalType": "uint256",
          "name": "lotId",
          "type": "uint256"
        },
        {
          "indexed": false,
          "internalType": "address",
          "name": "bidderId",
          "type": "address"
        }
      ],
      "name": "evt_lotWinner",
      "type": "event"
    },
    {
      "anonymous": false,
      "inputs": [
        {
          "indexed": false,
          "internalType": "uint256",
          "name": "timeStamp",
          "type": "uint256"
        },
        {
          "indexed": false,
          "internalType": "address",
          "name": "beatenBidder",
          "type": "address"
        },
        {
          "indexed": false,
          "internalType": "uint256",
          "name": "lotid",
          "type": "uint256"
        }
      ],
      "name": "evt_maximunSecretBidBeaten",
      "type": "event"
    },
    {
      "inputs": [],
      "name": "owner",
      "outputs": [
        {
          "internalType": "address",
          "name": "",
          "type": "address"
        }
      ],
      "stateMutability": "view",
      "type": "function"
    },
    {
      "inputs": [],
      "name": "renounceOwnership",
      "outputs": [],
      "stateMutability": "nonpayable",
      "type": "function"
    },
    {
      "inputs": [
        {
          "internalType": "address",
          "name": "newOwner",
          "type": "address"
        }
      ],
      "name": "transferOwnership",
      "outputs": [],
      "stateMutability": "nonpayable",
      "type": "function"
    },
    {
      "inputs": [
        {
          "internalType": "string",
          "name": "__auctionCode",
          "type": "string"
        },
        {
          "internalType": "enum AuctionsSCBA.AuctionClass",
          "name": "__auctionClass",
          "type": "uint8"
        },
        {
          "internalType": "uint256",
          "name": "__guaranteeDeposit",
          "type": "uint256"
        },
        {
          "internalType": "uint256",
          "name": "__totalAuctionLots",
          "type": "uint256"
        },
        {
          "internalType": "uint256",
          "name": "__startDate",
          "type": "uint256"
        },
        {
          "internalType": "uint256",
          "name": "__endDate",
          "type": "uint256"
        }
      ],
      "name": "auctionInit",
      "outputs": [],
      "stateMutability": "nonpayable",
      "type": "function"
    },
    {
      "inputs": [
        {
          "internalType": "uint256",
          "name": "__baseValue",
          "type": "uint256"
        }
      ],
      "name": "auctionAddLot",
      "outputs": [],
      "stateMutability": "nonpayable",
      "type": "function"
    },
    {
      "inputs": [
        {
          "internalType": "bool",
          "name": "_preserveGuranteeDeposit",
          "type": "bool"
        }
      ],
      "name": "confirmBidderInscription",
      "outputs": [],
      "stateMutability": "nonpayable",
      "type": "function"
    },
    {
      "inputs": [],
      "name": "auctionStart",
      "outputs": [],
      "stateMutability": "nonpayable",
      "type": "function"
    },
    {
      "inputs": [],
      "name": "auctionClose",
      "outputs": [],
      "stateMutability": "nonpayable",
      "type": "function"
    },
    {
      "inputs": [
        {
          "internalType": "string",
          "name": "_cause",
          "type": "string"
        }
      ],
      "name": "auctionCancel",
      "outputs": [],
      "stateMutability": "nonpayable",
      "type": "function"
    },
    {
      "inputs": [
        {
          "internalType": "address",
          "name": "_bidderAddress",
          "type": "address"
        }
      ],
      "name": "enableWithDraw",
      "outputs": [],
      "stateMutability": "nonpayable",
      "type": "function"
    },
    {
      "inputs": [],
      "name": "getAuctionState",
      "outputs": [
        {
          "internalType": "enum AuctionsSCBA.AuctionState",
          "name": "",
          "type": "uint8"
        }
      ],
      "stateMutability": "view",
      "type": "function"
    },
    {
      "inputs": [],
      "name": "getAuctionBalance",
      "outputs": [
        {
          "internalType": "uint256",
          "name": "",
          "type": "uint256"
        }
      ],
      "stateMutability": "view",
      "type": "function"
    },
    {
      "inputs": [],
      "name": "getConfirmedBiddders",
      "outputs": [
        {
          "internalType": "uint256",
          "name": "",
          "type": "uint256"
        }
      ],
      "stateMutability": "view",
      "type": "function"
    },
    {
      "inputs": [
        {
          "internalType": "address",
          "name": "_queryBidder",
          "type": "address"
        }
      ],
      "name": "isBidderConfirmed",
      "outputs": [
        {
          "internalType": "bool",
          "name": "",
          "type": "bool"
        }
      ],
      "stateMutability": "view",
      "type": "function"
    },
    {
      "inputs": [],
      "name": "getAuctionStartDate",
      "outputs": [
        {
          "internalType": "uint256",
          "name": "",
          "type": "uint256"
        }
      ],
      "stateMutability": "view",
      "type": "function"
    },
    {
      "inputs": [],
      "name": "getAuctionEndtDate",
      "outputs": [
        {
          "internalType": "uint256",
          "name": "",
          "type": "uint256"
        }
      ],
      "stateMutability": "view",
      "type": "function"
    },
    {
      "inputs": [],
      "name": "getAuctionClass",
      "outputs": [
        {
          "internalType": "enum AuctionsSCBA.AuctionClass",
          "name": "",
          "type": "uint8"
        }
      ],
      "stateMutability": "view",
      "type": "function"
    },
    {
      "inputs": [
        {
          "internalType": "uint256",
          "name": "_lotId",
          "type": "uint256"
        }
      ],
      "name": "getActualTranche",
      "outputs": [
        {
          "internalType": "uint256",
          "name": "",
          "type": "uint256"
        },
        {
          "internalType": "uint256",
          "name": "",
          "type": "uint256"
        }
      ],
      "stateMutability": "view",
      "type": "function"
    },
    {
      "inputs": [
        {
          "internalType": "uint256",
          "name": "_lotId",
          "type": "uint256"
        }
      ],
      "name": "getLastTranche",
      "outputs": [
        {
          "internalType": "uint256",
          "name": "",
          "type": "uint256"
        },
        {
          "internalType": "uint256",
          "name": "",
          "type": "uint256"
        },
        {
          "internalType": "address",
          "name": "",
          "type": "address"
        }
      ],
      "stateMutability": "view",
      "type": "function"
    },
    {
      "inputs": [
        {
          "internalType": "uint256",
          "name": "_lotId",
          "type": "uint256"
        },
        {
          "internalType": "address",
          "name": "_bidder",
          "type": "address"
        }
      ],
      "name": "getBidderMaximunSecretBid",
      "outputs": [
        {
          "internalType": "uint256",
          "name": "",
          "type": "uint256"
        },
        {
          "internalType": "uint256",
          "name": "",
          "type": "uint256"
        }
      ],
      "stateMutability": "view",
      "type": "function"
    },
    {
      "inputs": [],
      "name": "getLotQuantity",
      "outputs": [
        {
          "internalType": "uint256",
          "name": "",
          "type": "uint256"
        }
      ],
      "stateMutability": "view",
      "type": "function"
    },
    {
      "inputs": [
        {
          "internalType": "uint256",
          "name": "_lotId",
          "type": "uint256"
        }
      ],
      "name": "getLotBaseValue",
      "outputs": [
        {
          "internalType": "uint256",
          "name": "",
          "type": "uint256"
        }
      ],
      "stateMutability": "view",
      "type": "function"
    },
    {
      "inputs": [
        {
          "internalType": "uint256",
          "name": "_lotId",
          "type": "uint256"
        },
        {
          "internalType": "uint256",
          "name": "_trancheId",
          "type": "uint256"
        }
      ],
      "name": "getLotTrancheValue",
      "outputs": [
        {
          "internalType": "uint256",
          "name": "",
          "type": "uint256"
        }
      ],
      "stateMutability": "view",
      "type": "function"
    },
    {
      "inputs": [
        {
          "internalType": "uint256",
          "name": "_lotId",
          "type": "uint256"
        }
      ],
      "name": "getLotEndDate",
      "outputs": [
        {
          "internalType": "uint256",
          "name": "",
          "type": "uint256"
        }
      ],
      "stateMutability": "view",
      "type": "function"
    },
    {
      "inputs": [
        {
          "internalType": "uint256",
          "name": "_lotId",
          "type": "uint256"
        }
      ],
      "name": "getLotExtensionCount",
      "outputs": [
        {
          "internalType": "uint256",
          "name": "",
          "type": "uint256"
        }
      ],
      "stateMutability": "view",
      "type": "function"
    },
    {
      "inputs": [
        {
          "internalType": "bool",
          "name": "_value",
          "type": "bool"
        }
      ],
      "name": "bidderSetPreservelastBid",
      "outputs": [],
      "stateMutability": "nonpayable",
      "type": "function"
    },
    {
      "inputs": [
        {
          "internalType": "uint256",
          "name": "_lotId",
          "type": "uint256"
        },
        {
          "internalType": "uint256",
          "name": "_value",
          "type": "uint256"
        }
      ],
      "name": "bidderSetMaximunSecretBidAmount",
      "outputs": [],
      "stateMutability": "nonpayable",
      "type": "function"
    },
    {
      "inputs": [
        {
          "internalType": "uint256",
          "name": "_lotId",
          "type": "uint256"
        },
        {
          "internalType": "uint256",
          "name": "_value",
          "type": "uint256"
        }
      ],
      "name": "bidderSetMaximunSecretBidTranche",
      "outputs": [],
      "stateMutability": "nonpayable",
      "type": "function"
    },
    {
      "inputs": [
        {
          "internalType": "uint256",
          "name": "_lotId",
          "type": "uint256"
        },
        {
          "internalType": "uint256",
          "name": "_trancheId",
          "type": "uint256"
        }
      ],
      "name": "bid",
      "outputs": [],
      "stateMutability": "nonpayable",
      "type": "function"
    }
  ],
  "bytecode": "0x60806040523480156200001157600080fd5b506040516200612e3803806200612e833981810160405281019062000037919062000217565b620000576200004b620000cd60201b60201c565b620000d560201b60201c565b6000600360006101000a81548160ff0219169083600681111562000080576200007f62000249565b5b021790555080600160006101000a81548173ffffffffffffffffffffffffffffffffffffffff021916908373ffffffffffffffffffffffffffffffffffffffff1602179055505062000278565b600033905090565b60008060009054906101000a900473ffffffffffffffffffffffffffffffffffffffff169050816000806101000a81548173ffffffffffffffffffffffffffffffffffffffff021916908373ffffffffffffffffffffffffffffffffffffffff1602179055508173ffffffffffffffffffffffffffffffffffffffff168173ffffffffffffffffffffffffffffffffffffffff167f8be0079c531659141344cd1fd0a4f28419497f9722a3daafe3b4186f6b6457e060405160405180910390a35050565b600080fd5b600073ffffffffffffffffffffffffffffffffffffffff82169050919050565b6000620001cb826200019e565b9050919050565b6000620001df82620001be565b9050919050565b620001f181620001d2565b8114620001fd57600080fd5b50565b6000815190506200021181620001e6565b92915050565b60006020828403121562000230576200022f62000199565b5b6000620002408482850162000200565b91505092915050565b7f4e487b7100000000000000000000000000000000000000000000000000000000600052602160045260246000fd5b615ea680620002886000396000f3fe608060405234801561001057600080fd5b50600436106101cf5760003560e01c8063715018a611610104578063c455d0cb116100a2578063dad7277c11610071578063dad7277c146104e6578063f0c019df14610516578063f1c7823f14610532578063f2fde38b14610562576101cf565b8063c455d0cb14610460578063d262c0e51461047e578063d69856211461049a578063d6c8d058146104b6576101cf565b80637786ce34116100de5780637786ce34146103d75780637e360c41146103f557806387368926146104265780638da5cb5b14610442576101cf565b8063715018a61461037d578063728194ee1461038757806376b8d8c7146103b9576101cf565b80634f245ef7116101715780635e464d511161014b5780635e464d51146102f957806361dd3bcc14610315578063634763b6146103315780636ee68ef71461034d576101cf565b80634f245ef7146102a3578063598647f8146102ad57806359ec35d8146102c9576101cf565b806319c2a5b5116101ad57806319c2a5b51461024157806325a35e731461024b5780633b924d43146102695780634a8bb6ed14610285576101cf565b806308bfc300146101d457806309d23ba1146101f25780631499cf1114610223575b600080fd5b6101dc61057e565b6040516101e991906144a3565b60405180910390f35b61020c60048036038101906102079190614566565b610595565b60405161021a9291906145b5565b60405180910390f35b61022b610624565b60405161023891906145de565b60405180910390f35b610249610630565b005b6102536106b6565b60405161026091906145de565b60405180910390f35b610283600480360381019061027e91906145f9565b610759565b005b61028d6107e1565b60405161029a91906145de565b60405180910390f35b6102ab6107ee565b005b6102c760048036038101906102c29190614626565b610874565b005b6102e360048036038101906102de91906145f9565b61088b565b6040516102f09190614681565b60405180910390f35b610313600480360381019061030e91906147e2565b6108d9565b005b61032f600480360381019061032a9190614857565b610961565b005b61034b60048036038101906103469190614626565b610b60565b005b61036760048036038101906103629190614884565b610def565b60405161037491906145de565b60405180910390f35b610385610e2a565b005b6103a1600480360381019061039c9190614884565b610eb2565b6040516103b0939291906148c0565b60405180910390f35b6103c1611019565b6040516103ce91906145de565b60405180910390f35b6103df611026565b6040516103ec91906145de565b60405180910390f35b61040f600480360381019061040a9190614884565b611033565b60405161041d9291906145b5565b60405180910390f35b610440600480360381019061043b9190614626565b611120565b005b61044a611491565b60405161045791906148f7565b60405180910390f35b6104686114ba565b604051610475919061495a565b60405180910390f35b61049860048036038101906104939190614884565b6114d4565b005b6104b460048036038101906104af9190614857565b61186c565b005b6104d060048036038101906104cb9190614884565b61187f565b6040516104dd91906145de565b60405180910390f35b61050060048036038101906104fb9190614626565b6118ba565b60405161050d91906145de565b60405180910390f35b610530600480360381019061052b919061499a565b6118ce565b005b61054c60048036038101906105479190614884565b611a97565b60405161055991906145de565b60405180910390f35b61057c600480360381019061057791906145f9565b611ad2565b005b6000600360009054906101000a900460ff16905090565b6000806000600b60008573ffffffffffffffffffffffffffffffffffffffff1673ffffffffffffffffffffffffffffffffffffffff1681526020019081526020016000206002016001866105e99190614a72565b815481106105fa576105f9614aa6565b5b9060005260206000200154905060006106138683611bca565b905081819350935050509250929050565b60006004800154905090565b610638611c3f565b73ffffffffffffffffffffffffffffffffffffffff16610656611491565b73ffffffffffffffffffffffffffffffffffffffff16146106ac576040517f08c379a00000000000000000000000000000000000000000000000000000000081526004016106a390614b32565b60405180910390fd5b6106b4611c47565b565b6000600160009054906101000a900473ffffffffffffffffffffffffffffffffffffffff1673ffffffffffffffffffffffffffffffffffffffff166370a08231306040518263ffffffff1660e01b815260040161071391906148f7565b602060405180830381865afa158015610730573d6000803e3d6000fd5b505050506040513d601f19601f820116820180604052508101906107549190614b67565b905090565b610761611c3f565b73ffffffffffffffffffffffffffffffffffffffff1661077f611491565b73ffffffffffffffffffffffffffffffffffffffff16146107d5576040517f08c379a00000000000000000000000000000000000000000000000000000000081526004016107cc90614b32565b60405180910390fd5b6107de816121a1565b50565b6000600d80549050905090565b6107f6611c3f565b73ffffffffffffffffffffffffffffffffffffffff16610814611491565b73ffffffffffffffffffffffffffffffffffffffff161461086a576040517f08c379a000000000000000000000000000000000000000000000000000000000815260040161086190614b32565b60405180910390fd5b610872612523565b565b61087f3383836126c8565b610887612e34565b5050565b600080600b60008473ffffffffffffffffffffffffffffffffffffffff1673ffffffffffffffffffffffffffffffffffffffff16815260200190815260200160002060000154119050919050565b6108e1611c3f565b73ffffffffffffffffffffffffffffffffffffffff166108ff611491565b73ffffffffffffffffffffffffffffffffffffffff1614610955576040517f08c379a000000000000000000000000000000000000000000000000000000000815260040161094c90614b32565b60405180910390fd5b61095e816135cf565b50565b600260068111156109755761097461442c565b5b600360009054906101000a900460ff1660068111156109975761099661442c565b5b146109d7576040517f08c379a00000000000000000000000000000000000000000000000000000000081526004016109ce90614c06565b60405180910390fd5b6000600b60003373ffffffffffffffffffffffffffffffffffffffff1673ffffffffffffffffffffffffffffffffffffffff1681526020019081526020016000206000015411610a5c576040517f08c379a0000000000000000000000000000000000000000000000000000000008152600401610a5390614c72565b60405180910390fd5b3073ffffffffffffffffffffffffffffffffffffffff16638da5cb5b6040518163ffffffff1660e01b8152600401602060405180830381865afa158015610aa7573d6000803e3d6000fd5b505050506040513d601f19601f82011682018060405250810190610acb9190614ca7565b73ffffffffffffffffffffffffffffffffffffffff163373ffffffffffffffffffffffffffffffffffffffff161415610b0357600080fd5b80600b60003373ffffffffffffffffffffffffffffffffffffffff1673ffffffffffffffffffffffffffffffffffffffff16815260200190815260200160002060010160006101000a81548160ff02191690831515021790555050565b60026006811115610b7457610b7361442c565b5b600360009054906101000a900460ff166006811115610b9657610b9561442c565b5b14610bd6576040517f08c379a0000000000000000000000000000000000000000000000000000000008152600401610bcd90614d46565b60405180910390fd5b6000600b60003373ffffffffffffffffffffffffffffffffffffffff1673ffffffffffffffffffffffffffffffffffffffff1681526020019081526020016000206000015411610c5b576040517f08c379a0000000000000000000000000000000000000000000000000000000008152600401610c5290614c72565b60405180910390fd5b3073ffffffffffffffffffffffffffffffffffffffff16638da5cb5b6040518163ffffffff1660e01b8152600401602060405180830381865afa158015610ca6573d6000803e3d6000fd5b505050506040513d601f19601f82011682018060405250810190610cca9190614ca7565b73ffffffffffffffffffffffffffffffffffffffff163373ffffffffffffffffffffffffffffffffffffffff161415610d38576040517f08c379a0000000000000000000000000000000000000000000000000000000008152600401610d2f90614dd8565b60405180910390fd5b6001811015610d7c576040517f08c379a0000000000000000000000000000000000000000000000000000000008152600401610d7390614e6a565b60405180910390fd5b80600b60003373ffffffffffffffffffffffffffffffffffffffff1673ffffffffffffffffffffffffffffffffffffffff168152602001908152602001600020600201600184610dcc9190614a72565b81548110610ddd57610ddc614aa6565b5b90600052602060002001819055505050565b60006002600183610e009190614a72565b81548110610e1157610e10614aa6565b5b9060005260206000209060090201600401549050919050565b610e32611c3f565b73ffffffffffffffffffffffffffffffffffffffff16610e50611491565b73ffffffffffffffffffffffffffffffffffffffff1614610ea6576040517f08c379a0000000000000000000000000000000000000000000000000000000008152600401610e9d90614b32565b60405180910390fd5b610eb06000613770565b565b6000806000806000806002600188610eca9190614a72565b81548110610edb57610eda614aa6565b5b90600052602060002090600902016007015492506000831115610f4e57600c6000600189610f099190614a72565b8152602001908152602001600020600184610f249190614a72565b81548110610f3557610f34614aa6565b5b9060005260206000209060040201600101549150610f95565b600c6000600189610f5f9190614a72565b8152602001908152602001600020600081548110610f8057610f7f614aa6565b5b90600052602060002090600402016001015491505b600c6000600189610fa69190614a72565b8152602001908152602001600020600184610fc19190614a72565b81548110610fd257610fd1614aa6565b5b906000526020600020906004020160020160009054906101000a900473ffffffffffffffffffffffffffffffffffffffff1690508282829550955095505050509193909250565b6000600280549050905090565b6000600460060154905090565b60008060008060026001866110489190614a72565b8154811061105957611058614aa6565b5b906000526020600020906009020160080154915060008211156110cc57600c60006001876110879190614a72565b81526020019081526020016000206001836110a29190614a72565b815481106110b3576110b2614aa6565b5b9060005260206000209060040201600101549050611113565b600c60006001876110dd9190614a72565b81526020019081526020016000206000815481106110fe576110fd614aa6565b5b90600052602060002090600402016001015490505b8181935093505050915091565b600260068111156111345761113361442c565b5b600360009054906101000a900460ff1660068111156111565761115561442c565b5b14611196576040517f08c379a000000000000000000000000000000000000000000000000000000000815260040161118d90614c06565b60405180910390fd5b6000600b60003373ffffffffffffffffffffffffffffffffffffffff1673ffffffffffffffffffffffffffffffffffffffff168152602001908152602001600020600001541161121b576040517f08c379a000000000000000000000000000000000000000000000000000000000815260040161121290614c72565b60405180910390fd5b3073ffffffffffffffffffffffffffffffffffffffff16638da5cb5b6040518163ffffffff1660e01b8152600401602060405180830381865afa158015611266573d6000803e3d6000fd5b505050506040513d601f19601f8201168201806040525081019061128a9190614ca7565b73ffffffffffffffffffffffffffffffffffffffff163373ffffffffffffffffffffffffffffffffffffffff1614156112f8576040517f08c379a00000000000000000000000000000000000000000000000000000000081526004016112ef90614dd8565b60405180910390fd5b60026001836113079190614a72565b8154811061131857611317614aa6565b5b906000526020600020906009020160030154811161136b576040517f08c379a000000000000000000000000000000000000000000000000000000000815260040161136290614efc565b60405180910390fd5b6000806005606460026001876113819190614a72565b8154811061139257611391614aa6565b5b9060005260206000209060090201600301546113ae9190614f4b565b6113b89190614f7c565b905060018160026001876113cc9190614a72565b815481106113dd576113dc614aa6565b5b906000526020600020906009020160030154856113fa9190614a72565b6114049190614f4b565b61140e9190614fd6565b915060018261141d9190614a72565b600b60003373ffffffffffffffffffffffffffffffffffffffff1673ffffffffffffffffffffffffffffffffffffffff16815260200190815260200160002060020160018661146c9190614a72565b8154811061147d5761147c614aa6565b5b906000526020600020018190555050505050565b60008060009054906101000a900473ffffffffffffffffffffffffffffffffffffffff16905090565b6000600460010160009054906101000a900460ff16905090565b6114dc611c3f565b73ffffffffffffffffffffffffffffffffffffffff166114fa611491565b73ffffffffffffffffffffffffffffffffffffffff1614611550576040517f08c379a000000000000000000000000000000000000000000000000000000000815260040161154790614b32565b60405180910390fd5b600160068111156115645761156361442c565b5b600360009054906101000a900460ff1660068111156115865761158561442c565b5b14806115c55750600260068111156115a1576115a061442c565b5b600360009054906101000a900460ff1660068111156115c3576115c261442c565b5b145b611604576040517f08c379a00000000000000000000000000000000000000000000000000000000081526004016115fb90615078565b60405180910390fd5b600060028111156116185761161761442c565b5b600460010160009054906101000a900460ff16600281111561163d5761163c61442c565b5b14801561164f57506001600280549050145b1561168f576040517f08c379a0000000000000000000000000000000000000000000000000000000008152600401611686906150e4565b60405180910390fd5b60046003015460028054905011156116dc576040517f08c379a00000000000000000000000000000000000000000000000000000000081526004016116d390615150565b60405180910390fd5b6116e4614267565b6002600360006101000a81548160ff0219169083600681111561170a5761170961442c565b5b021790555060016002805490506117219190614fd6565b81600001818152505060008160a001818152505060048001548160200181815250506004600501548160400181815250506004600501548160800181815250508181606001818152505060008160e00181815250506002819080600181540180825580915050600190039060005260206000209060090201600090919091909150600082015181600001556020820151816001015560408201518160020155606082015181600301556080820151816004015560a0820151816005015560c08201518160060160006101000a81548173ffffffffffffffffffffffffffffffffffffffff021916908373ffffffffffffffffffffffffffffffffffffffff16021790555060e08201518160070155610100820151816008015550507f11d60eceba140627d41c93ec42062390a06906ca8ca1e18dfac02f96eac340a760405160405180910390a15050565b61187c3360046002015483613834565b50565b600060026001836118909190614a72565b815481106118a1576118a0614aa6565b5b9060005260206000209060090201600501549050919050565b60006118c68383611bca565b905092915050565b6118d6611c3f565b73ffffffffffffffffffffffffffffffffffffffff166118f4611491565b73ffffffffffffffffffffffffffffffffffffffff161461194a576040517f08c379a000000000000000000000000000000000000000000000000000000000815260040161194190614b32565b60405180910390fd5b6000600681111561195e5761195d61442c565b5b600360009054906101000a900460ff1660068111156119805761197f61442c565b5b146119c0576040517f08c379a00000000000000000000000000000000000000000000000000000000081526004016119b7906151bc565b60405180910390fd5b6001600360006101000a81548160ff021916908360068111156119e6576119e561442c565b5b02179055508560046000019080519060200190611a049291906142c9565b5084600460010160006101000a81548160ff02191690836002811115611a2d57611a2c61442c565b5b0217905550836004600201819055508260046003018190555081600480018190555080600460050181905550806004600601819055507f321675ca606d6105dc8edcb36ec02648599faacfc7dba163412b26931d534f2d60405160405180910390a1505050505050565b60006002600183611aa89190614a72565b81548110611ab957611ab8614aa6565b5b9060005260206000209060090201600301549050919050565b611ada611c3f565b73ffffffffffffffffffffffffffffffffffffffff16611af8611491565b73ffffffffffffffffffffffffffffffffffffffff1614611b4e576040517f08c379a0000000000000000000000000000000000000000000000000000000008152600401611b4590614b32565b60405180910390fd5b600073ffffffffffffffffffffffffffffffffffffffff168173ffffffffffffffffffffffffffffffffffffffff161415611bbe576040517f08c379a0000000000000000000000000000000000000000000000000000000008152600401611bb59061524e565b60405180910390fd5b611bc781613770565b50565b6000806002600185611bdc9190614a72565b81548110611bed57611bec614aa6565b5b90600052602060002090600902016003015490506000600584611c109190614f7c565b905060648183611c209190614f7c565b611c2a9190614f4b565b82611c359190614fd6565b9250505092915050565b600033905090565b60036006811115611c5b57611c5a61442c565b5b600360009054906101000a900460ff166006811115611c7d57611c7c61442c565b5b1480611cbc575060046006811115611c9857611c9761442c565b5b600360009054906101000a900460ff166006811115611cba57611cb961442c565b5b145b611cfb576040517f08c379a0000000000000000000000000000000000000000000000000000000008152600401611cf2906152e0565b60405180910390fd5b600460060154421015611d43576040517f08c379a0000000000000000000000000000000000000000000000000000000008152600401611d3a9061534c565b60405180910390fd5b60005b6001600280549050611d589190614a72565b8111611f8857600c6000828152602001908152602001600020600160028381548110611d8757611d86614aa6565b5b906000526020600020906009020160070154611da39190614a72565b81548110611db457611db3614aa6565b5b906000526020600020906004020160020160009054906101000a900473ffffffffffffffffffffffffffffffffffffffff1660028281548110611dfa57611df9614aa6565b5b906000526020600020906009020160060160006101000a81548173ffffffffffffffffffffffffffffffffffffffff021916908373ffffffffffffffffffffffffffffffffffffffff1602179055506001600b600060028481548110611e6357611e62614aa6565b5b906000526020600020906009020160060160009054906101000a900473ffffffffffffffffffffffffffffffffffffffff1673ffffffffffffffffffffffffffffffffffffffff1673ffffffffffffffffffffffffffffffffffffffff16815260200190815260200160002060030160006101000a81548160ff0219169083151502179055507f8e9b05dde2c01ec0020d3155c9b85f331c20c82a2a55330212fbf5f2ba72edd242600183611f189190614fd6565b60028481548110611f2c57611f2b614aa6565b5b906000526020600020906009020160060160009054906101000a900473ffffffffffffffffffffffffffffffffffffffff16604051611f6d939291906148c0565b60405180910390a18080611f809061536c565b915050611d46565b506005600360006101000a81548160ff02191690836006811115611faf57611fae61442c565b5b021790555060005b6001600d80549050611fc99190614a72565b81116121615760001515600b6000600d8481548110611feb57611fea614aa6565b5b9060005260206000200160009054906101000a900473ffffffffffffffffffffffffffffffffffffffff1673ffffffffffffffffffffffffffffffffffffffff1673ffffffffffffffffffffffffffffffffffffffff16815260200190815260200160002060010160009054906101000a900460ff161515148015612101575060001515600b6000600d848154811061208757612086614aa6565b5b9060005260206000200160009054906101000a900473ffffffffffffffffffffffffffffffffffffffff1673ffffffffffffffffffffffffffffffffffffffff1673ffffffffffffffffffffffffffffffffffffffff16815260200190815260200160002060030160009054906101000a900460ff161515145b1561214e5761214d600d828154811061211d5761211c614aa6565b5b9060005260206000200160009054906101000a900473ffffffffffffffffffffffffffffffffffffffff166121a1565b5b80806121599061536c565b915050611fb7565b507f95b4de7d94cb78de2c4b6887e7885218f75b19f528166fd63e6c7d93eea62e814260046000016040516121979291906154ab565b60405180910390a1565b6006808111156121b4576121b361442c565b5b600360009054906101000a900460ff1660068111156121d6576121d561442c565b5b14806122155750600560068111156121f1576121f061442c565b5b600360009054906101000a900460ff1660068111156122135761221261442c565b5b145b612254576040517f08c379a000000000000000000000000000000000000000000000000000000000815260040161224b9061554d565b60405180910390fd5b6000600b60008373ffffffffffffffffffffffffffffffffffffffff1673ffffffffffffffffffffffffffffffffffffffff16815260200190815260200160002060000154116122d9576040517f08c379a00000000000000000000000000000000000000000000000000000000081526004016122d0906155b9565b60405180910390fd5b600b60008273ffffffffffffffffffffffffffffffffffffffff1673ffffffffffffffffffffffffffffffffffffffff16815260200190815260200160002060000154600160009054906101000a900473ffffffffffffffffffffffffffffffffffffffff1673ffffffffffffffffffffffffffffffffffffffff166370a08231306040518263ffffffff1660e01b815260040161237791906148f7565b602060405180830381865afa158015612394573d6000803e3d6000fd5b505050506040513d601f19601f820116820180604052508101906123b89190614b67565b10156123f9576040517f08c379a00000000000000000000000000000000000000000000000000000000081526004016123f090615625565b60405180910390fd5b600160009054906101000a900473ffffffffffffffffffffffffffffffffffffffff1673ffffffffffffffffffffffffffffffffffffffff1663095ea7b3826004600201546040518363ffffffff1660e01b815260040161245b929190615645565b6020604051808303816000875af115801561247a573d6000803e3d6000fd5b505050506040513d601f19601f8201168201806040525081019061249e9190615683565b506000600b60008373ffffffffffffffffffffffffffffffffffffffff1673ffffffffffffffffffffffffffffffffffffffff168152602001908152602001600020600001819055507f1755e8fc31f0e58889a0220b8f3028869d332d60d387222019b2a4c76c8b37a242826040516125189291906156b0565b60405180910390a150565b600260068111156125375761253661442c565b5b600360009054906101000a900460ff1660068111156125595761255861442c565b5b14612599576040517f08c379a000000000000000000000000000000000000000000000000000000000815260040161259090614d46565b60405180910390fd5b60048001546005426125ab9190614fd6565b101580156125be57506004600501544211155b6125fd576040517f08c379a00000000000000000000000000000000000000000000000000000000081526004016125f490615725565b60405180910390fd5b6000600d80549050141561264e576126496040518060400160405280601381526020017f4e6f2062696464657273206174207374617274000000000000000000000000008152506135cf565b6126c6565b60038060006101000a81548160ff021916908360068111156126735761267261442c565b5b0217905550612680613dea565b612688612e34565b7fb7dc4d36b2ca1a9476d5e4f14a23c3e629a0fd4f3af8c71c176f1c69d99952634260046000016040516126bd9291906154ab565b60405180910390a15b565b600360068111156126dc576126db61442c565b5b600360009054906101000a900460ff1660068111156126fe576126fd61442c565b5b148061273d5750600460068111156127195761271861442c565b5b600360009054906101000a900460ff16600681111561273b5761273a61442c565b5b145b61277c576040517f08c379a0000000000000000000000000000000000000000000000000000000008152600401612773906152e0565b60405180910390fd5b6004600601544211156127c4576040517f08c379a00000000000000000000000000000000000000000000000000000000081526004016127bb90615791565b60405180910390fd5b60001515600c60006001856127d99190614a72565b81526020019081526020016000206001836127f49190614a72565b8154811061280557612804614aa6565b5b906000526020600020906004020160020160149054906101000a900460ff16151514612866576040517f08c379a000000000000000000000000000000000000000000000000000000000815260040161285d906157fd565b60405180910390fd5b6000600b60008573ffffffffffffffffffffffffffffffffffffffff1673ffffffffffffffffffffffffffffffffffffffff16815260200190815260200160002060000154116128eb576040517f08c379a00000000000000000000000000000000000000000000000000000000081526004016128e290615869565b60405180910390fd5b600060026001846128fc9190614a72565b8154811061290d5761290c614aa6565b5b9060005260206000209060090201600701541115612a34578273ffffffffffffffffffffffffffffffffffffffff16600c600060018561294d9190614a72565b81526020019081526020016000206001600260018661296c9190614a72565b8154811061297d5761297c614aa6565b5b9060005260206000209060090201600701546129999190614a72565b815481106129aa576129a9614aa6565b5b906000526020600020906004020160020160009054906101000a900473ffffffffffffffffffffffffffffffffffffffff1673ffffffffffffffffffffffffffffffffffffffff161415612a33576040517f08c379a0000000000000000000000000000000000000000000000000000000008152600401612a2a906158d5565b60405180910390fd5b5b6002600183612a439190614a72565b81548110612a5457612a53614aa6565b5b9060005260206000209060090201600801548114612aa7576040517f08c379a0000000000000000000000000000000000000000000000000000000008152600401612a9e90615941565b60405180910390fd5b612aaf61434f565b60016002600185612ac09190614a72565b81548110612ad157612ad0614aa6565b5b90600052602060002090600902016007016000828254612af19190614fd6565b9250508190555060016002600185612b099190614a72565b81548110612b1a57612b19614aa6565b5b90600052602060002090600902016008016000828254612b3a9190614fd6565b9250508190555083600c6000600186612b539190614a72565b8152602001908152602001600020600184612b6e9190614a72565b81548110612b7f57612b7e614aa6565b5b906000526020600020906004020160020160006101000a81548173ffffffffffffffffffffffffffffffffffffffff021916908373ffffffffffffffffffffffffffffffffffffffff1602179055506001600c6000600186612be19190614a72565b8152602001908152602001600020600184612bfc9190614a72565b81548110612c0d57612c0c614aa6565b5b906000526020600020906004020160020160146101000a81548160ff02191690831515021790555042600c6000600186612c479190614a72565b8152602001908152602001600020600184612c629190614a72565b81548110612c7357612c72614aa6565b5b9060005260206000209060040201600301819055506002600184612c979190614a72565b81548110612ca857612ca7614aa6565b5b906000526020600020906009020160080154816000018181525050612cfe836002600186612cd69190614a72565b81548110612ce757612ce6614aa6565b5b906000526020600020906009020160080154611bca565b8160200181815250506000816060019015159081151581525050600c6000600185612d299190614a72565b8152602001908152602001600020819080600181540180825580915050600190039060005260206000209060040201600090919091909150600082015181600001556020820151816001015560408201518160020160006101000a81548173ffffffffffffffffffffffffffffffffffffffff021916908373ffffffffffffffffffffffffffffffffffffffff16021790555060608201518160020160146101000a81548160ff021916908315150217905550608082015181600301555050612df183613fda565b7fafe56db8459de2bc286545368ecdfb556e2eb2afe7bbc3c01e7ada1775ba7b0d42848487604051612e269493929190615961565b60405180910390a150505050565b60036006811115612e4857612e4761442c565b5b600360009054906101000a900460ff166006811115612e6a57612e6961442c565b5b1480612ea9575060046006811115612e8557612e8461442c565b5b600360009054906101000a900460ff166006811115612ea757612ea661442c565b5b145b612ee8576040517f08c379a0000000000000000000000000000000000000000000000000000000008152600401612edf906159f2565b60405180910390fd5b600460060154421115612f30576040517f08c379a0000000000000000000000000000000000000000000000000000000008152600401612f2790615791565b60405180910390fd5b6000600190505b6001151581151514156135cc576000905060005b6001600280549050612f5d9190614a72565b81116135c65760005b6001600d80549050612f789190614a72565b81116135b2576000600b6000600d8481548110612f9857612f97614aa6565b5b9060005260206000200160009054906101000a900473ffffffffffffffffffffffffffffffffffffffff1673ffffffffffffffffffffffffffffffffffffffff1673ffffffffffffffffffffffffffffffffffffffff168152602001908152602001600020600201838154811061301257613011614aa6565b5b90600052602060002001541180156130eb57506002828154811061303957613038614aa6565b5b906000526020600020906009020160080154600b6000600d848154811061306357613062614aa6565b5b9060005260206000200160009054906101000a900473ffffffffffffffffffffffffffffffffffffffff1673ffffffffffffffffffffffffffffffffffffffff1673ffffffffffffffffffffffffffffffffffffffff16815260200190815260200160002060020183815481106130dd576130dc614aa6565b5b906000526020600020015410155b156132fd5760006002838154811061310657613105614aa6565b5b906000526020600020906009020160070154141561317d57613174600d828154811061313557613134614aa6565b5b9060005260206000200160009054906101000a900473ffffffffffffffffffffffffffffffffffffffff1660018461316d9190614fd6565b60016126c8565b600192506135b2565b600d818154811061319157613190614aa6565b5b9060005260206000200160009054906101000a900473ffffffffffffffffffffffffffffffffffffffff1673ffffffffffffffffffffffffffffffffffffffff16600c60008481526020019081526020016000206001600285815481106131fb576131fa614aa6565b5b9060005260206000209060090201600701546132179190614a72565b8154811061322857613227614aa6565b5b906000526020600020906004020160020160009054906101000a900473ffffffffffffffffffffffffffffffffffffffff1673ffffffffffffffffffffffffffffffffffffffff16146132f8576132ef600d828154811061328c5761328b614aa6565b5b9060005260206000200160009054906101000a900473ffffffffffffffffffffffffffffffffffffffff166001846132c49190614fd6565b600285815481106132d8576132d7614aa6565b5b9060005260206000209060090201600801546126c8565b600192506135b2565b61359f565b6002828154811061331157613310614aa6565b5b906000526020600020906009020160080154600b6000600d848154811061333b5761333a614aa6565b5b9060005260206000200160009054906101000a900473ffffffffffffffffffffffffffffffffffffffff1673ffffffffffffffffffffffffffffffffffffffff1673ffffffffffffffffffffffffffffffffffffffff16815260200190815260200160002060020183815481106133b5576133b4614aa6565b5b906000526020600020015410801561346c575060001515600e6000600d84815481106133e4576133e3614aa6565b5b9060005260206000200160009054906101000a900473ffffffffffffffffffffffffffffffffffffffff1673ffffffffffffffffffffffffffffffffffffffff1673ffffffffffffffffffffffffffffffffffffffff168152602001908152602001600020600084815260200190815260200160002060009054906101000a900460ff161515145b1561359e576001600e6000600d848154811061348b5761348a614aa6565b5b9060005260206000200160009054906101000a900473ffffffffffffffffffffffffffffffffffffffff1673ffffffffffffffffffffffffffffffffffffffff1673ffffffffffffffffffffffffffffffffffffffff168152602001908152602001600020600084815260200190815260200160002060006101000a81548160ff0219169083151502179055507fd2f2394127c29e6ea6d3ee19deee3e3488d4187652d8c6e4ddaf9282f56b1a6a42600d838154811061354e5761354d614aa6565b5b9060005260206000200160009054906101000a900473ffffffffffffffffffffffffffffffffffffffff166001856135869190614fd6565b60405161359593929190615a12565b60405180910390a15b5b80806135aa9061536c565b915050612f66565b5080806135be9061536c565b915050612f4b565b50612f37565b50565b6006808111156135e2576135e161442c565b5b600360009054906101000a900460ff1660068111156136045761360361442c565b5b1415613645576040517f08c379a000000000000000000000000000000000000000000000000000000000815260040161363c90615a95565b60405180910390fd5b60046006015442111561368d576040517f08c379a000000000000000000000000000000000000000000000000000000000815260040161368490615b01565b60405180910390fd5b60005b6001600d805490506136a29190614a72565b8111613702576136ef600d82815481106136bf576136be614aa6565b5b9060005260206000200160009054906101000a900473ffffffffffffffffffffffffffffffffffffffff166121a1565b80806136fa9061536c565b915050613690565b506006600360006101000a81548160ff021916908360068111156137295761372861442c565b5b02179055507f699708c90a98fcdcc8862c08ac7a618790cf0bb5f4b50bca7487f71263bd92634260046000018360405161376593929190615b98565b60405180910390a150565b60008060009054906101000a900473ffffffffffffffffffffffffffffffffffffffff169050816000806101000a81548173ffffffffffffffffffffffffffffffffffffffff021916908373ffffffffffffffffffffffffffffffffffffffff1602179055508173ffffffffffffffffffffffffffffffffffffffff168173ffffffffffffffffffffffffffffffffffffffff167f8be0079c531659141344cd1fd0a4f28419497f9722a3daafe3b4186f6b6457e060405160405180910390a35050565b61383c614396565b600060028054905090506002600681111561385a5761385961442c565b5b600360009054906101000a900460ff16600681111561387c5761387b61442c565b5b146138bc576040517f08c379a00000000000000000000000000000000000000000000000000000000081526004016138b390614d46565b60405180910390fd5b6000600b60008773ffffffffffffffffffffffffffffffffffffffff1673ffffffffffffffffffffffffffffffffffffffff1681526020019081526020016000206000015414613941576040517f08c379a000000000000000000000000000000000000000000000000000000000815260040161393890615c29565b60405180910390fd5b600460020154841015613989576040517f08c379a000000000000000000000000000000000000000000000000000000000815260040161398090615cbb565b60405180910390fd5b60048001544211156139d0576040517f08c379a00000000000000000000000000000000000000000000000000000000081526004016139c790615d4d565b60405180910390fd5b3073ffffffffffffffffffffffffffffffffffffffff16638da5cb5b6040518163ffffffff1660e01b8152600401602060405180830381865afa158015613a1b573d6000803e3d6000fd5b505050506040513d601f19601f82011682018060405250810190613a3f9190614ca7565b73ffffffffffffffffffffffffffffffffffffffff163373ffffffffffffffffffffffffffffffffffffffff161415613a7757600080fd5b83600160009054906101000a900473ffffffffffffffffffffffffffffffffffffffff1673ffffffffffffffffffffffffffffffffffffffff1663dd62ed3e87306040518363ffffffff1660e01b8152600401613ad5929190615d6d565b602060405180830381865afa158015613af2573d6000803e3d6000fd5b505050506040513d601f19601f82011682018060405250810190613b169190614b67565b1015613b57576040517f08c379a0000000000000000000000000000000000000000000000000000000008152600401613b4e90615de2565b60405180910390fd5b600160009054906101000a900473ffffffffffffffffffffffffffffffffffffffff1673ffffffffffffffffffffffffffffffffffffffff166323b872dd8630876040518463ffffffff1660e01b8152600401613bb693929190615e02565b6020604051808303816000875af1158015613bd5573d6000803e3d6000fd5b505050506040513d601f19601f82011682018060405250810190613bf99190615683565b50838260000181815250508282602001901515908115158152505081600b60008773ffffffffffffffffffffffffffffffffffffffff1673ffffffffffffffffffffffffffffffffffffffff1681526020019081526020016000206000820151816000015560208201518160010160006101000a81548160ff0219169083151502179055506040820151816002019080519060200190613c9a9291906143c2565b5060608201518160030160006101000a81548160ff02191690831515021790555090505060005b81811015613d4657600b60008773ffffffffffffffffffffffffffffffffffffffff1673ffffffffffffffffffffffffffffffffffffffff168152602001908152602001600020600201600090806001815401808255809150506001900390600052602060002001600090919091909150558080613d3e9061536c565b915050613cc1565b50600d859080600181540180825580915050600190039060005260206000200160009091909190916101000a81548173ffffffffffffffffffffffffffffffffffffffff021916908373ffffffffffffffffffffffffffffffffffffffff1602179055507f741910c39072049db2da7fe4b366fe3a204f6a5b85722ef016efa3aaec7d15bc4286604051613ddb9291906156b0565b60405180910390a15050505050565b60036006811115613dfe57613dfd61442c565b5b600360009054906101000a900460ff166006811115613e2057613e1f61442c565b5b14613e60576040517f08c379a0000000000000000000000000000000000000000000000000000000008152600401613e57906159f2565b60405180910390fd5b60006002805490509050613e7261434f565b60005b82811015613fd557600181613e8a9190614fd6565b82600001818152505060028181548110613ea757613ea6614aa6565b5b9060005260206000209060090201600301548260200181815250506000826060019015159081151581525050600c6000828152602001908152602001600020829080600181540180825580915050600190039060005260206000209060040201600090919091909150600082015181600001556020820151816001015560408201518160020160006101000a81548173ffffffffffffffffffffffffffffffffffffffff021916908373ffffffffffffffffffffffffffffffffffffffff16021790555060608201518160020160146101000a81548160ff021916908315150217905550608082015181600301555050600160028281548110613fad57613fac614aa6565b5b9060005260206000209060090201600801819055508080613fcd9061536c565b915050613e75565b505050565b60036006811115613fee57613fed61442c565b5b600360009054906101000a900460ff1660068111156140105761400f61442c565b5b148061404f57506004600681111561402b5761402a61442c565b5b600360009054906101000a900460ff16600681111561404d5761404c61442c565b5b145b61408e576040517f08c379a0000000000000000000000000000000000000000000000000000000008152600401614085906152e0565b60405180910390fd5b6004600601544211156140d6576040517f08c379a00000000000000000000000000000000000000000000000000000000081526004016140cd90615b01565b60405180910390fd5b600060b460026001846140e99190614a72565b815481106140fa576140f9614aa6565b5b9060005260206000209060090201600401546141169190614a72565b905080421061426357607860026001846141309190614a72565b8154811061414157614140614aa6565b5b90600052602060002090600902016002015461415d9190614fd6565b600260018461416c9190614a72565b8154811061417d5761417c614aa6565b5b906000526020600020906009020160040181905550600160026001846141a39190614a72565b815481106141b4576141b3614aa6565b5b906000526020600020906009020160050160008282546141d49190614fd6565b92505081905550607860026001846141ec9190614a72565b815481106141fd576141fc614aa6565b5b9060005260206000209060090201600201546142199190614fd6565b6004600601819055507fdd7e3f4d9bd4d3b593506c23426f3d6b9db956fdb8cc306be21fd2088afefbf1428360046006015460405161425a93929190615e39565b60405180910390a15b5050565b604051806101200160405280600081526020016000815260200160008152602001600081526020016000815260200160008152602001600073ffffffffffffffffffffffffffffffffffffffff16815260200160008152602001600081525090565b8280546142d5906153e4565b90600052602060002090601f0160209004810192826142f7576000855561433e565b82601f1061431057805160ff191683800117855561433e565b8280016001018555821561433e579182015b8281111561433d578251825591602001919060010190614322565b5b50905061434b919061440f565b5090565b6040518060a001604052806000815260200160008152602001600073ffffffffffffffffffffffffffffffffffffffff168152602001600015158152602001600081525090565b604051806080016040528060008152602001600015158152602001606081526020016000151581525090565b8280548282559060005260206000209081019282156143fe579160200282015b828111156143fd5782518255916020019190600101906143e2565b5b50905061440b919061440f565b5090565b5b80821115614428576000816000905550600101614410565b5090565b7f4e487b7100000000000000000000000000000000000000000000000000000000600052602160045260246000fd5b6007811061446c5761446b61442c565b5b50565b600081905061447d8261445b565b919050565b600061448d8261446f565b9050919050565b61449d81614482565b82525050565b60006020820190506144b86000830184614494565b92915050565b6000604051905090565b600080fd5b600080fd5b6000819050919050565b6144e5816144d2565b81146144f057600080fd5b50565b600081359050614502816144dc565b92915050565b600073ffffffffffffffffffffffffffffffffffffffff82169050919050565b600061453382614508565b9050919050565b61454381614528565b811461454e57600080fd5b50565b6000813590506145608161453a565b92915050565b6000806040838503121561457d5761457c6144c8565b5b600061458b858286016144f3565b925050602061459c85828601614551565b9150509250929050565b6145af816144d2565b82525050565b60006040820190506145ca60008301856145a6565b6145d760208301846145a6565b9392505050565b60006020820190506145f360008301846145a6565b92915050565b60006020828403121561460f5761460e6144c8565b5b600061461d84828501614551565b91505092915050565b6000806040838503121561463d5761463c6144c8565b5b600061464b858286016144f3565b925050602061465c858286016144f3565b9150509250929050565b60008115159050919050565b61467b81614666565b82525050565b60006020820190506146966000830184614672565b92915050565b600080fd5b600080fd5b6000601f19601f8301169050919050565b7f4e487b7100000000000000000000000000000000000000000000000000000000600052604160045260246000fd5b6146ef826146a6565b810181811067ffffffffffffffff8211171561470e5761470d6146b7565b5b80604052505050565b60006147216144be565b905061472d82826146e6565b919050565b600067ffffffffffffffff82111561474d5761474c6146b7565b5b614756826146a6565b9050602081019050919050565b82818337600083830152505050565b600061478561478084614732565b614717565b9050828152602081018484840111156147a1576147a06146a1565b5b6147ac848285614763565b509392505050565b600082601f8301126147c9576147c861469c565b5b81356147d9848260208601614772565b91505092915050565b6000602082840312156147f8576147f76144c8565b5b600082013567ffffffffffffffff811115614816576148156144cd565b5b614822848285016147b4565b91505092915050565b61483481614666565b811461483f57600080fd5b50565b6000813590506148518161482b565b92915050565b60006020828403121561486d5761486c6144c8565b5b600061487b84828501614842565b91505092915050565b60006020828403121561489a576148996144c8565b5b60006148a8848285016144f3565b91505092915050565b6148ba81614528565b82525050565b60006060820190506148d560008301866145a6565b6148e260208301856145a6565b6148ef60408301846148b1565b949350505050565b600060208201905061490c60008301846148b1565b92915050565b600381106149235761492261442c565b5b50565b600081905061493482614912565b919050565b600061494482614926565b9050919050565b61495481614939565b82525050565b600060208201905061496f600083018461494b565b92915050565b6003811061498257600080fd5b50565b60008135905061499481614975565b92915050565b60008060008060008060c087890312156149b7576149b66144c8565b5b600087013567ffffffffffffffff8111156149d5576149d46144cd565b5b6149e189828a016147b4565b96505060206149f289828a01614985565b9550506040614a0389828a016144f3565b9450506060614a1489828a016144f3565b9350506080614a2589828a016144f3565b92505060a0614a3689828a016144f3565b9150509295509295509295565b7f4e487b7100000000000000000000000000000000000000000000000000000000600052601160045260246000fd5b6000614a7d826144d2565b9150614a88836144d2565b925082821015614a9b57614a9a614a43565b5b828203905092915050565b7f4e487b7100000000000000000000000000000000000000000000000000000000600052603260045260246000fd5b600082825260208201905092915050565b7f4f776e61626c653a2063616c6c6572206973206e6f7420746865206f776e6572600082015250565b6000614b1c602083614ad5565b9150614b2782614ae6565b602082019050919050565b60006020820190508181036000830152614b4b81614b0f565b9050919050565b600081519050614b61816144dc565b92915050565b600060208284031215614b7d57614b7c6144c8565b5b6000614b8b84828501614b52565b91505092915050565b7f5468657265206d757374206265206174206c65617374206f6e65206c6f74206460008201527f6566696e65642e00000000000000000000000000000000000000000000000000602082015250565b6000614bf0602783614ad5565b9150614bfb82614b94565b604082019050919050565b60006020820190508181036000830152614c1f81614be3565b9050919050565b7f426964646572206e6f7420636f6e6669726d6564000000000000000000000000600082015250565b6000614c5c601483614ad5565b9150614c6782614c26565b602082019050919050565b60006020820190508181036000830152614c8b81614c4f565b9050919050565b600081519050614ca18161453a565b92915050565b600060208284031215614cbd57614cbc6144c8565b5b6000614ccb84828501614c92565b91505092915050565b7f4d757374206265206174206c65617374206f6e65206c6f7420646566696e656460008201527f2e00000000000000000000000000000000000000000000000000000000000000602082015250565b6000614d30602183614ad5565b9150614d3b82614cd4565b604082019050919050565b60006020820190508181036000830152614d5f81614d23565b9050919050565b7f43616e6e6f742062652063616c6c656420627920636f6e7472616374206f776e60008201527f6572000000000000000000000000000000000000000000000000000000000000602082015250565b6000614dc2602283614ad5565b9150614dcd82614d66565b604082019050919050565b60006020820190508181036000830152614df181614db5565b9050919050565b7f5472616e636865204d5553542062652067726561746572207468616e207a657260008201527f6f2e000000000000000000000000000000000000000000000000000000000000602082015250565b6000614e54602283614ad5565b9150614e5f82614df8565b604082019050919050565b60006020820190508181036000830152614e8381614e47565b9050919050565b7f4d5553542062652067726561746572207468616e206c6f74206261736520766160008201527f6c75652e00000000000000000000000000000000000000000000000000000000602082015250565b6000614ee6602483614ad5565b9150614ef182614e8a565b604082019050919050565b60006020820190508181036000830152614f1581614ed9565b9050919050565b7f4e487b7100000000000000000000000000000000000000000000000000000000600052601260045260246000fd5b6000614f56826144d2565b9150614f61836144d2565b925082614f7157614f70614f1c565b5b828204905092915050565b6000614f87826144d2565b9150614f92836144d2565b9250817fffffffffffffffffffffffffffffffffffffffffffffffffffffffffffffffff0483118215151615614fcb57614fca614a43565b5b828202905092915050565b6000614fe1826144d2565b9150614fec836144d2565b9250827fffffffffffffffffffffffffffffffffffffffffffffffffffffffffffffffff0382111561502157615020614a43565b5b828201905092915050565b7f4e4f5420696e697469616c697a65640000000000000000000000000000000000600082015250565b6000615062600f83614ad5565b915061506d8261502c565b602082019050919050565b6000602082019050818103600083015261509181615055565b9050919050565b7f4f6e6c7920616c6c6f7773206f6e65206c6f7400000000000000000000000000600082015250565b60006150ce601383614ad5565b91506150d982615098565b602082019050919050565b600060208201905081810360008301526150fd816150c1565b9050919050565b7f43616e74277420616464206c6f74730000000000000000000000000000000000600082015250565b600061513a600f83614ad5565b915061514582615104565b602082019050919050565b600060208201905081810360008301526151698161512d565b9050919050565b7f416c726561647920696e697469616c697a656400000000000000000000000000600082015250565b60006151a6601383614ad5565b91506151b182615170565b602082019050919050565b600060208201905081810360008301526151d581615199565b9050919050565b7f4f776e61626c653a206e6577206f776e657220697320746865207a65726f206160008201527f6464726573730000000000000000000000000000000000000000000000000000602082015250565b6000615238602683614ad5565b9150615243826151dc565b604082019050919050565b600060208201905081810360008301526152678161522b565b9050919050565b7f4d55535420626520696e2053544152544544206f7220455854454e444544207360008201527f7461746500000000000000000000000000000000000000000000000000000000602082015250565b60006152ca602483614ad5565b91506152d58261526e565b604082019050919050565b600060208201905081810360008301526152f9816152bd565b9050919050565b7f456e642064617465207374696c6c206e6f742072656168636564000000000000600082015250565b6000615336601a83614ad5565b915061534182615300565b602082019050919050565b6000602082019050818103600083015261536581615329565b9050919050565b6000615377826144d2565b91507fffffffffffffffffffffffffffffffffffffffffffffffffffffffffffffffff8214156153aa576153a9614a43565b5b600182019050919050565b7f4e487b7100000000000000000000000000000000000000000000000000000000600052602260045260246000fd5b600060028204905060018216806153fc57607f821691505b602082108114156154105761540f6153b5565b5b50919050565b60008190508160005260206000209050919050565b60008154615438816153e4565b6154428186614ad5565b9450600182166000811461545d576001811461546f576154a2565b60ff19831686526020860193506154a2565b61547885615416565b60005b8381101561549a5781548189015260018201915060208101905061547b565b808801955050505b50505092915050565b60006040820190506154c060008301856145a6565b81810360208301526154d2818461542b565b90509392505050565b7f4d55535420626520696e20454e444544206f722043414e43454c45442073746160008201527f7465000000000000000000000000000000000000000000000000000000000000602082015250565b6000615537602283614ad5565b9150615542826154db565b604082019050919050565b600060208201905081810360008301526155668161552a565b9050919050565b7f426964646572204e4f5420636f6e6669726d6564000000000000000000000000600082015250565b60006155a3601483614ad5565b91506155ae8261556d565b602082019050919050565b600060208201905081810360008301526155d281615596565b9050919050565b7f4e6f20666f756e64730000000000000000000000000000000000000000000000600082015250565b600061560f600983614ad5565b915061561a826155d9565b602082019050919050565b6000602082019050818103600083015261563e81615602565b9050919050565b600060408201905061565a60008301856148b1565b61566760208301846145a6565b9392505050565b60008151905061567d8161482b565b92915050565b600060208284031215615699576156986144c8565b5b60006156a78482850161566e565b91505092915050565b60006040820190506156c560008301856145a6565b6156d260208301846148b1565b9392505050565b7f41637475616c2074696d65206f75747369646520626f756e6461726965730000600082015250565b600061570f601e83614ad5565b915061571a826156d9565b602082019050919050565b6000602082019050818103600083015261573e81615702565b9050919050565b7f456e642064617465207265616368656400000000000000000000000000000000600082015250565b600061577b601083614ad5565b915061578682615745565b602082019050919050565b600060208201905081810360008301526157aa8161576e565b9050919050565b7f5472616e63686520616c726561647920636f6e6669726d65642e000000000000600082015250565b60006157e7601a83614ad5565b91506157f2826157b1565b602082019050919050565b60006020820190508181036000830152615816816157da565b9050919050565b7f4d55535420626520612076616c69642062696464657200000000000000000000600082015250565b6000615853601683614ad5565b915061585e8261581d565b602082019050919050565b6000602082019050818103600083015261588281615846565b9050919050565b7f42696464657220616c7265616479207075736865640000000000000000000000600082015250565b60006158bf601583614ad5565b91506158ca82615889565b602082019050919050565b600060208201905081810360008301526158ee816158b2565b9050919050565b7f496e76616c6964207472616e6368650000000000000000000000000000000000600082015250565b600061592b600f83614ad5565b9150615936826158f5565b602082019050919050565b6000602082019050818103600083015261595a8161591e565b9050919050565b600060808201905061597660008301876145a6565b61598360208301866145a6565b61599060408301856145a6565b61599d60608301846148b1565b95945050505050565b7f4d55535420626520696e20535441525445442073746174650000000000000000600082015250565b60006159dc601883614ad5565b91506159e7826159a6565b602082019050919050565b60006020820190508181036000830152615a0b816159cf565b9050919050565b6000606082019050615a2760008301866145a6565b615a3460208301856148b1565b615a4160408301846145a6565b949350505050565b7f41756374696f6e20616c72656164792063616e63656c65642e00000000000000600082015250565b6000615a7f601983614ad5565b9150615a8a82615a49565b602082019050919050565b60006020820190508181036000830152615aae81615a72565b9050919050565b7f41756374696f6e20656e64206461746520726561636865640000000000000000600082015250565b6000615aeb601883614ad5565b9150615af682615ab5565b602082019050919050565b60006020820190508181036000830152615b1a81615ade565b9050919050565b600081519050919050565b60005b83811015615b4a578082015181840152602081019050615b2f565b83811115615b59576000848401525b50505050565b6000615b6a82615b21565b615b748185614ad5565b9350615b84818560208601615b2c565b615b8d816146a6565b840191505092915050565b6000606082019050615bad60008301866145a6565b8181036020830152615bbf818561542b565b90508181036040830152615bd38184615b5f565b9050949350505050565b7f42696464657220616c726561647920636f6e6669726d65640000000000000000600082015250565b6000615c13601883614ad5565b9150615c1e82615bdd565b602082019050919050565b60006020820190508181036000830152615c4281615c06565b9050919050565b7f4d555354206265203e3d207468652067756172616e746565206465706f73697460008201527f2e00000000000000000000000000000000000000000000000000000000000000602082015250565b6000615ca5602183614ad5565b9150615cb082615c49565b604082019050919050565b60006020820190508181036000830152615cd481615c98565b9050919050565b7f42696464657220726567697374726174696f6e2077696e646f7720657870697260008201527f65642e0000000000000000000000000000000000000000000000000000000000602082015250565b6000615d37602383614ad5565b9150615d4282615cdb565b604082019050919050565b60006020820190508181036000830152615d6681615d2a565b9050919050565b6000604082019050615d8260008301856148b1565b615d8f60208301846148b1565b9392505050565b7f436865636b2062696464657220616c6c6f77616e636500000000000000000000600082015250565b6000615dcc601683614ad5565b9150615dd782615d96565b602082019050919050565b60006020820190508181036000830152615dfb81615dbf565b9050919050565b6000606082019050615e1760008301866148b1565b615e2460208301856148b1565b615e3160408301846145a6565b949350505050565b6000606082019050615e4e60008301866145a6565b615e5b60208301856145a6565b615e6860408301846145a6565b94935050505056fea264697066735822122016b1032a979279cb860536b58a7f89d04b6d63d904db9d36b9f60bcc6c139ac764736f6c634300080a0033",
  "immutableReferences": {},
  "source": "// SPDX-License-Identifier: MIT\npragma solidity >=0.4.22 <0.9.0;\n\nimport \"@openzeppelin/contracts/access/Ownable.sol\";\nimport \"@openzeppelin/contracts/token/ERC20/IERC20.sol\";\n\n/***\n * This contract implementas public auctions at Supreme Court in Buenos Aires Province @ Argetina.\n * The auction process has an hybrid architecture, where the auction data and administrative flow is centralizad in a \n * traditional web application, and the push process and winner definition happens in the blockchain.\n * \n * Author: Lic. Gustavo Perez Villar @ Buenos Aires - Argentina\n */\n\ncontract AuctionsSCBA is Ownable {\n    \n    // Events\n\n    event evt_bidderInscription(uint timeStamp, address _bidder);\n    event evt_AuctionInit();\n    event evt_LotInit();\n    event evt_auctionStart(uint timeStamp, string auctionID);\n    event evt_auctionCanceled(uint timeStamp, string auctionID, string cause);\n    event evt_maximunSecretBidBeaten(uint timeStamp, address beatenBidder, uint lotid);\n    event evt_bidConfirmed(uint timeStamp, uint lotId, uint trancheId, address _bidder);\n    event evt_auctionLotExtended(uint timeStamp, uint lotId, uint newEndDate);\n    event evt_auctionClosed(uint timeStamp, string auctionID);\n    event evt_lotWinner(uint timeStamp, uint lotId, address bidderId);\n    event evt_bidderEnabledToWithDraw(uint timeStamp, address bidderId);\n\n    // Custom data types\n\n    enum AuctionClass {REAL_STATE,MOBILE,MOBILE_REGISTER}\n    enum AuctionState {NO_INIT,INIT,LOT,STARTED,EXTENDED,ENDED,CANCELED}\n    struct AuctionLot {\n        uint lotId_;\n        uint startDate_;\n        uint endDate_;\n        uint baseValue_;\n        uint extendedEndDate_;\n        uint extensionsCount_;\n        address winner_;\n        uint lastTrancheId_;\n        uint actualTrancheId_;\n    }\n    struct Auction {\n        string auctionCode_;\n        AuctionClass auctionClass_;\n        uint guaranteeDeposit_;\n        uint totalAuctionLots_;\n        uint startDate_;\n        uint endDate_;\n        uint extendedEndDate_;\n    }\n    struct Bidder {\n        uint guaranteeDeposit_; // Deposited amount in wei for confirm auction inscription\n        bool preserveLastBid_;  // If he wants to preserve his last bid in case the winner doesn't confirm the buy. \n                                // if preserve bid is true, the bidder cannot withdraw founds after auction ending.\n        uint[] lotSecretBid_;   // Secrets bid per lot. lotSecretBid_[lotId-1] = secretBid. Secret Bid is expressed as trancheid.\n        bool lotWinner_;         // True if the bidder has win one or more lots. Used for wnebale withdraw founds.\n    }\n    struct AuctionTranches {\n        uint trancheId_;\n        uint trancheValue_;\n        address trancheBidder_;\n        bool trancheConfirmed_;\n        uint trancheBidTimestamp_;\n    }\n\n    // State Variables\n    IERC20 private _token;\n    AuctionLot[] private _auctionLots; // Auction lots array - Index starts in 0 - (_lotId -1)\n    AuctionState private _auctionState; // Actual auction state\n    Auction private _auctionObject; // Instance of auction data\n    mapping (address => Bidder) private _validBidders; // Valid registered bidders\n    mapping (uint => AuctionTranches[]) private _tranchesPerLot; // Index starts in 0 - ( _lotId -1 )\n    address[] private _bidderList;\n    mapping (address => mapping(uint => bool)) _bidderLotMSBBeaten; // True if bidder's maximun secret bed has bean beaten for a particular lot\n\n   // Constructor\n\n    constructor ( IERC20 _jusToken) {\n        // State variables initialization\n        _auctionState = AuctionState.NO_INIT;\n        _token = _jusToken;\n    }\n \n    // External Functions\n\n    function auctionInit(\n        string memory __auctionCode,\n        AuctionClass __auctionClass, \n        uint __guaranteeDeposit, \n        uint __totalAuctionLots,\n        uint __startDate,\n        uint __endDate \n    ) external onlyOwner  {\n        require(_auctionState  == AuctionState.NO_INIT, \"Already initialized\");\n        //require(block.timestamp < __startDate && (__startDate + 10 days) <= __endDate,\"Invalid dates\");\n        _auctionState = AuctionState.INIT;\n        _auctionObject.auctionCode_ = __auctionCode;\n        _auctionObject.auctionClass_ = __auctionClass;\n        _auctionObject.guaranteeDeposit_ = __guaranteeDeposit;\n        _auctionObject.totalAuctionLots_ = __totalAuctionLots;\n        _auctionObject.startDate_ = __startDate;\n        _auctionObject.endDate_ = __endDate;\n        _auctionObject.extendedEndDate_ = __endDate;\n        emit evt_AuctionInit();\n    }\n\n    function auctionAddLot(uint __baseValue) external onlyOwner {\n        require(_auctionState == AuctionState.INIT || _auctionState == AuctionState.LOT ,\"NOT initialized\");\n        // Can't add more tha one lot if the auction class is Realstate\n        if (_auctionObject.auctionClass_ == AuctionClass.REAL_STATE && _auctionLots.length == 1) { revert(\"Only allows one lot\"); }\n        if (_auctionLots.length > _auctionObject.totalAuctionLots_) { revert(\"Cant't add lots\"); }\n        AuctionLot memory tmpLot;\n        _auctionState = AuctionState.LOT;\n        tmpLot.lotId_ = _auctionLots.length + 1;  //Start at lot 1\n        tmpLot.extensionsCount_ = 0;\n        tmpLot.startDate_ = _auctionObject.startDate_;\n        tmpLot.endDate_ = _auctionObject.endDate_;\n        tmpLot.extendedEndDate_ = _auctionObject.endDate_;\n        tmpLot.baseValue_ = __baseValue;\n        tmpLot.lastTrancheId_ = 0;\n        _auctionLots.push(tmpLot); // Add lot to lot array\n        emit evt_LotInit();\n    }  \n\n    function confirmBidderInscription(bool _preserveGuranteeDeposit) external  {\n        _confirmBidderInscription(msg.sender, _auctionObject.guaranteeDeposit_, _preserveGuranteeDeposit);\n    }\n\n    function auctionStart() external onlyOwner {\n        _setAuctionStart();\n    }\n\n    function auctionClose() external onlyOwner {\n        _auctionClose();\n    }\n\n   function auctionCancel(string memory _cause) external onlyOwner {\n        _auctionCancelation(_cause);\n    }\n\n    function enableWithDraw( address _bidderAddress) external onlyOwner {\n        _enableWithDraw(_bidderAddress);\n    }\n\n    // Public Functions\n\n    function getAuctionState() public view returns (AuctionState) {\n        return _auctionState;\n    }\n    \n    // Get contract address blance (sum of all guarantee deposits for each confirmed bidder)\n    function getAuctionBalance() public view returns (uint) {\n        return _token.balanceOf(address(this));\n    } \n    \n    function getConfirmedBiddders() public view returns (uint){\n        return _bidderList.length;\n    }\n\n    function isBidderConfirmed(address _queryBidder) public view returns(bool) {   \n        return (_validBidders[_queryBidder].guaranteeDeposit_ > 0);\n    }\n\n    function getAuctionStartDate() public view returns(uint) {     \n        return _auctionObject.startDate_;\n    }\n\n    function getAuctionEndtDate() public view returns(uint) {     \n        return _auctionObject.extendedEndDate_;\n    }\n\n    function getAuctionClass() public view returns(AuctionClass) {     \n        return _auctionObject.auctionClass_;\n    }\n\n    function getActualTranche(uint _lotId) public view returns (uint,uint) {\n        uint retTrancheId_;\n        uint retValue_;\n        retTrancheId_ = _auctionLots[_lotId-1].actualTrancheId_;\n        if (retTrancheId_ > 0 ) {\n            retValue_ = _tranchesPerLot[_lotId-1][retTrancheId_-1].trancheValue_;\n        } else {\n            retValue_ = _tranchesPerLot[_lotId-1][0].trancheValue_;\n        }\n        return (retTrancheId_, retValue_);\n    }\n\n    function getLastTranche(uint _lotId) public view returns (uint,uint,address) {\n        uint retTrancheId_;\n        uint retValue_;\n        address retBidder_;\n        retTrancheId_ = _auctionLots[_lotId-1].lastTrancheId_;\n        if (retTrancheId_ > 0) {\n            retValue_ = _tranchesPerLot[_lotId-1][retTrancheId_-1].trancheValue_;\n        } else {\n            retValue_ = _tranchesPerLot[_lotId-1][0].trancheValue_;\n        }\n        retBidder_ = _tranchesPerLot[_lotId-1][retTrancheId_-1].trancheBidder_;\n        \n        return (retTrancheId_, retValue_, retBidder_);\n    }\n\n    function getBidderMaximunSecretBid(uint _lotId, address _bidder) public view returns (uint,uint) {\n        uint _retTranche = _validBidders[_bidder].lotSecretBid_[_lotId-1];\n        uint _retAmount = _getLotTrancheValue(_lotId,_retTranche);\n        return (_retTranche, _retAmount);\n    }\n        \n    function getLotQuantity() public view returns (uint) {\n        return _auctionLots.length;\n    }\n\n    function getLotBaseValue(uint _lotId) public view returns (uint) {\n        return _auctionLots[_lotId-1].baseValue_;\n    }\n\n    function getLotTrancheValue(uint _lotId, uint _trancheId) public view returns (uint) {\n        \n        return _getLotTrancheValue(_lotId,_trancheId);\n    }\n    \n    function getLotEndDate(uint _lotId) public view returns (uint) {\n        \n        return _auctionLots[_lotId-1].extendedEndDate_;\n    }\n    function getLotExtensionCount(uint _lotId) public view returns (uint) {\n        \n        return _auctionLots[_lotId-1].extensionsCount_;\n    }\n\n    function bidderSetPreservelastBid(bool _value) public {\n        require(_auctionState == AuctionState.LOT,\"There must be at least one lot defined.\"); \n        require(_validBidders[msg.sender].guaranteeDeposit_ > 0,\"Bidder not confirmed\"); \n        require((msg.sender != this.owner()));\n        \n        _validBidders[msg.sender].preserveLastBid_ = _value;\n\n    }\n\n    function bidderSetMaximunSecretBidAmount(uint _lotId, uint _value) public {\n        require(_auctionState == AuctionState.LOT,\"There must be at least one lot defined.\"); \n        require(_validBidders[msg.sender].guaranteeDeposit_ > 0,\"Bidder not confirmed\"); \n        require((msg.sender != this.owner()),\"Cannot be called by contract owner\");\n        require(_value > _auctionLots[_lotId-1].baseValue_,\"MUST be greater than lot base value.\"); \n        uint _msbTranche;\n        uint _fivePercent;\n        \n        _fivePercent = ((_auctionLots[_lotId-1].baseValue_ / 100) * 5);\n        _msbTranche = ((_value - _auctionLots[_lotId-1].baseValue_) / _fivePercent) + 1;\n        _validBidders[msg.sender].lotSecretBid_[_lotId-1] = _msbTranche-1; // -1 for approaching lower tranche.\n        \n    }\n    function bidderSetMaximunSecretBidTranche(uint _lotId, uint _value) public {\n        require(_auctionState == AuctionState.LOT,\"Must be at least one lot defined.\"); \n        require(_validBidders[msg.sender].guaranteeDeposit_ > 0,\"Bidder not confirmed\"); \n        require((msg.sender != this.owner()),\"Cannot be called by contract owner\");\n        require(_value >= 1 ,\"Tranche MUST be greater than zero.\"); \n        \n        _validBidders[msg.sender].lotSecretBid_[_lotId-1] = _value;\n    }\n\n    function bid(uint _lotId, uint _trancheId) public {\n        _bid(msg.sender, _lotId, _trancheId);\n        _secretBidPush();\n    } \n\n    // Internal Functions\n\n    function _getLotTrancheValue(uint _lotId, uint _trancheId) internal view returns (uint) {\n        uint _baseValue = _auctionLots[_lotId-1].baseValue_;\n        uint _factor = _trancheId * 5;\n\n        return _baseValue + ((_baseValue * _factor) / 100);\n    }\n\n    function _confirmBidderInscription(address _bidderAddress, uint _depositAmount, bool _preserveGuaranteeDeposit) internal  {\n        Bidder memory _tmpBidder;\n        uint _LotsLength = _auctionLots.length;\n        require(_auctionState == AuctionState.LOT,\"Must be at least one lot defined.\"); \n        require(_validBidders[_bidderAddress].guaranteeDeposit_ == 0,\"Bidder already confirmed\"); \n        require(_depositAmount >= _auctionObject.guaranteeDeposit_,\"MUST be >= the guarantee deposit.\");\n        require (block.timestamp <= _auctionObject.startDate_,\"Bidder registration window expired.\");\n        require((msg.sender != this.owner()));\n        require(_token.allowance(_bidderAddress, address(this)) >= _depositAmount,\"Check bidder allowance\");\n\n        _token.transferFrom(_bidderAddress, address(this),_depositAmount);\n        _tmpBidder.guaranteeDeposit_ = _depositAmount;\n        _tmpBidder.preserveLastBid_ = _preserveGuaranteeDeposit;\n        // initialize Maximun Secret Bid array\n        _validBidders[_bidderAddress] = _tmpBidder;\n        for (uint i=0; i<_LotsLength; i++) {\n            _validBidders[_bidderAddress].lotSecretBid_.push(0);\n        }\n        _bidderList.push(_bidderAddress);\n\n        emit evt_bidderInscription(block.timestamp, _bidderAddress);\n    }\n\n    function _setAuctionStart() internal  {\n        require(_auctionState == AuctionState.LOT,\"Must be at least one lot defined.\"); \n        require((block.timestamp + 5 seconds) >= _auctionObject.startDate_ && block.timestamp <= _auctionObject.endDate_,\"Actual time outside boundaries\");\n        \n        if (_bidderList.length == 0) {\n             _auctionCancelation(\"No bidders at start\");\n        } else {\n            _auctionState = AuctionState.STARTED;\n            _initTranches();\n            _secretBidPush();\n\n            emit evt_auctionStart(block.timestamp, _auctionObject.auctionCode_);        }\n    }\n    \n    function _auctionCancelation(string memory _cause) internal {\n        require(_auctionState != AuctionState.CANCELED,\"Auction already canceled.\"); \n        require(block.timestamp <= _auctionObject.extendedEndDate_,\"Auction end date reached\");\n        \n        for (uint i=0; i<=_bidderList.length-1;i++) {\n            _enableWithDraw(_bidderList[i]);\n        }\n        _auctionState = AuctionState.CANCELED;\n        emit evt_auctionCanceled(block.timestamp, _auctionObject.auctionCode_, _cause);\n    }\n\n    function _initTranches() internal {\n        require(_auctionState == AuctionState.STARTED,\"MUST be in STARTED state\");\n        uint _LotsLength = _auctionLots.length;\n        AuctionTranches memory _tmpTranche;\n\n        for (uint i=0; i<_LotsLength; i++) {\n            _tmpTranche.trancheId_ = i+1;\n            _tmpTranche.trancheValue_ = _auctionLots[i].baseValue_;\n            _tmpTranche.trancheConfirmed_ = false;\n            _tranchesPerLot[i].push(_tmpTranche);\n            _auctionLots[i].actualTrancheId_ = 1; \n        }\n    }\n\n    /*\n    This function iterates over each bidder for every lot pushing using the Maximun Secret Bid commited before\n    auction start. The push order is related to the inscription order and the loops ends when no maximun secret bid\n    can beat the last valid automatic bid pushed.\n    */\n    function _secretBidPush() internal  {\n        require(_auctionState == AuctionState.STARTED || _auctionState == AuctionState.EXTENDED,\"MUST be in STARTED state\");\n        require(block.timestamp <= _auctionObject.extendedEndDate_,\"End date reached\");\n        bool _doBid = true;        \n        while (_doBid == true) {\n            _doBid = false;\n            for (uint x=0;x<=_auctionLots.length-1;x++) {\n                for (uint i=0; i<=_bidderList.length-1;i++) {\n                    // if the current iteration bidder has a maximun secret bid greater than auction current tranche and the bidder \n                    // is not the winner of te past tranch, the system pushes a bid in his name.\n                    if (_validBidders[_bidderList[i]].lotSecretBid_[x] > 0 && _validBidders[_bidderList[i]].lotSecretBid_[x] >= _auctionLots[x].actualTrancheId_) {\n                        if (_auctionLots[x].lastTrancheId_ == 0) {\n                            _bid(_bidderList[i], x+1, 1);\n                            _doBid = true;\n                            break;\n                        } else {\n                            if ( _tranchesPerLot[x][_auctionLots[x].lastTrancheId_ -1].trancheBidder_ != _bidderList[i] ) {\n                                _bid(_bidderList[i], x+1, _auctionLots[x].actualTrancheId_);\n                                _doBid=true;\n                                break;\n                            }\n                        }\n                    } else {\n                        if (_validBidders[_bidderList[i]].lotSecretBid_[x] < _auctionLots[x].actualTrancheId_ &&\n                            _bidderLotMSBBeaten[_bidderList[i]][x] == false) {\n                            //Bidder's maximun secret bid has been beaten                            \n                            _bidderLotMSBBeaten[_bidderList[i]][x] = true;\n                            emit evt_maximunSecretBidBeaten(block.timestamp, _bidderList[i], x+1);\n                        }\n                    }\n                }\n            }\n        }\n    }\n\n    function _bid(address _bidder, uint _lotId, uint _bidTranche) internal {\n        require(_auctionState == AuctionState.STARTED || _auctionState == AuctionState.EXTENDED ,\"MUST be in STARTED or EXTENDED state\");\n        require(block.timestamp <= _auctionObject.extendedEndDate_,\"End date reached\");\n        require(_tranchesPerLot[_lotId-1][_bidTranche-1].trancheConfirmed_ == false, \"Tranche already confirmed.\");        \n        require(_validBidders[_bidder].guaranteeDeposit_ > 0, \"MUST be a valid bidder\");\n        if (_auctionLots[_lotId-1].lastTrancheId_ > 0) {\n            require(_tranchesPerLot[_lotId-1][_auctionLots[_lotId-1].lastTrancheId_-1].trancheBidder_ != _bidder, \"Bidder already pushed\");\n        }\n        require(_bidTranche == _auctionLots[_lotId-1].actualTrancheId_,\"Invalid tranche\");\n        AuctionTranches memory _tmpTranche;\n        \n        // updates lot info\n        _auctionLots[_lotId-1].lastTrancheId_ += 1;\n        _auctionLots[_lotId-1].actualTrancheId_ += 1;\n\n        \n        // updates tranche info\n        _tranchesPerLot[_lotId-1][_bidTranche-1].trancheBidder_ = _bidder;\n        _tranchesPerLot[_lotId-1][_bidTranche-1].trancheConfirmed_ = true;\n        _tranchesPerLot[_lotId-1][_bidTranche-1].trancheBidTimestamp_ = block.timestamp;\n\n        // Init next tranche\n        _tmpTranche.trancheId_ = _auctionLots[_lotId-1].actualTrancheId_;\n        _tmpTranche.trancheValue_ = _getLotTrancheValue(_lotId,_auctionLots[_lotId-1].actualTrancheId_);\n        _tmpTranche.trancheConfirmed_ = false;\n        _tranchesPerLot[_lotId-1].push(_tmpTranche);\n\n        // check extension period\n        _extendAuction(_lotId);\n\n        // generates events\n        emit evt_bidConfirmed(block.timestamp, _lotId, _bidTranche, _bidder);\n        \n    }\n\n    function _extendAuction(uint _lotId) internal {\n        require(_auctionState == AuctionState.STARTED || _auctionState == AuctionState.EXTENDED ,\"MUST be in STARTED or EXTENDED state\");\n        require(block.timestamp <= _auctionObject.extendedEndDate_,\"Auction end date reached\");\n        uint extensionPeriod = (_auctionLots[_lotId-1].extendedEndDate_ - 3 minutes);\n\n        // the current bid should be in the last 3 minutes near the end to extend the auction.\n        if (block.timestamp >= extensionPeriod) {\n            _auctionLots[_lotId-1].extendedEndDate_ = ( _auctionLots[_lotId-1].endDate_ + 2 minutes);\n            _auctionLots[_lotId-1].extensionsCount_ += 1;\n            _auctionObject.extendedEndDate_ = ( _auctionLots[_lotId-1].endDate_ + 2 minutes);\n            emit evt_auctionLotExtended(block.timestamp, _lotId, _auctionObject.extendedEndDate_);\n        }\n    } \n    \n    function _auctionClose() internal {\n        require(_auctionState == AuctionState.STARTED || _auctionState == AuctionState.EXTENDED ,\"MUST be in STARTED or EXTENDED state\");\n        require(block.timestamp >= _auctionObject.extendedEndDate_,\"End date still not reahced\");\n\n        // Set the winner for each tranche and enable withdraw\n        for (uint i=0;i<=_auctionLots.length-1;i++) {\n            _auctionLots[i].winner_ =_tranchesPerLot[i][_auctionLots[i].lastTrancheId_ -1].trancheBidder_;\n            _validBidders[_auctionLots[i].winner_].lotWinner_ = true;\n            emit evt_lotWinner(block.timestamp, i+1,_auctionLots[i].winner_);\n        }\n        // Change auction state to CLOSED\n        _auctionState = AuctionState.ENDED;\n        // Enable bidders to withdraw JUSTokens\n        for (uint i=0; i<=_bidderList.length-1;i++) {\n            if ( _validBidders[_bidderList[i]].preserveLastBid_ == false && _validBidders[_bidderList[i]].lotWinner_ == false) {                \n                _enableWithDraw(_bidderList[i]);\n            }\n        }\n        // Emit close event\n        emit evt_auctionClosed(block.timestamp, _auctionObject.auctionCode_);        \n    }\n    \n    function _enableWithDraw( address _bidderAddress) internal {\n        require(_auctionState == AuctionState.CANCELED || _auctionState == AuctionState.ENDED ,\"MUST be in ENDED or CANCELED state\");\n        require(_validBidders[_bidderAddress].guaranteeDeposit_ > 0, \"Bidder NOT confirmed\");  \n        require(_token.balanceOf(address(this)) >= _validBidders[_bidderAddress].guaranteeDeposit_,\"No founds\");\n\n        _token.approve(_bidderAddress,_auctionObject.guaranteeDeposit_);\n        _validBidders[_bidderAddress].guaranteeDeposit_ = 0;\n        emit evt_bidderEnabledToWithDraw(block.timestamp, _bidderAddress);\n    }\n\n}\n",
  "sourcePath": "/home/gperez/proyectos/scba-auction-ethereum/contracts/AuctionsSCBA.sol",
  "compiler": {
    "name": "solc",
    "version": "0.8.10+commit.fc410830.Emscripten.clang"
  },
  "schemaVersion": "3.4.4",
  "updatedAt": "2022-01-04T13:01:42.886Z",
  "devdoc": {
    "kind": "dev",
    "methods": {
      "owner()": {
        "details": "Returns the address of the current owner."
      },
      "renounceOwnership()": {
        "details": "Leaves the contract without owner. It will not be possible to call `onlyOwner` functions anymore. Can only be called by the current owner. NOTE: Renouncing ownership will leave the contract without an owner, thereby removing any functionality that is only available to the owner."
      },
      "transferOwnership(address)": {
        "details": "Transfers ownership of the contract to a new account (`newOwner`). Can only be called by the current owner."
      }
    },
    "version": 1
  },
  "userdoc": {
    "kind": "user",
    "methods": {},
    "version": 1
  }
}