{
  "contractName": "AuctionsSCBA",
  "abi": [
    {
      "inputs": [
        {
          "internalType": "contract IERC20",
          "name": "_jusToken",
          "type": "address"
        }
      ],
      "stateMutability": "nonpayable",
      "type": "constructor"
    },
    {
      "anonymous": false,
      "inputs": [
        {
          "indexed": true,
          "internalType": "address",
          "name": "previousOwner",
          "type": "address"
        },
        {
          "indexed": true,
          "internalType": "address",
          "name": "newOwner",
          "type": "address"
        }
      ],
      "name": "OwnershipTransferred",
      "type": "event"
    },
    {
      "anonymous": false,
      "inputs": [
        {
          "indexed": false,
          "internalType": "uint256",
          "name": "timeStamp",
          "type": "uint256"
        },
        {
          "indexed": false,
          "internalType": "string",
          "name": "auctionID",
          "type": "string"
        },
        {
          "indexed": false,
          "internalType": "string",
          "name": "cause",
          "type": "string"
        }
      ],
      "name": "evt_auctionCanceled",
      "type": "event"
    },
    {
      "anonymous": false,
      "inputs": [
        {
          "indexed": false,
          "internalType": "uint256",
          "name": "timeStamp",
          "type": "uint256"
        },
        {
          "indexed": false,
          "internalType": "string",
          "name": "auctionID",
          "type": "string"
        }
      ],
      "name": "evt_auctionClosed",
      "type": "event"
    },
    {
      "anonymous": false,
      "inputs": [
        {
          "indexed": false,
          "internalType": "uint256",
          "name": "timeStamp",
          "type": "uint256"
        },
        {
          "indexed": false,
          "internalType": "uint256",
          "name": "lotId",
          "type": "uint256"
        },
        {
          "indexed": false,
          "internalType": "uint256",
          "name": "newEndDate",
          "type": "uint256"
        }
      ],
      "name": "evt_auctionLotExtended",
      "type": "event"
    },
    {
      "anonymous": false,
      "inputs": [
        {
          "indexed": false,
          "internalType": "uint256",
          "name": "timeStamp",
          "type": "uint256"
        },
        {
          "indexed": false,
          "internalType": "string",
          "name": "auctionID",
          "type": "string"
        }
      ],
      "name": "evt_auctionStart",
      "type": "event"
    },
    {
      "anonymous": false,
      "inputs": [
        {
          "indexed": false,
          "internalType": "uint256",
          "name": "timeStamp",
          "type": "uint256"
        },
        {
          "indexed": false,
          "internalType": "uint256",
          "name": "lotId",
          "type": "uint256"
        },
        {
          "indexed": false,
          "internalType": "uint256",
          "name": "trancheId",
          "type": "uint256"
        },
        {
          "indexed": false,
          "internalType": "address",
          "name": "_bidder",
          "type": "address"
        }
      ],
      "name": "evt_bidConfirmed",
      "type": "event"
    },
    {
      "anonymous": false,
      "inputs": [
        {
          "indexed": true,
          "internalType": "address",
          "name": "sender",
          "type": "address"
        },
        {
          "indexed": false,
          "internalType": "string",
          "name": "message",
          "type": "string"
        }
      ],
      "name": "evt_bidderConfirmedInscription",
      "type": "event"
    },
    {
      "anonymous": false,
      "inputs": [
        {
          "indexed": false,
          "internalType": "uint256",
          "name": "timeStamp",
          "type": "uint256"
        },
        {
          "indexed": false,
          "internalType": "address",
          "name": "bidderId",
          "type": "address"
        }
      ],
      "name": "evt_bidderEnabledToWithDraw",
      "type": "event"
    },
    {
      "anonymous": false,
      "inputs": [
        {
          "indexed": false,
          "internalType": "uint256",
          "name": "timeStamp",
          "type": "uint256"
        },
        {
          "indexed": false,
          "internalType": "uint256",
          "name": "lotId",
          "type": "uint256"
        },
        {
          "indexed": false,
          "internalType": "address",
          "name": "bidderId",
          "type": "address"
        }
      ],
      "name": "evt_lotWinner",
      "type": "event"
    },
    {
      "anonymous": false,
      "inputs": [
        {
          "indexed": false,
          "internalType": "uint256",
          "name": "timeStamp",
          "type": "uint256"
        },
        {
          "indexed": false,
          "internalType": "address",
          "name": "beatenBidder",
          "type": "address"
        }
      ],
      "name": "evt_maximunSecretBidBeaten",
      "type": "event"
    },
    {
      "inputs": [],
      "name": "owner",
      "outputs": [
        {
          "internalType": "address",
          "name": "",
          "type": "address"
        }
      ],
      "stateMutability": "view",
      "type": "function"
    },
    {
      "inputs": [],
      "name": "renounceOwnership",
      "outputs": [],
      "stateMutability": "nonpayable",
      "type": "function"
    },
    {
      "inputs": [
        {
          "internalType": "address",
          "name": "newOwner",
          "type": "address"
        }
      ],
      "name": "transferOwnership",
      "outputs": [],
      "stateMutability": "nonpayable",
      "type": "function"
    },
    {
      "inputs": [
        {
          "internalType": "string",
          "name": "__auctionCode",
          "type": "string"
        },
        {
          "internalType": "enum AuctionsSCBA.AuctionClass",
          "name": "__auctionClass",
          "type": "uint8"
        },
        {
          "internalType": "uint256",
          "name": "__guaranteeDeposit",
          "type": "uint256"
        },
        {
          "internalType": "uint256",
          "name": "__totalAuctionLots",
          "type": "uint256"
        },
        {
          "internalType": "uint256",
          "name": "__startDate",
          "type": "uint256"
        },
        {
          "internalType": "uint256",
          "name": "__endDate",
          "type": "uint256"
        }
      ],
      "name": "auctionInit",
      "outputs": [],
      "stateMutability": "nonpayable",
      "type": "function"
    },
    {
      "inputs": [
        {
          "internalType": "uint256",
          "name": "__baseValue",
          "type": "uint256"
        }
      ],
      "name": "auctionAddLot",
      "outputs": [],
      "stateMutability": "nonpayable",
      "type": "function"
    },
    {
      "inputs": [
        {
          "internalType": "bool",
          "name": "_preserveGuranteeDeposit",
          "type": "bool"
        }
      ],
      "name": "confirmBidderInscription",
      "outputs": [],
      "stateMutability": "nonpayable",
      "type": "function"
    },
    {
      "inputs": [],
      "name": "auctionStart",
      "outputs": [],
      "stateMutability": "nonpayable",
      "type": "function"
    },
    {
      "inputs": [],
      "name": "auctionClose",
      "outputs": [],
      "stateMutability": "nonpayable",
      "type": "function"
    },
    {
      "inputs": [
        {
          "internalType": "string",
          "name": "_cause",
          "type": "string"
        }
      ],
      "name": "auctionCancel",
      "outputs": [],
      "stateMutability": "nonpayable",
      "type": "function"
    },
    {
      "inputs": [
        {
          "internalType": "address",
          "name": "_bidderAddress",
          "type": "address"
        }
      ],
      "name": "enableWithDraw",
      "outputs": [],
      "stateMutability": "nonpayable",
      "type": "function"
    },
    {
      "inputs": [],
      "name": "getAuctionState",
      "outputs": [
        {
          "internalType": "enum AuctionsSCBA.AuctionState",
          "name": "",
          "type": "uint8"
        }
      ],
      "stateMutability": "view",
      "type": "function"
    },
    {
      "inputs": [],
      "name": "getAuctionBalance",
      "outputs": [
        {
          "internalType": "uint256",
          "name": "",
          "type": "uint256"
        }
      ],
      "stateMutability": "view",
      "type": "function"
    },
    {
      "inputs": [],
      "name": "getConfirmedBiddders",
      "outputs": [
        {
          "internalType": "uint256",
          "name": "",
          "type": "uint256"
        }
      ],
      "stateMutability": "view",
      "type": "function"
    },
    {
      "inputs": [
        {
          "internalType": "address",
          "name": "_queryBidder",
          "type": "address"
        }
      ],
      "name": "isBidderConfirmed",
      "outputs": [
        {
          "internalType": "bool",
          "name": "",
          "type": "bool"
        }
      ],
      "stateMutability": "view",
      "type": "function"
    },
    {
      "inputs": [],
      "name": "getAuctionStartDate",
      "outputs": [
        {
          "internalType": "uint256",
          "name": "",
          "type": "uint256"
        }
      ],
      "stateMutability": "view",
      "type": "function"
    },
    {
      "inputs": [],
      "name": "getAuctionEndtDate",
      "outputs": [
        {
          "internalType": "uint256",
          "name": "",
          "type": "uint256"
        }
      ],
      "stateMutability": "view",
      "type": "function"
    },
    {
      "inputs": [],
      "name": "getAuctionClass",
      "outputs": [
        {
          "internalType": "enum AuctionsSCBA.AuctionClass",
          "name": "",
          "type": "uint8"
        }
      ],
      "stateMutability": "view",
      "type": "function"
    },
    {
      "inputs": [
        {
          "internalType": "uint256",
          "name": "_lotId",
          "type": "uint256"
        }
      ],
      "name": "getActualTranche",
      "outputs": [
        {
          "internalType": "uint256",
          "name": "",
          "type": "uint256"
        },
        {
          "internalType": "uint256",
          "name": "",
          "type": "uint256"
        }
      ],
      "stateMutability": "view",
      "type": "function"
    },
    {
      "inputs": [
        {
          "internalType": "uint256",
          "name": "_lotId",
          "type": "uint256"
        }
      ],
      "name": "getLastTranche",
      "outputs": [
        {
          "internalType": "uint256",
          "name": "",
          "type": "uint256"
        },
        {
          "internalType": "uint256",
          "name": "",
          "type": "uint256"
        },
        {
          "internalType": "address",
          "name": "",
          "type": "address"
        }
      ],
      "stateMutability": "view",
      "type": "function"
    },
    {
      "inputs": [
        {
          "internalType": "uint256",
          "name": "_lotId",
          "type": "uint256"
        },
        {
          "internalType": "address",
          "name": "_bidder",
          "type": "address"
        }
      ],
      "name": "getBidderMaximunSecretBid",
      "outputs": [
        {
          "internalType": "uint256",
          "name": "",
          "type": "uint256"
        },
        {
          "internalType": "uint256",
          "name": "",
          "type": "uint256"
        }
      ],
      "stateMutability": "view",
      "type": "function"
    },
    {
      "inputs": [],
      "name": "getLotQuantity",
      "outputs": [
        {
          "internalType": "uint256",
          "name": "",
          "type": "uint256"
        }
      ],
      "stateMutability": "view",
      "type": "function"
    },
    {
      "inputs": [
        {
          "internalType": "uint256",
          "name": "_lotId",
          "type": "uint256"
        }
      ],
      "name": "getLotBaseValue",
      "outputs": [
        {
          "internalType": "uint256",
          "name": "",
          "type": "uint256"
        }
      ],
      "stateMutability": "view",
      "type": "function"
    },
    {
      "inputs": [
        {
          "internalType": "uint256",
          "name": "_lotId",
          "type": "uint256"
        },
        {
          "internalType": "uint256",
          "name": "_trancheId",
          "type": "uint256"
        }
      ],
      "name": "getLotTrancheValue",
      "outputs": [
        {
          "internalType": "uint256",
          "name": "",
          "type": "uint256"
        }
      ],
      "stateMutability": "view",
      "type": "function"
    },
    {
      "inputs": [
        {
          "internalType": "uint256",
          "name": "_lotId",
          "type": "uint256"
        }
      ],
      "name": "getLotEndDate",
      "outputs": [
        {
          "internalType": "uint256",
          "name": "",
          "type": "uint256"
        }
      ],
      "stateMutability": "view",
      "type": "function"
    },
    {
      "inputs": [
        {
          "internalType": "uint256",
          "name": "_lotId",
          "type": "uint256"
        }
      ],
      "name": "getLotExtensionCount",
      "outputs": [
        {
          "internalType": "uint256",
          "name": "",
          "type": "uint256"
        }
      ],
      "stateMutability": "view",
      "type": "function"
    },
    {
      "inputs": [
        {
          "internalType": "bool",
          "name": "_value",
          "type": "bool"
        }
      ],
      "name": "bidderSetPreservelastBid",
      "outputs": [],
      "stateMutability": "nonpayable",
      "type": "function"
    },
    {
      "inputs": [
        {
          "internalType": "uint256",
          "name": "_lotId",
          "type": "uint256"
        },
        {
          "internalType": "uint256",
          "name": "_value",
          "type": "uint256"
        }
      ],
      "name": "bidderSetMaximunSecretBidAmount",
      "outputs": [],
      "stateMutability": "nonpayable",
      "type": "function"
    },
    {
      "inputs": [
        {
          "internalType": "uint256",
          "name": "_lotId",
          "type": "uint256"
        },
        {
          "internalType": "uint256",
          "name": "_value",
          "type": "uint256"
        }
      ],
      "name": "bidderSetMaximunSecretBidTranche",
      "outputs": [],
      "stateMutability": "nonpayable",
      "type": "function"
    },
    {
      "inputs": [
        {
          "internalType": "uint256",
          "name": "_lotId",
          "type": "uint256"
        },
        {
          "internalType": "uint256",
          "name": "_trancheId",
          "type": "uint256"
        }
      ],
      "name": "bid",
      "outputs": [],
      "stateMutability": "nonpayable",
      "type": "function"
    }
  ],
  "bytecode": "0x60806040523480156200001157600080fd5b506040516200615b3803806200615b833981810160405281019062000037919062000217565b620000576200004b620000cd60201b60201c565b620000d560201b60201c565b6000600360006101000a81548160ff0219169083600681111562000080576200007f62000249565b5b021790555080600160006101000a81548173ffffffffffffffffffffffffffffffffffffffff021916908373ffffffffffffffffffffffffffffffffffffffff1602179055505062000278565b600033905090565b60008060009054906101000a900473ffffffffffffffffffffffffffffffffffffffff169050816000806101000a81548173ffffffffffffffffffffffffffffffffffffffff021916908373ffffffffffffffffffffffffffffffffffffffff1602179055508173ffffffffffffffffffffffffffffffffffffffff168173ffffffffffffffffffffffffffffffffffffffff167f8be0079c531659141344cd1fd0a4f28419497f9722a3daafe3b4186f6b6457e060405160405180910390a35050565b600080fd5b600073ffffffffffffffffffffffffffffffffffffffff82169050919050565b6000620001cb826200019e565b9050919050565b6000620001df82620001be565b9050919050565b620001f181620001d2565b8114620001fd57600080fd5b50565b6000815190506200021181620001e6565b92915050565b60006020828403121562000230576200022f62000199565b5b6000620002408482850162000200565b91505092915050565b7f4e487b7100000000000000000000000000000000000000000000000000000000600052602160045260246000fd5b615ed380620002886000396000f3fe608060405234801561001057600080fd5b50600436106101cf5760003560e01c8063715018a611610104578063c455d0cb116100a2578063dad7277c11610071578063dad7277c146104e6578063f0c019df14610516578063f1c7823f14610532578063f2fde38b14610562576101cf565b8063c455d0cb14610460578063d262c0e51461047e578063d69856211461049a578063d6c8d058146104b6576101cf565b80637786ce34116100de5780637786ce34146103d75780637e360c41146103f557806387368926146104265780638da5cb5b14610442576101cf565b8063715018a61461037d578063728194ee1461038757806376b8d8c7146103b9576101cf565b80634f245ef7116101715780635e464d511161014b5780635e464d51146102f957806361dd3bcc14610315578063634763b6146103315780636ee68ef71461034d576101cf565b80634f245ef7146102a3578063598647f8146102ad57806359ec35d8146102c9576101cf565b806319c2a5b5116101ad57806319c2a5b51461024157806325a35e731461024b5780633b924d43146102695780634a8bb6ed14610285576101cf565b806308bfc300146101d457806309d23ba1146101f25780631499cf1114610223575b600080fd5b6101dc61057e565b6040516101e9919061449b565b60405180910390f35b61020c6004803603810190610207919061455e565b610595565b60405161021a9291906145ad565b60405180910390f35b61022b610624565b60405161023891906145d6565b60405180910390f35b610249610630565b005b6102536106b6565b60405161026091906145d6565b60405180910390f35b610283600480360381019061027e91906145f1565b610759565b005b61028d6107e1565b60405161029a91906145d6565b60405180910390f35b6102ab6107ee565b005b6102c760048036038101906102c2919061461e565b610874565b005b6102e360048036038101906102de91906145f1565b61088b565b6040516102f09190614679565b60405180910390f35b610313600480360381019061030e91906147da565b6108d9565b005b61032f600480360381019061032a919061484f565b610961565b005b61034b6004803603810190610346919061461e565b610b60565b005b6103676004803603810190610362919061487c565b610def565b60405161037491906145d6565b60405180910390f35b610385610e2a565b005b6103a1600480360381019061039c919061487c565b610eb2565b6040516103b0939291906148b8565b60405180910390f35b6103c1611019565b6040516103ce91906145d6565b60405180910390f35b6103df611026565b6040516103ec91906145d6565b60405180910390f35b61040f600480360381019061040a919061487c565b611033565b60405161041d9291906145ad565b60405180910390f35b610440600480360381019061043b919061461e565b611120565b005b61044a611491565b60405161045791906148ef565b60405180910390f35b6104686114ba565b6040516104759190614952565b60405180910390f35b6104986004803603810190610493919061487c565b6114d4565b005b6104b460048036038101906104af919061484f565b611840565b005b6104d060048036038101906104cb919061487c565b611853565b6040516104dd91906145d6565b60405180910390f35b61050060048036038101906104fb919061461e565b61188e565b60405161050d91906145d6565b60405180910390f35b610530600480360381019061052b9190614992565b6118a2565b005b61054c6004803603810190610547919061487c565b611a3f565b60405161055991906145d6565b60405180910390f35b61057c600480360381019061057791906145f1565b611a7a565b005b6000600360009054906101000a900460ff16905090565b6000806000600b60008573ffffffffffffffffffffffffffffffffffffffff1673ffffffffffffffffffffffffffffffffffffffff1681526020019081526020016000206002016001866105e99190614a6a565b815481106105fa576105f9614a9e565b5b9060005260206000200154905060006106138683611b72565b905081819350935050509250929050565b60006004800154905090565b610638611be7565b73ffffffffffffffffffffffffffffffffffffffff16610656611491565b73ffffffffffffffffffffffffffffffffffffffff16146106ac576040517f08c379a00000000000000000000000000000000000000000000000000000000081526004016106a390614b2a565b60405180910390fd5b6106b4611bef565b565b6000600160009054906101000a900473ffffffffffffffffffffffffffffffffffffffff1673ffffffffffffffffffffffffffffffffffffffff166370a08231306040518263ffffffff1660e01b815260040161071391906148ef565b602060405180830381865afa158015610730573d6000803e3d6000fd5b505050506040513d601f19601f820116820180604052508101906107549190614b5f565b905090565b610761611be7565b73ffffffffffffffffffffffffffffffffffffffff1661077f611491565b73ffffffffffffffffffffffffffffffffffffffff16146107d5576040517f08c379a00000000000000000000000000000000000000000000000000000000081526004016107cc90614b2a565b60405180910390fd5b6107de81612149565b50565b6000600d80549050905090565b6107f6611be7565b73ffffffffffffffffffffffffffffffffffffffff16610814611491565b73ffffffffffffffffffffffffffffffffffffffff161461086a576040517f08c379a000000000000000000000000000000000000000000000000000000000815260040161086190614b2a565b60405180910390fd5b6108726124cb565b565b61087f338383612670565b610887612ddc565b5050565b600080600b60008473ffffffffffffffffffffffffffffffffffffffff1673ffffffffffffffffffffffffffffffffffffffff16815260200190815260200160002060000154119050919050565b6108e1611be7565b73ffffffffffffffffffffffffffffffffffffffff166108ff611491565b73ffffffffffffffffffffffffffffffffffffffff1614610955576040517f08c379a000000000000000000000000000000000000000000000000000000000815260040161094c90614b2a565b60405180910390fd5b61095e816135b4565b50565b6002600681111561097557610974614424565b5b600360009054906101000a900460ff16600681111561099757610996614424565b5b146109d7576040517f08c379a00000000000000000000000000000000000000000000000000000000081526004016109ce90614bfe565b60405180910390fd5b6000600b60003373ffffffffffffffffffffffffffffffffffffffff1673ffffffffffffffffffffffffffffffffffffffff1681526020019081526020016000206000015411610a5c576040517f08c379a0000000000000000000000000000000000000000000000000000000008152600401610a5390614c6a565b60405180910390fd5b3073ffffffffffffffffffffffffffffffffffffffff16638da5cb5b6040518163ffffffff1660e01b8152600401602060405180830381865afa158015610aa7573d6000803e3d6000fd5b505050506040513d601f19601f82011682018060405250810190610acb9190614c9f565b73ffffffffffffffffffffffffffffffffffffffff163373ffffffffffffffffffffffffffffffffffffffff161415610b0357600080fd5b80600b60003373ffffffffffffffffffffffffffffffffffffffff1673ffffffffffffffffffffffffffffffffffffffff16815260200190815260200160002060010160006101000a81548160ff02191690831515021790555050565b60026006811115610b7457610b73614424565b5b600360009054906101000a900460ff166006811115610b9657610b95614424565b5b14610bd6576040517f08c379a0000000000000000000000000000000000000000000000000000000008152600401610bcd90614d3e565b60405180910390fd5b6000600b60003373ffffffffffffffffffffffffffffffffffffffff1673ffffffffffffffffffffffffffffffffffffffff1681526020019081526020016000206000015411610c5b576040517f08c379a0000000000000000000000000000000000000000000000000000000008152600401610c5290614c6a565b60405180910390fd5b3073ffffffffffffffffffffffffffffffffffffffff16638da5cb5b6040518163ffffffff1660e01b8152600401602060405180830381865afa158015610ca6573d6000803e3d6000fd5b505050506040513d601f19601f82011682018060405250810190610cca9190614c9f565b73ffffffffffffffffffffffffffffffffffffffff163373ffffffffffffffffffffffffffffffffffffffff161415610d38576040517f08c379a0000000000000000000000000000000000000000000000000000000008152600401610d2f90614dd0565b60405180910390fd5b6001811015610d7c576040517f08c379a0000000000000000000000000000000000000000000000000000000008152600401610d7390614e62565b60405180910390fd5b80600b60003373ffffffffffffffffffffffffffffffffffffffff1673ffffffffffffffffffffffffffffffffffffffff168152602001908152602001600020600201600184610dcc9190614a6a565b81548110610ddd57610ddc614a9e565b5b90600052602060002001819055505050565b60006002600183610e009190614a6a565b81548110610e1157610e10614a9e565b5b9060005260206000209060090201600401549050919050565b610e32611be7565b73ffffffffffffffffffffffffffffffffffffffff16610e50611491565b73ffffffffffffffffffffffffffffffffffffffff1614610ea6576040517f08c379a0000000000000000000000000000000000000000000000000000000008152600401610e9d90614b2a565b60405180910390fd5b610eb06000613755565b565b6000806000806000806002600188610eca9190614a6a565b81548110610edb57610eda614a9e565b5b90600052602060002090600902016007015492506000831115610f4e57600c6000600189610f099190614a6a565b8152602001908152602001600020600184610f249190614a6a565b81548110610f3557610f34614a9e565b5b9060005260206000209060040201600101549150610f95565b600c6000600189610f5f9190614a6a565b8152602001908152602001600020600081548110610f8057610f7f614a9e565b5b90600052602060002090600402016001015491505b600c6000600189610fa69190614a6a565b8152602001908152602001600020600184610fc19190614a6a565b81548110610fd257610fd1614a9e565b5b906000526020600020906004020160020160009054906101000a900473ffffffffffffffffffffffffffffffffffffffff1690508282829550955095505050509193909250565b6000600280549050905090565b6000600460060154905090565b60008060008060026001866110489190614a6a565b8154811061105957611058614a9e565b5b906000526020600020906009020160080154915060008211156110cc57600c60006001876110879190614a6a565b81526020019081526020016000206001836110a29190614a6a565b815481106110b3576110b2614a9e565b5b9060005260206000209060040201600101549050611113565b600c60006001876110dd9190614a6a565b81526020019081526020016000206000815481106110fe576110fd614a9e565b5b90600052602060002090600402016001015490505b8181935093505050915091565b6002600681111561113457611133614424565b5b600360009054906101000a900460ff16600681111561115657611155614424565b5b14611196576040517f08c379a000000000000000000000000000000000000000000000000000000000815260040161118d90614bfe565b60405180910390fd5b6000600b60003373ffffffffffffffffffffffffffffffffffffffff1673ffffffffffffffffffffffffffffffffffffffff168152602001908152602001600020600001541161121b576040517f08c379a000000000000000000000000000000000000000000000000000000000815260040161121290614c6a565b60405180910390fd5b3073ffffffffffffffffffffffffffffffffffffffff16638da5cb5b6040518163ffffffff1660e01b8152600401602060405180830381865afa158015611266573d6000803e3d6000fd5b505050506040513d601f19601f8201168201806040525081019061128a9190614c9f565b73ffffffffffffffffffffffffffffffffffffffff163373ffffffffffffffffffffffffffffffffffffffff1614156112f8576040517f08c379a00000000000000000000000000000000000000000000000000000000081526004016112ef90614dd0565b60405180910390fd5b60026001836113079190614a6a565b8154811061131857611317614a9e565b5b906000526020600020906009020160030154811161136b576040517f08c379a000000000000000000000000000000000000000000000000000000000815260040161136290614ef4565b60405180910390fd5b6000806005606460026001876113819190614a6a565b8154811061139257611391614a9e565b5b9060005260206000209060090201600301546113ae9190614f43565b6113b89190614f74565b905060018160026001876113cc9190614a6a565b815481106113dd576113dc614a9e565b5b906000526020600020906009020160030154856113fa9190614a6a565b6114049190614f43565b61140e9190614fce565b915060018261141d9190614a6a565b600b60003373ffffffffffffffffffffffffffffffffffffffff1673ffffffffffffffffffffffffffffffffffffffff16815260200190815260200160002060020160018661146c9190614a6a565b8154811061147d5761147c614a9e565b5b906000526020600020018190555050505050565b60008060009054906101000a900473ffffffffffffffffffffffffffffffffffffffff16905090565b6000600460010160009054906101000a900460ff16905090565b6114dc611be7565b73ffffffffffffffffffffffffffffffffffffffff166114fa611491565b73ffffffffffffffffffffffffffffffffffffffff1614611550576040517f08c379a000000000000000000000000000000000000000000000000000000000815260040161154790614b2a565b60405180910390fd5b6001600681111561156457611563614424565b5b600360009054906101000a900460ff16600681111561158657611585614424565b5b14806115c55750600260068111156115a1576115a0614424565b5b600360009054906101000a900460ff1660068111156115c3576115c2614424565b5b145b611604576040517f08c379a00000000000000000000000000000000000000000000000000000000081526004016115fb90615070565b60405180910390fd5b6000600281111561161857611617614424565b5b600460010160009054906101000a900460ff16600281111561163d5761163c614424565b5b14801561164f57506001600280549050145b1561168f576040517f08c379a0000000000000000000000000000000000000000000000000000000008152600401611686906150dc565b60405180910390fd5b60046003015460028054905011156116dc576040517f08c379a00000000000000000000000000000000000000000000000000000000081526004016116d390615148565b60405180910390fd5b6116e461425f565b6002600360006101000a81548160ff0219169083600681111561170a57611709614424565b5b021790555060016002805490506117219190614fce565b81600001818152505060008160a001818152505060048001548160200181815250506004600501548160400181815250506004600501548160800181815250508181606001818152505060008160e00181815250506002819080600181540180825580915050600190039060005260206000209060090201600090919091909150600082015181600001556020820151816001015560408201518160020155606082015181600301556080820151816004015560a0820151816005015560c08201518160060160006101000a81548173ffffffffffffffffffffffffffffffffffffffff021916908373ffffffffffffffffffffffffffffffffffffffff16021790555060e08201518160070155610100820151816008015550505050565b6118503360046002015483613819565b50565b600060026001836118649190614a6a565b8154811061187557611874614a9e565b5b9060005260206000209060090201600501549050919050565b600061189a8383611b72565b905092915050565b6118aa611be7565b73ffffffffffffffffffffffffffffffffffffffff166118c8611491565b73ffffffffffffffffffffffffffffffffffffffff161461191e576040517f08c379a000000000000000000000000000000000000000000000000000000000815260040161191590614b2a565b60405180910390fd5b6000600681111561193257611931614424565b5b600360009054906101000a900460ff16600681111561195457611953614424565b5b14611994576040517f08c379a000000000000000000000000000000000000000000000000000000000815260040161198b906151b4565b60405180910390fd5b6001600360006101000a81548160ff021916908360068111156119ba576119b9614424565b5b021790555085600460000190805190602001906119d89291906142c1565b5084600460010160006101000a81548160ff02191690836002811115611a0157611a00614424565b5b021790555083600460020181905550826004600301819055508160048001819055508060046005018190555080600460060181905550505050505050565b60006002600183611a509190614a6a565b81548110611a6157611a60614a9e565b5b9060005260206000209060090201600301549050919050565b611a82611be7565b73ffffffffffffffffffffffffffffffffffffffff16611aa0611491565b73ffffffffffffffffffffffffffffffffffffffff1614611af6576040517f08c379a0000000000000000000000000000000000000000000000000000000008152600401611aed90614b2a565b60405180910390fd5b600073ffffffffffffffffffffffffffffffffffffffff168173ffffffffffffffffffffffffffffffffffffffff161415611b66576040517f08c379a0000000000000000000000000000000000000000000000000000000008152600401611b5d90615246565b60405180910390fd5b611b6f81613755565b50565b6000806002600185611b849190614a6a565b81548110611b9557611b94614a9e565b5b90600052602060002090600902016003015490506000600584611bb89190614f74565b905060648183611bc89190614f74565b611bd29190614f43565b82611bdd9190614fce565b9250505092915050565b600033905090565b60036006811115611c0357611c02614424565b5b600360009054906101000a900460ff166006811115611c2557611c24614424565b5b1480611c64575060046006811115611c4057611c3f614424565b5b600360009054906101000a900460ff166006811115611c6257611c61614424565b5b145b611ca3576040517f08c379a0000000000000000000000000000000000000000000000000000000008152600401611c9a906152d8565b60405180910390fd5b600460060154421015611ceb576040517f08c379a0000000000000000000000000000000000000000000000000000000008152600401611ce290615344565b60405180910390fd5b60005b6001600280549050611d009190614a6a565b8111611f3057600c6000828152602001908152602001600020600160028381548110611d2f57611d2e614a9e565b5b906000526020600020906009020160070154611d4b9190614a6a565b81548110611d5c57611d5b614a9e565b5b906000526020600020906004020160020160009054906101000a900473ffffffffffffffffffffffffffffffffffffffff1660028281548110611da257611da1614a9e565b5b906000526020600020906009020160060160006101000a81548173ffffffffffffffffffffffffffffffffffffffff021916908373ffffffffffffffffffffffffffffffffffffffff1602179055506001600b600060028481548110611e0b57611e0a614a9e565b5b906000526020600020906009020160060160009054906101000a900473ffffffffffffffffffffffffffffffffffffffff1673ffffffffffffffffffffffffffffffffffffffff1673ffffffffffffffffffffffffffffffffffffffff16815260200190815260200160002060030160006101000a81548160ff0219169083151502179055507f8e9b05dde2c01ec0020d3155c9b85f331c20c82a2a55330212fbf5f2ba72edd242600183611ec09190614fce565b60028481548110611ed457611ed3614a9e565b5b906000526020600020906009020160060160009054906101000a900473ffffffffffffffffffffffffffffffffffffffff16604051611f15939291906148b8565b60405180910390a18080611f2890615364565b915050611cee565b506005600360006101000a81548160ff02191690836006811115611f5757611f56614424565b5b021790555060005b6001600d80549050611f719190614a6a565b81116121095760001515600b6000600d8481548110611f9357611f92614a9e565b5b9060005260206000200160009054906101000a900473ffffffffffffffffffffffffffffffffffffffff1673ffffffffffffffffffffffffffffffffffffffff1673ffffffffffffffffffffffffffffffffffffffff16815260200190815260200160002060010160009054906101000a900460ff1615151480156120a9575060001515600b6000600d848154811061202f5761202e614a9e565b5b9060005260206000200160009054906101000a900473ffffffffffffffffffffffffffffffffffffffff1673ffffffffffffffffffffffffffffffffffffffff1673ffffffffffffffffffffffffffffffffffffffff16815260200190815260200160002060030160009054906101000a900460ff161515145b156120f6576120f5600d82815481106120c5576120c4614a9e565b5b9060005260206000200160009054906101000a900473ffffffffffffffffffffffffffffffffffffffff16612149565b5b808061210190615364565b915050611f5f565b507f95b4de7d94cb78de2c4b6887e7885218f75b19f528166fd63e6c7d93eea62e8142600460000160405161213f9291906154a3565b60405180910390a1565b60068081111561215c5761215b614424565b5b600360009054906101000a900460ff16600681111561217e5761217d614424565b5b14806121bd57506005600681111561219957612198614424565b5b600360009054906101000a900460ff1660068111156121bb576121ba614424565b5b145b6121fc576040517f08c379a00000000000000000000000000000000000000000000000000000000081526004016121f390615545565b60405180910390fd5b6000600b60008373ffffffffffffffffffffffffffffffffffffffff1673ffffffffffffffffffffffffffffffffffffffff1681526020019081526020016000206000015411612281576040517f08c379a0000000000000000000000000000000000000000000000000000000008152600401612278906155b1565b60405180910390fd5b600b60008273ffffffffffffffffffffffffffffffffffffffff1673ffffffffffffffffffffffffffffffffffffffff16815260200190815260200160002060000154600160009054906101000a900473ffffffffffffffffffffffffffffffffffffffff1673ffffffffffffffffffffffffffffffffffffffff166370a08231306040518263ffffffff1660e01b815260040161231f91906148ef565b602060405180830381865afa15801561233c573d6000803e3d6000fd5b505050506040513d601f19601f820116820180604052508101906123609190614b5f565b10156123a1576040517f08c379a00000000000000000000000000000000000000000000000000000000081526004016123989061561d565b60405180910390fd5b600160009054906101000a900473ffffffffffffffffffffffffffffffffffffffff1673ffffffffffffffffffffffffffffffffffffffff1663095ea7b3826004600201546040518363ffffffff1660e01b815260040161240392919061563d565b6020604051808303816000875af1158015612422573d6000803e3d6000fd5b505050506040513d601f19601f82011682018060405250810190612446919061567b565b506000600b60008373ffffffffffffffffffffffffffffffffffffffff1673ffffffffffffffffffffffffffffffffffffffff168152602001908152602001600020600001819055507f1755e8fc31f0e58889a0220b8f3028869d332d60d387222019b2a4c76c8b37a242826040516124c09291906156a8565b60405180910390a150565b600260068111156124df576124de614424565b5b600360009054906101000a900460ff16600681111561250157612500614424565b5b14612541576040517f08c379a000000000000000000000000000000000000000000000000000000000815260040161253890614d3e565b60405180910390fd5b60048001546005426125539190614fce565b1015801561256657506004600501544211155b6125a5576040517f08c379a000000000000000000000000000000000000000000000000000000000815260040161259c9061571d565b60405180910390fd5b6000600d8054905014156125f6576125f16040518060400160405280601381526020017f4e6f2062696464657273206174207374617274000000000000000000000000008152506135b4565b61266e565b60038060006101000a81548160ff0219169083600681111561261b5761261a614424565b5b0217905550612628613de2565b612630612ddc565b7fb7dc4d36b2ca1a9476d5e4f14a23c3e629a0fd4f3af8c71c176f1c69d99952634260046000016040516126659291906154a3565b60405180910390a15b565b6003600681111561268457612683614424565b5b600360009054906101000a900460ff1660068111156126a6576126a5614424565b5b14806126e55750600460068111156126c1576126c0614424565b5b600360009054906101000a900460ff1660068111156126e3576126e2614424565b5b145b612724576040517f08c379a000000000000000000000000000000000000000000000000000000000815260040161271b906152d8565b60405180910390fd5b60046006015442111561276c576040517f08c379a000000000000000000000000000000000000000000000000000000000815260040161276390615789565b60405180910390fd5b60001515600c60006001856127819190614a6a565b815260200190815260200160002060018361279c9190614a6a565b815481106127ad576127ac614a9e565b5b906000526020600020906004020160020160149054906101000a900460ff1615151461280e576040517f08c379a0000000000000000000000000000000000000000000000000000000008152600401612805906157f5565b60405180910390fd5b6000600b60008573ffffffffffffffffffffffffffffffffffffffff1673ffffffffffffffffffffffffffffffffffffffff1681526020019081526020016000206000015411612893576040517f08c379a000000000000000000000000000000000000000000000000000000000815260040161288a90615861565b60405180910390fd5b600060026001846128a49190614a6a565b815481106128b5576128b4614a9e565b5b90600052602060002090600902016007015411156129dc578273ffffffffffffffffffffffffffffffffffffffff16600c60006001856128f59190614a6a565b8152602001908152602001600020600160026001866129149190614a6a565b8154811061292557612924614a9e565b5b9060005260206000209060090201600701546129419190614a6a565b8154811061295257612951614a9e565b5b906000526020600020906004020160020160009054906101000a900473ffffffffffffffffffffffffffffffffffffffff1673ffffffffffffffffffffffffffffffffffffffff1614156129db576040517f08c379a00000000000000000000000000000000000000000000000000000000081526004016129d2906158cd565b60405180910390fd5b5b60026001836129eb9190614a6a565b815481106129fc576129fb614a9e565b5b9060005260206000209060090201600801548114612a4f576040517f08c379a0000000000000000000000000000000000000000000000000000000008152600401612a4690615939565b60405180910390fd5b612a57614347565b60016002600185612a689190614a6a565b81548110612a7957612a78614a9e565b5b90600052602060002090600902016007016000828254612a999190614fce565b9250508190555060016002600185612ab19190614a6a565b81548110612ac257612ac1614a9e565b5b90600052602060002090600902016008016000828254612ae29190614fce565b9250508190555083600c6000600186612afb9190614a6a565b8152602001908152602001600020600184612b169190614a6a565b81548110612b2757612b26614a9e565b5b906000526020600020906004020160020160006101000a81548173ffffffffffffffffffffffffffffffffffffffff021916908373ffffffffffffffffffffffffffffffffffffffff1602179055506001600c6000600186612b899190614a6a565b8152602001908152602001600020600184612ba49190614a6a565b81548110612bb557612bb4614a9e565b5b906000526020600020906004020160020160146101000a81548160ff02191690831515021790555042600c6000600186612bef9190614a6a565b8152602001908152602001600020600184612c0a9190614a6a565b81548110612c1b57612c1a614a9e565b5b9060005260206000209060040201600301819055506002600184612c3f9190614a6a565b81548110612c5057612c4f614a9e565b5b906000526020600020906009020160080154816000018181525050612ca6836002600186612c7e9190614a6a565b81548110612c8f57612c8e614a9e565b5b906000526020600020906009020160080154611b72565b8160200181815250506000816060019015159081151581525050600c6000600185612cd19190614a6a565b8152602001908152602001600020819080600181540180825580915050600190039060005260206000209060040201600090919091909150600082015181600001556020820151816001015560408201518160020160006101000a81548173ffffffffffffffffffffffffffffffffffffffff021916908373ffffffffffffffffffffffffffffffffffffffff16021790555060608201518160020160146101000a81548160ff021916908315150217905550608082015181600301555050612d9983613fd2565b7fafe56db8459de2bc286545368ecdfb556e2eb2afe7bbc3c01e7ada1775ba7b0d42848487604051612dce9493929190615959565b60405180910390a150505050565b60036006811115612df057612def614424565b5b600360009054906101000a900460ff166006811115612e1257612e11614424565b5b1480612e51575060046006811115612e2d57612e2c614424565b5b600360009054906101000a900460ff166006811115612e4f57612e4e614424565b5b145b612e90576040517f08c379a0000000000000000000000000000000000000000000000000000000008152600401612e87906159ea565b60405180910390fd5b600460060154421115612ed8576040517f08c379a0000000000000000000000000000000000000000000000000000000008152600401612ecf90615789565b60405180910390fd5b6000600190505b6001151581151514156135b1576000905060005b6001600280549050612f059190614a6a565b81116135ab5760005b6001600d80549050612f209190614a6a565b8111613597576000600b6000600d8481548110612f4057612f3f614a9e565b5b9060005260206000200160009054906101000a900473ffffffffffffffffffffffffffffffffffffffff1673ffffffffffffffffffffffffffffffffffffffff1673ffffffffffffffffffffffffffffffffffffffff1681526020019081526020016000206002018381548110612fba57612fb9614a9e565b5b9060005260206000200154118015613093575060028281548110612fe157612fe0614a9e565b5b906000526020600020906009020160080154600b6000600d848154811061300b5761300a614a9e565b5b9060005260206000200160009054906101000a900473ffffffffffffffffffffffffffffffffffffffff1673ffffffffffffffffffffffffffffffffffffffff1673ffffffffffffffffffffffffffffffffffffffff168152602001908152602001600020600201838154811061308557613084614a9e565b5b906000526020600020015410155b156132a5576000600283815481106130ae576130ad614a9e565b5b90600052602060002090600902016007015414156131255761311c600d82815481106130dd576130dc614a9e565b5b9060005260206000200160009054906101000a900473ffffffffffffffffffffffffffffffffffffffff166001846131159190614fce565b6001612670565b60019250613597565b600d818154811061313957613138614a9e565b5b9060005260206000200160009054906101000a900473ffffffffffffffffffffffffffffffffffffffff1673ffffffffffffffffffffffffffffffffffffffff16600c60008481526020019081526020016000206001600285815481106131a3576131a2614a9e565b5b9060005260206000209060090201600701546131bf9190614a6a565b815481106131d0576131cf614a9e565b5b906000526020600020906004020160020160009054906101000a900473ffffffffffffffffffffffffffffffffffffffff1673ffffffffffffffffffffffffffffffffffffffff16146132a057613297600d828154811061323457613233614a9e565b5b9060005260206000200160009054906101000a900473ffffffffffffffffffffffffffffffffffffffff1660018461326c9190614fce565b600285815481106132805761327f614a9e565b5b906000526020600020906009020160080154612670565b60019250613597565b613584565b600282815481106132b9576132b8614a9e565b5b906000526020600020906009020160080154600b6000600d84815481106132e3576132e2614a9e565b5b9060005260206000200160009054906101000a900473ffffffffffffffffffffffffffffffffffffffff1673ffffffffffffffffffffffffffffffffffffffff1673ffffffffffffffffffffffffffffffffffffffff168152602001908152602001600020600201838154811061335d5761335c614a9e565b5b90600052602060002001541015801561343a575060001515600e6000600d848154811061338d5761338c614a9e565b5b9060005260206000200160009054906101000a900473ffffffffffffffffffffffffffffffffffffffff1673ffffffffffffffffffffffffffffffffffffffff1673ffffffffffffffffffffffffffffffffffffffff16815260200190815260200160002060006002858154811061340857613407614a9e565b5b906000526020600020906009020160080154815260200190815260200160002060009054906101000a900460ff161515145b15613583576001600e6000600d848154811061345957613458614a9e565b5b9060005260206000200160009054906101000a900473ffffffffffffffffffffffffffffffffffffffff1673ffffffffffffffffffffffffffffffffffffffff1673ffffffffffffffffffffffffffffffffffffffff1681526020019081526020016000206000600285815481106134d4576134d3614a9e565b5b906000526020600020906009020160080154815260200190815260200160002060006101000a81548160ff0219169083151502179055507fee6262a536cf634ae97311b7bbd1683e27211dec8f08d03129fa726928c8b61842600d838154811061354157613540614a9e565b5b9060005260206000200160009054906101000a900473ffffffffffffffffffffffffffffffffffffffff1660405161357a9291906156a8565b60405180910390a15b5b808061358f90615364565b915050612f0e565b5080806135a390615364565b915050612ef3565b50612edf565b50565b6006808111156135c7576135c6614424565b5b600360009054906101000a900460ff1660068111156135e9576135e8614424565b5b141561362a576040517f08c379a000000000000000000000000000000000000000000000000000000000815260040161362190615a56565b60405180910390fd5b600460060154421115613672576040517f08c379a000000000000000000000000000000000000000000000000000000000815260040161366990615ac2565b60405180910390fd5b60005b6001600d805490506136879190614a6a565b81116136e7576136d4600d82815481106136a4576136a3614a9e565b5b9060005260206000200160009054906101000a900473ffffffffffffffffffffffffffffffffffffffff16612149565b80806136df90615364565b915050613675565b506006600360006101000a81548160ff0219169083600681111561370e5761370d614424565b5b02179055507f699708c90a98fcdcc8862c08ac7a618790cf0bb5f4b50bca7487f71263bd92634260046000018360405161374a93929190615b59565b60405180910390a150565b60008060009054906101000a900473ffffffffffffffffffffffffffffffffffffffff169050816000806101000a81548173ffffffffffffffffffffffffffffffffffffffff021916908373ffffffffffffffffffffffffffffffffffffffff1602179055508173ffffffffffffffffffffffffffffffffffffffff168173ffffffffffffffffffffffffffffffffffffffff167f8be0079c531659141344cd1fd0a4f28419497f9722a3daafe3b4186f6b6457e060405160405180910390a35050565b61382161438e565b600060028054905090506002600681111561383f5761383e614424565b5b600360009054906101000a900460ff16600681111561386157613860614424565b5b146138a1576040517f08c379a000000000000000000000000000000000000000000000000000000000815260040161389890614d3e565b60405180910390fd5b6000600b60008773ffffffffffffffffffffffffffffffffffffffff1673ffffffffffffffffffffffffffffffffffffffff1681526020019081526020016000206000015414613926576040517f08c379a000000000000000000000000000000000000000000000000000000000815260040161391d90615bea565b60405180910390fd5b60046002015484101561396e576040517f08c379a000000000000000000000000000000000000000000000000000000000815260040161396590615c7c565b60405180910390fd5b60048001544211156139b5576040517f08c379a00000000000000000000000000000000000000000000000000000000081526004016139ac90615d0e565b60405180910390fd5b3073ffffffffffffffffffffffffffffffffffffffff16638da5cb5b6040518163ffffffff1660e01b8152600401602060405180830381865afa158015613a00573d6000803e3d6000fd5b505050506040513d601f19601f82011682018060405250810190613a249190614c9f565b73ffffffffffffffffffffffffffffffffffffffff163373ffffffffffffffffffffffffffffffffffffffff161415613a5c57600080fd5b83600160009054906101000a900473ffffffffffffffffffffffffffffffffffffffff1673ffffffffffffffffffffffffffffffffffffffff1663dd62ed3e87306040518363ffffffff1660e01b8152600401613aba929190615d2e565b602060405180830381865afa158015613ad7573d6000803e3d6000fd5b505050506040513d601f19601f82011682018060405250810190613afb9190614b5f565b1015613b3c576040517f08c379a0000000000000000000000000000000000000000000000000000000008152600401613b3390615da3565b60405180910390fd5b600160009054906101000a900473ffffffffffffffffffffffffffffffffffffffff1673ffffffffffffffffffffffffffffffffffffffff166323b872dd8630876040518463ffffffff1660e01b8152600401613b9b93929190615dc3565b6020604051808303816000875af1158015613bba573d6000803e3d6000fd5b505050506040513d601f19601f82011682018060405250810190613bde919061567b565b50838260000181815250508282602001901515908115158152505081600b60008773ffffffffffffffffffffffffffffffffffffffff1673ffffffffffffffffffffffffffffffffffffffff1681526020019081526020016000206000820151816000015560208201518160010160006101000a81548160ff0219169083151502179055506040820151816002019080519060200190613c7f9291906143ba565b5060608201518160030160006101000a81548160ff02191690831515021790555090505060005b81811015613d2b57600b60008773ffffffffffffffffffffffffffffffffffffffff1673ffffffffffffffffffffffffffffffffffffffff168152602001908152602001600020600201600090806001815401808255809150506001900390600052602060002001600090919091909150558080613d2390615364565b915050613ca6565b50600d859080600181540180825580915050600190039060005260206000200160009091909190916101000a81548173ffffffffffffffffffffffffffffffffffffffff021916908373ffffffffffffffffffffffffffffffffffffffff1602179055508473ffffffffffffffffffffffffffffffffffffffff167f2bcb2fe5b94813e883d2308e17a49fb21fb91863c646b56c2dbeb3069bd73911604051613dd390615e46565b60405180910390a25050505050565b60036006811115613df657613df5614424565b5b600360009054906101000a900460ff166006811115613e1857613e17614424565b5b14613e58576040517f08c379a0000000000000000000000000000000000000000000000000000000008152600401613e4f906159ea565b60405180910390fd5b60006002805490509050613e6a614347565b60005b82811015613fcd57600181613e829190614fce565b82600001818152505060028181548110613e9f57613e9e614a9e565b5b9060005260206000209060090201600301548260200181815250506000826060019015159081151581525050600c6000828152602001908152602001600020829080600181540180825580915050600190039060005260206000209060040201600090919091909150600082015181600001556020820151816001015560408201518160020160006101000a81548173ffffffffffffffffffffffffffffffffffffffff021916908373ffffffffffffffffffffffffffffffffffffffff16021790555060608201518160020160146101000a81548160ff021916908315150217905550608082015181600301555050600160028281548110613fa557613fa4614a9e565b5b9060005260206000209060090201600801819055508080613fc590615364565b915050613e6d565b505050565b60036006811115613fe657613fe5614424565b5b600360009054906101000a900460ff16600681111561400857614007614424565b5b148061404757506004600681111561402357614022614424565b5b600360009054906101000a900460ff16600681111561404557614044614424565b5b145b614086576040517f08c379a000000000000000000000000000000000000000000000000000000000815260040161407d906152d8565b60405180910390fd5b6004600601544211156140ce576040517f08c379a00000000000000000000000000000000000000000000000000000000081526004016140c590615ac2565b60405180910390fd5b600060b460026001846140e19190614a6a565b815481106140f2576140f1614a9e565b5b90600052602060002090600902016004015461410e9190614a6a565b905080421061425b57607860026001846141289190614a6a565b8154811061413957614138614a9e565b5b9060005260206000209060090201600201546141559190614fce565b60026001846141649190614a6a565b8154811061417557614174614a9e565b5b9060005260206000209060090201600401819055506001600260018461419b9190614a6a565b815481106141ac576141ab614a9e565b5b906000526020600020906009020160050160008282546141cc9190614fce565b92505081905550607860026001846141e49190614a6a565b815481106141f5576141f4614a9e565b5b9060005260206000209060090201600201546142119190614fce565b6004600601819055507fdd7e3f4d9bd4d3b593506c23426f3d6b9db956fdb8cc306be21fd2088afefbf1428360046006015460405161425293929190615e66565b60405180910390a15b5050565b604051806101200160405280600081526020016000815260200160008152602001600081526020016000815260200160008152602001600073ffffffffffffffffffffffffffffffffffffffff16815260200160008152602001600081525090565b8280546142cd906153dc565b90600052602060002090601f0160209004810192826142ef5760008555614336565b82601f1061430857805160ff1916838001178555614336565b82800160010185558215614336579182015b8281111561433557825182559160200191906001019061431a565b5b5090506143439190614407565b5090565b6040518060a001604052806000815260200160008152602001600073ffffffffffffffffffffffffffffffffffffffff168152602001600015158152602001600081525090565b604051806080016040528060008152602001600015158152602001606081526020016000151581525090565b8280548282559060005260206000209081019282156143f6579160200282015b828111156143f55782518255916020019190600101906143da565b5b5090506144039190614407565b5090565b5b80821115614420576000816000905550600101614408565b5090565b7f4e487b7100000000000000000000000000000000000000000000000000000000600052602160045260246000fd5b6007811061446457614463614424565b5b50565b600081905061447582614453565b919050565b600061448582614467565b9050919050565b6144958161447a565b82525050565b60006020820190506144b0600083018461448c565b92915050565b6000604051905090565b600080fd5b600080fd5b6000819050919050565b6144dd816144ca565b81146144e857600080fd5b50565b6000813590506144fa816144d4565b92915050565b600073ffffffffffffffffffffffffffffffffffffffff82169050919050565b600061452b82614500565b9050919050565b61453b81614520565b811461454657600080fd5b50565b60008135905061455881614532565b92915050565b60008060408385031215614575576145746144c0565b5b6000614583858286016144eb565b925050602061459485828601614549565b9150509250929050565b6145a7816144ca565b82525050565b60006040820190506145c2600083018561459e565b6145cf602083018461459e565b9392505050565b60006020820190506145eb600083018461459e565b92915050565b600060208284031215614607576146066144c0565b5b600061461584828501614549565b91505092915050565b60008060408385031215614635576146346144c0565b5b6000614643858286016144eb565b9250506020614654858286016144eb565b9150509250929050565b60008115159050919050565b6146738161465e565b82525050565b600060208201905061468e600083018461466a565b92915050565b600080fd5b600080fd5b6000601f19601f8301169050919050565b7f4e487b7100000000000000000000000000000000000000000000000000000000600052604160045260246000fd5b6146e78261469e565b810181811067ffffffffffffffff82111715614706576147056146af565b5b80604052505050565b60006147196144b6565b905061472582826146de565b919050565b600067ffffffffffffffff821115614745576147446146af565b5b61474e8261469e565b9050602081019050919050565b82818337600083830152505050565b600061477d6147788461472a565b61470f565b90508281526020810184848401111561479957614798614699565b5b6147a484828561475b565b509392505050565b600082601f8301126147c1576147c0614694565b5b81356147d184826020860161476a565b91505092915050565b6000602082840312156147f0576147ef6144c0565b5b600082013567ffffffffffffffff81111561480e5761480d6144c5565b5b61481a848285016147ac565b91505092915050565b61482c8161465e565b811461483757600080fd5b50565b60008135905061484981614823565b92915050565b600060208284031215614865576148646144c0565b5b60006148738482850161483a565b91505092915050565b600060208284031215614892576148916144c0565b5b60006148a0848285016144eb565b91505092915050565b6148b281614520565b82525050565b60006060820190506148cd600083018661459e565b6148da602083018561459e565b6148e760408301846148a9565b949350505050565b600060208201905061490460008301846148a9565b92915050565b6003811061491b5761491a614424565b5b50565b600081905061492c8261490a565b919050565b600061493c8261491e565b9050919050565b61494c81614931565b82525050565b60006020820190506149676000830184614943565b92915050565b6003811061497a57600080fd5b50565b60008135905061498c8161496d565b92915050565b60008060008060008060c087890312156149af576149ae6144c0565b5b600087013567ffffffffffffffff8111156149cd576149cc6144c5565b5b6149d989828a016147ac565b96505060206149ea89828a0161497d565b95505060406149fb89828a016144eb565b9450506060614a0c89828a016144eb565b9350506080614a1d89828a016144eb565b92505060a0614a2e89828a016144eb565b9150509295509295509295565b7f4e487b7100000000000000000000000000000000000000000000000000000000600052601160045260246000fd5b6000614a75826144ca565b9150614a80836144ca565b925082821015614a9357614a92614a3b565b5b828203905092915050565b7f4e487b7100000000000000000000000000000000000000000000000000000000600052603260045260246000fd5b600082825260208201905092915050565b7f4f776e61626c653a2063616c6c6572206973206e6f7420746865206f776e6572600082015250565b6000614b14602083614acd565b9150614b1f82614ade565b602082019050919050565b60006020820190508181036000830152614b4381614b07565b9050919050565b600081519050614b59816144d4565b92915050565b600060208284031215614b7557614b746144c0565b5b6000614b8384828501614b4a565b91505092915050565b7f5468657265206d757374206265206174206c65617374206f6e65206c6f74206460008201527f6566696e65642e00000000000000000000000000000000000000000000000000602082015250565b6000614be8602783614acd565b9150614bf382614b8c565b604082019050919050565b60006020820190508181036000830152614c1781614bdb565b9050919050565b7f426964646572206e6f7420636f6e6669726d6564000000000000000000000000600082015250565b6000614c54601483614acd565b9150614c5f82614c1e565b602082019050919050565b60006020820190508181036000830152614c8381614c47565b9050919050565b600081519050614c9981614532565b92915050565b600060208284031215614cb557614cb46144c0565b5b6000614cc384828501614c8a565b91505092915050565b7f4d757374206265206174206c65617374206f6e65206c6f7420646566696e656460008201527f2e00000000000000000000000000000000000000000000000000000000000000602082015250565b6000614d28602183614acd565b9150614d3382614ccc565b604082019050919050565b60006020820190508181036000830152614d5781614d1b565b9050919050565b7f43616e6e6f742062652063616c6c656420627920636f6e7472616374206f776e60008201527f6572000000000000000000000000000000000000000000000000000000000000602082015250565b6000614dba602283614acd565b9150614dc582614d5e565b604082019050919050565b60006020820190508181036000830152614de981614dad565b9050919050565b7f5472616e636865204d5553542062652067726561746572207468616e207a657260008201527f6f2e000000000000000000000000000000000000000000000000000000000000602082015250565b6000614e4c602283614acd565b9150614e5782614df0565b604082019050919050565b60006020820190508181036000830152614e7b81614e3f565b9050919050565b7f4d5553542062652067726561746572207468616e206c6f74206261736520766160008201527f6c75652e00000000000000000000000000000000000000000000000000000000602082015250565b6000614ede602483614acd565b9150614ee982614e82565b604082019050919050565b60006020820190508181036000830152614f0d81614ed1565b9050919050565b7f4e487b7100000000000000000000000000000000000000000000000000000000600052601260045260246000fd5b6000614f4e826144ca565b9150614f59836144ca565b925082614f6957614f68614f14565b5b828204905092915050565b6000614f7f826144ca565b9150614f8a836144ca565b9250817fffffffffffffffffffffffffffffffffffffffffffffffffffffffffffffffff0483118215151615614fc357614fc2614a3b565b5b828202905092915050565b6000614fd9826144ca565b9150614fe4836144ca565b9250827fffffffffffffffffffffffffffffffffffffffffffffffffffffffffffffffff0382111561501957615018614a3b565b5b828201905092915050565b7f4e4f5420696e697469616c697a65640000000000000000000000000000000000600082015250565b600061505a600f83614acd565b915061506582615024565b602082019050919050565b600060208201905081810360008301526150898161504d565b9050919050565b7f4f6e6c7920616c6c6f7773206f6e65206c6f7400000000000000000000000000600082015250565b60006150c6601383614acd565b91506150d182615090565b602082019050919050565b600060208201905081810360008301526150f5816150b9565b9050919050565b7f43616e74277420616464206c6f74730000000000000000000000000000000000600082015250565b6000615132600f83614acd565b915061513d826150fc565b602082019050919050565b6000602082019050818103600083015261516181615125565b9050919050565b7f416c726561647920696e697469616c697a656400000000000000000000000000600082015250565b600061519e601383614acd565b91506151a982615168565b602082019050919050565b600060208201905081810360008301526151cd81615191565b9050919050565b7f4f776e61626c653a206e6577206f776e657220697320746865207a65726f206160008201527f6464726573730000000000000000000000000000000000000000000000000000602082015250565b6000615230602683614acd565b915061523b826151d4565b604082019050919050565b6000602082019050818103600083015261525f81615223565b9050919050565b7f4d55535420626520696e2053544152544544206f7220455854454e444544207360008201527f7461746500000000000000000000000000000000000000000000000000000000602082015250565b60006152c2602483614acd565b91506152cd82615266565b604082019050919050565b600060208201905081810360008301526152f1816152b5565b9050919050565b7f456e642064617465207374696c6c206e6f742072656168636564000000000000600082015250565b600061532e601a83614acd565b9150615339826152f8565b602082019050919050565b6000602082019050818103600083015261535d81615321565b9050919050565b600061536f826144ca565b91507fffffffffffffffffffffffffffffffffffffffffffffffffffffffffffffffff8214156153a2576153a1614a3b565b5b600182019050919050565b7f4e487b7100000000000000000000000000000000000000000000000000000000600052602260045260246000fd5b600060028204905060018216806153f457607f821691505b60208210811415615408576154076153ad565b5b50919050565b60008190508160005260206000209050919050565b60008154615430816153dc565b61543a8186614acd565b9450600182166000811461545557600181146154675761549a565b60ff198316865260208601935061549a565b6154708561540e565b60005b8381101561549257815481890152600182019150602081019050615473565b808801955050505b50505092915050565b60006040820190506154b8600083018561459e565b81810360208301526154ca8184615423565b90509392505050565b7f4d55535420626520696e20454e444544206f722043414e43454c45442073746160008201527f7465000000000000000000000000000000000000000000000000000000000000602082015250565b600061552f602283614acd565b915061553a826154d3565b604082019050919050565b6000602082019050818103600083015261555e81615522565b9050919050565b7f426964646572204e4f5420636f6e6669726d6564000000000000000000000000600082015250565b600061559b601483614acd565b91506155a682615565565b602082019050919050565b600060208201905081810360008301526155ca8161558e565b9050919050565b7f4e6f20666f756e64730000000000000000000000000000000000000000000000600082015250565b6000615607600983614acd565b9150615612826155d1565b602082019050919050565b60006020820190508181036000830152615636816155fa565b9050919050565b600060408201905061565260008301856148a9565b61565f602083018461459e565b9392505050565b60008151905061567581614823565b92915050565b600060208284031215615691576156906144c0565b5b600061569f84828501615666565b91505092915050565b60006040820190506156bd600083018561459e565b6156ca60208301846148a9565b9392505050565b7f41637475616c2074696d65206f75747369646520626f756e6461726965730000600082015250565b6000615707601e83614acd565b9150615712826156d1565b602082019050919050565b60006020820190508181036000830152615736816156fa565b9050919050565b7f456e642064617465207265616368656400000000000000000000000000000000600082015250565b6000615773601083614acd565b915061577e8261573d565b602082019050919050565b600060208201905081810360008301526157a281615766565b9050919050565b7f5472616e63686520616c726561647920636f6e6669726d65642e000000000000600082015250565b60006157df601a83614acd565b91506157ea826157a9565b602082019050919050565b6000602082019050818103600083015261580e816157d2565b9050919050565b7f4d55535420626520612076616c69642062696464657200000000000000000000600082015250565b600061584b601683614acd565b915061585682615815565b602082019050919050565b6000602082019050818103600083015261587a8161583e565b9050919050565b7f42696464657220616c7265616479207075736865640000000000000000000000600082015250565b60006158b7601583614acd565b91506158c282615881565b602082019050919050565b600060208201905081810360008301526158e6816158aa565b9050919050565b7f496e76616c6964207472616e6368650000000000000000000000000000000000600082015250565b6000615923600f83614acd565b915061592e826158ed565b602082019050919050565b6000602082019050818103600083015261595281615916565b9050919050565b600060808201905061596e600083018761459e565b61597b602083018661459e565b615988604083018561459e565b61599560608301846148a9565b95945050505050565b7f4d55535420626520696e20535441525445442073746174650000000000000000600082015250565b60006159d4601883614acd565b91506159df8261599e565b602082019050919050565b60006020820190508181036000830152615a03816159c7565b9050919050565b7f41756374696f6e20616c72656164792063616e63656c65642e00000000000000600082015250565b6000615a40601983614acd565b9150615a4b82615a0a565b602082019050919050565b60006020820190508181036000830152615a6f81615a33565b9050919050565b7f41756374696f6e20656e64206461746520726561636865640000000000000000600082015250565b6000615aac601883614acd565b9150615ab782615a76565b602082019050919050565b60006020820190508181036000830152615adb81615a9f565b9050919050565b600081519050919050565b60005b83811015615b0b578082015181840152602081019050615af0565b83811115615b1a576000848401525b50505050565b6000615b2b82615ae2565b615b358185614acd565b9350615b45818560208601615aed565b615b4e8161469e565b840191505092915050565b6000606082019050615b6e600083018661459e565b8181036020830152615b808185615423565b90508181036040830152615b948184615b20565b9050949350505050565b7f42696464657220616c726561647920636f6e6669726d65640000000000000000600082015250565b6000615bd4601883614acd565b9150615bdf82615b9e565b602082019050919050565b60006020820190508181036000830152615c0381615bc7565b9050919050565b7f4d555354206265203e3d207468652067756172616e746565206465706f73697460008201527f2e00000000000000000000000000000000000000000000000000000000000000602082015250565b6000615c66602183614acd565b9150615c7182615c0a565b604082019050919050565b60006020820190508181036000830152615c9581615c59565b9050919050565b7f42696464657220726567697374726174696f6e2077696e646f7720657870697260008201527f65642e0000000000000000000000000000000000000000000000000000000000602082015250565b6000615cf8602383614acd565b9150615d0382615c9c565b604082019050919050565b60006020820190508181036000830152615d2781615ceb565b9050919050565b6000604082019050615d4360008301856148a9565b615d5060208301846148a9565b9392505050565b7f436865636b2062696464657220616c6c6f77616e636500000000000000000000600082015250565b6000615d8d601683614acd565b9150615d9882615d57565b602082019050919050565b60006020820190508181036000830152615dbc81615d80565b9050919050565b6000606082019050615dd860008301866148a9565b615de560208301856148a9565b615df2604083018461459e565b949350505050565b7f436f6e6669726d656420696e736372697074696f6e2e00000000000000000000600082015250565b6000615e30601683614acd565b9150615e3b82615dfa565b602082019050919050565b60006020820190508181036000830152615e5f81615e23565b9050919050565b6000606082019050615e7b600083018661459e565b615e88602083018561459e565b615e95604083018461459e565b94935050505056fea2646970667358221220a2502b1e3191bd4bc100b034426ba0db0570bad25680ba6ec84c6b0319b0770764736f6c634300080a0033",
  "immutableReferences": {},
  "source": "// SPDX-License-Identifier: MIT\npragma solidity >=0.4.22 <0.9.0;\n\nimport \"@openzeppelin/contracts/access/Ownable.sol\";\nimport \"@openzeppelin/contracts/token/ERC20/IERC20.sol\";\n\n/***\n * This contract implementas public auctions at Supreme Court in Buenos Aires Province @ Argetina.\n * The auction process has an hybrid architecture, where the auction data and administrative flow is centralizad in a \n * traditional web application, and the push process and winner definition happens in the blockchain.\n * \n * Author: Lic. Gustavo Perez Villar @ Buenos Aires - Argentina\n */\n\ncontract AuctionsSCBA is Ownable {\n    \n    // Events\n\n    event evt_bidderConfirmedInscription(address indexed sender, string message);\n    event evt_auctionStart(uint timeStamp, string auctionID);\n    event evt_auctionCanceled(uint timeStamp, string auctionID, string cause);\n    event evt_maximunSecretBidBeaten(uint timeStamp, address beatenBidder);\n    event evt_bidConfirmed(uint timeStamp, uint lotId, uint trancheId, address _bidder);\n    event evt_auctionLotExtended(uint timeStamp, uint lotId, uint newEndDate);\n    event evt_auctionClosed(uint timeStamp, string auctionID);\n    event evt_lotWinner(uint timeStamp, uint lotId, address bidderId);\n    event evt_bidderEnabledToWithDraw(uint timeStamp, address bidderId);\n\n    // Custom data types\n\n    enum AuctionClass {REAL_STATE,MOBILE,MOBILE_REGISTER}\n    enum AuctionState {NO_INIT,INIT,LOT,STARTED,EXTENDED,ENDED,CANCELED}\n    struct AuctionLot {\n        uint lotId_;\n        uint startDate_;\n        uint endDate_;\n        uint baseValue_;\n        uint extendedEndDate_;\n        uint extensionsCount_;\n        address winner_;\n        uint lastTrancheId_;\n        uint actualTrancheId_;\n    }\n    struct Auction {\n        string auctionCode_;\n        AuctionClass auctionClass_;\n        uint guaranteeDeposit_;\n        uint totalAuctionLots_;\n        uint startDate_;\n        uint endDate_;\n        uint extendedEndDate_;\n    }\n    struct Bidder {\n        uint guaranteeDeposit_; // Deposited amount in wei for confirm auction inscription\n        bool preserveLastBid_;  // If he wants to preserve his last bid in case the winner doesn't confirm the buy. \n                                // if preserve bid is true, the bidder cannot withdraw founds after auction ending.\n        uint[] lotSecretBid_;   // Secrets bid per lot. lotSecretBid_[lotId-1] = secretBid. Secret Bid is expressed as trancheid.\n        bool lotWinner_;         // True if the bidder has win one or more lots. Used for wnebale withdraw founds.\n    }\n    struct AuctionTranches {\n        uint trancheId_;\n        uint trancheValue_;\n        address trancheBidder_;\n        bool trancheConfirmed_;\n        uint trancheBidTimestamp_;\n    }\n\n    // State Variables\n    IERC20 private _token;\n    AuctionLot[] private _auctionLots; // Auction lots array - Index starts in 0 - (_lotId -1)\n    AuctionState private _auctionState; // Actual auction state\n    Auction private _auctionObject; // Instance of auction data\n    mapping (address => Bidder) private _validBidders; // Valid registered bidders\n    mapping (uint => AuctionTranches[]) private _tranchesPerLot; // Index starts in 0 - ( _lotId -1 )\n    address[] private _bidderList;\n    mapping (address => mapping(uint => bool)) _bidderLotMSBBeaten; // True if bidder's maximun secret bed has bean beaten for a particular lot\n\n   // Constructor\n\n    constructor ( IERC20 _jusToken) {\n        // State variables initialization\n        _auctionState = AuctionState.NO_INIT;\n        _token = _jusToken;\n    }\n \n    // External Functions\n\n    function auctionInit(\n        string memory __auctionCode,\n        AuctionClass __auctionClass, \n        uint __guaranteeDeposit, \n        uint __totalAuctionLots,\n        uint __startDate,\n        uint __endDate \n    ) external onlyOwner  {\n        require(_auctionState  == AuctionState.NO_INIT, \"Already initialized\");\n        //require(block.timestamp < __startDate && (__startDate + 10 days) <= __endDate,\"Invalid dates\");\n        _auctionState = AuctionState.INIT;\n        _auctionObject.auctionCode_ = __auctionCode;\n        _auctionObject.auctionClass_ = __auctionClass;\n        _auctionObject.guaranteeDeposit_ = __guaranteeDeposit;\n        _auctionObject.totalAuctionLots_ = __totalAuctionLots;\n        _auctionObject.startDate_ = __startDate;\n        _auctionObject.endDate_ = __endDate;\n        _auctionObject.extendedEndDate_ = __endDate;\n    }\n\n    function auctionAddLot(uint __baseValue) external onlyOwner {\n        require(_auctionState == AuctionState.INIT || _auctionState == AuctionState.LOT ,\"NOT initialized\");\n        // Can't add more tha one lot if the auction class is Realstate\n        if (_auctionObject.auctionClass_ == AuctionClass.REAL_STATE && _auctionLots.length == 1) { revert(\"Only allows one lot\"); }\n        if (_auctionLots.length > _auctionObject.totalAuctionLots_) { revert(\"Cant't add lots\"); }\n        AuctionLot memory tmpLot;\n        _auctionState = AuctionState.LOT;\n        tmpLot.lotId_ = _auctionLots.length + 1;  //Start at lot 1\n        tmpLot.extensionsCount_ = 0;\n        tmpLot.startDate_ = _auctionObject.startDate_;\n        tmpLot.endDate_ = _auctionObject.endDate_;\n        tmpLot.extendedEndDate_ = _auctionObject.endDate_;\n        tmpLot.baseValue_ = __baseValue;\n        tmpLot.lastTrancheId_ = 0;\n        _auctionLots.push(tmpLot); // Add lot to lot array\n    }  \n\n    function confirmBidderInscription(bool _preserveGuranteeDeposit) external  {\n        _confirmBidderInscription(msg.sender, _auctionObject.guaranteeDeposit_, _preserveGuranteeDeposit);\n    }\n\n    function auctionStart() external onlyOwner {\n        _setAuctionStart();\n    }\n\n    function auctionClose() external onlyOwner {\n        _auctionClose();\n    }\n\n   function auctionCancel(string memory _cause) external onlyOwner {\n        _auctionCancelation(_cause);\n    }\n\n    function enableWithDraw( address _bidderAddress) external onlyOwner {\n        _enableWithDraw(_bidderAddress);\n    }\n\n    // Public Functions\n\n    function getAuctionState() public view returns (AuctionState) {\n        return _auctionState;\n    }\n    \n    // Get contract address blance (sum of all guarantee deposits for each confirmed bidder)\n    function getAuctionBalance() public view returns (uint) {\n        return _token.balanceOf(address(this));\n    } \n    \n    function getConfirmedBiddders() public view returns (uint){\n        return _bidderList.length;\n    }\n\n    function isBidderConfirmed(address _queryBidder) public view returns(bool) {   \n        return (_validBidders[_queryBidder].guaranteeDeposit_ > 0);\n    }\n\n    function getAuctionStartDate() public view returns(uint) {     \n        return _auctionObject.startDate_;\n    }\n\n    function getAuctionEndtDate() public view returns(uint) {     \n        return _auctionObject.extendedEndDate_;\n    }\n\n    function getAuctionClass() public view returns(AuctionClass) {     \n        return _auctionObject.auctionClass_;\n    }\n\n    function getActualTranche(uint _lotId) public view returns (uint,uint) {\n        uint retTrancheId_;\n        uint retValue_;\n        retTrancheId_ = _auctionLots[_lotId-1].actualTrancheId_;\n        if (retTrancheId_ > 0 ) {\n            retValue_ = _tranchesPerLot[_lotId-1][retTrancheId_-1].trancheValue_;\n        } else {\n            retValue_ = _tranchesPerLot[_lotId-1][0].trancheValue_;\n        }\n        return (retTrancheId_, retValue_);\n    }\n\n    function getLastTranche(uint _lotId) public view returns (uint,uint,address) {\n        uint retTrancheId_;\n        uint retValue_;\n        address retBidder_;\n        retTrancheId_ = _auctionLots[_lotId-1].lastTrancheId_;\n        if (retTrancheId_ > 0) {\n            retValue_ = _tranchesPerLot[_lotId-1][retTrancheId_-1].trancheValue_;\n        } else {\n            retValue_ = _tranchesPerLot[_lotId-1][0].trancheValue_;\n        }\n        retBidder_ = _tranchesPerLot[_lotId-1][retTrancheId_-1].trancheBidder_;\n        \n        return (retTrancheId_, retValue_, retBidder_);\n    }\n\n    function getBidderMaximunSecretBid(uint _lotId, address _bidder) public view returns (uint,uint) {\n        uint _retTranche = _validBidders[_bidder].lotSecretBid_[_lotId-1];\n        uint _retAmount = _getLotTrancheValue(_lotId,_retTranche);\n        return (_retTranche, _retAmount);\n    }\n        \n    function getLotQuantity() public view returns (uint) {\n        return _auctionLots.length;\n    }\n\n    function getLotBaseValue(uint _lotId) public view returns (uint) {\n        return _auctionLots[_lotId-1].baseValue_;\n    }\n\n    function getLotTrancheValue(uint _lotId, uint _trancheId) public view returns (uint) {\n        \n        return _getLotTrancheValue(_lotId,_trancheId);\n    }\n    \n    function getLotEndDate(uint _lotId) public view returns (uint) {\n        \n        return _auctionLots[_lotId-1].extendedEndDate_;\n    }\n    function getLotExtensionCount(uint _lotId) public view returns (uint) {\n        \n        return _auctionLots[_lotId-1].extensionsCount_;\n    }\n\n    function bidderSetPreservelastBid(bool _value) public {\n        require(_auctionState == AuctionState.LOT,\"There must be at least one lot defined.\"); \n        require(_validBidders[msg.sender].guaranteeDeposit_ > 0,\"Bidder not confirmed\"); \n        require((msg.sender != this.owner()));\n        \n        _validBidders[msg.sender].preserveLastBid_ = _value;\n\n    }\n\n    function bidderSetMaximunSecretBidAmount(uint _lotId, uint _value) public {\n        require(_auctionState == AuctionState.LOT,\"There must be at least one lot defined.\"); \n        require(_validBidders[msg.sender].guaranteeDeposit_ > 0,\"Bidder not confirmed\"); \n        require((msg.sender != this.owner()),\"Cannot be called by contract owner\");\n        require(_value > _auctionLots[_lotId-1].baseValue_,\"MUST be greater than lot base value.\"); \n        uint _msbTranche;\n        uint _fivePercent;\n        \n        _fivePercent = ((_auctionLots[_lotId-1].baseValue_ / 100) * 5);\n        _msbTranche = ((_value - _auctionLots[_lotId-1].baseValue_) / _fivePercent) + 1;\n        _validBidders[msg.sender].lotSecretBid_[_lotId-1] = _msbTranche-1; // -1 for approaching lower tranche.\n        \n    }\n    function bidderSetMaximunSecretBidTranche(uint _lotId, uint _value) public {\n        require(_auctionState == AuctionState.LOT,\"Must be at least one lot defined.\"); \n        require(_validBidders[msg.sender].guaranteeDeposit_ > 0,\"Bidder not confirmed\"); \n        require((msg.sender != this.owner()),\"Cannot be called by contract owner\");\n        require(_value >= 1 ,\"Tranche MUST be greater than zero.\"); \n        \n        _validBidders[msg.sender].lotSecretBid_[_lotId-1] = _value;\n    }\n\n    function bid(uint _lotId, uint _trancheId) public {\n        _bid(msg.sender, _lotId, _trancheId);\n        _secretBidPush();\n    } \n\n    // Internal Functions\n\n    function _getLotTrancheValue(uint _lotId, uint _trancheId) internal view returns (uint) {\n        uint _baseValue = _auctionLots[_lotId-1].baseValue_;\n        uint _factor = _trancheId * 5;\n\n        return _baseValue + ((_baseValue * _factor) / 100);\n    }\n\n    function _confirmBidderInscription(address _bidderAddress, uint _depositAmount, bool _preserveGuaranteeDeposit) internal     {\n        Bidder memory _tmpBidder;\n        uint _LotsLength = _auctionLots.length;\n        require(_auctionState == AuctionState.LOT,\"Must be at least one lot defined.\"); \n        require(_validBidders[_bidderAddress].guaranteeDeposit_ == 0,\"Bidder already confirmed\"); \n        require(_depositAmount >= _auctionObject.guaranteeDeposit_,\"MUST be >= the guarantee deposit.\");\n        require (block.timestamp <= _auctionObject.startDate_,\"Bidder registration window expired.\");\n        require((msg.sender != this.owner()));\n        require(_token.allowance(_bidderAddress, address(this)) >= _depositAmount,\"Check bidder allowance\");\n\n        _token.transferFrom(_bidderAddress, address(this),_depositAmount);\n        _tmpBidder.guaranteeDeposit_ = _depositAmount;\n        _tmpBidder.preserveLastBid_ = _preserveGuaranteeDeposit;\n        // initialize Maximun Secret Bid array\n        _validBidders[_bidderAddress] = _tmpBidder;\n        for (uint i=0; i<_LotsLength; i++) {\n            _validBidders[_bidderAddress].lotSecretBid_.push(0);\n        }\n        _bidderList.push(_bidderAddress);\n\n        emit evt_bidderConfirmedInscription(_bidderAddress,\"Confirmed inscription.\");\n    }\n\n    function _setAuctionStart() internal  {\n        require(_auctionState == AuctionState.LOT,\"Must be at least one lot defined.\"); \n        require((block.timestamp + 5 seconds) >= _auctionObject.startDate_ && block.timestamp <= _auctionObject.endDate_,\"Actual time outside boundaries\");\n        \n        if (_bidderList.length == 0) {\n             _auctionCancelation(\"No bidders at start\");\n        } else {\n            _auctionState = AuctionState.STARTED;\n            _initTranches();\n            _secretBidPush();\n\n            emit evt_auctionStart(block.timestamp, _auctionObject.auctionCode_);        }\n    }\n    \n    function _auctionCancelation(string memory _cause) internal {\n        require(_auctionState != AuctionState.CANCELED,\"Auction already canceled.\"); \n        require(block.timestamp <= _auctionObject.extendedEndDate_,\"Auction end date reached\");\n        \n        for (uint i=0; i<=_bidderList.length-1;i++) {\n            _enableWithDraw(_bidderList[i]);\n        }\n        _auctionState = AuctionState.CANCELED;\n        emit evt_auctionCanceled(block.timestamp, _auctionObject.auctionCode_, _cause);\n    }\n\n    function _initTranches() internal {\n        require(_auctionState == AuctionState.STARTED,\"MUST be in STARTED state\");\n        uint _LotsLength = _auctionLots.length;\n        AuctionTranches memory _tmpTranche;\n\n        for (uint i=0; i<_LotsLength; i++) {\n            _tmpTranche.trancheId_ = i+1;\n            _tmpTranche.trancheValue_ = _auctionLots[i].baseValue_;\n            _tmpTranche.trancheConfirmed_ = false;\n            _tranchesPerLot[i].push(_tmpTranche);\n            _auctionLots[i].actualTrancheId_ = 1; \n        }\n    }\n\n    /*\n    This function iterates over each bidder for every lot pushing using the Maximun Secret Bid commited before\n    auction start. The push order is related to the inscription order and the loops ends when no maximun secret bid\n    can beat the last valid automatic bid pushed.\n    */\n    function _secretBidPush() internal  {\n        require(_auctionState == AuctionState.STARTED || _auctionState == AuctionState.EXTENDED,\"MUST be in STARTED state\");\n        require(block.timestamp <= _auctionObject.extendedEndDate_,\"End date reached\");\n        bool _doBid = true;        \n        while (_doBid == true) {\n            _doBid = false;\n            for (uint x=0;x<=_auctionLots.length-1;x++) {\n                for (uint i=0; i<=_bidderList.length-1;i++) {\n                    // if the current iteration bidder has a maximun secret bid greater than auction current tranche and the bidder \n                    // is not the winner of te past tranch, the system pushes a bid in his name.\n                    if (_validBidders[_bidderList[i]].lotSecretBid_[x] > 0 && _validBidders[_bidderList[i]].lotSecretBid_[x] >= _auctionLots[x].actualTrancheId_) {\n                        if (_auctionLots[x].lastTrancheId_ == 0) {\n                            _bid(_bidderList[i], x+1, 1);\n                            _doBid = true;\n                            break;\n                        } else {\n                            if ( _tranchesPerLot[x][_auctionLots[x].lastTrancheId_ -1].trancheBidder_ != _bidderList[i] ) {\n                                _bid(_bidderList[i], x+1, _auctionLots[x].actualTrancheId_);\n                                _doBid=true;\n                                break;\n                            }\n                        }\n                    } else {\n                        if (_validBidders[_bidderList[i]].lotSecretBid_[x] >= _auctionLots[x].actualTrancheId_ &&\n                            _bidderLotMSBBeaten[_bidderList[i]][_auctionLots[x].actualTrancheId_] == false) {\n                            //Bidder's maximun secret bid has been beaten                            \n                            _bidderLotMSBBeaten[_bidderList[i]][_auctionLots[x].actualTrancheId_] = true;\n                            emit evt_maximunSecretBidBeaten(block.timestamp, _bidderList[i]);\n                        }\n                    }\n                }\n            }\n        }\n    }\n\n    function _bid(address _bidder, uint _lotId, uint _bidTranche) internal {\n        require(_auctionState == AuctionState.STARTED || _auctionState == AuctionState.EXTENDED ,\"MUST be in STARTED or EXTENDED state\");\n        require(block.timestamp <= _auctionObject.extendedEndDate_,\"End date reached\");\n        require(_tranchesPerLot[_lotId-1][_bidTranche-1].trancheConfirmed_ == false, \"Tranche already confirmed.\");        \n        require(_validBidders[_bidder].guaranteeDeposit_ > 0, \"MUST be a valid bidder\");\n        if (_auctionLots[_lotId-1].lastTrancheId_ > 0) {\n            require(_tranchesPerLot[_lotId-1][_auctionLots[_lotId-1].lastTrancheId_-1].trancheBidder_ != _bidder, \"Bidder already pushed\");\n        }\n        require(_bidTranche == _auctionLots[_lotId-1].actualTrancheId_,\"Invalid tranche\");\n        AuctionTranches memory _tmpTranche;\n        \n        // updates lot info\n        _auctionLots[_lotId-1].lastTrancheId_ += 1;\n        _auctionLots[_lotId-1].actualTrancheId_ += 1;\n\n        \n        // updates tranche info\n        _tranchesPerLot[_lotId-1][_bidTranche-1].trancheBidder_ = _bidder;\n        _tranchesPerLot[_lotId-1][_bidTranche-1].trancheConfirmed_ = true;\n        _tranchesPerLot[_lotId-1][_bidTranche-1].trancheBidTimestamp_ = block.timestamp;\n\n        // Init next tranche\n        _tmpTranche.trancheId_ = _auctionLots[_lotId-1].actualTrancheId_;\n        _tmpTranche.trancheValue_ = _getLotTrancheValue(_lotId,_auctionLots[_lotId-1].actualTrancheId_);\n        _tmpTranche.trancheConfirmed_ = false;\n        _tranchesPerLot[_lotId-1].push(_tmpTranche);\n\n        // check extension period\n        _extendAuction(_lotId);\n\n        // generates events\n        emit evt_bidConfirmed(block.timestamp, _lotId, _bidTranche, _bidder);\n        \n    }\n\n    function _extendAuction(uint _lotId) internal {\n        require(_auctionState == AuctionState.STARTED || _auctionState == AuctionState.EXTENDED ,\"MUST be in STARTED or EXTENDED state\");\n        require(block.timestamp <= _auctionObject.extendedEndDate_,\"Auction end date reached\");\n        uint extensionPeriod = (_auctionLots[_lotId-1].extendedEndDate_ - 3 minutes);\n\n        // the current bid should be in the last 3 minutes near the end to extend the auction.\n        if (block.timestamp >= extensionPeriod) {\n            _auctionLots[_lotId-1].extendedEndDate_ = ( _auctionLots[_lotId-1].endDate_ + 2 minutes);\n            _auctionLots[_lotId-1].extensionsCount_ += 1;\n            _auctionObject.extendedEndDate_ = ( _auctionLots[_lotId-1].endDate_ + 2 minutes);\n            emit evt_auctionLotExtended(block.timestamp, _lotId, _auctionObject.extendedEndDate_);\n        }\n    } \n    \n    function _auctionClose() internal {\n        require(_auctionState == AuctionState.STARTED || _auctionState == AuctionState.EXTENDED ,\"MUST be in STARTED or EXTENDED state\");\n        require(block.timestamp >= _auctionObject.extendedEndDate_,\"End date still not reahced\");\n\n        // Set the winner for each tranche and enable withdraw\n        for (uint i=0;i<=_auctionLots.length-1;i++) {\n            _auctionLots[i].winner_ =_tranchesPerLot[i][_auctionLots[i].lastTrancheId_ -1].trancheBidder_;\n            _validBidders[_auctionLots[i].winner_].lotWinner_ = true;\n            emit evt_lotWinner(block.timestamp, i+1,_auctionLots[i].winner_);\n        }\n        // Change auction state to CLOSED\n        _auctionState = AuctionState.ENDED;\n        // Enable bidders to withdraw JUSTokens\n        for (uint i=0; i<=_bidderList.length-1;i++) {\n            if ( _validBidders[_bidderList[i]].preserveLastBid_ == false && _validBidders[_bidderList[i]].lotWinner_ == false) {                \n                _enableWithDraw(_bidderList[i]);\n            }\n        }\n        // Emit close event\n        emit evt_auctionClosed(block.timestamp, _auctionObject.auctionCode_);        \n    }\n    \n    function _enableWithDraw( address _bidderAddress) internal {\n        require(_auctionState == AuctionState.CANCELED || _auctionState == AuctionState.ENDED ,\"MUST be in ENDED or CANCELED state\");\n        require(_validBidders[_bidderAddress].guaranteeDeposit_ > 0, \"Bidder NOT confirmed\");  \n        require(_token.balanceOf(address(this)) >= _validBidders[_bidderAddress].guaranteeDeposit_,\"No founds\");\n\n        _token.approve(_bidderAddress,_auctionObject.guaranteeDeposit_);\n        _validBidders[_bidderAddress].guaranteeDeposit_ = 0;\n        emit evt_bidderEnabledToWithDraw(block.timestamp, _bidderAddress);\n    }\n\n}\n",
  "sourcePath": "/home/gperez/proyectos/scba-auction-ethereum/contracts/AuctionsSCBA.sol",
  "compiler": {
    "name": "solc",
    "version": "0.8.10+commit.fc410830.Emscripten.clang"
  },
  "schemaVersion": "3.4.4",
  "updatedAt": "2021-12-31T01:33:14.316Z",
  "devdoc": {
    "kind": "dev",
    "methods": {
      "owner()": {
        "details": "Returns the address of the current owner."
      },
      "renounceOwnership()": {
        "details": "Leaves the contract without owner. It will not be possible to call `onlyOwner` functions anymore. Can only be called by the current owner. NOTE: Renouncing ownership will leave the contract without an owner, thereby removing any functionality that is only available to the owner."
      },
      "transferOwnership(address)": {
        "details": "Transfers ownership of the contract to a new account (`newOwner`). Can only be called by the current owner."
      }
    },
    "version": 1
  },
  "userdoc": {
    "kind": "user",
    "methods": {},
    "version": 1
  }
}