{
  "contractName": "AuctionsSCBA",
  "abi": [
    {
      "inputs": [],
      "stateMutability": "nonpayable",
      "type": "constructor"
    },
    {
      "anonymous": false,
      "inputs": [
        {
          "indexed": true,
          "internalType": "address",
          "name": "previousOwner",
          "type": "address"
        },
        {
          "indexed": true,
          "internalType": "address",
          "name": "newOwner",
          "type": "address"
        }
      ],
      "name": "OwnershipTransferred",
      "type": "event"
    },
    {
      "anonymous": false,
      "inputs": [
        {
          "indexed": false,
          "internalType": "uint256",
          "name": "timeStamp",
          "type": "uint256"
        },
        {
          "indexed": false,
          "internalType": "string",
          "name": "auctionID",
          "type": "string"
        },
        {
          "indexed": false,
          "internalType": "string",
          "name": "cause",
          "type": "string"
        }
      ],
      "name": "evt_auctionCanceled",
      "type": "event"
    },
    {
      "anonymous": false,
      "inputs": [
        {
          "indexed": false,
          "internalType": "uint256",
          "name": "timeStamp",
          "type": "uint256"
        },
        {
          "indexed": false,
          "internalType": "string",
          "name": "auctionID",
          "type": "string"
        }
      ],
      "name": "evt_auctionStart",
      "type": "event"
    },
    {
      "anonymous": false,
      "inputs": [
        {
          "indexed": true,
          "internalType": "address",
          "name": "sender",
          "type": "address"
        },
        {
          "indexed": false,
          "internalType": "string",
          "name": "message",
          "type": "string"
        }
      ],
      "name": "evt_bidderConfirmedInscription",
      "type": "event"
    },
    {
      "inputs": [],
      "name": "owner",
      "outputs": [
        {
          "internalType": "address",
          "name": "",
          "type": "address"
        }
      ],
      "stateMutability": "view",
      "type": "function"
    },
    {
      "inputs": [],
      "name": "renounceOwnership",
      "outputs": [],
      "stateMutability": "nonpayable",
      "type": "function"
    },
    {
      "inputs": [
        {
          "internalType": "address",
          "name": "newOwner",
          "type": "address"
        }
      ],
      "name": "transferOwnership",
      "outputs": [],
      "stateMutability": "nonpayable",
      "type": "function"
    },
    {
      "stateMutability": "payable",
      "type": "receive"
    },
    {
      "inputs": [
        {
          "internalType": "bool",
          "name": "_preserveGuranteeDeposit",
          "type": "bool"
        }
      ],
      "name": "confirmBidderInscription",
      "outputs": [],
      "stateMutability": "payable",
      "type": "function"
    },
    {
      "inputs": [
        {
          "internalType": "string",
          "name": "__auctionCode",
          "type": "string"
        },
        {
          "internalType": "enum AuctionsSCBA.AuctionClass",
          "name": "__auctionClass",
          "type": "uint8"
        },
        {
          "internalType": "uint256",
          "name": "__guaranteeDeposit",
          "type": "uint256"
        },
        {
          "internalType": "uint256",
          "name": "__totalAuctionLots",
          "type": "uint256"
        },
        {
          "internalType": "uint256",
          "name": "__startDate",
          "type": "uint256"
        },
        {
          "internalType": "uint256",
          "name": "__endDate",
          "type": "uint256"
        }
      ],
      "name": "auctionInit",
      "outputs": [],
      "stateMutability": "nonpayable",
      "type": "function"
    },
    {
      "inputs": [
        {
          "internalType": "uint256",
          "name": "__baseValue",
          "type": "uint256"
        }
      ],
      "name": "auctionAddLot",
      "outputs": [],
      "stateMutability": "nonpayable",
      "type": "function"
    },
    {
      "inputs": [],
      "name": "auctionStart",
      "outputs": [],
      "stateMutability": "nonpayable",
      "type": "function"
    },
    {
      "inputs": [
        {
          "internalType": "string",
          "name": "_cause",
          "type": "string"
        }
      ],
      "name": "auctionCancel",
      "outputs": [],
      "stateMutability": "nonpayable",
      "type": "function"
    },
    {
      "inputs": [],
      "name": "getAuctionState",
      "outputs": [
        {
          "internalType": "enum AuctionsSCBA.AuctionState",
          "name": "",
          "type": "uint8"
        }
      ],
      "stateMutability": "view",
      "type": "function"
    },
    {
      "inputs": [],
      "name": "getAuctionBalance",
      "outputs": [
        {
          "internalType": "uint256",
          "name": "",
          "type": "uint256"
        }
      ],
      "stateMutability": "view",
      "type": "function"
    },
    {
      "inputs": [],
      "name": "getConfirmedBiddders",
      "outputs": [
        {
          "internalType": "uint256",
          "name": "",
          "type": "uint256"
        }
      ],
      "stateMutability": "view",
      "type": "function"
    },
    {
      "inputs": [
        {
          "internalType": "address",
          "name": "_queryBidder",
          "type": "address"
        }
      ],
      "name": "isBidderConfirmed",
      "outputs": [
        {
          "internalType": "bool",
          "name": "",
          "type": "bool"
        }
      ],
      "stateMutability": "view",
      "type": "function"
    },
    {
      "inputs": [],
      "name": "getAuctionStartDate",
      "outputs": [
        {
          "internalType": "uint256",
          "name": "",
          "type": "uint256"
        }
      ],
      "stateMutability": "view",
      "type": "function"
    },
    {
      "inputs": [],
      "name": "getAuctionEndtDate",
      "outputs": [
        {
          "internalType": "uint256",
          "name": "",
          "type": "uint256"
        }
      ],
      "stateMutability": "view",
      "type": "function"
    },
    {
      "inputs": [],
      "name": "getAuctionClass",
      "outputs": [
        {
          "internalType": "enum AuctionsSCBA.AuctionClass",
          "name": "",
          "type": "uint8"
        }
      ],
      "stateMutability": "view",
      "type": "function"
    },
    {
      "inputs": [
        {
          "internalType": "uint256",
          "name": "_lotId",
          "type": "uint256"
        }
      ],
      "name": "getActualTranche",
      "outputs": [
        {
          "internalType": "uint256",
          "name": "",
          "type": "uint256"
        },
        {
          "internalType": "uint256",
          "name": "",
          "type": "uint256"
        }
      ],
      "stateMutability": "view",
      "type": "function"
    },
    {
      "inputs": [
        {
          "internalType": "uint256",
          "name": "_lotId",
          "type": "uint256"
        }
      ],
      "name": "getLastTranche",
      "outputs": [
        {
          "internalType": "uint256",
          "name": "",
          "type": "uint256"
        },
        {
          "internalType": "uint256",
          "name": "",
          "type": "uint256"
        },
        {
          "internalType": "address",
          "name": "",
          "type": "address"
        }
      ],
      "stateMutability": "view",
      "type": "function"
    },
    {
      "inputs": [
        {
          "internalType": "bool",
          "name": "_value",
          "type": "bool"
        }
      ],
      "name": "bidderSetPreservelastBid",
      "outputs": [],
      "stateMutability": "nonpayable",
      "type": "function"
    },
    {
      "inputs": [
        {
          "internalType": "uint256",
          "name": "_lotId",
          "type": "uint256"
        },
        {
          "internalType": "uint256",
          "name": "_value",
          "type": "uint256"
        }
      ],
      "name": "bidderSetMaximunSecretBid",
      "outputs": [],
      "stateMutability": "nonpayable",
      "type": "function"
    }
  ],
  "bytecode": "0x60806040523480156200001157600080fd5b5062000032620000266200006e60201b60201c565b6200007660201b60201c565b6000600260006101000a81548160ff021916908360068111156200005b576200005a6200013a565b5b02179055506000600b8190555062000169565b600033905090565b60008060009054906101000a900473ffffffffffffffffffffffffffffffffffffffff169050816000806101000a81548173ffffffffffffffffffffffffffffffffffffffff021916908373ffffffffffffffffffffffffffffffffffffffff1602179055508173ffffffffffffffffffffffffffffffffffffffff168173ffffffffffffffffffffffffffffffffffffffff167f8be0079c531659141344cd1fd0a4f28419497f9722a3daafe3b4186f6b6457e060405160405180910390a35050565b7f4e487b7100000000000000000000000000000000000000000000000000000000600052602160045260246000fd5b612f3880620001796000396000f3fe6080604052600436106101185760003560e01c8063715018a6116100a0578063c455d0cb11610064578063c455d0cb14610395578063d262c0e5146103c0578063d6985621146103e9578063f0c019df14610405578063f2fde38b1461042e5761012b565b8063715018a6146102ab578063728194ee146102c25780637786ce34146103015780637e360c411461032c5780638da5cb5b1461036a5761012b565b80634a8bb6ed116100e75780634a8bb6ed146101da5780634f245ef71461020557806359ec35d81461021c5780635e464d511461025957806361dd3bcc146102825761012b565b806308bfc300146101305780631499cf111461015b57806325a35e73146101865780632c3def68146101b15761012b565b3661012b5761012933346000610457565b005b600080fd5b34801561013c57600080fd5b506101456107a1565b6040516101529190611d23565b60405180910390f35b34801561016757600080fd5b506101706107b8565b60405161017d9190611d57565b60405180910390f35b34801561019257600080fd5b5061019b6107c5565b6040516101a89190611d57565b60405180910390f35b3480156101bd57600080fd5b506101d860048036038101906101d39190611db2565b6107cd565b005b3480156101e657600080fd5b506101ef6109e2565b6040516101fc9190611d57565b60405180910390f35b34801561021157600080fd5b5061021a6109ec565b005b34801561022857600080fd5b50610243600480360381019061023e9190611e50565b610a72565b6040516102509190611e98565b60405180910390f35b34801561026557600080fd5b50610280600480360381019061027b9190611ff9565b610ac0565b005b34801561028e57600080fd5b506102a960048036038101906102a4919061206e565b610b48565b005b3480156102b757600080fd5b506102c0610d47565b005b3480156102ce57600080fd5b506102e960048036038101906102e4919061209b565b610dcf565b6040516102f8939291906120d7565b60405180910390f35b34801561030d57600080fd5b50610316610e88565b6040516103239190611d57565b60405180910390f35b34801561033857600080fd5b50610353600480360381019061034e919061209b565b610e95565b60405161036192919061210e565b60405180910390f35b34801561037657600080fd5b5061037f610f00565b60405161038c9190612137565b60405180910390f35b3480156103a157600080fd5b506103aa610f29565b6040516103b7919061219a565b60405180910390f35b3480156103cc57600080fd5b506103e760048036038101906103e2919061209b565b610f43565b005b61040360048036038101906103fe919061206e565b6112c3565b005b34801561041157600080fd5b5061042c600480360381019061042791906121da565b6112d1565b005b34801561043a57600080fd5b5061045560048036038101906104509190611e50565b6114c0565b005b61045f611ae9565b6002600681111561047357610472611cac565b5b600260009054906101000a900460ff16600681111561049557610494611cac565b5b146104d5576040517f08c379a00000000000000000000000000000000000000000000000000000000081526004016104cc90612306565b60405180910390fd5b6000600960008673ffffffffffffffffffffffffffffffffffffffff1673ffffffffffffffffffffffffffffffffffffffff168152602001908152602001600020600001541461055a576040517f08c379a000000000000000000000000000000000000000000000000000000000815260040161055190612372565b60405180910390fd5b6003600201548310156105a2576040517f08c379a00000000000000000000000000000000000000000000000000000000081526004016105999061242a565b60405180910390fd5b6003600401544211156105ea576040517f08c379a00000000000000000000000000000000000000000000000000000000081526004016105e1906124bc565b60405180910390fd5b3073ffffffffffffffffffffffffffffffffffffffff16638da5cb5b6040518163ffffffff1660e01b8152600401602060405180830381865afa158015610635573d6000803e3d6000fd5b505050506040513d601f19601f8201168201806040525081019061065991906124f1565b73ffffffffffffffffffffffffffffffffffffffff163373ffffffffffffffffffffffffffffffffffffffff16141561069157600080fd5b828160000181815250508181602001901515908115158152505080600960008673ffffffffffffffffffffffffffffffffffffffff1673ffffffffffffffffffffffffffffffffffffffff1681526020019081526020016000206000820151816000015560208201518160010160006101000a81548160ff0219169083151502179055506040820151816002019080519060200190610731929190611b0c565b509050506001600b6000828254610748919061254d565b925050819055508373ffffffffffffffffffffffffffffffffffffffff167f2bcb2fe5b94813e883d2308e17a49fb21fb91863c646b56c2dbeb3069bd73911604051610793906125ef565b60405180910390a250505050565b6000600260009054906101000a900460ff16905090565b6000600360040154905090565b600047905090565b600260068111156107e1576107e0611cac565b5b600260009054906101000a900460ff16600681111561080357610802611cac565b5b14610843576040517f08c379a000000000000000000000000000000000000000000000000000000000815260040161083a90612306565b60405180910390fd5b6000600960003373ffffffffffffffffffffffffffffffffffffffff1673ffffffffffffffffffffffffffffffffffffffff16815260200190815260200160002060000154116108c8576040517f08c379a00000000000000000000000000000000000000000000000000000000081526004016108bf9061265b565b60405180910390fd5b3073ffffffffffffffffffffffffffffffffffffffff16638da5cb5b6040518163ffffffff1660e01b8152600401602060405180830381865afa158015610913573d6000803e3d6000fd5b505050506040513d601f19601f8201168201806040525081019061093791906124f1565b73ffffffffffffffffffffffffffffffffffffffff163373ffffffffffffffffffffffffffffffffffffffff16141561096f57600080fd5b80600960003373ffffffffffffffffffffffffffffffffffffffff1673ffffffffffffffffffffffffffffffffffffffff1681526020019081526020016000206002016001846109bf919061267b565b815481106109d0576109cf6126af565b5b90600052602060002001819055505050565b6000600b54905090565b6109f46115b8565b73ffffffffffffffffffffffffffffffffffffffff16610a12610f00565b73ffffffffffffffffffffffffffffffffffffffff1614610a68576040517f08c379a0000000000000000000000000000000000000000000000000000000008152600401610a5f9061272a565b60405180910390fd5b610a706115c0565b565b600080600960008473ffffffffffffffffffffffffffffffffffffffff1673ffffffffffffffffffffffffffffffffffffffff16815260200190815260200160002060000154119050919050565b610ac86115b8565b73ffffffffffffffffffffffffffffffffffffffff16610ae6610f00565b73ffffffffffffffffffffffffffffffffffffffff1614610b3c576040517f08c379a0000000000000000000000000000000000000000000000000000000008152600401610b339061272a565b60405180910390fd5b610b4581611733565b50565b60026006811115610b5c57610b5b611cac565b5b600260009054906101000a900460ff166006811115610b7e57610b7d611cac565b5b14610bbe576040517f08c379a0000000000000000000000000000000000000000000000000000000008152600401610bb590612306565b60405180910390fd5b6000600960003373ffffffffffffffffffffffffffffffffffffffff1673ffffffffffffffffffffffffffffffffffffffff1681526020019081526020016000206000015411610c43576040517f08c379a0000000000000000000000000000000000000000000000000000000008152600401610c3a9061265b565b60405180910390fd5b3073ffffffffffffffffffffffffffffffffffffffff16638da5cb5b6040518163ffffffff1660e01b8152600401602060405180830381865afa158015610c8e573d6000803e3d6000fd5b505050506040513d601f19601f82011682018060405250810190610cb291906124f1565b73ffffffffffffffffffffffffffffffffffffffff163373ffffffffffffffffffffffffffffffffffffffff161415610cea57600080fd5b80600960003373ffffffffffffffffffffffffffffffffffffffff1673ffffffffffffffffffffffffffffffffffffffff16815260200190815260200160002060010160006101000a81548160ff02191690831515021790555050565b610d4f6115b8565b73ffffffffffffffffffffffffffffffffffffffff16610d6d610f00565b73ffffffffffffffffffffffffffffffffffffffff1614610dc3576040517f08c379a0000000000000000000000000000000000000000000000000000000008152600401610dba9061272a565b60405180910390fd5b610dcd600061185e565b565b60008060008060008060018088610de6919061267b565b81548110610df757610df66126af565b5b90600052602060002090600a0201600901549250600a6000600189610e1c919061267b565b8152602001908152602001600020600101549150600a6000600189610e41919061267b565b815260200190815260200160002060020160009054906101000a900473ffffffffffffffffffffffffffffffffffffffff1690508282829550955095505050509193909250565b6000600360050154905090565b60008060008060018086610ea9919061267b565b81548110610eba57610eb96126af565b5b90600052602060002090600a0201600901549150600a6000600187610edf919061267b565b81526020019081526020016000206001015490508181935093505050915091565b60008060009054906101000a900473ffffffffffffffffffffffffffffffffffffffff16905090565b6000600360010160009054906101000a900460ff16905090565b610f4b6115b8565b73ffffffffffffffffffffffffffffffffffffffff16610f69610f00565b73ffffffffffffffffffffffffffffffffffffffff1614610fbf576040517f08c379a0000000000000000000000000000000000000000000000000000000008152600401610fb69061272a565b60405180910390fd5b60016006811115610fd357610fd2611cac565b5b600260009054906101000a900460ff166006811115610ff557610ff4611cac565b5b14806110345750600260068111156110105761100f611cac565b5b600260009054906101000a900460ff16600681111561103257611031611cac565b5b145b611073576040517f08c379a000000000000000000000000000000000000000000000000000000000815260040161106a906127e2565b60405180910390fd5b6000600281111561108757611086611cac565b5b600360010160009054906101000a900460ff1660028111156110ac576110ab611cac565b5b1480156110bd575060018080549050145b156110fd576040517f08c379a00000000000000000000000000000000000000000000000000000000081526004016110f490612874565b60405180910390fd5b60038001546001805490501115611149576040517f08c379a000000000000000000000000000000000000000000000000000000000815260040161114090612906565b60405180910390fd5b611151611b59565b60028060006101000a81548160ff0219169083600681111561117657611175611cac565b5b02179055506001808054905061118c919061254d565b81600001818152505060008160a001818152505060036004015481602001818152505060036005015481604001818152505060036005015481608001818152505060008160e00181815250508181606001818152505060008161010001818152505060018190806001815401808255809150506001900390600052602060002090600a0201600090919091909150600082015181600001556020820151816001015560408201518160020155606082015181600301556080820151816004015560a0820151816005015560c08201518160060160006101000a81548173ffffffffffffffffffffffffffffffffffffffff021916908373ffffffffffffffffffffffffffffffffffffffff16021790555060e082015181600701556101008201518160080155610120820151816009015550505050565b6112ce333483610457565b50565b6112d96115b8565b73ffffffffffffffffffffffffffffffffffffffff166112f7610f00565b73ffffffffffffffffffffffffffffffffffffffff161461134d576040517f08c379a00000000000000000000000000000000000000000000000000000000081526004016113449061272a565b60405180910390fd5b6000600681111561136157611360611cac565b5b600260009054906101000a900460ff16600681111561138357611382611cac565b5b146113c3576040517f08c379a00000000000000000000000000000000000000000000000000000000081526004016113ba90612972565b60405180910390fd5b81421080156113e0575080620d2f00836113dd919061254d565b11155b61141f576040517f08c379a0000000000000000000000000000000000000000000000000000000008152600401611416906129de565b60405180910390fd5b6001600260006101000a81548160ff0219169083600681111561144557611444611cac565b5b02179055508560036000019080519060200190611463929190611bc2565b5084600360010160006101000a81548160ff0219169083600281111561148c5761148b611cac565b5b0217905550836003600201819055508260038001819055508160036004018190555080600360050181905550505050505050565b6114c86115b8565b73ffffffffffffffffffffffffffffffffffffffff166114e6610f00565b73ffffffffffffffffffffffffffffffffffffffff161461153c576040517f08c379a00000000000000000000000000000000000000000000000000000000081526004016115339061272a565b60405180910390fd5b600073ffffffffffffffffffffffffffffffffffffffff168173ffffffffffffffffffffffffffffffffffffffff1614156115ac576040517f08c379a00000000000000000000000000000000000000000000000000000000081526004016115a390612a70565b60405180910390fd5b6115b58161185e565b50565b600033905090565b600260068111156115d4576115d3611cac565b5b600260009054906101000a900460ff1660068111156115f6576115f5611cac565b5b14611636576040517f08c379a000000000000000000000000000000000000000000000000000000000815260040161162d90612306565b60405180910390fd5b600360040154421015801561165057506003600501544211155b61168f576040517f08c379a000000000000000000000000000000000000000000000000000000000815260040161168690612b02565b60405180910390fd5b6000600b5414156116c0576116bb604051806060016040528060258152602001612ede60259139611733565b611731565b6003600260006101000a81548160ff021916908360068111156116e6576116e5611cac565b5b02179055506116f3611922565b7fb7dc4d36b2ca1a9476d5e4f14a23c3e629a0fd4f3af8c71c176f1c69d9995263426003600001604051611728929190612c18565b60405180910390a15b565b60068081111561174657611745611cac565b5b600260009054906101000a900460ff16600681111561176857611767611cac565b5b14156117a9576040517f08c379a00000000000000000000000000000000000000000000000000000000081526004016117a090612cba565b60405180910390fd5b6003600501544211156117f1576040517f08c379a00000000000000000000000000000000000000000000000000000000081526004016117e890612d26565b60405180910390fd5b6006600260006101000a81548160ff0219169083600681111561181757611816611cac565b5b02179055507f699708c90a98fcdcc8862c08ac7a618790cf0bb5f4b50bca7487f71263bd92634260036000018360405161185393929190612dbd565b60405180910390a150565b60008060009054906101000a900473ffffffffffffffffffffffffffffffffffffffff169050816000806101000a81548173ffffffffffffffffffffffffffffffffffffffff021916908373ffffffffffffffffffffffffffffffffffffffff1602179055508173ffffffffffffffffffffffffffffffffffffffff168173ffffffffffffffffffffffffffffffffffffffff167f8be0079c531659141344cd1fd0a4f28419497f9722a3daafe3b4186f6b6457e060405160405180910390a35050565b6003600681111561193657611935611cac565b5b600260009054906101000a900460ff16600681111561195857611957611cac565b5b14611998576040517f08c379a000000000000000000000000000000000000000000000000000000000815260040161198f90612e74565b60405180910390fd5b600060018054905090506119aa611c48565b60005b82811015611ae4576001816119c2919061254d565b826000018181525050600181815481106119df576119de6126af565b5b90600052602060002090600a020160030154826020018181525050600082606001901515908115158152505081600a6000838152602001908152602001600020600082015181600001556020820151816001015560408201518160020160006101000a81548173ffffffffffffffffffffffffffffffffffffffff021916908373ffffffffffffffffffffffffffffffffffffffff16021790555060608201518160020160146101000a81548160ff021916908315150217905550608082015181600301559050506001808281548110611abc57611abb6126af565b5b90600052602060002090600a0201600901819055508080611adc90612e94565b9150506119ad565b505050565b604051806060016040528060008152602001600015158152602001606081525090565b828054828255906000526020600020908101928215611b48579160200282015b82811115611b47578251825591602001919060010190611b2c565b5b509050611b559190611c8f565b5090565b604051806101400160405280600081526020016000815260200160008152602001600081526020016000815260200160008152602001600073ffffffffffffffffffffffffffffffffffffffff1681526020016000815260200160008152602001600081525090565b828054611bce90612b51565b90600052602060002090601f016020900481019282611bf05760008555611c37565b82601f10611c0957805160ff1916838001178555611c37565b82800160010185558215611c37579182015b82811115611c36578251825591602001919060010190611c1b565b5b509050611c449190611c8f565b5090565b6040518060a001604052806000815260200160008152602001600073ffffffffffffffffffffffffffffffffffffffff168152602001600015158152602001600081525090565b5b80821115611ca8576000816000905550600101611c90565b5090565b7f4e487b7100000000000000000000000000000000000000000000000000000000600052602160045260246000fd5b60078110611cec57611ceb611cac565b5b50565b6000819050611cfd82611cdb565b919050565b6000611d0d82611cef565b9050919050565b611d1d81611d02565b82525050565b6000602082019050611d386000830184611d14565b92915050565b6000819050919050565b611d5181611d3e565b82525050565b6000602082019050611d6c6000830184611d48565b92915050565b6000604051905090565b600080fd5b600080fd5b611d8f81611d3e565b8114611d9a57600080fd5b50565b600081359050611dac81611d86565b92915050565b60008060408385031215611dc957611dc8611d7c565b5b6000611dd785828601611d9d565b9250506020611de885828601611d9d565b9150509250929050565b600073ffffffffffffffffffffffffffffffffffffffff82169050919050565b6000611e1d82611df2565b9050919050565b611e2d81611e12565b8114611e3857600080fd5b50565b600081359050611e4a81611e24565b92915050565b600060208284031215611e6657611e65611d7c565b5b6000611e7484828501611e3b565b91505092915050565b60008115159050919050565b611e9281611e7d565b82525050565b6000602082019050611ead6000830184611e89565b92915050565b600080fd5b600080fd5b6000601f19601f8301169050919050565b7f4e487b7100000000000000000000000000000000000000000000000000000000600052604160045260246000fd5b611f0682611ebd565b810181811067ffffffffffffffff82111715611f2557611f24611ece565b5b80604052505050565b6000611f38611d72565b9050611f448282611efd565b919050565b600067ffffffffffffffff821115611f6457611f63611ece565b5b611f6d82611ebd565b9050602081019050919050565b82818337600083830152505050565b6000611f9c611f9784611f49565b611f2e565b905082815260208101848484011115611fb857611fb7611eb8565b5b611fc3848285611f7a565b509392505050565b600082601f830112611fe057611fdf611eb3565b5b8135611ff0848260208601611f89565b91505092915050565b60006020828403121561200f5761200e611d7c565b5b600082013567ffffffffffffffff81111561202d5761202c611d81565b5b61203984828501611fcb565b91505092915050565b61204b81611e7d565b811461205657600080fd5b50565b60008135905061206881612042565b92915050565b60006020828403121561208457612083611d7c565b5b600061209284828501612059565b91505092915050565b6000602082840312156120b1576120b0611d7c565b5b60006120bf84828501611d9d565b91505092915050565b6120d181611e12565b82525050565b60006060820190506120ec6000830186611d48565b6120f96020830185611d48565b61210660408301846120c8565b949350505050565b60006040820190506121236000830185611d48565b6121306020830184611d48565b9392505050565b600060208201905061214c60008301846120c8565b92915050565b6003811061216357612162611cac565b5b50565b600081905061217482612152565b919050565b600061218482612166565b9050919050565b61219481612179565b82525050565b60006020820190506121af600083018461218b565b92915050565b600381106121c257600080fd5b50565b6000813590506121d4816121b5565b92915050565b60008060008060008060c087890312156121f7576121f6611d7c565b5b600087013567ffffffffffffffff81111561221557612214611d81565b5b61222189828a01611fcb565b965050602061223289828a016121c5565b955050604061224389828a01611d9d565b945050606061225489828a01611d9d565b935050608061226589828a01611d9d565b92505060a061227689828a01611d9d565b9150509295509295509295565b600082825260208201905092915050565b7f5468657265206d757374206265206174206c65617374206f6e65206c6f74206460008201527f6566696e65642e00000000000000000000000000000000000000000000000000602082015250565b60006122f0602783612283565b91506122fb82612294565b604082019050919050565b6000602082019050818103600083015261231f816122e3565b9050919050565b7f42696464657220616c726561647920636f6e6669726d65640000000000000000600082015250565b600061235c601883612283565b915061236782612326565b602082019050919050565b6000602082019050818103600083015261238b8161234f565b9050919050565b7f546865206465706f73697420666f7220636f6e6669726d20696e73637269707460008201527f696f6e204d55535420626520657175616c206f7220677265617465722074686160208201527f6e207465682067756172616e746565206465706f7369742e0000000000000000604082015250565b6000612414605883612283565b915061241f82612392565b606082019050919050565b6000602082019050818103600083015261244381612407565b9050919050565b7f42696464657220726567697374726174696f6e2077696e646f7720657870697260008201527f65642e0000000000000000000000000000000000000000000000000000000000602082015250565b60006124a6602383612283565b91506124b18261244a565b604082019050919050565b600060208201905081810360008301526124d581612499565b9050919050565b6000815190506124eb81611e24565b92915050565b60006020828403121561250757612506611d7c565b5b6000612515848285016124dc565b91505092915050565b7f4e487b7100000000000000000000000000000000000000000000000000000000600052601160045260246000fd5b600061255882611d3e565b915061256383611d3e565b9250827fffffffffffffffffffffffffffffffffffffffffffffffffffffffffffffffff038211156125985761259761251e565b5b828201905092915050565b7f436f6e6669726d65642062696464657220696e736372697074696f6e2e000000600082015250565b60006125d9601d83612283565b91506125e4826125a3565b602082019050919050565b60006020820190508181036000830152612608816125cc565b9050919050565b7f426964646572206973206e6f7420636f6e6669726d6564000000000000000000600082015250565b6000612645601783612283565b91506126508261260f565b602082019050919050565b6000602082019050818103600083015261267481612638565b9050919050565b600061268682611d3e565b915061269183611d3e565b9250828210156126a4576126a361251e565b5b828203905092915050565b7f4e487b7100000000000000000000000000000000000000000000000000000000600052603260045260246000fd5b7f4f776e61626c653a2063616c6c6572206973206e6f7420746865206f776e6572600082015250565b6000612714602083612283565b915061271f826126de565b602082019050919050565b6000602082019050818103600083015261274381612707565b9050919050565b7f41756374696f6e206973204e4f5420696e697469616c697a65642e20496e697460008201527f69616c697a652061756374696f6e206265666f726520616464696e67206c6f7460208201527f732e000000000000000000000000000000000000000000000000000000000000604082015250565b60006127cc604283612283565b91506127d78261274a565b606082019050919050565b600060208201905081810360008301526127fb816127bf565b9050919050565b7f5265616c2053746174652061756374696f6e73206f6e6c7920616c6c6f77732060008201527f6f6e65206c6f7400000000000000000000000000000000000000000000000000602082015250565b600061285e602783612283565b915061286982612802565b604082019050919050565b6000602082019050818103600083015261288d81612851565b9050919050565b7f43616e74277420616464206d6f7265206c6f7473207468616e20646566696e6460008201527f656420696e20746f74616c41756374696f6e4c6f747300000000000000000000602082015250565b60006128f0603683612283565b91506128fb82612894565b604082019050919050565b6000602082019050818103600083015261291f816128e3565b9050919050565b7f41756374696f6e20616c726561647920696e697469616c697a65640000000000600082015250565b600061295c601b83612283565b915061296782612926565b602082019050919050565b6000602082019050818103600083015261298b8161294f565b9050919050565b7f496e76616c696420646174657300000000000000000000000000000000000000600082015250565b60006129c8600d83612283565b91506129d382612992565b602082019050919050565b600060208201905081810360008301526129f7816129bb565b9050919050565b7f4f776e61626c653a206e6577206f776e657220697320746865207a65726f206160008201527f6464726573730000000000000000000000000000000000000000000000000000602082015250565b6000612a5a602683612283565b9150612a65826129fe565b604082019050919050565b60006020820190508181036000830152612a8981612a4d565b9050919050565b7f41637475616c2074696d65206f7574736964652061756374696f6e20626f756e60008201527f6461726965730000000000000000000000000000000000000000000000000000602082015250565b6000612aec602683612283565b9150612af782612a90565b604082019050919050565b60006020820190508181036000830152612b1b81612adf565b9050919050565b7f4e487b7100000000000000000000000000000000000000000000000000000000600052602260045260246000fd5b60006002820490506001821680612b6957607f821691505b60208210811415612b7d57612b7c612b22565b5b50919050565b60008190508160005260206000209050919050565b60008154612ba581612b51565b612baf8186612283565b94506001821660008114612bca5760018114612bdc57612c0f565b60ff1983168652602086019350612c0f565b612be585612b83565b60005b83811015612c0757815481890152600182019150602081019050612be8565b808801955050505b50505092915050565b6000604082019050612c2d6000830185611d48565b8181036020830152612c3f8184612b98565b90509392505050565b7f5468652061756374696f6e2077617320707265766975736c792063616e63656c60008201527f65642e0000000000000000000000000000000000000000000000000000000000602082015250565b6000612ca4602383612283565b9150612caf82612c48565b604082019050919050565b60006020820190508181036000830152612cd381612c97565b9050919050565b7f41756374696f6e20656e64206461746520726561636865640000000000000000600082015250565b6000612d10601883612283565b9150612d1b82612cda565b602082019050919050565b60006020820190508181036000830152612d3f81612d03565b9050919050565b600081519050919050565b60005b83811015612d6f578082015181840152602081019050612d54565b83811115612d7e576000848401525b50505050565b6000612d8f82612d46565b612d998185612283565b9350612da9818560208601612d51565b612db281611ebd565b840191505092915050565b6000606082019050612dd26000830186611d48565b8181036020830152612de48185612b98565b90508181036040830152612df88184612d84565b9050949350505050565b7f5468652061756374696f6e204d55535420626520696e2053544152544544207360008201527f7461746500000000000000000000000000000000000000000000000000000000602082015250565b6000612e5e602483612283565b9150612e6982612e02565b604082019050919050565b60006020820190508181036000830152612e8d81612e51565b9050919050565b6000612e9f82611d3e565b91507fffffffffffffffffffffffffffffffffffffffffffffffffffffffffffffffff821415612ed257612ed161251e565b5b60018201905091905056fe4e6f20636f6e6669726d656420626f64646572732061742061756374696f6e207374617274a26469706673582212201fe82a848c8457d667a122fd1f339bc2620f6191e8a211d25b21086f6612e9db64736f6c634300080a0033",
  "immutableReferences": {},
  "source": "// SPDX-License-Identifier: MIT\npragma solidity >=0.4.22 <0.9.0;\n\nimport \"@openzeppelin/contracts/access/Ownable.sol\";\n\n/***\n * This contract implementas public auctions at Supreme Court in Buenos Aires Province @ Argetina.\n * The auction process has an hybrid architecture, where the auction data and administrative flow is centralizad in a \n * traditional web application, and the push process and winner definition happens in the blockchain.\n * \n * Author: Lic. Gustavo Perez Villar @ Buenos Aires - Argentina\n */\n\ncontract AuctionsSCBA is Ownable {\n    \n    // Events\n\n    event evt_bidderConfirmedInscription(address indexed sender, string message);\n    event evt_auctionStart(uint timeStamp, string auctionID);\n    event evt_auctionCanceled(uint timeStamp, string auctionID, string cause);\n\n    // Custom data types\n\n    enum AuctionClass {REAL_STATE,MOBILE,MOBILE_REGISTER}\n    enum AuctionState {NO_INIT,INIT,LOT,STARTED,EXTENDED,ENDED,CANCELED}\n    struct AuctionLot {\n        uint lotId_;\n        uint startDate_;\n        uint endDate_;\n        uint baseValue_;\n        uint extendedEndDate_;\n        uint extensionsCount_;\n        address winner_;\n        uint winnerTranche_;\n        uint lastTrancheId_;\n        uint actualTrancheId_;\n    }\n    struct Auction {\n        string auctionCode_;\n        AuctionClass auctionClass_;\n        uint guaranteeDeposit_;\n        uint totalAuctionLots_;\n        uint startDate_;\n        uint endDate_;\n    }\n    struct Bidder {\n        uint guaranteeDeposit_; // Deposited amount in wei for confirm auction inscription\n        bool preserveLastBid_;  // If he wants to preserve his last bid in case the winner doesn't confirm the buy. \n                                // if preserve bid is true, the bidder cannot withdraw founds after auction ending.\n        uint[] lotSecretBid_;   // Secrets bid per lot. lotSecretBid_[lotId-1] = secretBid\n    }\n    struct AuctionTranches {\n        uint trancheId_;\n        uint trancheValue_;\n        address trancheBidder_;\n        bool trancheConfirmed_;\n        uint trancheBidTimestamp;\n    }\n\n    // State Variables\n\n    AuctionLot[] private _auctionLots; // Auction lots array\n    AuctionState private _auctionState; // Actual auction state\n    Auction private _auctionObject; // Instance of auction data\n    mapping (address => Bidder) private _validBidders; // Valid registered bidders\n    mapping (uint => AuctionTranches) private _tranchesPerLot;\n    uint private _confirmedBidders;\n\n   // Constructor\n\n    constructor () {\n        // State variables initialization\n        _auctionState = AuctionState.NO_INIT;\n        _confirmedBidders = 0;\n    }\n\n    // Receive functions\n\n    function confirmBidderInscription(bool _preserveGuranteeDeposit) external payable {\n        _confirmBidderInscription(msg.sender, msg.value, _preserveGuranteeDeposit);\n    }\n\n    // Fallback function\n\n    receive() external payable {\n       _confirmBidderInscription(msg.sender, msg.value,false); \n    } \n\n    // External Functions\n\n    function auctionInit(\n        string memory __auctionCode,\n        AuctionClass __auctionClass, \n        uint __guaranteeDeposit, \n        uint __totalAuctionLots,\n        uint __startDate,\n        uint __endDate \n    ) external onlyOwner  {\n        require(_auctionState  == AuctionState.NO_INIT, \"Auction already initialized\");\n        require(block.timestamp < __startDate && (__startDate + 10 days) <= __endDate,\"Invalid dates\");\n        _auctionState = AuctionState.INIT;\n        _auctionObject.auctionCode_ = __auctionCode;\n        _auctionObject.auctionClass_ = __auctionClass;\n        _auctionObject.guaranteeDeposit_ = __guaranteeDeposit;\n        _auctionObject.totalAuctionLots_ = __totalAuctionLots;\n        _auctionObject.startDate_ = __startDate;\n        _auctionObject.endDate_ = __endDate;\n    }\n\n    function auctionAddLot(uint __baseValue) external onlyOwner {\n        require(_auctionState == AuctionState.INIT || _auctionState == AuctionState.LOT ,\"Auction is NOT initialized. Initialize auction before adding lots.\");\n        // Can't add more tha one lot if the auction class is Realstate\n        if (_auctionObject.auctionClass_ == AuctionClass.REAL_STATE && _auctionLots.length == 1) { revert(\"Real State auctions only allows one lot\"); }\n        if (_auctionLots.length > _auctionObject.totalAuctionLots_) { revert(\"Cant't add more lots than definded in totalAuctionLots\"); }\n        AuctionLot memory tmpLot;\n        _auctionState = AuctionState.LOT;\n        tmpLot.lotId_ = _auctionLots.length + 1;  //Start at lot 1\n        tmpLot.extensionsCount_ = 0;\n        tmpLot.startDate_ = _auctionObject.startDate_;\n        tmpLot.endDate_ = _auctionObject.endDate_;\n        tmpLot.extendedEndDate_ = _auctionObject.endDate_;\n        tmpLot.winnerTranche_ = 0;\n        tmpLot.baseValue_ = __baseValue;\n        tmpLot.lastTrancheId_ = 0;\n        _auctionLots.push(tmpLot); // Add lot to lot array\n    }  \n\n    function auctionStart() external onlyOwner {\n        _setAuctionStart();\n    }\n\n   function auctionCancel(string memory _cause) external onlyOwner {\n        _auctionCancelation(_cause);\n    }\n\n    // Public Functions\n\n    function getAuctionState() public view returns (AuctionState) {\n        return _auctionState;\n    }\n    \n    // Get contract address blance (sum of all guarantee deposits for each confirmed bidder)\n    function getAuctionBalance() public view returns (uint) {\n        return address(this).balance;\n    } \n    \n    function getConfirmedBiddders() public view returns (uint){\n        return _confirmedBidders;\n    }\n\n    function isBidderConfirmed(address _queryBidder) public view returns(bool) {     \n        return (_validBidders[_queryBidder].guaranteeDeposit_ > 0);\n    }\n\n    function getAuctionStartDate() public view returns(uint) {     \n        return _auctionObject.startDate_;\n    }\n\n    function getAuctionEndtDate() public view returns(uint) {     \n        return _auctionObject.endDate_;\n    }\n\n    function getAuctionClass() public view returns(AuctionClass) {     \n        return _auctionObject.auctionClass_;\n    }\n\n    function getActualTranche(uint _lotId) public view returns (uint,uint) {\n        uint retTrancheId_;\n        uint retValue_;\n\n        retTrancheId_ = _auctionLots[_lotId-1].actualTrancheId_;\n        retValue_ = _tranchesPerLot[_lotId-1].trancheValue_;\n        \n        return (retTrancheId_, retValue_);\n    }\n\n    function getLastTranche(uint _lotId) public view returns (uint,uint,address) {\n        uint retTrancheId_;\n        uint retValue_;\n        address retBidder_;\n\n        retTrancheId_ = _auctionLots[_lotId-1].actualTrancheId_;\n        retValue_ = _tranchesPerLot[_lotId-1].trancheValue_;\n        retBidder_ = _tranchesPerLot[_lotId-1].trancheBidder_;\n        \n        return (retTrancheId_, retValue_, retBidder_);\n    }\n\n\n    function bidderSetPreservelastBid(bool _value) public {\n        require(_auctionState == AuctionState.LOT,\"There must be at least one lot defined.\"); \n        require(_validBidders[msg.sender].guaranteeDeposit_ > 0,\"Bidder is not confirmed\"); \n        require((msg.sender != this.owner()));\n        \n        _validBidders[msg.sender].preserveLastBid_ = _value;\n\n    }\n\n    function bidderSetMaximunSecretBid(uint _lotId, uint _value) public {\n        require(_auctionState == AuctionState.LOT,\"There must be at least one lot defined.\"); \n        require(_validBidders[msg.sender].guaranteeDeposit_ > 0,\"Bidder is not confirmed\"); \n        require((msg.sender != this.owner()));\n        \n        _validBidders[msg.sender].lotSecretBid_[_lotId-1] = _value;\n\n    }\n\n    // Internal Functions\n\n    function _confirmBidderInscription(address _bidderAddress, uint _depositAmount, bool _preserveGuaranteeDeposit) internal     {\n        Bidder memory _tmpBidder;\n        require(_auctionState == AuctionState.LOT,\"There must be at least one lot defined.\"); \n        require(_validBidders[_bidderAddress].guaranteeDeposit_ == 0,\"Bidder already confirmed\"); \n        require(_depositAmount >= _auctionObject.guaranteeDeposit_,\"The deposit for confirm inscription MUST be equal or greater than teh guarantee deposit.\");\n        require (block.timestamp <= _auctionObject.startDate_,\"Bidder registration window expired.\");\n        require((msg.sender != this.owner()));\n\n        _tmpBidder.guaranteeDeposit_ = _depositAmount;\n        _tmpBidder.preserveLastBid_ = _preserveGuaranteeDeposit;\n        _validBidders[_bidderAddress] = _tmpBidder;\n        _confirmedBidders += 1;\n\n        emit evt_bidderConfirmedInscription(_bidderAddress,\"Confirmed bidder inscription.\");\n    }\n\n    function _setAuctionStart() internal  {\n        require(_auctionState == AuctionState.LOT,\"There must be at least one lot defined.\"); \n        require(block.timestamp >= _auctionObject.startDate_ && block.timestamp <= _auctionObject.endDate_,\"Actual time outside auction boundaries\");\n        \n        if (_confirmedBidders == 0) {\n             _auctionCancelation(\"No confirmed bodders at auction start\");\n        } else {\n            _auctionState = AuctionState.STARTED;\n            _initTranches();\n            emit evt_auctionStart(block.timestamp, _auctionObject.auctionCode_);\n        }\n    }\n    \n    function _auctionCancelation(string memory _cause) internal {\n        require(_auctionState != AuctionState.CANCELED,\"The auction was previusly canceled.\"); \n        require(block.timestamp <= _auctionObject.endDate_,\"Auction end date reached\");\n        \n        _auctionState = AuctionState.CANCELED;\n        emit evt_auctionCanceled(block.timestamp, _auctionObject.auctionCode_, _cause);\n    }\n\n    function _initTranches() internal {\n        require(_auctionState == AuctionState.STARTED,\"The auction MUST be in STARTED state\");\n        uint _LotsLength = _auctionLots.length;\n        AuctionTranches memory _tmpTranche;\n\n        for (uint i=0; i<_LotsLength; i++) {\n            _tmpTranche.trancheId_ = i+1;\n            _tmpTranche.trancheValue_ = _auctionLots[i].baseValue_;\n            _tmpTranche.trancheConfirmed_ = false;\n            _tranchesPerLot[i] = _tmpTranche;\n            _auctionLots[i].actualTrancheId_ = 1; \n        }\n    }\n\n    // Implementar funciones para obtener info de la subasta\n    // - getActualTranche(lotId) (returns id,value)\n    // - getLastTranche(lotId) (returns id, value, bidder, timestap)\n    // Tramos\n}\n",
  "sourcePath": "/home/gperez/proyectos/scba-auction-ethereum/contracts/AuctionsSCBA.sol",
  "compiler": {
    "name": "solc",
    "version": "0.8.10+commit.fc410830.Emscripten.clang"
  },
  "schemaVersion": "3.4.3",
  "updatedAt": "2021-12-13T15:49:24.664Z",
  "devdoc": {
    "kind": "dev",
    "methods": {
      "owner()": {
        "details": "Returns the address of the current owner."
      },
      "renounceOwnership()": {
        "details": "Leaves the contract without owner. It will not be possible to call `onlyOwner` functions anymore. Can only be called by the current owner. NOTE: Renouncing ownership will leave the contract without an owner, thereby removing any functionality that is only available to the owner."
      },
      "transferOwnership(address)": {
        "details": "Transfers ownership of the contract to a new account (`newOwner`). Can only be called by the current owner."
      }
    },
    "version": 1
  },
  "userdoc": {
    "kind": "user",
    "methods": {},
    "version": 1
  }
}