{
  "contractName": "AuctionsSCBA",
  "abi": [
    {
      "inputs": [],
      "stateMutability": "nonpayable",
      "type": "constructor"
    },
    {
      "anonymous": false,
      "inputs": [
        {
          "indexed": true,
          "internalType": "address",
          "name": "previousOwner",
          "type": "address"
        },
        {
          "indexed": true,
          "internalType": "address",
          "name": "newOwner",
          "type": "address"
        }
      ],
      "name": "OwnershipTransferred",
      "type": "event"
    },
    {
      "anonymous": false,
      "inputs": [
        {
          "indexed": false,
          "internalType": "uint256",
          "name": "timeStamp",
          "type": "uint256"
        },
        {
          "indexed": false,
          "internalType": "string",
          "name": "auctionID",
          "type": "string"
        },
        {
          "indexed": false,
          "internalType": "string",
          "name": "cause",
          "type": "string"
        }
      ],
      "name": "evt_auctionCanceled",
      "type": "event"
    },
    {
      "anonymous": false,
      "inputs": [
        {
          "indexed": false,
          "internalType": "uint256",
          "name": "timeStamp",
          "type": "uint256"
        },
        {
          "indexed": false,
          "internalType": "string",
          "name": "auctionID",
          "type": "string"
        }
      ],
      "name": "evt_auctionStart",
      "type": "event"
    },
    {
      "anonymous": false,
      "inputs": [
        {
          "indexed": false,
          "internalType": "uint256",
          "name": "timeStamp",
          "type": "uint256"
        },
        {
          "indexed": false,
          "internalType": "uint256",
          "name": "lotId",
          "type": "uint256"
        },
        {
          "indexed": false,
          "internalType": "uint256",
          "name": "trancheId",
          "type": "uint256"
        },
        {
          "indexed": false,
          "internalType": "address",
          "name": "_bidder",
          "type": "address"
        }
      ],
      "name": "evt_bidConfirmed",
      "type": "event"
    },
    {
      "anonymous": false,
      "inputs": [
        {
          "indexed": true,
          "internalType": "address",
          "name": "sender",
          "type": "address"
        },
        {
          "indexed": false,
          "internalType": "string",
          "name": "message",
          "type": "string"
        }
      ],
      "name": "evt_bidderConfirmedInscription",
      "type": "event"
    },
    {
      "anonymous": false,
      "inputs": [
        {
          "indexed": false,
          "internalType": "uint256",
          "name": "timeStamp",
          "type": "uint256"
        },
        {
          "indexed": false,
          "internalType": "address",
          "name": "beatenBidder",
          "type": "address"
        }
      ],
      "name": "evt_maximunSecretBidBeaten",
      "type": "event"
    },
    {
      "inputs": [],
      "name": "owner",
      "outputs": [
        {
          "internalType": "address",
          "name": "",
          "type": "address"
        }
      ],
      "stateMutability": "view",
      "type": "function"
    },
    {
      "inputs": [],
      "name": "renounceOwnership",
      "outputs": [],
      "stateMutability": "nonpayable",
      "type": "function"
    },
    {
      "inputs": [
        {
          "internalType": "address",
          "name": "newOwner",
          "type": "address"
        }
      ],
      "name": "transferOwnership",
      "outputs": [],
      "stateMutability": "nonpayable",
      "type": "function"
    },
    {
      "stateMutability": "payable",
      "type": "receive"
    },
    {
      "inputs": [
        {
          "internalType": "bool",
          "name": "_preserveGuranteeDeposit",
          "type": "bool"
        }
      ],
      "name": "confirmBidderInscription",
      "outputs": [],
      "stateMutability": "payable",
      "type": "function"
    },
    {
      "inputs": [
        {
          "internalType": "string",
          "name": "__auctionCode",
          "type": "string"
        },
        {
          "internalType": "enum AuctionsSCBA.AuctionClass",
          "name": "__auctionClass",
          "type": "uint8"
        },
        {
          "internalType": "uint256",
          "name": "__guaranteeDeposit",
          "type": "uint256"
        },
        {
          "internalType": "uint256",
          "name": "__totalAuctionLots",
          "type": "uint256"
        },
        {
          "internalType": "uint256",
          "name": "__startDate",
          "type": "uint256"
        },
        {
          "internalType": "uint256",
          "name": "__endDate",
          "type": "uint256"
        }
      ],
      "name": "auctionInit",
      "outputs": [],
      "stateMutability": "nonpayable",
      "type": "function"
    },
    {
      "inputs": [
        {
          "internalType": "uint256",
          "name": "__baseValue",
          "type": "uint256"
        }
      ],
      "name": "auctionAddLot",
      "outputs": [],
      "stateMutability": "nonpayable",
      "type": "function"
    },
    {
      "inputs": [],
      "name": "auctionStart",
      "outputs": [],
      "stateMutability": "nonpayable",
      "type": "function"
    },
    {
      "inputs": [
        {
          "internalType": "string",
          "name": "_cause",
          "type": "string"
        }
      ],
      "name": "auctionCancel",
      "outputs": [],
      "stateMutability": "nonpayable",
      "type": "function"
    },
    {
      "inputs": [],
      "name": "getAuctionState",
      "outputs": [
        {
          "internalType": "enum AuctionsSCBA.AuctionState",
          "name": "",
          "type": "uint8"
        }
      ],
      "stateMutability": "view",
      "type": "function"
    },
    {
      "inputs": [],
      "name": "getAuctionBalance",
      "outputs": [
        {
          "internalType": "uint256",
          "name": "",
          "type": "uint256"
        }
      ],
      "stateMutability": "view",
      "type": "function"
    },
    {
      "inputs": [],
      "name": "getConfirmedBiddders",
      "outputs": [
        {
          "internalType": "uint256",
          "name": "",
          "type": "uint256"
        }
      ],
      "stateMutability": "view",
      "type": "function"
    },
    {
      "inputs": [
        {
          "internalType": "address",
          "name": "_queryBidder",
          "type": "address"
        }
      ],
      "name": "isBidderConfirmed",
      "outputs": [
        {
          "internalType": "bool",
          "name": "",
          "type": "bool"
        }
      ],
      "stateMutability": "view",
      "type": "function"
    },
    {
      "inputs": [],
      "name": "getAuctionStartDate",
      "outputs": [
        {
          "internalType": "uint256",
          "name": "",
          "type": "uint256"
        }
      ],
      "stateMutability": "view",
      "type": "function"
    },
    {
      "inputs": [],
      "name": "getAuctionEndtDate",
      "outputs": [
        {
          "internalType": "uint256",
          "name": "",
          "type": "uint256"
        }
      ],
      "stateMutability": "view",
      "type": "function"
    },
    {
      "inputs": [],
      "name": "getAuctionClass",
      "outputs": [
        {
          "internalType": "enum AuctionsSCBA.AuctionClass",
          "name": "",
          "type": "uint8"
        }
      ],
      "stateMutability": "view",
      "type": "function"
    },
    {
      "inputs": [
        {
          "internalType": "uint256",
          "name": "_lotId",
          "type": "uint256"
        }
      ],
      "name": "getActualTranche",
      "outputs": [
        {
          "internalType": "uint256",
          "name": "",
          "type": "uint256"
        },
        {
          "internalType": "uint256",
          "name": "",
          "type": "uint256"
        }
      ],
      "stateMutability": "view",
      "type": "function"
    },
    {
      "inputs": [
        {
          "internalType": "uint256",
          "name": "_lotId",
          "type": "uint256"
        }
      ],
      "name": "getLastTranche",
      "outputs": [
        {
          "internalType": "uint256",
          "name": "",
          "type": "uint256"
        },
        {
          "internalType": "uint256",
          "name": "",
          "type": "uint256"
        },
        {
          "internalType": "address",
          "name": "",
          "type": "address"
        }
      ],
      "stateMutability": "view",
      "type": "function"
    },
    {
      "inputs": [
        {
          "internalType": "uint256",
          "name": "_lotId",
          "type": "uint256"
        },
        {
          "internalType": "address",
          "name": "_bidder",
          "type": "address"
        }
      ],
      "name": "getBidderMaximunSecretBid",
      "outputs": [
        {
          "internalType": "uint256",
          "name": "",
          "type": "uint256"
        },
        {
          "internalType": "uint256",
          "name": "",
          "type": "uint256"
        }
      ],
      "stateMutability": "view",
      "type": "function"
    },
    {
      "inputs": [],
      "name": "getLotQuantity",
      "outputs": [
        {
          "internalType": "uint256",
          "name": "",
          "type": "uint256"
        }
      ],
      "stateMutability": "view",
      "type": "function"
    },
    {
      "inputs": [
        {
          "internalType": "uint256",
          "name": "_lotId",
          "type": "uint256"
        }
      ],
      "name": "getLotBaseValue",
      "outputs": [
        {
          "internalType": "uint256",
          "name": "",
          "type": "uint256"
        }
      ],
      "stateMutability": "view",
      "type": "function"
    },
    {
      "inputs": [
        {
          "internalType": "uint256",
          "name": "_lotId",
          "type": "uint256"
        },
        {
          "internalType": "uint256",
          "name": "_trancheId",
          "type": "uint256"
        }
      ],
      "name": "getLotTrancheValue",
      "outputs": [
        {
          "internalType": "uint256",
          "name": "",
          "type": "uint256"
        }
      ],
      "stateMutability": "view",
      "type": "function"
    },
    {
      "inputs": [
        {
          "internalType": "bool",
          "name": "_value",
          "type": "bool"
        }
      ],
      "name": "bidderSetPreservelastBid",
      "outputs": [],
      "stateMutability": "nonpayable",
      "type": "function"
    },
    {
      "inputs": [
        {
          "internalType": "uint256",
          "name": "_lotId",
          "type": "uint256"
        },
        {
          "internalType": "uint256",
          "name": "_value",
          "type": "uint256"
        }
      ],
      "name": "bidderSetMaximunSecretBidAmount",
      "outputs": [],
      "stateMutability": "nonpayable",
      "type": "function"
    },
    {
      "inputs": [
        {
          "internalType": "uint256",
          "name": "_lotId",
          "type": "uint256"
        },
        {
          "internalType": "uint256",
          "name": "_value",
          "type": "uint256"
        }
      ],
      "name": "bidderSetMaximunSecretBidTranche",
      "outputs": [],
      "stateMutability": "nonpayable",
      "type": "function"
    }
  ],
  "bytecode": "0x60806040523480156200001157600080fd5b5062000032620000266200006660201b60201c565b6200006e60201b60201c565b6000600260006101000a81548160ff021916908360068111156200005b576200005a62000132565b5b021790555062000161565b600033905090565b60008060009054906101000a900473ffffffffffffffffffffffffffffffffffffffff169050816000806101000a81548173ffffffffffffffffffffffffffffffffffffffff021916908373ffffffffffffffffffffffffffffffffffffffff1602179055508173ffffffffffffffffffffffffffffffffffffffff168173ffffffffffffffffffffffffffffffffffffffff167f8be0079c531659141344cd1fd0a4f28419497f9722a3daafe3b4186f6b6457e060405160405180910390a35050565b7f4e487b7100000000000000000000000000000000000000000000000000000000600052602160045260246000fd5b613af380620001716000396000f3fe60806040526004361061014f5760003560e01c806376b8d8c7116100b6578063d262c0e51161006f578063d262c0e514610489578063d6985621146104b2578063dad7277c146104ce578063f0c019df1461050b578063f1c7823f14610534578063f2fde38b1461057157610162565b806376b8d8c7146103765780637786ce34146103a15780637e360c41146103cc578063873689261461040a5780638da5cb5b14610433578063c455d0cb1461045e57610162565b806359ec35d81161010857806359ec35d8146102685780635e464d51146102a557806361dd3bcc146102ce578063634763b6146102f7578063715018a614610320578063728194ee1461033757610162565b806308bfc3001461016757806309d23ba1146101925780631499cf11146101d057806325a35e73146101fb5780634a8bb6ed146102265780634f245ef71461025157610162565b36610162576101603334600061059a565b005b600080fd5b34801561017357600080fd5b5061017c6109c1565b604051610189919061269a565b60405180910390f35b34801561019e57600080fd5b506101b960048036038101906101b4919061275d565b6109d8565b6040516101c79291906127ac565b60405180910390f35b3480156101dc57600080fd5b506101e5610add565b6040516101f291906127d5565b60405180910390f35b34801561020757600080fd5b50610210610aea565b60405161021d91906127d5565b60405180910390f35b34801561023257600080fd5b5061023b610af2565b60405161024891906127d5565b60405180910390f35b34801561025d57600080fd5b50610266610aff565b005b34801561027457600080fd5b5061028f600480360381019061028a91906127f0565b610b85565b60405161029c9190612838565b60405180910390f35b3480156102b157600080fd5b506102cc60048036038101906102c79190612999565b610c4a565b005b3480156102da57600080fd5b506102f560048036038101906102f09190612a0e565b610cd2565b005b34801561030357600080fd5b5061031e60048036038101906103199190612a3b565b610ed1565b005b34801561032c57600080fd5b50610335611160565b005b34801561034357600080fd5b5061035e60048036038101906103599190612a7b565b6111e8565b60405161036d93929190612ab7565b60405180910390f35b34801561038257600080fd5b5061038b61136f565b60405161039891906127d5565b60405180910390f35b3480156103ad57600080fd5b506103b661137c565b6040516103c391906127d5565b60405180910390f35b3480156103d857600080fd5b506103f360048036038101906103ee9190612a7b565b611389565b6040516104019291906127ac565b60405180910390f35b34801561041657600080fd5b50610431600480360381019061042c9190612a3b565b611496565b005b34801561043f57600080fd5b50610448611804565b6040516104559190612aee565b60405180910390f35b34801561046a57600080fd5b5061047361182d565b6040516104809190612b51565b60405180910390f35b34801561049557600080fd5b506104b060048036038101906104ab9190612a7b565b611847565b005b6104cc60048036038101906104c79190612a0e565b611bb0565b005b3480156104da57600080fd5b506104f560048036038101906104f09190612a3b565b611bbe565b60405161050291906127d5565b60405180910390f35b34801561051757600080fd5b50610532600480360381019061052d9190612b91565b611bd2565b005b34801561054057600080fd5b5061055b60048036038101906105569190612a7b565b611d65565b60405161056891906127d5565b60405180910390f35b34801561057d57600080fd5b50610598600480360381019061059391906127f0565b611d9f565b005b6105a2612467565b60006001805490509050600260068111156105c0576105bf612623565b5b600260009054906101000a900460ff1660068111156105e2576105e1612623565b5b14610622576040517f08c379a000000000000000000000000000000000000000000000000000000000815260040161061990612cbd565b60405180910390fd5b6000600960008773ffffffffffffffffffffffffffffffffffffffff1673ffffffffffffffffffffffffffffffffffffffff16815260200190815260200160002060000154146106a7576040517f08c379a000000000000000000000000000000000000000000000000000000000815260040161069e90612d29565b60405180910390fd5b6003600201548410156106ef576040517f08c379a00000000000000000000000000000000000000000000000000000000081526004016106e690612de1565b60405180910390fd5b600360040154421115610737576040517f08c379a000000000000000000000000000000000000000000000000000000000815260040161072e90612e73565b60405180910390fd5b3073ffffffffffffffffffffffffffffffffffffffff16638da5cb5b6040518163ffffffff1660e01b8152600401602060405180830381865afa158015610782573d6000803e3d6000fd5b505050506040513d601f19601f820116820180604052508101906107a69190612ea8565b73ffffffffffffffffffffffffffffffffffffffff163373ffffffffffffffffffffffffffffffffffffffff1614156107de57600080fd5b838260000181815250508282602001901515908115158152505081600960008773ffffffffffffffffffffffffffffffffffffffff1673ffffffffffffffffffffffffffffffffffffffff1681526020019081526020016000206000820151816000015560208201518160010160006101000a81548160ff021916908315150217905550604082015181600201908051906020019061087e92919061248a565b5090505060005b8181101561090a57600960008773ffffffffffffffffffffffffffffffffffffffff1673ffffffffffffffffffffffffffffffffffffffff16815260200190815260200160002060020160009080600181540180825580915050600190039060005260206000200160009091909190915055808061090290612f04565b915050610885565b50600b859080600181540180825580915050600190039060005260206000200160009091909190916101000a81548173ffffffffffffffffffffffffffffffffffffffff021916908373ffffffffffffffffffffffffffffffffffffffff1602179055508473ffffffffffffffffffffffffffffffffffffffff167f2bcb2fe5b94813e883d2308e17a49fb21fb91863c646b56c2dbeb3069bd739116040516109b290612f99565b60405180910390a25050505050565b6000600260009054906101000a900460ff16905090565b600080600260068111156109ef576109ee612623565b5b600260009054906101000a900460ff166006811115610a1157610a10612623565b5b14610a51576040517f08c379a0000000000000000000000000000000000000000000000000000000008152600401610a4890612cbd565b60405180910390fd5b6000600960008573ffffffffffffffffffffffffffffffffffffffff1673ffffffffffffffffffffffffffffffffffffffff168152602001908152602001600020600201600186610aa29190612fb9565b81548110610ab357610ab2612fed565b5b906000526020600020015490506000610acc8683611e97565b905081819350935050509250929050565b6000600360040154905090565b600047905090565b6000600b80549050905090565b610b07611f0b565b73ffffffffffffffffffffffffffffffffffffffff16610b25611804565b73ffffffffffffffffffffffffffffffffffffffff1614610b7b576040517f08c379a0000000000000000000000000000000000000000000000000000000008152600401610b7290613068565b60405180910390fd5b610b83611f13565b565b600060026006811115610b9b57610b9a612623565b5b600260009054906101000a900460ff166006811115610bbd57610bbc612623565b5b14610bfd576040517f08c379a0000000000000000000000000000000000000000000000000000000008152600401610bf490612cbd565b60405180910390fd5b6000600960008473ffffffffffffffffffffffffffffffffffffffff1673ffffffffffffffffffffffffffffffffffffffff16815260200190815260200160002060000154119050919050565b610c52611f0b565b73ffffffffffffffffffffffffffffffffffffffff16610c70611804565b73ffffffffffffffffffffffffffffffffffffffff1614610cc6576040517f08c379a0000000000000000000000000000000000000000000000000000000008152600401610cbd90613068565b60405180910390fd5b610ccf81612089565b50565b60026006811115610ce657610ce5612623565b5b600260009054906101000a900460ff166006811115610d0857610d07612623565b5b14610d48576040517f08c379a0000000000000000000000000000000000000000000000000000000008152600401610d3f90612cbd565b60405180910390fd5b6000600960003373ffffffffffffffffffffffffffffffffffffffff1673ffffffffffffffffffffffffffffffffffffffff1681526020019081526020016000206000015411610dcd576040517f08c379a0000000000000000000000000000000000000000000000000000000008152600401610dc4906130d4565b60405180910390fd5b3073ffffffffffffffffffffffffffffffffffffffff16638da5cb5b6040518163ffffffff1660e01b8152600401602060405180830381865afa158015610e18573d6000803e3d6000fd5b505050506040513d601f19601f82011682018060405250810190610e3c9190612ea8565b73ffffffffffffffffffffffffffffffffffffffff163373ffffffffffffffffffffffffffffffffffffffff161415610e7457600080fd5b80600960003373ffffffffffffffffffffffffffffffffffffffff1673ffffffffffffffffffffffffffffffffffffffff16815260200190815260200160002060010160006101000a81548160ff02191690831515021790555050565b60026006811115610ee557610ee4612623565b5b600260009054906101000a900460ff166006811115610f0757610f06612623565b5b14610f47576040517f08c379a0000000000000000000000000000000000000000000000000000000008152600401610f3e90612cbd565b60405180910390fd5b6000600960003373ffffffffffffffffffffffffffffffffffffffff1673ffffffffffffffffffffffffffffffffffffffff1681526020019081526020016000206000015411610fcc576040517f08c379a0000000000000000000000000000000000000000000000000000000008152600401610fc3906130d4565b60405180910390fd5b3073ffffffffffffffffffffffffffffffffffffffff16638da5cb5b6040518163ffffffff1660e01b8152600401602060405180830381865afa158015611017573d6000803e3d6000fd5b505050506040513d601f19601f8201168201806040525081019061103b9190612ea8565b73ffffffffffffffffffffffffffffffffffffffff163373ffffffffffffffffffffffffffffffffffffffff1614156110a9576040517f08c379a00000000000000000000000000000000000000000000000000000000081526004016110a090613166565b60405180910390fd5b60018110156110ed576040517f08c379a00000000000000000000000000000000000000000000000000000000081526004016110e4906131f8565b60405180910390fd5b80600960003373ffffffffffffffffffffffffffffffffffffffff1673ffffffffffffffffffffffffffffffffffffffff16815260200190815260200160002060020160018461113d9190612fb9565b8154811061114e5761114d612fed565b5b90600052602060002001819055505050565b611168611f0b565b73ffffffffffffffffffffffffffffffffffffffff16611186611804565b73ffffffffffffffffffffffffffffffffffffffff16146111dc576040517f08c379a00000000000000000000000000000000000000000000000000000000081526004016111d390613068565b60405180910390fd5b6111e660006121b4565b565b6000806000806000806002600681111561120557611204612623565b5b600260009054906101000a900460ff16600681111561122757611226612623565b5b14611267576040517f08c379a000000000000000000000000000000000000000000000000000000000815260040161125e90612cbd565b60405180910390fd5b600180886112759190612fb9565b8154811061128657611285612fed565b5b9060005260206000209060090201600701549250600a60006001896112ab9190612fb9565b81526020019081526020016000206001846112c69190612fb9565b815481106112d7576112d6612fed565b5b9060005260206000209060040201600101549150600a60006001896112fc9190612fb9565b81526020019081526020016000206001846113179190612fb9565b8154811061132857611327612fed565b5b906000526020600020906004020160020160009054906101000a900473ffffffffffffffffffffffffffffffffffffffff1690508282829550955095505050509193909250565b6000600180549050905090565b6000600360050154905090565b600080600080600260068111156113a3576113a2612623565b5b600260009054906101000a900460ff1660068111156113c5576113c4612623565b5b14611405576040517f08c379a00000000000000000000000000000000000000000000000000000000081526004016113fc90612cbd565b60405180910390fd5b600180866114139190612fb9565b8154811061142457611423612fed565b5b9060005260206000209060090201600801549150600a60006001876114499190612fb9565b81526020019081526020016000206001836114649190612fb9565b8154811061147557611474612fed565b5b90600052602060002090600402016001015490508181935093505050915091565b600260068111156114aa576114a9612623565b5b600260009054906101000a900460ff1660068111156114cc576114cb612623565b5b1461150c576040517f08c379a000000000000000000000000000000000000000000000000000000000815260040161150390612cbd565b60405180910390fd5b6000600960003373ffffffffffffffffffffffffffffffffffffffff1673ffffffffffffffffffffffffffffffffffffffff1681526020019081526020016000206000015411611591576040517f08c379a0000000000000000000000000000000000000000000000000000000008152600401611588906130d4565b60405180910390fd5b3073ffffffffffffffffffffffffffffffffffffffff16638da5cb5b6040518163ffffffff1660e01b8152600401602060405180830381865afa1580156115dc573d6000803e3d6000fd5b505050506040513d601f19601f820116820180604052508101906116009190612ea8565b73ffffffffffffffffffffffffffffffffffffffff163373ffffffffffffffffffffffffffffffffffffffff16141561166e576040517f08c379a000000000000000000000000000000000000000000000000000000000815260040161166590613166565b60405180910390fd5b6001808361167c9190612fb9565b8154811061168d5761168c612fed565b5b90600052602060002090600902016003015481116116e0576040517f08c379a00000000000000000000000000000000000000000000000000000000081526004016116d79061328a565b60405180910390fd5b60008060056064600180876116f59190612fb9565b8154811061170657611705612fed565b5b90600052602060002090600902016003015461172291906132d9565b61172c919061330a565b90506001816001808761173f9190612fb9565b815481106117505761174f612fed565b5b9060005260206000209060090201600301548561176d9190612fb9565b61177791906132d9565b6117819190613364565b91506001826117909190612fb9565b600960003373ffffffffffffffffffffffffffffffffffffffff1673ffffffffffffffffffffffffffffffffffffffff1681526020019081526020016000206002016001866117df9190612fb9565b815481106117f0576117ef612fed565b5b906000526020600020018190555050505050565b60008060009054906101000a900473ffffffffffffffffffffffffffffffffffffffff16905090565b6000600360010160009054906101000a900460ff16905090565b61184f611f0b565b73ffffffffffffffffffffffffffffffffffffffff1661186d611804565b73ffffffffffffffffffffffffffffffffffffffff16146118c3576040517f08c379a00000000000000000000000000000000000000000000000000000000081526004016118ba90613068565b60405180910390fd5b600160068111156118d7576118d6612623565b5b600260009054906101000a900460ff1660068111156118f9576118f8612623565b5b148061193857506002600681111561191457611913612623565b5b600260009054906101000a900460ff16600681111561193657611935612623565b5b145b611977576040517f08c379a000000000000000000000000000000000000000000000000000000000815260040161196e90613452565b60405180910390fd5b6000600281111561198b5761198a612623565b5b600360010160009054906101000a900460ff1660028111156119b0576119af612623565b5b1480156119c1575060018080549050145b15611a01576040517f08c379a00000000000000000000000000000000000000000000000000000000081526004016119f8906134e4565b60405180910390fd5b60038001546001805490501115611a4d576040517f08c379a0000000000000000000000000000000000000000000000000000000008152600401611a4490613576565b60405180910390fd5b611a556124d7565b60028060006101000a81548160ff02191690836006811115611a7a57611a79612623565b5b021790555060018080549050611a909190613364565b81600001818152505060008160a00181815250506003600401548160200181815250506003600501548160400181815250506003600501548160800181815250508181606001818152505060008160e00181815250506001819080600181540180825580915050600190039060005260206000209060090201600090919091909150600082015181600001556020820151816001015560408201518160020155606082015181600301556080820151816004015560a0820151816005015560c08201518160060160006101000a81548173ffffffffffffffffffffffffffffffffffffffff021916908373ffffffffffffffffffffffffffffffffffffffff16021790555060e08201518160070155610100820151816008015550505050565b611bbb33348361059a565b50565b6000611bca8383611e97565b905092915050565b611bda611f0b565b73ffffffffffffffffffffffffffffffffffffffff16611bf8611804565b73ffffffffffffffffffffffffffffffffffffffff1614611c4e576040517f08c379a0000000000000000000000000000000000000000000000000000000008152600401611c4590613068565b60405180910390fd5b60006006811115611c6257611c61612623565b5b600260009054906101000a900460ff166006811115611c8457611c83612623565b5b14611cc4576040517f08c379a0000000000000000000000000000000000000000000000000000000008152600401611cbb906135e2565b60405180910390fd5b6001600260006101000a81548160ff02191690836006811115611cea57611ce9612623565b5b02179055508560036000019080519060200190611d08929190612539565b5084600360010160006101000a81548160ff02191690836002811115611d3157611d30612623565b5b0217905550836003600201819055508260038001819055508160036004018190555080600360050181905550505050505050565b600060018083611d759190612fb9565b81548110611d8657611d85612fed565b5b9060005260206000209060090201600301549050919050565b611da7611f0b565b73ffffffffffffffffffffffffffffffffffffffff16611dc5611804565b73ffffffffffffffffffffffffffffffffffffffff1614611e1b576040517f08c379a0000000000000000000000000000000000000000000000000000000008152600401611e1290613068565b60405180910390fd5b600073ffffffffffffffffffffffffffffffffffffffff168173ffffffffffffffffffffffffffffffffffffffff161415611e8b576040517f08c379a0000000000000000000000000000000000000000000000000000000008152600401611e8290613674565b60405180910390fd5b611e94816121b4565b50565b60008060018085611ea89190612fb9565b81548110611eb957611eb8612fed565b5b90600052602060002090600902016003015490506000600584611edc919061330a565b905060648183611eec919061330a565b611ef691906132d9565b82611f019190613364565b9250505092915050565b600033905090565b60026006811115611f2757611f26612623565b5b600260009054906101000a900460ff166006811115611f4957611f48612623565b5b14611f89576040517f08c379a0000000000000000000000000000000000000000000000000000000008152600401611f8090612cbd565b60405180910390fd5b6003600401544210158015611fa357506003600501544211155b611fe2576040517f08c379a0000000000000000000000000000000000000000000000000000000008152600401611fd990613706565b60405180910390fd5b6000600b80549050141561201657612011604051806060016040528060258152602001613a9960259139612089565b612087565b6003600260006101000a81548160ff0219169083600681111561203c5761203b612623565b5b0217905550612049612278565b7fb7dc4d36b2ca1a9476d5e4f14a23c3e629a0fd4f3af8c71c176f1c69d999526342600360000160405161207e92919061381c565b60405180910390a15b565b60068081111561209c5761209b612623565b5b600260009054906101000a900460ff1660068111156120be576120bd612623565b5b14156120ff576040517f08c379a00000000000000000000000000000000000000000000000000000000081526004016120f6906138be565b60405180910390fd5b600360050154421115612147576040517f08c379a000000000000000000000000000000000000000000000000000000000815260040161213e9061392a565b60405180910390fd5b6006600260006101000a81548160ff0219169083600681111561216d5761216c612623565b5b02179055507f699708c90a98fcdcc8862c08ac7a618790cf0bb5f4b50bca7487f71263bd9263426003600001836040516121a9939291906139c1565b60405180910390a150565b60008060009054906101000a900473ffffffffffffffffffffffffffffffffffffffff169050816000806101000a81548173ffffffffffffffffffffffffffffffffffffffff021916908373ffffffffffffffffffffffffffffffffffffffff1602179055508173ffffffffffffffffffffffffffffffffffffffff168173ffffffffffffffffffffffffffffffffffffffff167f8be0079c531659141344cd1fd0a4f28419497f9722a3daafe3b4186f6b6457e060405160405180910390a35050565b6003600681111561228c5761228b612623565b5b600260009054906101000a900460ff1660068111156122ae576122ad612623565b5b146122ee576040517f08c379a00000000000000000000000000000000000000000000000000000000081526004016122e590613a78565b60405180910390fd5b600060018054905090506123006125bf565b60005b82811015612462576001816123189190613364565b8260000181815250506001818154811061233557612334612fed565b5b9060005260206000209060090201600301548260200181815250506000826060019015159081151581525050600a6000828152602001908152602001600020829080600181540180825580915050600190039060005260206000209060040201600090919091909150600082015181600001556020820151816001015560408201518160020160006101000a81548173ffffffffffffffffffffffffffffffffffffffff021916908373ffffffffffffffffffffffffffffffffffffffff16021790555060608201518160020160146101000a81548160ff021916908315150217905550608082015181600301555050600180828154811061243a57612439612fed565b5b906000526020600020906009020160080181905550808061245a90612f04565b915050612303565b505050565b604051806060016040528060008152602001600015158152602001606081525090565b8280548282559060005260206000209081019282156124c6579160200282015b828111156124c55782518255916020019190600101906124aa565b5b5090506124d39190612606565b5090565b604051806101200160405280600081526020016000815260200160008152602001600081526020016000815260200160008152602001600073ffffffffffffffffffffffffffffffffffffffff16815260200160008152602001600081525090565b82805461254590613755565b90600052602060002090601f01602090048101928261256757600085556125ae565b82601f1061258057805160ff19168380011785556125ae565b828001600101855582156125ae579182015b828111156125ad578251825591602001919060010190612592565b5b5090506125bb9190612606565b5090565b6040518060a001604052806000815260200160008152602001600073ffffffffffffffffffffffffffffffffffffffff168152602001600015158152602001600081525090565b5b8082111561261f576000816000905550600101612607565b5090565b7f4e487b7100000000000000000000000000000000000000000000000000000000600052602160045260246000fd5b6007811061266357612662612623565b5b50565b600081905061267482612652565b919050565b600061268482612666565b9050919050565b61269481612679565b82525050565b60006020820190506126af600083018461268b565b92915050565b6000604051905090565b600080fd5b600080fd5b6000819050919050565b6126dc816126c9565b81146126e757600080fd5b50565b6000813590506126f9816126d3565b92915050565b600073ffffffffffffffffffffffffffffffffffffffff82169050919050565b600061272a826126ff565b9050919050565b61273a8161271f565b811461274557600080fd5b50565b60008135905061275781612731565b92915050565b60008060408385031215612774576127736126bf565b5b6000612782858286016126ea565b925050602061279385828601612748565b9150509250929050565b6127a6816126c9565b82525050565b60006040820190506127c1600083018561279d565b6127ce602083018461279d565b9392505050565b60006020820190506127ea600083018461279d565b92915050565b600060208284031215612806576128056126bf565b5b600061281484828501612748565b91505092915050565b60008115159050919050565b6128328161281d565b82525050565b600060208201905061284d6000830184612829565b92915050565b600080fd5b600080fd5b6000601f19601f8301169050919050565b7f4e487b7100000000000000000000000000000000000000000000000000000000600052604160045260246000fd5b6128a68261285d565b810181811067ffffffffffffffff821117156128c5576128c461286e565b5b80604052505050565b60006128d86126b5565b90506128e4828261289d565b919050565b600067ffffffffffffffff8211156129045761290361286e565b5b61290d8261285d565b9050602081019050919050565b82818337600083830152505050565b600061293c612937846128e9565b6128ce565b90508281526020810184848401111561295857612957612858565b5b61296384828561291a565b509392505050565b600082601f8301126129805761297f612853565b5b8135612990848260208601612929565b91505092915050565b6000602082840312156129af576129ae6126bf565b5b600082013567ffffffffffffffff8111156129cd576129cc6126c4565b5b6129d98482850161296b565b91505092915050565b6129eb8161281d565b81146129f657600080fd5b50565b600081359050612a08816129e2565b92915050565b600060208284031215612a2457612a236126bf565b5b6000612a32848285016129f9565b91505092915050565b60008060408385031215612a5257612a516126bf565b5b6000612a60858286016126ea565b9250506020612a71858286016126ea565b9150509250929050565b600060208284031215612a9157612a906126bf565b5b6000612a9f848285016126ea565b91505092915050565b612ab18161271f565b82525050565b6000606082019050612acc600083018661279d565b612ad9602083018561279d565b612ae66040830184612aa8565b949350505050565b6000602082019050612b036000830184612aa8565b92915050565b60038110612b1a57612b19612623565b5b50565b6000819050612b2b82612b09565b919050565b6000612b3b82612b1d565b9050919050565b612b4b81612b30565b82525050565b6000602082019050612b666000830184612b42565b92915050565b60038110612b7957600080fd5b50565b600081359050612b8b81612b6c565b92915050565b60008060008060008060c08789031215612bae57612bad6126bf565b5b600087013567ffffffffffffffff811115612bcc57612bcb6126c4565b5b612bd889828a0161296b565b9650506020612be989828a01612b7c565b9550506040612bfa89828a016126ea565b9450506060612c0b89828a016126ea565b9350506080612c1c89828a016126ea565b92505060a0612c2d89828a016126ea565b9150509295509295509295565b600082825260208201905092915050565b7f5468657265206d757374206265206174206c65617374206f6e65206c6f74206460008201527f6566696e65642e00000000000000000000000000000000000000000000000000602082015250565b6000612ca7602783612c3a565b9150612cb282612c4b565b604082019050919050565b60006020820190508181036000830152612cd681612c9a565b9050919050565b7f42696464657220616c726561647920636f6e6669726d65640000000000000000600082015250565b6000612d13601883612c3a565b9150612d1e82612cdd565b602082019050919050565b60006020820190508181036000830152612d4281612d06565b9050919050565b7f546865206465706f73697420666f7220636f6e6669726d20696e73637269707460008201527f696f6e204d55535420626520657175616c206f7220677265617465722074686160208201527f6e207465682067756172616e746565206465706f7369742e0000000000000000604082015250565b6000612dcb605883612c3a565b9150612dd682612d49565b606082019050919050565b60006020820190508181036000830152612dfa81612dbe565b9050919050565b7f42696464657220726567697374726174696f6e2077696e646f7720657870697260008201527f65642e0000000000000000000000000000000000000000000000000000000000602082015250565b6000612e5d602383612c3a565b9150612e6882612e01565b604082019050919050565b60006020820190508181036000830152612e8c81612e50565b9050919050565b600081519050612ea281612731565b92915050565b600060208284031215612ebe57612ebd6126bf565b5b6000612ecc84828501612e93565b91505092915050565b7f4e487b7100000000000000000000000000000000000000000000000000000000600052601160045260246000fd5b6000612f0f826126c9565b91507fffffffffffffffffffffffffffffffffffffffffffffffffffffffffffffffff821415612f4257612f41612ed5565b5b600182019050919050565b7f436f6e6669726d65642062696464657220696e736372697074696f6e2e000000600082015250565b6000612f83601d83612c3a565b9150612f8e82612f4d565b602082019050919050565b60006020820190508181036000830152612fb281612f76565b9050919050565b6000612fc4826126c9565b9150612fcf836126c9565b925082821015612fe257612fe1612ed5565b5b828203905092915050565b7f4e487b7100000000000000000000000000000000000000000000000000000000600052603260045260246000fd5b7f4f776e61626c653a2063616c6c6572206973206e6f7420746865206f776e6572600082015250565b6000613052602083612c3a565b915061305d8261301c565b602082019050919050565b6000602082019050818103600083015261308181613045565b9050919050565b7f426964646572206973206e6f7420636f6e6669726d6564000000000000000000600082015250565b60006130be601783612c3a565b91506130c982613088565b602082019050919050565b600060208201905081810360008301526130ed816130b1565b9050919050565b7f46756e6374696f6e2063616e6e6f742062652063616c6c656420627920636f6e60008201527f7472616374206f776e6572000000000000000000000000000000000000000000602082015250565b6000613150602b83612c3a565b915061315b826130f4565b604082019050919050565b6000602082019050818103600083015261317f81613143565b9050919050565b7f5472616e636865204d5553542062652067726561746572207468616e207a657260008201527f6f2e000000000000000000000000000000000000000000000000000000000000602082015250565b60006131e2602283612c3a565b91506131ed82613186565b604082019050919050565b60006020820190508181036000830152613211816131d5565b9050919050565b7f4d6178696d756e2053656372657420426964204d55535420626520677265617460008201527f6572207468616e206c6f7420626173652076616c75652e000000000000000000602082015250565b6000613274603783612c3a565b915061327f82613218565b604082019050919050565b600060208201905081810360008301526132a381613267565b9050919050565b7f4e487b7100000000000000000000000000000000000000000000000000000000600052601260045260246000fd5b60006132e4826126c9565b91506132ef836126c9565b9250826132ff576132fe6132aa565b5b828204905092915050565b6000613315826126c9565b9150613320836126c9565b9250817fffffffffffffffffffffffffffffffffffffffffffffffffffffffffffffffff048311821515161561335957613358612ed5565b5b828202905092915050565b600061336f826126c9565b915061337a836126c9565b9250827fffffffffffffffffffffffffffffffffffffffffffffffffffffffffffffffff038211156133af576133ae612ed5565b5b828201905092915050565b7f41756374696f6e206973204e4f5420696e697469616c697a65642e20496e697460008201527f69616c697a652061756374696f6e206265666f726520616464696e67206c6f7460208201527f732e000000000000000000000000000000000000000000000000000000000000604082015250565b600061343c604283612c3a565b9150613447826133ba565b606082019050919050565b6000602082019050818103600083015261346b8161342f565b9050919050565b7f5265616c2053746174652061756374696f6e73206f6e6c7920616c6c6f77732060008201527f6f6e65206c6f7400000000000000000000000000000000000000000000000000602082015250565b60006134ce602783612c3a565b91506134d982613472565b604082019050919050565b600060208201905081810360008301526134fd816134c1565b9050919050565b7f43616e74277420616464206d6f7265206c6f7473207468616e20646566696e6460008201527f656420696e20746f74616c41756374696f6e4c6f747300000000000000000000602082015250565b6000613560603683612c3a565b915061356b82613504565b604082019050919050565b6000602082019050818103600083015261358f81613553565b9050919050565b7f41756374696f6e20616c726561647920696e697469616c697a65640000000000600082015250565b60006135cc601b83612c3a565b91506135d782613596565b602082019050919050565b600060208201905081810360008301526135fb816135bf565b9050919050565b7f4f776e61626c653a206e6577206f776e657220697320746865207a65726f206160008201527f6464726573730000000000000000000000000000000000000000000000000000602082015250565b600061365e602683612c3a565b915061366982613602565b604082019050919050565b6000602082019050818103600083015261368d81613651565b9050919050565b7f41637475616c2074696d65206f7574736964652061756374696f6e20626f756e60008201527f6461726965730000000000000000000000000000000000000000000000000000602082015250565b60006136f0602683612c3a565b91506136fb82613694565b604082019050919050565b6000602082019050818103600083015261371f816136e3565b9050919050565b7f4e487b7100000000000000000000000000000000000000000000000000000000600052602260045260246000fd5b6000600282049050600182168061376d57607f821691505b6020821081141561378157613780613726565b5b50919050565b60008190508160005260206000209050919050565b600081546137a981613755565b6137b38186612c3a565b945060018216600081146137ce57600181146137e057613813565b60ff1983168652602086019350613813565b6137e985613787565b60005b8381101561380b578154818901526001820191506020810190506137ec565b808801955050505b50505092915050565b6000604082019050613831600083018561279d565b8181036020830152613843818461379c565b90509392505050565b7f5468652061756374696f6e2077617320707265766975736c792063616e63656c60008201527f65642e0000000000000000000000000000000000000000000000000000000000602082015250565b60006138a8602383612c3a565b91506138b38261384c565b604082019050919050565b600060208201905081810360008301526138d78161389b565b9050919050565b7f41756374696f6e20656e64206461746520726561636865640000000000000000600082015250565b6000613914601883612c3a565b915061391f826138de565b602082019050919050565b6000602082019050818103600083015261394381613907565b9050919050565b600081519050919050565b60005b83811015613973578082015181840152602081019050613958565b83811115613982576000848401525b50505050565b60006139938261394a565b61399d8185612c3a565b93506139ad818560208601613955565b6139b68161285d565b840191505092915050565b60006060820190506139d6600083018661279d565b81810360208301526139e8818561379c565b905081810360408301526139fc8184613988565b9050949350505050565b7f5468652061756374696f6e204d55535420626520696e2053544152544544207360008201527f7461746500000000000000000000000000000000000000000000000000000000602082015250565b6000613a62602483612c3a565b9150613a6d82613a06565b604082019050919050565b60006020820190508181036000830152613a9181613a55565b905091905056fe4e6f20636f6e6669726d656420626f64646572732061742061756374696f6e207374617274a26469706673582212205dc8d4d279880b8a85c55fb6663cb88e9bc243e45fcdbcca5e7106f400fc0e5a64736f6c634300080a0033",
  "immutableReferences": {},
  "source": "// SPDX-License-Identifier: MIT\npragma solidity >=0.4.22 <0.9.0;\n\nimport \"@openzeppelin/contracts/access/Ownable.sol\";\n\n/***\n * This contract implementas public auctions at Supreme Court in Buenos Aires Province @ Argetina.\n * The auction process has an hybrid architecture, where the auction data and administrative flow is centralizad in a \n * traditional web application, and the push process and winner definition happens in the blockchain.\n * \n * Author: Lic. Gustavo Perez Villar @ Buenos Aires - Argentina\n */\n\ncontract AuctionsSCBA is Ownable {\n    \n    // Events\n\n    event evt_bidderConfirmedInscription(address indexed sender, string message);\n    event evt_auctionStart(uint timeStamp, string auctionID);\n    event evt_auctionCanceled(uint timeStamp, string auctionID, string cause);\n    event evt_maximunSecretBidBeaten(uint timeStamp, address beatenBidder);\n    event evt_bidConfirmed(uint timeStamp, uint lotId, uint trancheId, address _bidder);\n\n    // Custom data types\n\n    enum AuctionClass {REAL_STATE,MOBILE,MOBILE_REGISTER}\n    enum AuctionState {NO_INIT,INIT,LOT,STARTED,EXTENDED,ENDED,CANCELED}\n    struct AuctionLot {\n        uint lotId_;\n        uint startDate_;\n        uint endDate_;\n        uint baseValue_;\n        uint extendedEndDate_;\n        uint extensionsCount_;\n        address winner_;\n        uint lastTrancheId_;\n        uint actualTrancheId_;\n    }\n    struct Auction {\n        string auctionCode_;\n        AuctionClass auctionClass_;\n        uint guaranteeDeposit_;\n        uint totalAuctionLots_;\n        uint startDate_;\n        uint endDate_;\n    }\n    struct Bidder {\n        uint guaranteeDeposit_; // Deposited amount in wei for confirm auction inscription\n        bool preserveLastBid_;  // If he wants to preserve his last bid in case the winner doesn't confirm the buy. \n                                // if preserve bid is true, the bidder cannot withdraw founds after auction ending.\n        uint[] lotSecretBid_;   // Secrets bid per lot. lotSecretBid_[lotId-1] = secretBid. Secret Bid is expressed as trancheid\n    }\n    struct AuctionTranches {\n        uint trancheId_;\n        uint trancheValue_;\n        address trancheBidder_;\n        bool trancheConfirmed_;\n        uint trancheBidTimestamp_;\n    }\n\n    // State Variables\n\n    AuctionLot[] private _auctionLots; // Auction lots array\n    AuctionState private _auctionState; // Actual auction state\n    Auction private _auctionObject; // Instance of auction data\n    mapping (address => Bidder) private _validBidders; // Valid registered bidders\n    mapping (uint => AuctionTranches[]) private _tranchesPerLot;\n    address[] private _bidderList;\n\n   // Constructor\n\n    constructor () {\n        // State variables initialization\n        _auctionState = AuctionState.NO_INIT;\n    }\n\n    // Receive functions\n\n    function confirmBidderInscription(bool _preserveGuranteeDeposit) external payable {\n        _confirmBidderInscription(msg.sender, msg.value, _preserveGuranteeDeposit);\n    }\n\n    // Fallback function\n\n    receive() external payable {\n       _confirmBidderInscription(msg.sender, msg.value,false); \n    } \n\n    // External Functions\n\n    function auctionInit(\n        string memory __auctionCode,\n        AuctionClass __auctionClass, \n        uint __guaranteeDeposit, \n        uint __totalAuctionLots,\n        uint __startDate,\n        uint __endDate \n    ) external onlyOwner  {\n        require(_auctionState  == AuctionState.NO_INIT, \"Auction already initialized\");\n        //require(block.timestamp < __startDate && (__startDate + 10 days) <= __endDate,\"Invalid dates\");\n        _auctionState = AuctionState.INIT;\n        _auctionObject.auctionCode_ = __auctionCode;\n        _auctionObject.auctionClass_ = __auctionClass;\n        _auctionObject.guaranteeDeposit_ = __guaranteeDeposit;\n        _auctionObject.totalAuctionLots_ = __totalAuctionLots;\n        _auctionObject.startDate_ = __startDate;\n        _auctionObject.endDate_ = __endDate;\n    }\n\n    function auctionAddLot(uint __baseValue) external onlyOwner {\n        require(_auctionState == AuctionState.INIT || _auctionState == AuctionState.LOT ,\"Auction is NOT initialized. Initialize auction before adding lots.\");\n        // Can't add more tha one lot if the auction class is Realstate\n        if (_auctionObject.auctionClass_ == AuctionClass.REAL_STATE && _auctionLots.length == 1) { revert(\"Real State auctions only allows one lot\"); }\n        if (_auctionLots.length > _auctionObject.totalAuctionLots_) { revert(\"Cant't add more lots than definded in totalAuctionLots\"); }\n        AuctionLot memory tmpLot;\n        _auctionState = AuctionState.LOT;\n        tmpLot.lotId_ = _auctionLots.length + 1;  //Start at lot 1\n        tmpLot.extensionsCount_ = 0;\n        tmpLot.startDate_ = _auctionObject.startDate_;\n        tmpLot.endDate_ = _auctionObject.endDate_;\n        tmpLot.extendedEndDate_ = _auctionObject.endDate_;\n        tmpLot.baseValue_ = __baseValue;\n        tmpLot.lastTrancheId_ = 0;\n        _auctionLots.push(tmpLot); // Add lot to lot array\n    }  \n\n    function auctionStart() external onlyOwner {\n        _setAuctionStart();\n    }\n\n   function auctionCancel(string memory _cause) external onlyOwner {\n        _auctionCancelation(_cause);\n    }\n\n    // Public Functions\n\n    function getAuctionState() public view returns (AuctionState) {\n        return _auctionState;\n    }\n    \n    // Get contract address blance (sum of all guarantee deposits for each confirmed bidder)\n    function getAuctionBalance() public view returns (uint) {\n        return address(this).balance;\n    } \n    \n    function getConfirmedBiddders() public view returns (uint){\n        return _bidderList.length;\n    }\n\n    function isBidderConfirmed(address _queryBidder) public view returns(bool) {   \n        require(_auctionState == AuctionState.LOT,\"There must be at least one lot defined.\");   \n        return (_validBidders[_queryBidder].guaranteeDeposit_ > 0);\n    }\n\n    function getAuctionStartDate() public view returns(uint) {     \n        return _auctionObject.startDate_;\n    }\n\n    function getAuctionEndtDate() public view returns(uint) {     \n        return _auctionObject.endDate_;\n    }\n\n    function getAuctionClass() public view returns(AuctionClass) {     \n        return _auctionObject.auctionClass_;\n    }\n\n    function getActualTranche(uint _lotId) public view returns (uint,uint) {\n        uint retTrancheId_;\n        uint retValue_;\n        require(_auctionState == AuctionState.LOT,\"There must be at least one lot defined.\"); \n        retTrancheId_ = _auctionLots[_lotId-1].actualTrancheId_;\n        retValue_ = _tranchesPerLot[_lotId-1][retTrancheId_-1].trancheValue_;\n        \n        return (retTrancheId_, retValue_);\n    }\n\n    function getLastTranche(uint _lotId) public view returns (uint,uint,address) {\n        uint retTrancheId_;\n        uint retValue_;\n        address retBidder_;\n        require(_auctionState == AuctionState.LOT,\"There must be at least one lot defined.\"); \n        retTrancheId_ = _auctionLots[_lotId-1].lastTrancheId_;\n        retValue_ = _tranchesPerLot[_lotId-1][retTrancheId_-1].trancheValue_;\n        retBidder_ = _tranchesPerLot[_lotId-1][retTrancheId_-1].trancheBidder_;\n        \n        return (retTrancheId_, retValue_, retBidder_);\n    }\n\n    function getBidderMaximunSecretBid(uint _lotId, address _bidder) public view returns (uint,uint) {\n        require(_auctionState == AuctionState.LOT,\"There must be at least one lot defined.\"); \n        uint _retTranche = _validBidders[_bidder].lotSecretBid_[_lotId-1];\n        uint _retAmount = _getLotTrancheValue(_lotId,_retTranche);\n        return (_retTranche, _retAmount);\n    }\n        \n    function getLotQuantity() public view returns (uint) {\n        return _auctionLots.length;\n    }\n\n    function getLotBaseValue(uint _lotId) public view returns (uint) {\n        return _auctionLots[_lotId-1].baseValue_;\n    }\n\n    function getLotTrancheValue(uint _lotId, uint _trancheId) public view returns (uint) {\n        \n        return _getLotTrancheValue(_lotId,_trancheId);\n    }\n\n    function bidderSetPreservelastBid(bool _value) public {\n        require(_auctionState == AuctionState.LOT,\"There must be at least one lot defined.\"); \n        require(_validBidders[msg.sender].guaranteeDeposit_ > 0,\"Bidder is not confirmed\"); \n        require((msg.sender != this.owner()));\n        \n        _validBidders[msg.sender].preserveLastBid_ = _value;\n\n    }\n\n    function bidderSetMaximunSecretBidAmount(uint _lotId, uint _value) public {\n        require(_auctionState == AuctionState.LOT,\"There must be at least one lot defined.\"); \n        require(_validBidders[msg.sender].guaranteeDeposit_ > 0,\"Bidder is not confirmed\"); \n        require((msg.sender != this.owner()),\"Function cannot be called by contract owner\");\n        require(_value > _auctionLots[_lotId-1].baseValue_,\"Maximun Secret Bid MUST be greater than lot base value.\"); \n        uint _msbTranche;\n        uint _fivePercent;\n        \n        _fivePercent = ((_auctionLots[_lotId-1].baseValue_ / 100) * 5);\n        _msbTranche = ((_value - _auctionLots[_lotId-1].baseValue_) / _fivePercent) + 1;\n        _validBidders[msg.sender].lotSecretBid_[_lotId-1] = _msbTranche-1; // -1 for approaching lower tranche.\n        \n    }\n    function bidderSetMaximunSecretBidTranche(uint _lotId, uint _value) public {\n        require(_auctionState == AuctionState.LOT,\"There must be at least one lot defined.\"); \n        require(_validBidders[msg.sender].guaranteeDeposit_ > 0,\"Bidder is not confirmed\"); \n        require((msg.sender != this.owner()),\"Function cannot be called by contract owner\");\n        require(_value >= 1 ,\"Tranche MUST be greater than zero.\"); \n        \n        _validBidders[msg.sender].lotSecretBid_[_lotId-1] = _value;\n    }\n    // Internal Functions\n\n    function _getLotTrancheValue(uint _lotId, uint _trancheId) internal view returns (uint) {\n        uint _baseValue = _auctionLots[_lotId-1].baseValue_;\n        uint _factor = _trancheId * 5;\n\n        return _baseValue + ((_baseValue * _factor) / 100);\n    }\n\n    function _confirmBidderInscription(address _bidderAddress, uint _depositAmount, bool _preserveGuaranteeDeposit) internal     {\n        Bidder memory _tmpBidder;\n        uint _LotsLength = _auctionLots.length;\n        require(_auctionState == AuctionState.LOT,\"There must be at least one lot defined.\"); \n        require(_validBidders[_bidderAddress].guaranteeDeposit_ == 0,\"Bidder already confirmed\"); \n        require(_depositAmount >= _auctionObject.guaranteeDeposit_,\"The deposit for confirm inscription MUST be equal or greater than teh guarantee deposit.\");\n        require (block.timestamp <= _auctionObject.startDate_,\"Bidder registration window expired.\");\n        require((msg.sender != this.owner()));\n\n        _tmpBidder.guaranteeDeposit_ = _depositAmount;\n        _tmpBidder.preserveLastBid_ = _preserveGuaranteeDeposit;\n        // initialize Maximun Secret Bid array\n        _validBidders[_bidderAddress] = _tmpBidder;\n        for (uint i=0; i<_LotsLength; i++) {\n            _validBidders[_bidderAddress].lotSecretBid_.push(0);\n        }\n        _bidderList.push(_bidderAddress);\n\n        emit evt_bidderConfirmedInscription(_bidderAddress,\"Confirmed bidder inscription.\");\n    }\n\n    function _setAuctionStart() internal  {\n        require(_auctionState == AuctionState.LOT,\"There must be at least one lot defined.\"); \n        require(block.timestamp >= _auctionObject.startDate_ && block.timestamp <= _auctionObject.endDate_,\"Actual time outside auction boundaries\");\n        \n        if (_bidderList.length == 0) {\n             _auctionCancelation(\"No confirmed bodders at auction start\");\n        } else {\n            _auctionState = AuctionState.STARTED;\n            _initTranches();\n            emit evt_auctionStart(block.timestamp, _auctionObject.auctionCode_);\n        }\n    }\n    \n    function _auctionCancelation(string memory _cause) internal {\n        require(_auctionState != AuctionState.CANCELED,\"The auction was previusly canceled.\"); \n        require(block.timestamp <= _auctionObject.endDate_,\"Auction end date reached\");\n        \n        _auctionState = AuctionState.CANCELED;\n        emit evt_auctionCanceled(block.timestamp, _auctionObject.auctionCode_, _cause);\n    }\n\n    function _initTranches() internal {\n        require(_auctionState == AuctionState.STARTED,\"The auction MUST be in STARTED state\");\n        uint _LotsLength = _auctionLots.length;\n        AuctionTranches memory _tmpTranche;\n\n        for (uint i=0; i<_LotsLength; i++) {\n            _tmpTranche.trancheId_ = i+1;\n            _tmpTranche.trancheValue_ = _auctionLots[i].baseValue_;\n            _tmpTranche.trancheConfirmed_ = false;\n            _tranchesPerLot[i].push(_tmpTranche);\n            _auctionLots[i].actualTrancheId_ = 1; \n        }\n    }\n\n    /*\n    This function iterates over each bidder for every lot pushing using the Maximun Secret Bid commited before\n    auction start. The push order is related to the inscription order and the loops ends when no maximun secret bid\n    can beat the last valid automatic bid pushed.\n    */\n    function _secretBidPush() internal  {\n        require(_auctionState == AuctionState.STARTED,\"The auction MUST be in STARTED state\");\n        require(block.timestamp <= _auctionObject.endDate_,\"Auction end date reached\");\n        bool _doBid=true;        \n        while (_doBid) {\n            _doBid=false;\n            for (uint x=0;x<_auctionLots.length-1;x++) {\n                for (uint i=0; i<_bidderList.length-1;i++) {\n                    // if the current iteration bidder has a maximun secret bid greater than auction current tranche and the bidder \n                    // is not the winner of te past tranch, the system pushes a bid in his name.\n                    if (_validBidders[_bidderList[i]].lotSecretBid_[x] > 0 && _validBidders[_bidderList[i]].lotSecretBid_[x] > _auctionLots[i].actualTrancheId_) {\n                        if ( _tranchesPerLot[x][_auctionLots[i].actualTrancheId_-1].trancheBidder_ != _bidderList[i] ) {\n                            _bid(_bidderList[i], x+1, _auctionLots[i].actualTrancheId_);\n                            _doBid=true;\n                        }\n                    }\n                }\n            }\n        }\n    }\n\n    function _bid(address _bidder, uint _lotId, uint _bidTranche) internal {\n        require(_auctionState == AuctionState.STARTED || _auctionState == AuctionState.EXTENDED ,\"The auction MUST be in STARTED or EXTENDED state\");\n        require(block.timestamp <= _auctionObject.endDate_,\"Auction end date reached\");\n        require(_tranchesPerLot[_lotId-1][_bidTranche-1].trancheConfirmed_ == false, \"The tranche is already confirmed.\");        \n        require(_validBidders[_bidder].guaranteeDeposit_ > 0, \"Message sender MUST be a valid bidder\");\n        require(_tranchesPerLot[_lotId-1][_auctionLots[_lotId-1].lastTrancheId_-1].trancheBidder_ != _bidder, \"The bidder already has pushed the last valid bid\");\n        AuctionTranches memory _tmpTranche;\n        \n        // updates lot info\n        _auctionLots[_lotId-1].lastTrancheId_ += 1;\n        _auctionLots[_lotId-1].actualTrancheId_ += 1;\n        // updates tranche info\n        _tranchesPerLot[_lotId-1][_bidTranche-1].trancheBidder_ = _bidder;\n        _tranchesPerLot[_lotId-1][_bidTranche-1].trancheConfirmed_ = true;\n        _tranchesPerLot[_lotId-1][_bidTranche-1].trancheBidTimestamp_ = block.timestamp;\n\n        // Init next tranche\n\n        uint _trancheIncrement = (_auctionLots[_lotId-1].baseValue_ * 5) / 100;\n        _tmpTranche.trancheId_ = _lotId+1;\n        _tmpTranche.trancheValue_ = _tranchesPerLot[_lotId-1][_bidTranche-1].trancheValue_ + _trancheIncrement;\n        _tmpTranche.trancheConfirmed_ = false;\n        _tranchesPerLot[_lotId-1].push(_tmpTranche);\n\n        // generates events\n        emit evt_bidConfirmed(block.timestamp, _lotId, _bidTranche, _bidder);\n    }\n\n}\n",
  "sourcePath": "/home/gperez/proyectos/scba-auction-ethereum/contracts/AuctionsSCBA.sol",
  "compiler": {
    "name": "solc",
    "version": "0.8.10+commit.fc410830.Emscripten.clang"
  },
  "schemaVersion": "3.4.4",
  "updatedAt": "2021-12-18T09:25:35.922Z",
  "devdoc": {
    "kind": "dev",
    "methods": {
      "owner()": {
        "details": "Returns the address of the current owner."
      },
      "renounceOwnership()": {
        "details": "Leaves the contract without owner. It will not be possible to call `onlyOwner` functions anymore. Can only be called by the current owner. NOTE: Renouncing ownership will leave the contract without an owner, thereby removing any functionality that is only available to the owner."
      },
      "transferOwnership(address)": {
        "details": "Transfers ownership of the contract to a new account (`newOwner`). Can only be called by the current owner."
      }
    },
    "version": 1
  },
  "userdoc": {
    "kind": "user",
    "methods": {},
    "version": 1
  }
}