{
  "contractName": "AuctionsSCBA",
  "abi": [
    {
      "inputs": [],
      "stateMutability": "nonpayable",
      "type": "constructor"
    },
    {
      "anonymous": false,
      "inputs": [
        {
          "indexed": true,
          "internalType": "address",
          "name": "previousOwner",
          "type": "address"
        },
        {
          "indexed": true,
          "internalType": "address",
          "name": "newOwner",
          "type": "address"
        }
      ],
      "name": "OwnershipTransferred",
      "type": "event"
    },
    {
      "anonymous": false,
      "inputs": [
        {
          "indexed": false,
          "internalType": "uint256",
          "name": "timeStamp",
          "type": "uint256"
        },
        {
          "indexed": false,
          "internalType": "string",
          "name": "auctionID",
          "type": "string"
        },
        {
          "indexed": false,
          "internalType": "string",
          "name": "cause",
          "type": "string"
        }
      ],
      "name": "evt_auctionCanceled",
      "type": "event"
    },
    {
      "anonymous": false,
      "inputs": [
        {
          "indexed": false,
          "internalType": "uint256",
          "name": "timeStamp",
          "type": "uint256"
        },
        {
          "indexed": false,
          "internalType": "string",
          "name": "auctionID",
          "type": "string"
        }
      ],
      "name": "evt_auctionStart",
      "type": "event"
    },
    {
      "anonymous": false,
      "inputs": [
        {
          "indexed": true,
          "internalType": "address",
          "name": "sender",
          "type": "address"
        },
        {
          "indexed": false,
          "internalType": "string",
          "name": "message",
          "type": "string"
        }
      ],
      "name": "evt_bidderConfirmedInscription",
      "type": "event"
    },
    {
      "inputs": [],
      "name": "owner",
      "outputs": [
        {
          "internalType": "address",
          "name": "",
          "type": "address"
        }
      ],
      "stateMutability": "view",
      "type": "function"
    },
    {
      "inputs": [],
      "name": "renounceOwnership",
      "outputs": [],
      "stateMutability": "nonpayable",
      "type": "function"
    },
    {
      "inputs": [
        {
          "internalType": "address",
          "name": "newOwner",
          "type": "address"
        }
      ],
      "name": "transferOwnership",
      "outputs": [],
      "stateMutability": "nonpayable",
      "type": "function"
    },
    {
      "stateMutability": "payable",
      "type": "receive"
    },
    {
      "inputs": [
        {
          "internalType": "bool",
          "name": "_preserveGuranteeDeposit",
          "type": "bool"
        }
      ],
      "name": "confirmBidderInscription",
      "outputs": [],
      "stateMutability": "payable",
      "type": "function"
    },
    {
      "inputs": [
        {
          "internalType": "string",
          "name": "__auctionCode",
          "type": "string"
        },
        {
          "internalType": "enum AuctionsSCBA.AuctionClass",
          "name": "__auctionClass",
          "type": "uint8"
        },
        {
          "internalType": "uint256",
          "name": "__guaranteeDeposit",
          "type": "uint256"
        },
        {
          "internalType": "uint256",
          "name": "__totalAuctionLots",
          "type": "uint256"
        },
        {
          "internalType": "uint256",
          "name": "__startDate",
          "type": "uint256"
        },
        {
          "internalType": "uint256",
          "name": "__endDate",
          "type": "uint256"
        }
      ],
      "name": "auctionInit",
      "outputs": [],
      "stateMutability": "nonpayable",
      "type": "function"
    },
    {
      "inputs": [
        {
          "internalType": "uint256",
          "name": "__baseValue",
          "type": "uint256"
        }
      ],
      "name": "auctionAddLot",
      "outputs": [],
      "stateMutability": "nonpayable",
      "type": "function"
    },
    {
      "inputs": [],
      "name": "auctionStart",
      "outputs": [],
      "stateMutability": "nonpayable",
      "type": "function"
    },
    {
      "inputs": [
        {
          "internalType": "string",
          "name": "_cause",
          "type": "string"
        }
      ],
      "name": "auctionCancel",
      "outputs": [],
      "stateMutability": "nonpayable",
      "type": "function"
    },
    {
      "inputs": [],
      "name": "getAuctionState",
      "outputs": [
        {
          "internalType": "enum AuctionsSCBA.AuctionState",
          "name": "",
          "type": "uint8"
        }
      ],
      "stateMutability": "view",
      "type": "function"
    },
    {
      "inputs": [],
      "name": "getAuctionBalance",
      "outputs": [
        {
          "internalType": "uint256",
          "name": "",
          "type": "uint256"
        }
      ],
      "stateMutability": "view",
      "type": "function"
    },
    {
      "inputs": [],
      "name": "getConfirmedBiddders",
      "outputs": [
        {
          "internalType": "uint256",
          "name": "",
          "type": "uint256"
        }
      ],
      "stateMutability": "view",
      "type": "function"
    },
    {
      "inputs": [
        {
          "internalType": "address",
          "name": "_queryBidder",
          "type": "address"
        }
      ],
      "name": "isBidderConfirmed",
      "outputs": [
        {
          "internalType": "bool",
          "name": "",
          "type": "bool"
        }
      ],
      "stateMutability": "view",
      "type": "function"
    },
    {
      "inputs": [],
      "name": "getAuctionStartDate",
      "outputs": [
        {
          "internalType": "uint256",
          "name": "",
          "type": "uint256"
        }
      ],
      "stateMutability": "view",
      "type": "function"
    },
    {
      "inputs": [],
      "name": "getAuctionEndtDate",
      "outputs": [
        {
          "internalType": "uint256",
          "name": "",
          "type": "uint256"
        }
      ],
      "stateMutability": "view",
      "type": "function"
    },
    {
      "inputs": [],
      "name": "getAuctionClass",
      "outputs": [
        {
          "internalType": "enum AuctionsSCBA.AuctionClass",
          "name": "",
          "type": "uint8"
        }
      ],
      "stateMutability": "view",
      "type": "function"
    },
    {
      "inputs": [
        {
          "internalType": "bool",
          "name": "_value",
          "type": "bool"
        }
      ],
      "name": "bidderSetPreservelastBid",
      "outputs": [],
      "stateMutability": "nonpayable",
      "type": "function"
    },
    {
      "inputs": [
        {
          "internalType": "uint256",
          "name": "_value",
          "type": "uint256"
        }
      ],
      "name": "bidderSetMaximunSecretBid",
      "outputs": [],
      "stateMutability": "nonpayable",
      "type": "function"
    }
  ],
  "bytecode": "0x60806040523480156200001157600080fd5b5062000032620000266200006e60201b60201c565b6200007660201b60201c565b6000600260006101000a81548160ff021916908360068111156200005b576200005a6200013a565b5b02179055506000600c8190555062000169565b600033905090565b60008060009054906101000a900473ffffffffffffffffffffffffffffffffffffffff169050816000806101000a81548173ffffffffffffffffffffffffffffffffffffffff021916908373ffffffffffffffffffffffffffffffffffffffff1602179055508173ffffffffffffffffffffffffffffffffffffffff168173ffffffffffffffffffffffffffffffffffffffff167f8be0079c531659141344cd1fd0a4f28419497f9722a3daafe3b4186f6b6457e060405160405180910390a35050565b7f4e487b7100000000000000000000000000000000000000000000000000000000600052602160045260246000fd5b612c0f80620001796000396000f3fe6080604052600436106101025760003560e01c8063715018a611610095578063c455d0cb11610064578063c455d0cb14610302578063d262c0e51461032d578063d698562114610356578063f0c019df14610372578063f2fde38b1461039b57610115565b8063715018a61461026c5780637786ce34146102835780638da5cb5b146102ae578063a9a484ef146102d957610115565b80634f245ef7116100d15780634f245ef7146101c657806359ec35d8146101dd5780635e464d511461021a57806361dd3bcc1461024357610115565b806308bfc3001461011a5780631499cf111461014557806325a35e73146101705780634a8bb6ed1461019b57610115565b3661011557610113333460006103c4565b005b600080fd5b34801561012657600080fd5b5061012f61071b565b60405161013c9190611ace565b60405180910390f35b34801561015157600080fd5b5061015a610732565b6040516101679190611b02565b60405180910390f35b34801561017c57600080fd5b5061018561073f565b6040516101929190611b02565b60405180910390f35b3480156101a757600080fd5b506101b0610747565b6040516101bd9190611b02565b60405180910390f35b3480156101d257600080fd5b506101db610751565b005b3480156101e957600080fd5b5061020460048036038101906101ff9190611b8f565b6107d7565b6040516102119190611bd7565b60405180910390f35b34801561022657600080fd5b50610241600480360381019061023c9190611d38565b610825565b005b34801561024f57600080fd5b5061026a60048036038101906102659190611dad565b6108ad565b005b34801561027857600080fd5b50610281610aac565b005b34801561028f57600080fd5b50610298610b34565b6040516102a59190611b02565b60405180910390f35b3480156102ba57600080fd5b506102c3610b41565b6040516102d09190611de9565b60405180910390f35b3480156102e557600080fd5b5061030060048036038101906102fb9190611e30565b610b6a565b005b34801561030e57600080fd5b50610317610d56565b6040516103249190611ea5565b60405180910390f35b34801561033957600080fd5b50610354600480360381019061034f9190611e30565b610d70565b005b610370600480360381019061036b9190611dad565b6110e5565b005b34801561037e57600080fd5b5061039960048036038101906103949190611ee5565b6110f3565b005b3480156103a757600080fd5b506103c260048036038101906103bd9190611b8f565b6112e2565b005b6103cc6118e1565b600260068111156103e0576103df611a57565b5b600260009054906101000a900460ff16600681111561040257610401611a57565b5b14610442576040517f08c379a000000000000000000000000000000000000000000000000000000000815260040161043990612011565b60405180910390fd5b6000600960008673ffffffffffffffffffffffffffffffffffffffff1673ffffffffffffffffffffffffffffffffffffffff16815260200190815260200160002060000154146104c7576040517f08c379a00000000000000000000000000000000000000000000000000000000081526004016104be9061207d565b60405180910390fd5b60036002015483101561050f576040517f08c379a000000000000000000000000000000000000000000000000000000000815260040161050690612135565b60405180910390fd5b600360040154421115610557576040517f08c379a000000000000000000000000000000000000000000000000000000000815260040161054e906121c7565b60405180910390fd5b3073ffffffffffffffffffffffffffffffffffffffff16638da5cb5b6040518163ffffffff1660e01b8152600401602060405180830381865afa1580156105a2573d6000803e3d6000fd5b505050506040513d601f19601f820116820180604052508101906105c691906121fc565b73ffffffffffffffffffffffffffffffffffffffff163373ffffffffffffffffffffffffffffffffffffffff1614156105fe57600080fd5b82816000018181525050818160200190151590811515815250506000816040018181525050600081606001818152505080600960008673ffffffffffffffffffffffffffffffffffffffff1673ffffffffffffffffffffffffffffffffffffffff1681526020019081526020016000206000820151816000015560208201518160010160006101000a81548160ff02191690831515021790555060408201518160020155606082015181600301559050506001600c60008282546106c29190612258565b925050819055508373ffffffffffffffffffffffffffffffffffffffff167f2bcb2fe5b94813e883d2308e17a49fb21fb91863c646b56c2dbeb3069bd7391160405161070d906122fa565b60405180910390a250505050565b6000600260009054906101000a900460ff16905090565b6000600360040154905090565b600047905090565b6000600c54905090565b6107596113da565b73ffffffffffffffffffffffffffffffffffffffff16610777610b41565b73ffffffffffffffffffffffffffffffffffffffff16146107cd576040517f08c379a00000000000000000000000000000000000000000000000000000000081526004016107c490612366565b60405180910390fd5b6107d56113e2565b565b600080600960008473ffffffffffffffffffffffffffffffffffffffff1673ffffffffffffffffffffffffffffffffffffffff16815260200190815260200160002060000154119050919050565b61082d6113da565b73ffffffffffffffffffffffffffffffffffffffff1661084b610b41565b73ffffffffffffffffffffffffffffffffffffffff16146108a1576040517f08c379a000000000000000000000000000000000000000000000000000000000815260040161089890612366565b60405180910390fd5b6108aa81611555565b50565b600260068111156108c1576108c0611a57565b5b600260009054906101000a900460ff1660068111156108e3576108e2611a57565b5b14610923576040517f08c379a000000000000000000000000000000000000000000000000000000000815260040161091a90612011565b60405180910390fd5b6000600960003373ffffffffffffffffffffffffffffffffffffffff1673ffffffffffffffffffffffffffffffffffffffff16815260200190815260200160002060000154116109a8576040517f08c379a000000000000000000000000000000000000000000000000000000000815260040161099f906123d2565b60405180910390fd5b3073ffffffffffffffffffffffffffffffffffffffff16638da5cb5b6040518163ffffffff1660e01b8152600401602060405180830381865afa1580156109f3573d6000803e3d6000fd5b505050506040513d601f19601f82011682018060405250810190610a1791906121fc565b73ffffffffffffffffffffffffffffffffffffffff163373ffffffffffffffffffffffffffffffffffffffff161415610a4f57600080fd5b80600960003373ffffffffffffffffffffffffffffffffffffffff1673ffffffffffffffffffffffffffffffffffffffff16815260200190815260200160002060010160006101000a81548160ff02191690831515021790555050565b610ab46113da565b73ffffffffffffffffffffffffffffffffffffffff16610ad2610b41565b73ffffffffffffffffffffffffffffffffffffffff1614610b28576040517f08c379a0000000000000000000000000000000000000000000000000000000008152600401610b1f90612366565b60405180910390fd5b610b326000611680565b565b6000600360050154905090565b60008060009054906101000a900473ffffffffffffffffffffffffffffffffffffffff16905090565b60026006811115610b7e57610b7d611a57565b5b600260009054906101000a900460ff166006811115610ba057610b9f611a57565b5b14610be0576040517f08c379a0000000000000000000000000000000000000000000000000000000008152600401610bd790612011565b60405180910390fd5b6000600960003373ffffffffffffffffffffffffffffffffffffffff1673ffffffffffffffffffffffffffffffffffffffff1681526020019081526020016000206000015411610c65576040517f08c379a0000000000000000000000000000000000000000000000000000000008152600401610c5c906123d2565b60405180910390fd5b3073ffffffffffffffffffffffffffffffffffffffff16638da5cb5b6040518163ffffffff1660e01b8152600401602060405180830381865afa158015610cb0573d6000803e3d6000fd5b505050506040513d601f19601f82011682018060405250810190610cd491906121fc565b73ffffffffffffffffffffffffffffffffffffffff163373ffffffffffffffffffffffffffffffffffffffff161415610d0c57600080fd5b80600960003373ffffffffffffffffffffffffffffffffffffffff1673ffffffffffffffffffffffffffffffffffffffff1681526020019081526020016000206002018190555050565b6000600360010160009054906101000a900460ff16905090565b610d786113da565b73ffffffffffffffffffffffffffffffffffffffff16610d96610b41565b73ffffffffffffffffffffffffffffffffffffffff1614610dec576040517f08c379a0000000000000000000000000000000000000000000000000000000008152600401610de390612366565b60405180910390fd5b60016006811115610e0057610dff611a57565b5b600260009054906101000a900460ff166006811115610e2257610e21611a57565b5b1480610e61575060026006811115610e3d57610e3c611a57565b5b600260009054906101000a900460ff166006811115610e5f57610e5e611a57565b5b145b610ea0576040517f08c379a0000000000000000000000000000000000000000000000000000000008152600401610e979061248a565b60405180910390fd5b60006002811115610eb457610eb3611a57565b5b600360010160009054906101000a900460ff166002811115610ed957610ed8611a57565b5b148015610eea575060018080549050145b15610f2a576040517f08c379a0000000000000000000000000000000000000000000000000000000008152600401610f219061251c565b60405180910390fd5b60038001546001805490501115610f76576040517f08c379a0000000000000000000000000000000000000000000000000000000008152600401610f6d906125ae565b60405180910390fd5b610f7e61190b565b60028060006101000a81548160ff02191690836006811115610fa357610fa2611a57565b5b021790555060018080549050610fb99190612258565b81600001818152505060008160a001818152505060036004015481602001818152505060036005015481604001818152505060036005015481608001818152505060008160e0018181525050818160600181815250506000816101000181815250506001819080600181540180825580915050600190039060005260206000209060090201600090919091909150600082015181600001556020820151816001015560408201518160020155606082015181600301556080820151816004015560a0820151816005015560c08201518160060160006101000a81548173ffffffffffffffffffffffffffffffffffffffff021916908373ffffffffffffffffffffffffffffffffffffffff16021790555060e08201518160070155610100820151816008015550505050565b6110f03334836103c4565b50565b6110fb6113da565b73ffffffffffffffffffffffffffffffffffffffff16611119610b41565b73ffffffffffffffffffffffffffffffffffffffff161461116f576040517f08c379a000000000000000000000000000000000000000000000000000000000815260040161116690612366565b60405180910390fd5b6000600681111561118357611182611a57565b5b600260009054906101000a900460ff1660068111156111a5576111a4611a57565b5b146111e5576040517f08c379a00000000000000000000000000000000000000000000000000000000081526004016111dc9061261a565b60405180910390fd5b8142108015611202575080620d2f00836111ff9190612258565b11155b611241576040517f08c379a000000000000000000000000000000000000000000000000000000000815260040161123890612686565b60405180910390fd5b6001600260006101000a81548160ff0219169083600681111561126757611266611a57565b5b0217905550856003600001908051906020019061128592919061196d565b5084600360010160006101000a81548160ff021916908360028111156112ae576112ad611a57565b5b0217905550836003600201819055508260038001819055508160036004018190555080600360050181905550505050505050565b6112ea6113da565b73ffffffffffffffffffffffffffffffffffffffff16611308610b41565b73ffffffffffffffffffffffffffffffffffffffff161461135e576040517f08c379a000000000000000000000000000000000000000000000000000000000815260040161135590612366565b60405180910390fd5b600073ffffffffffffffffffffffffffffffffffffffff168173ffffffffffffffffffffffffffffffffffffffff1614156113ce576040517f08c379a00000000000000000000000000000000000000000000000000000000081526004016113c590612718565b60405180910390fd5b6113d781611680565b50565b600033905090565b600260068111156113f6576113f5611a57565b5b600260009054906101000a900460ff16600681111561141857611417611a57565b5b14611458576040517f08c379a000000000000000000000000000000000000000000000000000000000815260040161144f90612011565b60405180910390fd5b600360040154421015801561147257506003600501544211155b6114b1576040517f08c379a00000000000000000000000000000000000000000000000000000000081526004016114a8906127aa565b60405180910390fd5b6000600c5414156114e2576114dd604051806060016040528060258152602001612bb560259139611555565b611553565b6003600260006101000a81548160ff0219169083600681111561150857611507611a57565b5b0217905550611515611744565b7fb7dc4d36b2ca1a9476d5e4f14a23c3e629a0fd4f3af8c71c176f1c69d999526342600360000160405161154a9291906128c0565b60405180910390a15b565b60068081111561156857611567611a57565b5b600260009054906101000a900460ff16600681111561158a57611589611a57565b5b14156115cb576040517f08c379a00000000000000000000000000000000000000000000000000000000081526004016115c290612962565b60405180910390fd5b600360050154421115611613576040517f08c379a000000000000000000000000000000000000000000000000000000000815260040161160a906129ce565b60405180910390fd5b6006600260006101000a81548160ff0219169083600681111561163957611638611a57565b5b02179055507f699708c90a98fcdcc8862c08ac7a618790cf0bb5f4b50bca7487f71263bd92634260036000018360405161167593929190612a65565b60405180910390a150565b60008060009054906101000a900473ffffffffffffffffffffffffffffffffffffffff169050816000806101000a81548173ffffffffffffffffffffffffffffffffffffffff021916908373ffffffffffffffffffffffffffffffffffffffff1602179055508173ffffffffffffffffffffffffffffffffffffffff168173ffffffffffffffffffffffffffffffffffffffff167f8be0079c531659141344cd1fd0a4f28419497f9722a3daafe3b4186f6b6457e060405160405180910390a35050565b6003600681111561175857611757611a57565b5b600260009054906101000a900460ff16600681111561177a57611779611a57565b5b146117ba576040517f08c379a00000000000000000000000000000000000000000000000000000000081526004016117b190612b1c565b60405180910390fd5b600060018054905090506117cc6119f3565b60005b828110156118dc576001816117e49190612258565b8260000181815250506001818154811061180157611800612b3c565b5b906000526020600020906009020160030154826020018181525050600082606001901515908115158152505081600a6000838152602001908152602001600020600082015181600001556020820151816001015560408201518160020160006101000a81548173ffffffffffffffffffffffffffffffffffffffff021916908373ffffffffffffffffffffffffffffffffffffffff16021790555060608201518160020160146101000a81548160ff0219169083151502179055506080820151816003015590505080806118d490612b6b565b9150506117cf565b505050565b60405180608001604052806000815260200160001515815260200160008152602001600081525090565b604051806101200160405280600081526020016000815260200160008152602001600081526020016000815260200160008152602001600073ffffffffffffffffffffffffffffffffffffffff16815260200160008152602001600081525090565b828054611979906127f9565b90600052602060002090601f01602090048101928261199b57600085556119e2565b82601f106119b457805160ff19168380011785556119e2565b828001600101855582156119e2579182015b828111156119e15782518255916020019190600101906119c6565b5b5090506119ef9190611a3a565b5090565b6040518060a001604052806000815260200160008152602001600073ffffffffffffffffffffffffffffffffffffffff168152602001600015158152602001600081525090565b5b80821115611a53576000816000905550600101611a3b565b5090565b7f4e487b7100000000000000000000000000000000000000000000000000000000600052602160045260246000fd5b60078110611a9757611a96611a57565b5b50565b6000819050611aa882611a86565b919050565b6000611ab882611a9a565b9050919050565b611ac881611aad565b82525050565b6000602082019050611ae36000830184611abf565b92915050565b6000819050919050565b611afc81611ae9565b82525050565b6000602082019050611b176000830184611af3565b92915050565b6000604051905090565b600080fd5b600080fd5b600073ffffffffffffffffffffffffffffffffffffffff82169050919050565b6000611b5c82611b31565b9050919050565b611b6c81611b51565b8114611b7757600080fd5b50565b600081359050611b8981611b63565b92915050565b600060208284031215611ba557611ba4611b27565b5b6000611bb384828501611b7a565b91505092915050565b60008115159050919050565b611bd181611bbc565b82525050565b6000602082019050611bec6000830184611bc8565b92915050565b600080fd5b600080fd5b6000601f19601f8301169050919050565b7f4e487b7100000000000000000000000000000000000000000000000000000000600052604160045260246000fd5b611c4582611bfc565b810181811067ffffffffffffffff82111715611c6457611c63611c0d565b5b80604052505050565b6000611c77611b1d565b9050611c838282611c3c565b919050565b600067ffffffffffffffff821115611ca357611ca2611c0d565b5b611cac82611bfc565b9050602081019050919050565b82818337600083830152505050565b6000611cdb611cd684611c88565b611c6d565b905082815260208101848484011115611cf757611cf6611bf7565b5b611d02848285611cb9565b509392505050565b600082601f830112611d1f57611d1e611bf2565b5b8135611d2f848260208601611cc8565b91505092915050565b600060208284031215611d4e57611d4d611b27565b5b600082013567ffffffffffffffff811115611d6c57611d6b611b2c565b5b611d7884828501611d0a565b91505092915050565b611d8a81611bbc565b8114611d9557600080fd5b50565b600081359050611da781611d81565b92915050565b600060208284031215611dc357611dc2611b27565b5b6000611dd184828501611d98565b91505092915050565b611de381611b51565b82525050565b6000602082019050611dfe6000830184611dda565b92915050565b611e0d81611ae9565b8114611e1857600080fd5b50565b600081359050611e2a81611e04565b92915050565b600060208284031215611e4657611e45611b27565b5b6000611e5484828501611e1b565b91505092915050565b60038110611e6e57611e6d611a57565b5b50565b6000819050611e7f82611e5d565b919050565b6000611e8f82611e71565b9050919050565b611e9f81611e84565b82525050565b6000602082019050611eba6000830184611e96565b92915050565b60038110611ecd57600080fd5b50565b600081359050611edf81611ec0565b92915050565b60008060008060008060c08789031215611f0257611f01611b27565b5b600087013567ffffffffffffffff811115611f2057611f1f611b2c565b5b611f2c89828a01611d0a565b9650506020611f3d89828a01611ed0565b9550506040611f4e89828a01611e1b565b9450506060611f5f89828a01611e1b565b9350506080611f7089828a01611e1b565b92505060a0611f8189828a01611e1b565b9150509295509295509295565b600082825260208201905092915050565b7f5468657265206d757374206265206174206c65617374206f6e65206c6f74206460008201527f6566696e65642e00000000000000000000000000000000000000000000000000602082015250565b6000611ffb602783611f8e565b915061200682611f9f565b604082019050919050565b6000602082019050818103600083015261202a81611fee565b9050919050565b7f42696464657220616c726561647920636f6e6669726d65640000000000000000600082015250565b6000612067601883611f8e565b915061207282612031565b602082019050919050565b600060208201905081810360008301526120968161205a565b9050919050565b7f546865206465706f73697420666f7220636f6e6669726d20696e73637269707460008201527f696f6e204d55535420626520657175616c206f7220677265617465722074686160208201527f6e207465682067756172616e746565206465706f7369742e0000000000000000604082015250565b600061211f605883611f8e565b915061212a8261209d565b606082019050919050565b6000602082019050818103600083015261214e81612112565b9050919050565b7f42696464657220726567697374726174696f6e2077696e646f7720657870697260008201527f65642e0000000000000000000000000000000000000000000000000000000000602082015250565b60006121b1602383611f8e565b91506121bc82612155565b604082019050919050565b600060208201905081810360008301526121e0816121a4565b9050919050565b6000815190506121f681611b63565b92915050565b60006020828403121561221257612211611b27565b5b6000612220848285016121e7565b91505092915050565b7f4e487b7100000000000000000000000000000000000000000000000000000000600052601160045260246000fd5b600061226382611ae9565b915061226e83611ae9565b9250827fffffffffffffffffffffffffffffffffffffffffffffffffffffffffffffffff038211156122a3576122a2612229565b5b828201905092915050565b7f436f6e6669726d65642062696464657220696e736372697074696f6e2e000000600082015250565b60006122e4601d83611f8e565b91506122ef826122ae565b602082019050919050565b60006020820190508181036000830152612313816122d7565b9050919050565b7f4f776e61626c653a2063616c6c6572206973206e6f7420746865206f776e6572600082015250565b6000612350602083611f8e565b915061235b8261231a565b602082019050919050565b6000602082019050818103600083015261237f81612343565b9050919050565b7f426964646572206973206e6f7420636f6e6669726d6564000000000000000000600082015250565b60006123bc601783611f8e565b91506123c782612386565b602082019050919050565b600060208201905081810360008301526123eb816123af565b9050919050565b7f41756374696f6e206973204e4f5420696e697469616c697a65642e20496e697460008201527f69616c697a652061756374696f6e206265666f726520616464696e67206c6f7460208201527f732e000000000000000000000000000000000000000000000000000000000000604082015250565b6000612474604283611f8e565b915061247f826123f2565b606082019050919050565b600060208201905081810360008301526124a381612467565b9050919050565b7f5265616c2053746174652061756374696f6e73206f6e6c7920616c6c6f77732060008201527f6f6e65206c6f7400000000000000000000000000000000000000000000000000602082015250565b6000612506602783611f8e565b9150612511826124aa565b604082019050919050565b60006020820190508181036000830152612535816124f9565b9050919050565b7f43616e74277420616464206d6f7265206c6f7473207468616e20646566696e6460008201527f656420696e20746f74616c41756374696f6e4c6f747300000000000000000000602082015250565b6000612598603683611f8e565b91506125a38261253c565b604082019050919050565b600060208201905081810360008301526125c78161258b565b9050919050565b7f41756374696f6e20616c726561647920696e697469616c697a65640000000000600082015250565b6000612604601b83611f8e565b915061260f826125ce565b602082019050919050565b60006020820190508181036000830152612633816125f7565b9050919050565b7f496e76616c696420646174657300000000000000000000000000000000000000600082015250565b6000612670600d83611f8e565b915061267b8261263a565b602082019050919050565b6000602082019050818103600083015261269f81612663565b9050919050565b7f4f776e61626c653a206e6577206f776e657220697320746865207a65726f206160008201527f6464726573730000000000000000000000000000000000000000000000000000602082015250565b6000612702602683611f8e565b915061270d826126a6565b604082019050919050565b60006020820190508181036000830152612731816126f5565b9050919050565b7f41637475616c2074696d65206f7574736964652061756374696f6e20626f756e60008201527f6461726965730000000000000000000000000000000000000000000000000000602082015250565b6000612794602683611f8e565b915061279f82612738565b604082019050919050565b600060208201905081810360008301526127c381612787565b9050919050565b7f4e487b7100000000000000000000000000000000000000000000000000000000600052602260045260246000fd5b6000600282049050600182168061281157607f821691505b60208210811415612825576128246127ca565b5b50919050565b60008190508160005260206000209050919050565b6000815461284d816127f9565b6128578186611f8e565b945060018216600081146128725760018114612884576128b7565b60ff19831686526020860193506128b7565b61288d8561282b565b60005b838110156128af57815481890152600182019150602081019050612890565b808801955050505b50505092915050565b60006040820190506128d56000830185611af3565b81810360208301526128e78184612840565b90509392505050565b7f5468652061756374696f6e2077617320707265766975736c792063616e63656c60008201527f65642e0000000000000000000000000000000000000000000000000000000000602082015250565b600061294c602383611f8e565b9150612957826128f0565b604082019050919050565b6000602082019050818103600083015261297b8161293f565b9050919050565b7f41756374696f6e20656e64206461746520726561636865640000000000000000600082015250565b60006129b8601883611f8e565b91506129c382612982565b602082019050919050565b600060208201905081810360008301526129e7816129ab565b9050919050565b600081519050919050565b60005b83811015612a175780820151818401526020810190506129fc565b83811115612a26576000848401525b50505050565b6000612a37826129ee565b612a418185611f8e565b9350612a518185602086016129f9565b612a5a81611bfc565b840191505092915050565b6000606082019050612a7a6000830186611af3565b8181036020830152612a8c8185612840565b90508181036040830152612aa08184612a2c565b9050949350505050565b7f5468652061756374696f6e204d55535420626520696e2053544152544544207360008201527f7461746500000000000000000000000000000000000000000000000000000000602082015250565b6000612b06602483611f8e565b9150612b1182612aaa565b604082019050919050565b60006020820190508181036000830152612b3581612af9565b9050919050565b7f4e487b7100000000000000000000000000000000000000000000000000000000600052603260045260246000fd5b6000612b7682611ae9565b91507fffffffffffffffffffffffffffffffffffffffffffffffffffffffffffffffff821415612ba957612ba8612229565b5b60018201905091905056fe4e6f20636f6e6669726d656420626f64646572732061742061756374696f6e207374617274a2646970667358221220398a6818107ccd24a44b8d0acb448baa950facee259cafce8ac226587c3ca1f064736f6c634300080a0033",
  "immutableReferences": {},
  "source": "// SPDX-License-Identifier: MIT\npragma solidity >=0.4.22 <0.9.0;\n\nimport \"@openzeppelin/contracts/access/Ownable.sol\";\n\n/***\n * This contract implementas public auctions at Supreme Court in Buenos Aires Province @ Argetina.\n * The auction process has an hybrid architecture, where the auction data and administrative flow is centralizad in a \n * traditional web application, and the push process and winner definition happens in the blockchain.\n * \n * Author: Lic. Gustavo Perez Villar @ Buenos Aires - Argentina\n */\n\ncontract AuctionsSCBA is Ownable {\n    \n    // Events\n\n    event evt_bidderConfirmedInscription(address indexed sender, string message);\n    event evt_auctionStart(uint timeStamp, string auctionID);\n    event evt_auctionCanceled(uint timeStamp, string auctionID, string cause);\n\n    // Custom data types\n\n    enum AuctionClass {REAL_STATE,MOBILE,MOBILE_REGISTER}\n    enum AuctionState {NO_INIT,INIT,LOT,STARTED,EXTENDED,ENDED,CANCELED}\n    struct AuctionLot {\n        uint lotId_;\n        uint startDate_;\n        uint endDate_;\n        uint baseValue_;\n        uint extendedEndDate_;\n        uint extensionsCount_;\n        address winner_;\n        uint winnerTranche_;\n        uint lastTrancheId_;\n    }\n    struct Auction {\n        string auctionCode_;\n        AuctionClass auctionClass_;\n        uint guaranteeDeposit_;\n        uint totalAuctionLots_;\n        uint startDate_;\n        uint endDate_;\n    }\n    struct Bidder {\n        uint guaranteeDeposit_; // Deposited amount in wei for confirm auction inscription\n        bool preserveLastBid_;  // If he wants to preserve his last bid in case the winner doesn't confirm the buy. \n                               // if preserve bid is true, the bidder cannot withdraw founds after auction ending.\n        uint secretBidAmount_;  // top limit amount for wich the contract will push bids in behalf the bidder. \n        uint lastBidderTrancheId_; // last correct bid amount for this bidder.\n    }\n    struct AuctionTranches {\n        uint trancheId_;\n        uint trancheValue_;\n        address trancheBidder_;\n        bool trancheConfirmed_;\n        uint trancheBidTimestamp;\n    }\n\n    // State Variables\n\n    AuctionLot[] private _auctionLots; // Auction lots array\n    AuctionState private _auctionState; // Actual auction state\n    Auction private _auctionObject; // Instance of auction data\n    mapping (address => Bidder) private _validBidders; // Valid registered bidders\n    mapping (uint => AuctionTranches) private _tranchesPerLot;\n    address private _lastBidderAddress; // Last bidder with a valid bid accepted\n    uint private _confirmedBidders;\n\n   // Constructor\n\n    constructor () {\n        // State variables initialization\n        _auctionState = AuctionState.NO_INIT;\n        _confirmedBidders = 0;\n    }\n\n    // Receive functions\n\n    function confirmBidderInscription(bool _preserveGuranteeDeposit) external payable {\n        _confirmBidderInscription(msg.sender, msg.value, _preserveGuranteeDeposit);\n    }\n\n    // Fallback function\n\n    receive() external payable {\n       _confirmBidderInscription(msg.sender, msg.value,false); \n    } \n\n    // External Functions\n\n    function auctionInit(\n        string memory __auctionCode,\n        AuctionClass __auctionClass, \n        uint __guaranteeDeposit, \n        uint __totalAuctionLots,\n        uint __startDate,\n        uint __endDate \n    ) external onlyOwner  {\n        require(_auctionState  == AuctionState.NO_INIT, \"Auction already initialized\");\n        require(block.timestamp < __startDate && (__startDate + 10 days) <= __endDate,\"Invalid dates\");\n        _auctionState = AuctionState.INIT;\n        _auctionObject.auctionCode_ = __auctionCode;\n        _auctionObject.auctionClass_ = __auctionClass;\n        _auctionObject.guaranteeDeposit_ = __guaranteeDeposit;\n        _auctionObject.totalAuctionLots_ = __totalAuctionLots;\n        _auctionObject.startDate_ = __startDate;\n        _auctionObject.endDate_ = __endDate;\n    }\n\n    function auctionAddLot(uint __baseValue) external onlyOwner {\n        require(_auctionState == AuctionState.INIT || _auctionState == AuctionState.LOT ,\"Auction is NOT initialized. Initialize auction before adding lots.\");\n        // Can't add more tha one lot if the auction class is Realstate\n        if (_auctionObject.auctionClass_ == AuctionClass.REAL_STATE && _auctionLots.length == 1) { revert(\"Real State auctions only allows one lot\"); }\n        if (_auctionLots.length > _auctionObject.totalAuctionLots_) { revert(\"Cant't add more lots than definded in totalAuctionLots\"); }\n        AuctionLot memory tmpLot;\n        _auctionState = AuctionState.LOT;\n        tmpLot.lotId_ = _auctionLots.length + 1;  //Start at lot 1\n        tmpLot.extensionsCount_ = 0;\n        tmpLot.startDate_ = _auctionObject.startDate_;\n        tmpLot.endDate_ = _auctionObject.endDate_;\n        tmpLot.extendedEndDate_ = _auctionObject.endDate_;\n        tmpLot.winnerTranche_ = 0;\n        tmpLot.baseValue_ = __baseValue;\n        tmpLot.lastTrancheId_ = 0;\n        _auctionLots.push(tmpLot); // Add lot to lot array\n    }  \n\n    function auctionStart() external onlyOwner {\n        _setAuctionStart();\n    }\n\n   function auctionCancel(string memory _cause) external onlyOwner {\n        _auctionCancelation(_cause);\n    }\n\n    // Public Functions\n\n    function getAuctionState() public view returns (AuctionState) {\n        return _auctionState;\n    }\n    \n    // Get contract address blance (sum of all guarantee deposits for each confirmed bidder)\n    function getAuctionBalance() public view returns (uint) {\n        return address(this).balance;\n    } \n    \n    function getConfirmedBiddders() public view returns (uint){\n        return _confirmedBidders;\n    }\n\n    function isBidderConfirmed(address _queryBidder) public view returns(bool) {     \n        return (_validBidders[_queryBidder].guaranteeDeposit_ > 0);\n    }\n\n    function getAuctionStartDate() public view returns(uint) {     \n        return _auctionObject.startDate_;\n    }\n\n    function getAuctionEndtDate() public view returns(uint) {     \n        return _auctionObject.endDate_;\n    }\n\n    function getAuctionClass() public view returns(AuctionClass) {     \n        return _auctionObject.auctionClass_;\n    }\n\n    function bidderSetPreservelastBid(bool _value) public {\n        require(_auctionState == AuctionState.LOT,\"There must be at least one lot defined.\"); \n        require(_validBidders[msg.sender].guaranteeDeposit_ > 0,\"Bidder is not confirmed\"); \n        require((msg.sender != this.owner()));\n        \n        _validBidders[msg.sender].preserveLastBid_ = _value;\n\n    }\n\n    function bidderSetMaximunSecretBid(uint _value) public {\n        require(_auctionState == AuctionState.LOT,\"There must be at least one lot defined.\"); \n        require(_validBidders[msg.sender].guaranteeDeposit_ > 0,\"Bidder is not confirmed\"); \n        require((msg.sender != this.owner()));\n        \n        _validBidders[msg.sender].secretBidAmount_ = _value;\n\n    }\n\n    // Internal Functions\n\n    function _confirmBidderInscription(address _bidderAddress, uint _depositAmount, bool _preserveGuaranteeDeposit) internal     {\n        Bidder memory _tmpBidder;\n        require(_auctionState == AuctionState.LOT,\"There must be at least one lot defined.\"); \n        require(_validBidders[_bidderAddress].guaranteeDeposit_ == 0,\"Bidder already confirmed\"); \n        require(_depositAmount >= _auctionObject.guaranteeDeposit_,\"The deposit for confirm inscription MUST be equal or greater than teh guarantee deposit.\");\n        require (block.timestamp <= _auctionObject.startDate_,\"Bidder registration window expired.\");\n        require((msg.sender != this.owner()));\n\n        _tmpBidder.guaranteeDeposit_ = _depositAmount;\n        _tmpBidder.preserveLastBid_ = _preserveGuaranteeDeposit;\n        _tmpBidder.secretBidAmount_ = 0;\n        _tmpBidder.lastBidderTrancheId_ = 0;\n        _validBidders[_bidderAddress] = _tmpBidder;\n        _confirmedBidders += 1;\n\n        emit evt_bidderConfirmedInscription(_bidderAddress,\"Confirmed bidder inscription.\");\n    }\n\n    function _setAuctionStart() internal  {\n        require(_auctionState == AuctionState.LOT,\"There must be at least one lot defined.\"); \n        require(block.timestamp >= _auctionObject.startDate_ && block.timestamp <= _auctionObject.endDate_,\"Actual time outside auction boundaries\");\n        \n        if (_confirmedBidders == 0) {\n             _auctionCancelation(\"No confirmed bodders at auction start\");\n        } else {\n            _auctionState = AuctionState.STARTED;\n            _initTranches();\n            emit evt_auctionStart(block.timestamp, _auctionObject.auctionCode_);\n        }\n    }\n    \n    function _auctionCancelation(string memory _cause) internal {\n        require(_auctionState != AuctionState.CANCELED,\"The auction was previusly canceled.\"); \n        require(block.timestamp <= _auctionObject.endDate_,\"Auction end date reached\");\n        \n        _auctionState = AuctionState.CANCELED;\n        emit evt_auctionCanceled(block.timestamp, _auctionObject.auctionCode_, _cause);\n    }\n\n    function _initTranches() internal {\n        require(_auctionState == AuctionState.STARTED,\"The auction MUST be in STARTED state\");\n        uint _LotsLength = _auctionLots.length;\n        AuctionTranches memory _tmpTranche;\n\n        for (uint i=0; i<_LotsLength; i++) {\n            _tmpTranche.trancheId_ = i+1;\n            _tmpTranche.trancheValue_ = _auctionLots[i].baseValue_;\n            _tmpTranche.trancheConfirmed_ = false;\n            _tranchesPerLot[i] = _tmpTranche;\n        }\n    }\n    // Implementar funciones para obtener info de la subasta\n    // Lotes\n    // Tramos\n}\n",
  "sourcePath": "/home/gperez/proyectos/subastas/contracts/AuctionsSCBA.sol",
  "compiler": {
    "name": "solc",
    "version": "0.8.10+commit.fc410830.Emscripten.clang"
  },
  "schemaVersion": "3.4.3",
  "updatedAt": "2021-12-12T14:29:21.912Z",
  "devdoc": {
    "kind": "dev",
    "methods": {
      "owner()": {
        "details": "Returns the address of the current owner."
      },
      "renounceOwnership()": {
        "details": "Leaves the contract without owner. It will not be possible to call `onlyOwner` functions anymore. Can only be called by the current owner. NOTE: Renouncing ownership will leave the contract without an owner, thereby removing any functionality that is only available to the owner."
      },
      "transferOwnership(address)": {
        "details": "Transfers ownership of the contract to a new account (`newOwner`). Can only be called by the current owner."
      }
    },
    "version": 1
  },
  "userdoc": {
    "kind": "user",
    "methods": {},
    "version": 1
  }
}