{
  "contractName": "AuctionsSCBA",
  "abi": [
    {
      "inputs": [],
      "stateMutability": "nonpayable",
      "type": "constructor"
    },
    {
      "anonymous": false,
      "inputs": [
        {
          "indexed": true,
          "internalType": "address",
          "name": "previousOwner",
          "type": "address"
        },
        {
          "indexed": true,
          "internalType": "address",
          "name": "newOwner",
          "type": "address"
        }
      ],
      "name": "OwnershipTransferred",
      "type": "event"
    },
    {
      "anonymous": false,
      "inputs": [
        {
          "indexed": false,
          "internalType": "uint256",
          "name": "timeStamp",
          "type": "uint256"
        },
        {
          "indexed": false,
          "internalType": "string",
          "name": "auctionID",
          "type": "string"
        },
        {
          "indexed": false,
          "internalType": "string",
          "name": "cause",
          "type": "string"
        }
      ],
      "name": "evt_auctionCanceled",
      "type": "event"
    },
    {
      "anonymous": false,
      "inputs": [
        {
          "indexed": false,
          "internalType": "uint256",
          "name": "timeStamp",
          "type": "uint256"
        },
        {
          "indexed": false,
          "internalType": "string",
          "name": "auctionID",
          "type": "string"
        }
      ],
      "name": "evt_auctionClosed",
      "type": "event"
    },
    {
      "anonymous": false,
      "inputs": [
        {
          "indexed": false,
          "internalType": "uint256",
          "name": "timeStamp",
          "type": "uint256"
        },
        {
          "indexed": false,
          "internalType": "uint256",
          "name": "lotId",
          "type": "uint256"
        },
        {
          "indexed": false,
          "internalType": "uint256",
          "name": "newEndDate",
          "type": "uint256"
        }
      ],
      "name": "evt_auctionLotExtended",
      "type": "event"
    },
    {
      "anonymous": false,
      "inputs": [
        {
          "indexed": false,
          "internalType": "uint256",
          "name": "timeStamp",
          "type": "uint256"
        },
        {
          "indexed": false,
          "internalType": "string",
          "name": "auctionID",
          "type": "string"
        }
      ],
      "name": "evt_auctionStart",
      "type": "event"
    },
    {
      "anonymous": false,
      "inputs": [
        {
          "indexed": false,
          "internalType": "uint256",
          "name": "timeStamp",
          "type": "uint256"
        },
        {
          "indexed": false,
          "internalType": "uint256",
          "name": "lotId",
          "type": "uint256"
        },
        {
          "indexed": false,
          "internalType": "uint256",
          "name": "trancheId",
          "type": "uint256"
        },
        {
          "indexed": false,
          "internalType": "address",
          "name": "_bidder",
          "type": "address"
        }
      ],
      "name": "evt_bidConfirmed",
      "type": "event"
    },
    {
      "anonymous": false,
      "inputs": [
        {
          "indexed": true,
          "internalType": "address",
          "name": "sender",
          "type": "address"
        },
        {
          "indexed": false,
          "internalType": "string",
          "name": "message",
          "type": "string"
        }
      ],
      "name": "evt_bidderConfirmedInscription",
      "type": "event"
    },
    {
      "anonymous": false,
      "inputs": [
        {
          "indexed": false,
          "internalType": "uint256",
          "name": "timeStamp",
          "type": "uint256"
        },
        {
          "indexed": false,
          "internalType": "address",
          "name": "beatenBidder",
          "type": "address"
        }
      ],
      "name": "evt_maximunSecretBidBeaten",
      "type": "event"
    },
    {
      "inputs": [],
      "name": "owner",
      "outputs": [
        {
          "internalType": "address",
          "name": "",
          "type": "address"
        }
      ],
      "stateMutability": "view",
      "type": "function"
    },
    {
      "inputs": [],
      "name": "renounceOwnership",
      "outputs": [],
      "stateMutability": "nonpayable",
      "type": "function"
    },
    {
      "inputs": [
        {
          "internalType": "address",
          "name": "newOwner",
          "type": "address"
        }
      ],
      "name": "transferOwnership",
      "outputs": [],
      "stateMutability": "nonpayable",
      "type": "function"
    },
    {
      "stateMutability": "payable",
      "type": "receive"
    },
    {
      "inputs": [
        {
          "internalType": "bool",
          "name": "_preserveGuranteeDeposit",
          "type": "bool"
        }
      ],
      "name": "confirmBidderInscription",
      "outputs": [],
      "stateMutability": "payable",
      "type": "function"
    },
    {
      "inputs": [
        {
          "internalType": "string",
          "name": "__auctionCode",
          "type": "string"
        },
        {
          "internalType": "enum AuctionsSCBA.AuctionClass",
          "name": "__auctionClass",
          "type": "uint8"
        },
        {
          "internalType": "uint256",
          "name": "__guaranteeDeposit",
          "type": "uint256"
        },
        {
          "internalType": "uint256",
          "name": "__totalAuctionLots",
          "type": "uint256"
        },
        {
          "internalType": "uint256",
          "name": "__startDate",
          "type": "uint256"
        },
        {
          "internalType": "uint256",
          "name": "__endDate",
          "type": "uint256"
        }
      ],
      "name": "auctionInit",
      "outputs": [],
      "stateMutability": "nonpayable",
      "type": "function"
    },
    {
      "inputs": [
        {
          "internalType": "uint256",
          "name": "__baseValue",
          "type": "uint256"
        }
      ],
      "name": "auctionAddLot",
      "outputs": [],
      "stateMutability": "nonpayable",
      "type": "function"
    },
    {
      "inputs": [],
      "name": "auctionStart",
      "outputs": [],
      "stateMutability": "nonpayable",
      "type": "function"
    },
    {
      "inputs": [],
      "name": "auctionClose",
      "outputs": [],
      "stateMutability": "nonpayable",
      "type": "function"
    },
    {
      "inputs": [
        {
          "internalType": "string",
          "name": "_cause",
          "type": "string"
        }
      ],
      "name": "auctionCancel",
      "outputs": [],
      "stateMutability": "nonpayable",
      "type": "function"
    },
    {
      "inputs": [],
      "name": "withDraw",
      "outputs": [],
      "stateMutability": "nonpayable",
      "type": "function"
    },
    {
      "inputs": [],
      "name": "getAuctionState",
      "outputs": [
        {
          "internalType": "enum AuctionsSCBA.AuctionState",
          "name": "",
          "type": "uint8"
        }
      ],
      "stateMutability": "view",
      "type": "function"
    },
    {
      "inputs": [],
      "name": "getAuctionBalance",
      "outputs": [
        {
          "internalType": "uint256",
          "name": "",
          "type": "uint256"
        }
      ],
      "stateMutability": "view",
      "type": "function"
    },
    {
      "inputs": [],
      "name": "getConfirmedBiddders",
      "outputs": [
        {
          "internalType": "uint256",
          "name": "",
          "type": "uint256"
        }
      ],
      "stateMutability": "view",
      "type": "function"
    },
    {
      "inputs": [
        {
          "internalType": "address",
          "name": "_queryBidder",
          "type": "address"
        }
      ],
      "name": "isBidderConfirmed",
      "outputs": [
        {
          "internalType": "bool",
          "name": "",
          "type": "bool"
        }
      ],
      "stateMutability": "view",
      "type": "function"
    },
    {
      "inputs": [],
      "name": "getAuctionStartDate",
      "outputs": [
        {
          "internalType": "uint256",
          "name": "",
          "type": "uint256"
        }
      ],
      "stateMutability": "view",
      "type": "function"
    },
    {
      "inputs": [],
      "name": "getAuctionEndtDate",
      "outputs": [
        {
          "internalType": "uint256",
          "name": "",
          "type": "uint256"
        }
      ],
      "stateMutability": "view",
      "type": "function"
    },
    {
      "inputs": [],
      "name": "getAuctionClass",
      "outputs": [
        {
          "internalType": "enum AuctionsSCBA.AuctionClass",
          "name": "",
          "type": "uint8"
        }
      ],
      "stateMutability": "view",
      "type": "function"
    },
    {
      "inputs": [
        {
          "internalType": "uint256",
          "name": "_lotId",
          "type": "uint256"
        }
      ],
      "name": "getActualTranche",
      "outputs": [
        {
          "internalType": "uint256",
          "name": "",
          "type": "uint256"
        },
        {
          "internalType": "uint256",
          "name": "",
          "type": "uint256"
        }
      ],
      "stateMutability": "view",
      "type": "function"
    },
    {
      "inputs": [
        {
          "internalType": "uint256",
          "name": "_lotId",
          "type": "uint256"
        }
      ],
      "name": "getLastTranche",
      "outputs": [
        {
          "internalType": "uint256",
          "name": "",
          "type": "uint256"
        },
        {
          "internalType": "uint256",
          "name": "",
          "type": "uint256"
        },
        {
          "internalType": "address",
          "name": "",
          "type": "address"
        }
      ],
      "stateMutability": "view",
      "type": "function"
    },
    {
      "inputs": [
        {
          "internalType": "uint256",
          "name": "_lotId",
          "type": "uint256"
        },
        {
          "internalType": "address",
          "name": "_bidder",
          "type": "address"
        }
      ],
      "name": "getBidderMaximunSecretBid",
      "outputs": [
        {
          "internalType": "uint256",
          "name": "",
          "type": "uint256"
        },
        {
          "internalType": "uint256",
          "name": "",
          "type": "uint256"
        }
      ],
      "stateMutability": "view",
      "type": "function"
    },
    {
      "inputs": [],
      "name": "getLotQuantity",
      "outputs": [
        {
          "internalType": "uint256",
          "name": "",
          "type": "uint256"
        }
      ],
      "stateMutability": "view",
      "type": "function"
    },
    {
      "inputs": [
        {
          "internalType": "uint256",
          "name": "_lotId",
          "type": "uint256"
        }
      ],
      "name": "getLotBaseValue",
      "outputs": [
        {
          "internalType": "uint256",
          "name": "",
          "type": "uint256"
        }
      ],
      "stateMutability": "view",
      "type": "function"
    },
    {
      "inputs": [
        {
          "internalType": "uint256",
          "name": "_lotId",
          "type": "uint256"
        },
        {
          "internalType": "uint256",
          "name": "_trancheId",
          "type": "uint256"
        }
      ],
      "name": "getLotTrancheValue",
      "outputs": [
        {
          "internalType": "uint256",
          "name": "",
          "type": "uint256"
        }
      ],
      "stateMutability": "view",
      "type": "function"
    },
    {
      "inputs": [
        {
          "internalType": "uint256",
          "name": "_lotId",
          "type": "uint256"
        }
      ],
      "name": "getLotEndDate",
      "outputs": [
        {
          "internalType": "uint256",
          "name": "",
          "type": "uint256"
        }
      ],
      "stateMutability": "view",
      "type": "function"
    },
    {
      "inputs": [
        {
          "internalType": "uint256",
          "name": "_lotId",
          "type": "uint256"
        }
      ],
      "name": "getLotExtensionCount",
      "outputs": [
        {
          "internalType": "uint256",
          "name": "",
          "type": "uint256"
        }
      ],
      "stateMutability": "view",
      "type": "function"
    },
    {
      "inputs": [
        {
          "internalType": "bool",
          "name": "_value",
          "type": "bool"
        }
      ],
      "name": "bidderSetPreservelastBid",
      "outputs": [],
      "stateMutability": "nonpayable",
      "type": "function"
    },
    {
      "inputs": [
        {
          "internalType": "uint256",
          "name": "_lotId",
          "type": "uint256"
        },
        {
          "internalType": "uint256",
          "name": "_value",
          "type": "uint256"
        }
      ],
      "name": "bidderSetMaximunSecretBidAmount",
      "outputs": [],
      "stateMutability": "nonpayable",
      "type": "function"
    },
    {
      "inputs": [
        {
          "internalType": "uint256",
          "name": "_lotId",
          "type": "uint256"
        },
        {
          "internalType": "uint256",
          "name": "_value",
          "type": "uint256"
        }
      ],
      "name": "bidderSetMaximunSecretBidTranche",
      "outputs": [],
      "stateMutability": "nonpayable",
      "type": "function"
    },
    {
      "inputs": [
        {
          "internalType": "uint256",
          "name": "_lotId",
          "type": "uint256"
        },
        {
          "internalType": "uint256",
          "name": "_trancheId",
          "type": "uint256"
        }
      ],
      "name": "bid",
      "outputs": [],
      "stateMutability": "nonpayable",
      "type": "function"
    }
  ],
  "bytecode": "0x60806040523480156200001157600080fd5b5062000032620000266200006660201b60201c565b6200006e60201b60201c565b6000600260006101000a81548160ff021916908360068111156200005b576200005a62000132565b5b021790555062000161565b600033905090565b60008060009054906101000a900473ffffffffffffffffffffffffffffffffffffffff169050816000806101000a81548173ffffffffffffffffffffffffffffffffffffffff021916908373ffffffffffffffffffffffffffffffffffffffff1602179055508173ffffffffffffffffffffffffffffffffffffffff168173ffffffffffffffffffffffffffffffffffffffff167f8be0079c531659141344cd1fd0a4f28419497f9722a3daafe3b4186f6b6457e060405160405180910390a35050565b7f4e487b7100000000000000000000000000000000000000000000000000000000600052602160045260246000fd5b615ae680620001716000396000f3fe6080604052600436106101c65760003560e01c8063715018a6116100f7578063c455d0cb11610095578063dad7277c11610064578063dad7277c14610616578063f0c019df14610653578063f1c7823f1461067c578063f2fde38b146106b9576101d9565b8063c455d0cb14610569578063d262c0e514610594578063d6985621146105bd578063d6c8d058146105d9576101d9565b80637786ce34116100d15780637786ce34146104ac5780637e360c41146104d757806387368926146105155780638da5cb5b1461053e576101d9565b8063715018a61461042b578063728194ee1461044257806376b8d8c714610481576101d9565b80634f245ef7116101645780635e464d511161013e5780635e464d511461037357806361dd3bcc1461039c578063634763b6146103c55780636ee68ef7146103ee576101d9565b80634f245ef7146102f6578063598647f81461030d57806359ec35d814610336576101d9565b80631499cf11116101a05780631499cf111461025e57806319c2a5b51461028957806325a35e73146102a05780634a8bb6ed146102cb576101d9565b806308bfc300146101de57806309d23ba1146102095780630fdb1c1014610247576101d9565b366101d9576101d7333460006106e2565b005b600080fd5b3480156101ea57600080fd5b506101f3610b09565b6040516102009190613eca565b60405180910390f35b34801561021557600080fd5b50610230600480360381019061022b9190613f8d565b610b20565b60405161023e929190613fdc565b60405180910390f35b34801561025357600080fd5b5061025c610baf565b005b34801561026a57600080fd5b50610273610e56565b6040516102809190614005565b60405180910390f35b34801561029557600080fd5b5061029e610e63565b005b3480156102ac57600080fd5b506102b5610ee9565b6040516102c29190614005565b60405180910390f35b3480156102d757600080fd5b506102e0610ef1565b6040516102ed9190614005565b60405180910390f35b34801561030257600080fd5b5061030b610efe565b005b34801561031957600080fd5b50610334600480360381019061032f9190614020565b610f84565b005b34801561034257600080fd5b5061035d60048036038101906103589190614060565b610f9b565b60405161036a91906140a8565b60405180910390f35b34801561037f57600080fd5b5061039a60048036038101906103959190614209565b610fe9565b005b3480156103a857600080fd5b506103c360048036038101906103be919061427e565b611071565b005b3480156103d157600080fd5b506103ec60048036038101906103e79190614020565b611270565b005b3480156103fa57600080fd5b50610415600480360381019061041091906142ab565b6114ff565b6040516104229190614005565b60405180910390f35b34801561043757600080fd5b50610440611539565b005b34801561044e57600080fd5b50610469600480360381019061046491906142ab565b6115c1565b604051610478939291906142e7565b60405180910390f35b34801561048d57600080fd5b50610496611727565b6040516104a39190614005565b60405180910390f35b3480156104b857600080fd5b506104c1611734565b6040516104ce9190614005565b60405180910390f35b3480156104e357600080fd5b506104fe60048036038101906104f991906142ab565b611741565b60405161050c929190613fdc565b60405180910390f35b34801561052157600080fd5b5061053c60048036038101906105379190614020565b61182d565b005b34801561054a57600080fd5b50610553611b9b565b604051610560919061431e565b60405180910390f35b34801561057557600080fd5b5061057e611bc4565b60405161058b9190614381565b60405180910390f35b3480156105a057600080fd5b506105bb60048036038101906105b691906142ab565b611bde565b005b6105d760048036038101906105d2919061427e565b611f47565b005b3480156105e557600080fd5b5061060060048036038101906105fb91906142ab565b611f55565b60405161060d9190614005565b60405180910390f35b34801561062257600080fd5b5061063d60048036038101906106389190614020565b611f8f565b60405161064a9190614005565b60405180910390f35b34801561065f57600080fd5b5061067a600480360381019061067591906143c1565b611fa3565b005b34801561068857600080fd5b506106a3600480360381019061069e91906142ab565b612140565b6040516106b09190614005565b60405180910390f35b3480156106c557600080fd5b506106e060048036038101906106db9190614060565b61217a565b005b6106ea613c97565b600060018054905090506002600681111561070857610707613e53565b5b600260009054906101000a900460ff16600681111561072a57610729613e53565b5b1461076a576040517f08c379a0000000000000000000000000000000000000000000000000000000008152600401610761906144ed565b60405180910390fd5b6000600a60008773ffffffffffffffffffffffffffffffffffffffff1673ffffffffffffffffffffffffffffffffffffffff16815260200190815260200160002060000154146107ef576040517f08c379a00000000000000000000000000000000000000000000000000000000081526004016107e690614559565b60405180910390fd5b600360020154841015610837576040517f08c379a000000000000000000000000000000000000000000000000000000000815260040161082e90614611565b60405180910390fd5b60036004015442111561087f576040517f08c379a0000000000000000000000000000000000000000000000000000000008152600401610876906146a3565b60405180910390fd5b3073ffffffffffffffffffffffffffffffffffffffff16638da5cb5b6040518163ffffffff1660e01b8152600401602060405180830381865afa1580156108ca573d6000803e3d6000fd5b505050506040513d601f19601f820116820180604052508101906108ee91906146d8565b73ffffffffffffffffffffffffffffffffffffffff163373ffffffffffffffffffffffffffffffffffffffff16141561092657600080fd5b838260000181815250508282602001901515908115158152505081600a60008773ffffffffffffffffffffffffffffffffffffffff1673ffffffffffffffffffffffffffffffffffffffff1681526020019081526020016000206000820151816000015560208201518160010160006101000a81548160ff02191690831515021790555060408201518160020190805190602001906109c6929190613cba565b5090505060005b81811015610a5257600a60008773ffffffffffffffffffffffffffffffffffffffff1673ffffffffffffffffffffffffffffffffffffffff168152602001908152602001600020600201600090806001815401808255809150506001900390600052602060002001600090919091909150558080610a4a90614734565b9150506109cd565b50600c859080600181540180825580915050600190039060005260206000200160009091909190916101000a81548173ffffffffffffffffffffffffffffffffffffffff021916908373ffffffffffffffffffffffffffffffffffffffff1602179055508473ffffffffffffffffffffffffffffffffffffffff167f2bcb2fe5b94813e883d2308e17a49fb21fb91863c646b56c2dbeb3069bd73911604051610afa906147c9565b60405180910390a25050505050565b6000600260009054906101000a900460ff16905090565b6000806000600a60008573ffffffffffffffffffffffffffffffffffffffff1673ffffffffffffffffffffffffffffffffffffffff168152602001908152602001600020600201600186610b7491906147e9565b81548110610b8557610b8461481d565b5b906000526020600020015490506000610b9e8683612272565b905081819350935050509250929050565b600680811115610bc257610bc1613e53565b5b600260009054906101000a900460ff166006811115610be457610be3613e53565b5b1480610c23575060056006811115610bff57610bfe613e53565b5b600260009054906101000a900460ff166006811115610c2157610c20613e53565b5b145b610c62576040517f08c379a0000000000000000000000000000000000000000000000000000000008152600401610c59906148be565b60405180910390fd5b6000600a60003373ffffffffffffffffffffffffffffffffffffffff1673ffffffffffffffffffffffffffffffffffffffff1681526020019081526020016000206000015411610ce7576040517f08c379a0000000000000000000000000000000000000000000000000000000008152600401610cde9061492a565b60405180910390fd5b60001515600a60003373ffffffffffffffffffffffffffffffffffffffff1673ffffffffffffffffffffffffffffffffffffffff16815260200190815260200160002060010160009054906101000a900460ff16151514610d7d576040517f08c379a0000000000000000000000000000000000000000000000000000000008152600401610d74906149bc565b60405180910390fd5b6000600a60003373ffffffffffffffffffffffffffffffffffffffff1673ffffffffffffffffffffffffffffffffffffffff1681526020019081526020016000206000015490506000600a60003373ffffffffffffffffffffffffffffffffffffffff1673ffffffffffffffffffffffffffffffffffffffff168152602001908152602001600020600001819055503373ffffffffffffffffffffffffffffffffffffffff166108fc829081150290604051600060405180830381858888f19350505050158015610e52573d6000803e3d6000fd5b5050565b6000600360040154905090565b610e6b6122e6565b73ffffffffffffffffffffffffffffffffffffffff16610e89611b9b565b73ffffffffffffffffffffffffffffffffffffffff1614610edf576040517f08c379a0000000000000000000000000000000000000000000000000000000008152600401610ed690614a28565b60405180910390fd5b610ee76122ee565b565b600047905090565b6000600c80549050905090565b610f066122e6565b73ffffffffffffffffffffffffffffffffffffffff16610f24611b9b565b73ffffffffffffffffffffffffffffffffffffffff1614610f7a576040517f08c379a0000000000000000000000000000000000000000000000000000000008152600401610f7190614a28565b60405180910390fd5b610f8261256c565b565b610f8f3383836126f6565b610f97612e5b565b5050565b600080600a60008473ffffffffffffffffffffffffffffffffffffffff1673ffffffffffffffffffffffffffffffffffffffff16815260200190815260200160002060000154119050919050565b610ff16122e6565b73ffffffffffffffffffffffffffffffffffffffff1661100f611b9b565b73ffffffffffffffffffffffffffffffffffffffff1614611065576040517f08c379a000000000000000000000000000000000000000000000000000000000815260040161105c90614a28565b60405180910390fd5b61106e81613631565b50565b6002600681111561108557611084613e53565b5b600260009054906101000a900460ff1660068111156110a7576110a6613e53565b5b146110e7576040517f08c379a00000000000000000000000000000000000000000000000000000000081526004016110de90614aba565b60405180910390fd5b6000600a60003373ffffffffffffffffffffffffffffffffffffffff1673ffffffffffffffffffffffffffffffffffffffff168152602001908152602001600020600001541161116c576040517f08c379a000000000000000000000000000000000000000000000000000000000815260040161116390614b26565b60405180910390fd5b3073ffffffffffffffffffffffffffffffffffffffff16638da5cb5b6040518163ffffffff1660e01b8152600401602060405180830381865afa1580156111b7573d6000803e3d6000fd5b505050506040513d601f19601f820116820180604052508101906111db91906146d8565b73ffffffffffffffffffffffffffffffffffffffff163373ffffffffffffffffffffffffffffffffffffffff16141561121357600080fd5b80600a60003373ffffffffffffffffffffffffffffffffffffffff1673ffffffffffffffffffffffffffffffffffffffff16815260200190815260200160002060010160006101000a81548160ff02191690831515021790555050565b6002600681111561128457611283613e53565b5b600260009054906101000a900460ff1660068111156112a6576112a5613e53565b5b146112e6576040517f08c379a00000000000000000000000000000000000000000000000000000000081526004016112dd90614bb8565b60405180910390fd5b6000600a60003373ffffffffffffffffffffffffffffffffffffffff1673ffffffffffffffffffffffffffffffffffffffff168152602001908152602001600020600001541161136b576040517f08c379a000000000000000000000000000000000000000000000000000000000815260040161136290614b26565b60405180910390fd5b3073ffffffffffffffffffffffffffffffffffffffff16638da5cb5b6040518163ffffffff1660e01b8152600401602060405180830381865afa1580156113b6573d6000803e3d6000fd5b505050506040513d601f19601f820116820180604052508101906113da91906146d8565b73ffffffffffffffffffffffffffffffffffffffff163373ffffffffffffffffffffffffffffffffffffffff161415611448576040517f08c379a000000000000000000000000000000000000000000000000000000000815260040161143f90614c4a565b60405180910390fd5b600181101561148c576040517f08c379a000000000000000000000000000000000000000000000000000000000815260040161148390614cdc565b60405180910390fd5b80600a60003373ffffffffffffffffffffffffffffffffffffffff1673ffffffffffffffffffffffffffffffffffffffff1681526020019081526020016000206002016001846114dc91906147e9565b815481106114ed576114ec61481d565b5b90600052602060002001819055505050565b60006001808361150f91906147e9565b815481106115205761151f61481d565b5b9060005260206000209060090201600401549050919050565b6115416122e6565b73ffffffffffffffffffffffffffffffffffffffff1661155f611b9b565b73ffffffffffffffffffffffffffffffffffffffff16146115b5576040517f08c379a00000000000000000000000000000000000000000000000000000000081526004016115ac90614a28565b60405180910390fd5b6115bf600061375c565b565b600080600080600080600180886115d891906147e9565b815481106115e9576115e861481d565b5b9060005260206000209060090201600701549250600083111561165c57600b600060018961161791906147e9565b815260200190815260200160002060018461163291906147e9565b815481106116435761164261481d565b5b90600052602060002090600402016001015491506116a3565b600b600060018961166d91906147e9565b815260200190815260200160002060008154811061168e5761168d61481d565b5b90600052602060002090600402016001015491505b600b60006001896116b491906147e9565b81526020019081526020016000206001846116cf91906147e9565b815481106116e0576116df61481d565b5b906000526020600020906004020160020160009054906101000a900473ffffffffffffffffffffffffffffffffffffffff1690508282829550955095505050509193909250565b6000600180549050905090565b6000600360060154905090565b6000806000806001808661175591906147e9565b815481106117665761176561481d565b5b906000526020600020906009020160080154915060008211156117d957600b600060018761179491906147e9565b81526020019081526020016000206001836117af91906147e9565b815481106117c0576117bf61481d565b5b9060005260206000209060040201600101549050611820565b600b60006001876117ea91906147e9565b815260200190815260200160002060008154811061180b5761180a61481d565b5b90600052602060002090600402016001015490505b8181935093505050915091565b6002600681111561184157611840613e53565b5b600260009054906101000a900460ff16600681111561186357611862613e53565b5b146118a3576040517f08c379a000000000000000000000000000000000000000000000000000000000815260040161189a90614d6e565b60405180910390fd5b6000600a60003373ffffffffffffffffffffffffffffffffffffffff1673ffffffffffffffffffffffffffffffffffffffff1681526020019081526020016000206000015411611928576040517f08c379a000000000000000000000000000000000000000000000000000000000815260040161191f90614b26565b60405180910390fd5b3073ffffffffffffffffffffffffffffffffffffffff16638da5cb5b6040518163ffffffff1660e01b8152600401602060405180830381865afa158015611973573d6000803e3d6000fd5b505050506040513d601f19601f8201168201806040525081019061199791906146d8565b73ffffffffffffffffffffffffffffffffffffffff163373ffffffffffffffffffffffffffffffffffffffff161415611a05576040517f08c379a00000000000000000000000000000000000000000000000000000000081526004016119fc90614c4a565b60405180910390fd5b60018083611a1391906147e9565b81548110611a2457611a2361481d565b5b9060005260206000209060090201600301548111611a77576040517f08c379a0000000000000000000000000000000000000000000000000000000008152600401611a6e90614e00565b60405180910390fd5b6000806005606460018087611a8c91906147e9565b81548110611a9d57611a9c61481d565b5b906000526020600020906009020160030154611ab99190614e4f565b611ac39190614e80565b905060018160018087611ad691906147e9565b81548110611ae757611ae661481d565b5b90600052602060002090600902016003015485611b0491906147e9565b611b0e9190614e4f565b611b189190614eda565b9150600182611b2791906147e9565b600a60003373ffffffffffffffffffffffffffffffffffffffff1673ffffffffffffffffffffffffffffffffffffffff168152602001908152602001600020600201600186611b7691906147e9565b81548110611b8757611b8661481d565b5b906000526020600020018190555050505050565b60008060009054906101000a900473ffffffffffffffffffffffffffffffffffffffff16905090565b6000600360010160009054906101000a900460ff16905090565b611be66122e6565b73ffffffffffffffffffffffffffffffffffffffff16611c04611b9b565b73ffffffffffffffffffffffffffffffffffffffff1614611c5a576040517f08c379a0000000000000000000000000000000000000000000000000000000008152600401611c5190614a28565b60405180910390fd5b60016006811115611c6e57611c6d613e53565b5b600260009054906101000a900460ff166006811115611c9057611c8f613e53565b5b1480611ccf575060026006811115611cab57611caa613e53565b5b600260009054906101000a900460ff166006811115611ccd57611ccc613e53565b5b145b611d0e576040517f08c379a0000000000000000000000000000000000000000000000000000000008152600401611d0590614fc8565b60405180910390fd5b60006002811115611d2257611d21613e53565b5b600360010160009054906101000a900460ff166002811115611d4757611d46613e53565b5b148015611d58575060018080549050145b15611d98576040517f08c379a0000000000000000000000000000000000000000000000000000000008152600401611d8f9061505a565b60405180910390fd5b60038001546001805490501115611de4576040517f08c379a0000000000000000000000000000000000000000000000000000000008152600401611ddb906150ec565b60405180910390fd5b611dec613d07565b60028060006101000a81548160ff02191690836006811115611e1157611e10613e53565b5b021790555060018080549050611e279190614eda565b81600001818152505060008160a00181815250506003600401548160200181815250506003600501548160400181815250506003600501548160800181815250508181606001818152505060008160e00181815250506001819080600181540180825580915050600190039060005260206000209060090201600090919091909150600082015181600001556020820151816001015560408201518160020155606082015181600301556080820151816004015560a0820151816005015560c08201518160060160006101000a81548173ffffffffffffffffffffffffffffffffffffffff021916908373ffffffffffffffffffffffffffffffffffffffff16021790555060e08201518160070155610100820151816008015550505050565b611f523334836106e2565b50565b600060018083611f6591906147e9565b81548110611f7657611f7561481d565b5b9060005260206000209060090201600501549050919050565b6000611f9b8383612272565b905092915050565b611fab6122e6565b73ffffffffffffffffffffffffffffffffffffffff16611fc9611b9b565b73ffffffffffffffffffffffffffffffffffffffff161461201f576040517f08c379a000000000000000000000000000000000000000000000000000000000815260040161201690614a28565b60405180910390fd5b6000600681111561203357612032613e53565b5b600260009054906101000a900460ff16600681111561205557612054613e53565b5b14612095576040517f08c379a000000000000000000000000000000000000000000000000000000000815260040161208c90615158565b60405180910390fd5b6001600260006101000a81548160ff021916908360068111156120bb576120ba613e53565b5b021790555085600360000190805190602001906120d9929190613d69565b5084600360010160006101000a81548160ff0219169083600281111561210257612101613e53565b5b021790555083600360020181905550826003800181905550816003600401819055508060036005018190555080600360060181905550505050505050565b60006001808361215091906147e9565b815481106121615761216061481d565b5b9060005260206000209060090201600301549050919050565b6121826122e6565b73ffffffffffffffffffffffffffffffffffffffff166121a0611b9b565b73ffffffffffffffffffffffffffffffffffffffff16146121f6576040517f08c379a00000000000000000000000000000000000000000000000000000000081526004016121ed90614a28565b60405180910390fd5b600073ffffffffffffffffffffffffffffffffffffffff168173ffffffffffffffffffffffffffffffffffffffff161415612266576040517f08c379a000000000000000000000000000000000000000000000000000000000815260040161225d906151ea565b60405180910390fd5b61226f8161375c565b50565b6000806001808561228391906147e9565b815481106122945761229361481d565b5b906000526020600020906009020160030154905060006005846122b79190614e80565b9050606481836122c79190614e80565b6122d19190614e4f565b826122dc9190614eda565b9250505092915050565b600033905090565b6003600681111561230257612301613e53565b5b600260009054906101000a900460ff16600681111561232457612323613e53565b5b148061236357506004600681111561233f5761233e613e53565b5b600260009054906101000a900460ff16600681111561236157612360613e53565b5b145b6123a2576040517f08c379a00000000000000000000000000000000000000000000000000000000081526004016123999061527c565b60405180910390fd5b6003600601544210156123ea576040517f08c379a00000000000000000000000000000000000000000000000000000000081526004016123e19061530e565b60405180910390fd5b60005b600180805490506123fe91906147e9565b811161250157600b6000828152602001908152602001600020600180838154811061242c5761242b61481d565b5b90600052602060002090600902016007015461244891906147e9565b815481106124595761245861481d565b5b906000526020600020906004020160020160009054906101000a900473ffffffffffffffffffffffffffffffffffffffff166001828154811061249f5761249e61481d565b5b906000526020600020906009020160060160006101000a81548173ffffffffffffffffffffffffffffffffffffffff021916908373ffffffffffffffffffffffffffffffffffffffff16021790555080806124f990614734565b9150506123ed565b506005600260006101000a81548160ff0219169083600681111561252857612527613e53565b5b02179055507f95b4de7d94cb78de2c4b6887e7885218f75b19f528166fd63e6c7d93eea62e81426003600001604051612562929190615424565b60405180910390a1565b600260068111156125805761257f613e53565b5b600260009054906101000a900460ff1660068111156125a2576125a1613e53565b5b146125e2576040517f08c379a00000000000000000000000000000000000000000000000000000000081526004016125d9906154c6565b60405180910390fd5b6003600401546005426125f59190614eda565b1015801561260857506003600501544211155b612647576040517f08c379a000000000000000000000000000000000000000000000000000000000815260040161263e90615558565b60405180910390fd5b6000600c80549050141561267b57612676604051806060016040528060258152602001615a8c60259139613631565b6126f4565b6003600260006101000a81548160ff021916908360068111156126a1576126a0613e53565b5b02179055506126ae613820565b6126b6612e5b565b7fb7dc4d36b2ca1a9476d5e4f14a23c3e629a0fd4f3af8c71c176f1c69d99952634260036000016040516126eb929190615424565b60405180910390a15b565b6003600681111561270a57612709613e53565b5b600260009054906101000a900460ff16600681111561272c5761272b613e53565b5b148061276b57506004600681111561274757612746613e53565b5b600260009054906101000a900460ff16600681111561276957612768613e53565b5b145b6127aa576040517f08c379a00000000000000000000000000000000000000000000000000000000081526004016127a19061527c565b60405180910390fd5b6003600601544211156127f2576040517f08c379a00000000000000000000000000000000000000000000000000000000081526004016127e9906155c4565b60405180910390fd5b60001515600b600060018561280791906147e9565b815260200190815260200160002060018361282291906147e9565b815481106128335761283261481d565b5b906000526020600020906004020160020160149054906101000a900460ff16151514612894576040517f08c379a000000000000000000000000000000000000000000000000000000000815260040161288b90615656565b60405180910390fd5b6000600a60008573ffffffffffffffffffffffffffffffffffffffff1673ffffffffffffffffffffffffffffffffffffffff1681526020019081526020016000206000015411612919576040517f08c379a0000000000000000000000000000000000000000000000000000000008152600401612910906156e8565b60405180910390fd5b60006001808461292991906147e9565b8154811061293a5761293961481d565b5b9060005260206000209060090201600701541115612a60578273ffffffffffffffffffffffffffffffffffffffff16600b600060018561297a91906147e9565b815260200190815260200160002060018060018661299891906147e9565b815481106129a9576129a861481d565b5b9060005260206000209060090201600701546129c591906147e9565b815481106129d6576129d561481d565b5b906000526020600020906004020160020160009054906101000a900473ffffffffffffffffffffffffffffffffffffffff1673ffffffffffffffffffffffffffffffffffffffff161415612a5f576040517f08c379a0000000000000000000000000000000000000000000000000000000008152600401612a569061577a565b60405180910390fd5b5b60018083612a6e91906147e9565b81548110612a7f57612a7e61481d565b5b9060005260206000209060090201600801548114612ad2576040517f08c379a0000000000000000000000000000000000000000000000000000000008152600401612ac9906157e6565b60405180910390fd5b612ada613def565b600180600185612aea91906147e9565b81548110612afb57612afa61481d565b5b90600052602060002090600902016007016000828254612b1b9190614eda565b92505081905550600180600185612b3291906147e9565b81548110612b4357612b4261481d565b5b90600052602060002090600902016008016000828254612b639190614eda565b9250508190555083600b6000600186612b7c91906147e9565b8152602001908152602001600020600184612b9791906147e9565b81548110612ba857612ba761481d565b5b906000526020600020906004020160020160006101000a81548173ffffffffffffffffffffffffffffffffffffffff021916908373ffffffffffffffffffffffffffffffffffffffff1602179055506001600b6000600186612c0a91906147e9565b8152602001908152602001600020600184612c2591906147e9565b81548110612c3657612c3561481d565b5b906000526020600020906004020160020160146101000a81548160ff02191690831515021790555042600b6000600186612c7091906147e9565b8152602001908152602001600020600184612c8b91906147e9565b81548110612c9c57612c9b61481d565b5b90600052602060002090600402016003018190555060018084612cbf91906147e9565b81548110612cd057612ccf61481d565b5b906000526020600020906009020160080154816000018181525050612d258360018086612cfd91906147e9565b81548110612d0e57612d0d61481d565b5b906000526020600020906009020160080154612272565b8160200181815250506000816060019015159081151581525050600b6000600185612d5091906147e9565b8152602001908152602001600020819080600181540180825580915050600190039060005260206000209060040201600090919091909150600082015181600001556020820151816001015560408201518160020160006101000a81548173ffffffffffffffffffffffffffffffffffffffff021916908373ffffffffffffffffffffffffffffffffffffffff16021790555060608201518160020160146101000a81548160ff021916908315150217905550608082015181600301555050612e1883613a0f565b7fafe56db8459de2bc286545368ecdfb556e2eb2afe7bbc3c01e7ada1775ba7b0d42848487604051612e4d9493929190615806565b60405180910390a150505050565b60036006811115612e6f57612e6e613e53565b5b600260009054906101000a900460ff166006811115612e9157612e90613e53565b5b1480612ed0575060046006811115612eac57612eab613e53565b5b600260009054906101000a900460ff166006811115612ece57612ecd613e53565b5b145b612f0f576040517f08c379a0000000000000000000000000000000000000000000000000000000008152600401612f06906158bd565b60405180910390fd5b600360060154421115612f57576040517f08c379a0000000000000000000000000000000000000000000000000000000008152600401612f4e906155c4565b60405180910390fd5b6000600190505b60011515811515141561362e576000905060005b60018080549050612f8391906147e9565b81116136285760005b6001600c80549050612f9e91906147e9565b8111613614576000600a6000600c8481548110612fbe57612fbd61481d565b5b9060005260206000200160009054906101000a900473ffffffffffffffffffffffffffffffffffffffff1673ffffffffffffffffffffffffffffffffffffffff1673ffffffffffffffffffffffffffffffffffffffff16815260200190815260200160002060020183815481106130385761303761481d565b5b906000526020600020015411801561311157506001828154811061305f5761305e61481d565b5b906000526020600020906009020160080154600a6000600c84815481106130895761308861481d565b5b9060005260206000200160009054906101000a900473ffffffffffffffffffffffffffffffffffffffff1673ffffffffffffffffffffffffffffffffffffffff1673ffffffffffffffffffffffffffffffffffffffff16815260200190815260200160002060020183815481106131035761310261481d565b5b906000526020600020015410155b156133225760006001838154811061312c5761312b61481d565b5b90600052602060002090600902016007015414156131a35761319a600c828154811061315b5761315a61481d565b5b9060005260206000200160009054906101000a900473ffffffffffffffffffffffffffffffffffffffff166001846131939190614eda565b60016126f6565b60019250613614565b600c81815481106131b7576131b661481d565b5b9060005260206000200160009054906101000a900473ffffffffffffffffffffffffffffffffffffffff1673ffffffffffffffffffffffffffffffffffffffff16600b600084815260200190815260200160002060018085815481106132205761321f61481d565b5b90600052602060002090600902016007015461323c91906147e9565b8154811061324d5761324c61481d565b5b906000526020600020906004020160020160009054906101000a900473ffffffffffffffffffffffffffffffffffffffff1673ffffffffffffffffffffffffffffffffffffffff161461331d57613314600c82815481106132b1576132b061481d565b5b9060005260206000200160009054906101000a900473ffffffffffffffffffffffffffffffffffffffff166001846132e99190614eda565b600185815481106132fd576132fc61481d565b5b9060005260206000209060090201600801546126f6565b60019250613614565b613601565b600182815481106133365761333561481d565b5b906000526020600020906009020160080154600a6000600c84815481106133605761335f61481d565b5b9060005260206000200160009054906101000a900473ffffffffffffffffffffffffffffffffffffffff1673ffffffffffffffffffffffffffffffffffffffff1673ffffffffffffffffffffffffffffffffffffffff16815260200190815260200160002060020183815481106133da576133d961481d565b5b9060005260206000200154101580156134b7575060001515600d6000600c848154811061340a5761340961481d565b5b9060005260206000200160009054906101000a900473ffffffffffffffffffffffffffffffffffffffff1673ffffffffffffffffffffffffffffffffffffffff1673ffffffffffffffffffffffffffffffffffffffff1681526020019081526020016000206000600185815481106134855761348461481d565b5b906000526020600020906009020160080154815260200190815260200160002060009054906101000a900460ff161515145b15613600576001600d6000600c84815481106134d6576134d561481d565b5b9060005260206000200160009054906101000a900473ffffffffffffffffffffffffffffffffffffffff1673ffffffffffffffffffffffffffffffffffffffff1673ffffffffffffffffffffffffffffffffffffffff1681526020019081526020016000206000600185815481106135515761355061481d565b5b906000526020600020906009020160080154815260200190815260200160002060006101000a81548160ff0219169083151502179055507fee6262a536cf634ae97311b7bbd1683e27211dec8f08d03129fa726928c8b61842600c83815481106135be576135bd61481d565b5b9060005260206000200160009054906101000a900473ffffffffffffffffffffffffffffffffffffffff166040516135f79291906158dd565b60405180910390a15b5b808061360c90614734565b915050612f8c565b50808061362090614734565b915050612f72565b50612f5e565b50565b60068081111561364457613643613e53565b5b600260009054906101000a900460ff16600681111561366657613665613e53565b5b14156136a7576040517f08c379a000000000000000000000000000000000000000000000000000000000815260040161369e90615978565b60405180910390fd5b6003600601544211156136ef576040517f08c379a00000000000000000000000000000000000000000000000000000000081526004016136e6906155c4565b60405180910390fd5b6006600260006101000a81548160ff0219169083600681111561371557613714613e53565b5b02179055507f699708c90a98fcdcc8862c08ac7a618790cf0bb5f4b50bca7487f71263bd92634260036000018360405161375193929190615a0f565b60405180910390a150565b60008060009054906101000a900473ffffffffffffffffffffffffffffffffffffffff169050816000806101000a81548173ffffffffffffffffffffffffffffffffffffffff021916908373ffffffffffffffffffffffffffffffffffffffff1602179055508173ffffffffffffffffffffffffffffffffffffffff168173ffffffffffffffffffffffffffffffffffffffff167f8be0079c531659141344cd1fd0a4f28419497f9722a3daafe3b4186f6b6457e060405160405180910390a35050565b6003600681111561383457613833613e53565b5b600260009054906101000a900460ff16600681111561385657613855613e53565b5b14613896576040517f08c379a000000000000000000000000000000000000000000000000000000000815260040161388d906158bd565b60405180910390fd5b600060018054905090506138a8613def565b60005b82811015613a0a576001816138c09190614eda565b826000018181525050600181815481106138dd576138dc61481d565b5b9060005260206000209060090201600301548260200181815250506000826060019015159081151581525050600b6000828152602001908152602001600020829080600181540180825580915050600190039060005260206000209060040201600090919091909150600082015181600001556020820151816001015560408201518160020160006101000a81548173ffffffffffffffffffffffffffffffffffffffff021916908373ffffffffffffffffffffffffffffffffffffffff16021790555060608201518160020160146101000a81548160ff02191690831515021790555060808201518160030155505060018082815481106139e2576139e161481d565b5b9060005260206000209060090201600801819055508080613a0290614734565b9150506138ab565b505050565b60036006811115613a2357613a22613e53565b5b600260009054906101000a900460ff166006811115613a4557613a44613e53565b5b1480613a84575060046006811115613a6057613a5f613e53565b5b600260009054906101000a900460ff166006811115613a8257613a81613e53565b5b145b613ac3576040517f08c379a0000000000000000000000000000000000000000000000000000000008152600401613aba9061527c565b60405180910390fd5b600360060154421115613b0b576040517f08c379a0000000000000000000000000000000000000000000000000000000008152600401613b02906155c4565b60405180910390fd5b600060b460018084613b1d91906147e9565b81548110613b2e57613b2d61481d565b5b906000526020600020906009020160040154613b4a91906147e9565b9050804210613c9357607860018084613b6391906147e9565b81548110613b7457613b7361481d565b5b906000526020600020906009020160020154613b909190614eda565b60018084613b9e91906147e9565b81548110613baf57613bae61481d565b5b906000526020600020906009020160040181905550600180600184613bd491906147e9565b81548110613be557613be461481d565b5b90600052602060002090600902016005016000828254613c059190614eda565b92505081905550607860018084613c1c91906147e9565b81548110613c2d57613c2c61481d565b5b906000526020600020906009020160020154613c499190614eda565b6003600601819055507fdd7e3f4d9bd4d3b593506c23426f3d6b9db956fdb8cc306be21fd2088afefbf14283600360060154604051613c8a93929190615a54565b60405180910390a15b5050565b604051806060016040528060008152602001600015158152602001606081525090565b828054828255906000526020600020908101928215613cf6579160200282015b82811115613cf5578251825591602001919060010190613cda565b5b509050613d039190613e36565b5090565b604051806101200160405280600081526020016000815260200160008152602001600081526020016000815260200160008152602001600073ffffffffffffffffffffffffffffffffffffffff16815260200160008152602001600081525090565b828054613d759061535d565b90600052602060002090601f016020900481019282613d975760008555613dde565b82601f10613db057805160ff1916838001178555613dde565b82800160010185558215613dde579182015b82811115613ddd578251825591602001919060010190613dc2565b5b509050613deb9190613e36565b5090565b6040518060a001604052806000815260200160008152602001600073ffffffffffffffffffffffffffffffffffffffff168152602001600015158152602001600081525090565b5b80821115613e4f576000816000905550600101613e37565b5090565b7f4e487b7100000000000000000000000000000000000000000000000000000000600052602160045260246000fd5b60078110613e9357613e92613e53565b5b50565b6000819050613ea482613e82565b919050565b6000613eb482613e96565b9050919050565b613ec481613ea9565b82525050565b6000602082019050613edf6000830184613ebb565b92915050565b6000604051905090565b600080fd5b600080fd5b6000819050919050565b613f0c81613ef9565b8114613f1757600080fd5b50565b600081359050613f2981613f03565b92915050565b600073ffffffffffffffffffffffffffffffffffffffff82169050919050565b6000613f5a82613f2f565b9050919050565b613f6a81613f4f565b8114613f7557600080fd5b50565b600081359050613f8781613f61565b92915050565b60008060408385031215613fa457613fa3613eef565b5b6000613fb285828601613f1a565b9250506020613fc385828601613f78565b9150509250929050565b613fd681613ef9565b82525050565b6000604082019050613ff16000830185613fcd565b613ffe6020830184613fcd565b9392505050565b600060208201905061401a6000830184613fcd565b92915050565b6000806040838503121561403757614036613eef565b5b600061404585828601613f1a565b925050602061405685828601613f1a565b9150509250929050565b60006020828403121561407657614075613eef565b5b600061408484828501613f78565b91505092915050565b60008115159050919050565b6140a28161408d565b82525050565b60006020820190506140bd6000830184614099565b92915050565b600080fd5b600080fd5b6000601f19601f8301169050919050565b7f4e487b7100000000000000000000000000000000000000000000000000000000600052604160045260246000fd5b614116826140cd565b810181811067ffffffffffffffff82111715614135576141346140de565b5b80604052505050565b6000614148613ee5565b9050614154828261410d565b919050565b600067ffffffffffffffff821115614174576141736140de565b5b61417d826140cd565b9050602081019050919050565b82818337600083830152505050565b60006141ac6141a784614159565b61413e565b9050828152602081018484840111156141c8576141c76140c8565b5b6141d384828561418a565b509392505050565b600082601f8301126141f0576141ef6140c3565b5b8135614200848260208601614199565b91505092915050565b60006020828403121561421f5761421e613eef565b5b600082013567ffffffffffffffff81111561423d5761423c613ef4565b5b614249848285016141db565b91505092915050565b61425b8161408d565b811461426657600080fd5b50565b60008135905061427881614252565b92915050565b60006020828403121561429457614293613eef565b5b60006142a284828501614269565b91505092915050565b6000602082840312156142c1576142c0613eef565b5b60006142cf84828501613f1a565b91505092915050565b6142e181613f4f565b82525050565b60006060820190506142fc6000830186613fcd565b6143096020830185613fcd565b61431660408301846142d8565b949350505050565b600060208201905061433360008301846142d8565b92915050565b6003811061434a57614349613e53565b5b50565b600081905061435b82614339565b919050565b600061436b8261434d565b9050919050565b61437b81614360565b82525050565b60006020820190506143966000830184614372565b92915050565b600381106143a957600080fd5b50565b6000813590506143bb8161439c565b92915050565b60008060008060008060c087890312156143de576143dd613eef565b5b600087013567ffffffffffffffff8111156143fc576143fb613ef4565b5b61440889828a016141db565b965050602061441989828a016143ac565b955050604061442a89828a01613f1a565b945050606061443b89828a01613f1a565b935050608061444c89828a01613f1a565b92505060a061445d89828a01613f1a565b9150509295509295509295565b600082825260208201905092915050565b7f436f6e6669726d20496e736372697074696f6e202d205468657265206d75737460008201527f206265206174206c65617374206f6e65206c6f7420646566696e65642e000000602082015250565b60006144d7603d8361446a565b91506144e28261447b565b604082019050919050565b60006020820190508181036000830152614506816144ca565b9050919050565b7f42696464657220616c726561647920636f6e6669726d65640000000000000000600082015250565b600061454360188361446a565b915061454e8261450d565b602082019050919050565b6000602082019050818103600083015261457281614536565b9050919050565b7f546865206465706f73697420666f7220636f6e6669726d20696e73637269707460008201527f696f6e204d55535420626520657175616c206f7220677265617465722074686160208201527f6e207465682067756172616e746565206465706f7369742e0000000000000000604082015250565b60006145fb60588361446a565b915061460682614579565b606082019050919050565b6000602082019050818103600083015261462a816145ee565b9050919050565b7f42696464657220726567697374726174696f6e2077696e646f7720657870697260008201527f65642e0000000000000000000000000000000000000000000000000000000000602082015250565b600061468d60238361446a565b915061469882614631565b604082019050919050565b600060208201905081810360008301526146bc81614680565b9050919050565b6000815190506146d281613f61565b92915050565b6000602082840312156146ee576146ed613eef565b5b60006146fc848285016146c3565b91505092915050565b7f4e487b7100000000000000000000000000000000000000000000000000000000600052601160045260246000fd5b600061473f82613ef9565b91507fffffffffffffffffffffffffffffffffffffffffffffffffffffffffffffffff82141561477257614771614705565b5b600182019050919050565b7f436f6e6669726d65642062696464657220696e736372697074696f6e2e000000600082015250565b60006147b3601d8361446a565b91506147be8261477d565b602082019050919050565b600060208201905081810360008301526147e2816147a6565b9050919050565b60006147f482613ef9565b91506147ff83613ef9565b92508282101561481257614811614705565b5b828203905092915050565b7f4e487b7100000000000000000000000000000000000000000000000000000000600052603260045260246000fd5b7f5468652061756374696f6e204d55535420626520696e20454e444544206f722060008201527f43414e43454c455420746920776974686472617720666f756e64730000000000602082015250565b60006148a8603b8361446a565b91506148b38261484c565b604082019050919050565b600060208201905081810360008301526148d78161489b565b9050919050565b7f426964646572204e4f5420636f6e6669726d6564000000000000000000000000600082015250565b600061491460148361446a565b915061491f826148de565b602082019050919050565b6000602082019050818103600083015261494381614907565b9050919050565b7f4269646465722063616e6e6f742077697468647261772062656361757365206c60008201527f6173742062696420697320726573657276656400000000000000000000000000602082015250565b60006149a660338361446a565b91506149b18261494a565b604082019050919050565b600060208201905081810360008301526149d581614999565b9050919050565b7f4f776e61626c653a2063616c6c6572206973206e6f7420746865206f776e6572600082015250565b6000614a1260208361446a565b9150614a1d826149dc565b602082019050919050565b60006020820190508181036000830152614a4181614a05565b9050919050565b7f5072657365727665204c61737420426964202d205468657265206d757374206260008201527f65206174206c65617374206f6e65206c6f7420646566696e65642e0000000000602082015250565b6000614aa4603b8361446a565b9150614aaf82614a48565b604082019050919050565b60006020820190508181036000830152614ad381614a97565b9050919050565b7f426964646572206973206e6f7420636f6e6669726d6564000000000000000000600082015250565b6000614b1060178361446a565b9150614b1b82614ada565b602082019050919050565b60006020820190508181036000830152614b3f81614b03565b9050919050565b7f536574204d53422078205472616e636865202d205468657265206d757374206260008201527f65206174206c65617374206f6e65206c6f7420646566696e65642e0000000000602082015250565b6000614ba2603b8361446a565b9150614bad82614b46565b604082019050919050565b60006020820190508181036000830152614bd181614b95565b9050919050565b7f46756e6374696f6e2063616e6e6f742062652063616c6c656420627920636f6e60008201527f7472616374206f776e6572000000000000000000000000000000000000000000602082015250565b6000614c34602b8361446a565b9150614c3f82614bd8565b604082019050919050565b60006020820190508181036000830152614c6381614c27565b9050919050565b7f5472616e636865204d5553542062652067726561746572207468616e207a657260008201527f6f2e000000000000000000000000000000000000000000000000000000000000602082015250565b6000614cc660228361446a565b9150614cd182614c6a565b604082019050919050565b60006020820190508181036000830152614cf581614cb9565b9050919050565b7f536574204d6178696d756e2053656372657420426964202d205468657265206d60008201527f757374206265206174206c65617374206f6e65206c6f7420646566696e65642e602082015250565b6000614d5860408361446a565b9150614d6382614cfc565b604082019050919050565b60006020820190508181036000830152614d8781614d4b565b9050919050565b7f4d6178696d756e2053656372657420426964204d55535420626520677265617460008201527f6572207468616e206c6f7420626173652076616c75652e000000000000000000602082015250565b6000614dea60378361446a565b9150614df582614d8e565b604082019050919050565b60006020820190508181036000830152614e1981614ddd565b9050919050565b7f4e487b7100000000000000000000000000000000000000000000000000000000600052601260045260246000fd5b6000614e5a82613ef9565b9150614e6583613ef9565b925082614e7557614e74614e20565b5b828204905092915050565b6000614e8b82613ef9565b9150614e9683613ef9565b9250817fffffffffffffffffffffffffffffffffffffffffffffffffffffffffffffffff0483118215151615614ecf57614ece614705565b5b828202905092915050565b6000614ee582613ef9565b9150614ef083613ef9565b9250827fffffffffffffffffffffffffffffffffffffffffffffffffffffffffffffffff03821115614f2557614f24614705565b5b828201905092915050565b7f41756374696f6e206973204e4f5420696e697469616c697a65642e20496e697460008201527f69616c697a652061756374696f6e206265666f726520616464696e67206c6f7460208201527f732e000000000000000000000000000000000000000000000000000000000000604082015250565b6000614fb260428361446a565b9150614fbd82614f30565b606082019050919050565b60006020820190508181036000830152614fe181614fa5565b9050919050565b7f5265616c2053746174652061756374696f6e73206f6e6c7920616c6c6f77732060008201527f6f6e65206c6f7400000000000000000000000000000000000000000000000000602082015250565b600061504460278361446a565b915061504f82614fe8565b604082019050919050565b6000602082019050818103600083015261507381615037565b9050919050565b7f43616e74277420616464206d6f7265206c6f7473207468616e20646566696e6460008201527f656420696e20746f74616c41756374696f6e4c6f747300000000000000000000602082015250565b60006150d660368361446a565b91506150e18261507a565b604082019050919050565b60006020820190508181036000830152615105816150c9565b9050919050565b7f41756374696f6e20616c726561647920696e697469616c697a65640000000000600082015250565b6000615142601b8361446a565b915061514d8261510c565b602082019050919050565b6000602082019050818103600083015261517181615135565b9050919050565b7f4f776e61626c653a206e6577206f776e657220697320746865207a65726f206160008201527f6464726573730000000000000000000000000000000000000000000000000000602082015250565b60006151d460268361446a565b91506151df82615178565b604082019050919050565b60006020820190508181036000830152615203816151c7565b9050919050565b7f5468652061756374696f6e204d55535420626520696e2053544152544544206f60008201527f7220455854454e44454420737461746500000000000000000000000000000000602082015250565b600061526660308361446a565b91506152718261520a565b604082019050919050565b6000602082019050818103600083015261529581615259565b9050919050565b7f41756374696f6e20656e642064617465207374696c6c206e6f7420726561686360008201527f6564000000000000000000000000000000000000000000000000000000000000602082015250565b60006152f860228361446a565b91506153038261529c565b604082019050919050565b60006020820190508181036000830152615327816152eb565b9050919050565b7f4e487b7100000000000000000000000000000000000000000000000000000000600052602260045260246000fd5b6000600282049050600182168061537557607f821691505b602082108114156153895761538861532e565b5b50919050565b60008190508160005260206000209050919050565b600081546153b18161535d565b6153bb818661446a565b945060018216600081146153d657600181146153e85761541b565b60ff198316865260208601935061541b565b6153f18561538f565b60005b83811015615413578154818901526001820191506020810190506153f4565b808801955050505b50505092915050565b60006040820190506154396000830185613fcd565b818103602083015261544b81846153a4565b90509392505050565b7f41756374696f6e205374617274202d205468657265206d75737420626520617460008201527f206c65617374206f6e65206c6f7420646566696e65642e000000000000000000602082015250565b60006154b060378361446a565b91506154bb82615454565b604082019050919050565b600060208201905081810360008301526154df816154a3565b9050919050565b7f41637475616c2074696d65206f7574736964652061756374696f6e20626f756e60008201527f6461726965730000000000000000000000000000000000000000000000000000602082015250565b600061554260268361446a565b915061554d826154e6565b604082019050919050565b6000602082019050818103600083015261557181615535565b9050919050565b7f41756374696f6e20656e64206461746520726561636865640000000000000000600082015250565b60006155ae60188361446a565b91506155b982615578565b602082019050919050565b600060208201905081810360008301526155dd816155a1565b9050919050565b7f546865207472616e63686520697320616c726561647920636f6e6669726d656460008201527f2e00000000000000000000000000000000000000000000000000000000000000602082015250565b600061564060218361446a565b915061564b826155e4565b604082019050919050565b6000602082019050818103600083015261566f81615633565b9050919050565b7f4d6573736167652073656e646572204d55535420626520612076616c6964206260008201527f6964646572000000000000000000000000000000000000000000000000000000602082015250565b60006156d260258361446a565b91506156dd82615676565b604082019050919050565b60006020820190508181036000830152615701816156c5565b9050919050565b7f5468652062696464657220616c7265616479206861732070757368656420746860008201527f65206c6173742076616c69642062696400000000000000000000000000000000602082015250565b600061576460308361446a565b915061576f82615708565b604082019050919050565b6000602082019050818103600083015261579381615757565b9050919050565b7f496e76616c6964207472616e6368650000000000000000000000000000000000600082015250565b60006157d0600f8361446a565b91506157db8261579a565b602082019050919050565b600060208201905081810360008301526157ff816157c3565b9050919050565b600060808201905061581b6000830187613fcd565b6158286020830186613fcd565b6158356040830185613fcd565b61584260608301846142d8565b95945050505050565b7f5468652061756374696f6e204d55535420626520696e2053544152544544207360008201527f7461746500000000000000000000000000000000000000000000000000000000602082015250565b60006158a760248361446a565b91506158b28261584b565b604082019050919050565b600060208201905081810360008301526158d68161589a565b9050919050565b60006040820190506158f26000830185613fcd565b6158ff60208301846142d8565b9392505050565b7f5468652061756374696f6e2077617320707265766975736c792063616e63656c60008201527f65642e0000000000000000000000000000000000000000000000000000000000602082015250565b600061596260238361446a565b915061596d82615906565b604082019050919050565b6000602082019050818103600083015261599181615955565b9050919050565b600081519050919050565b60005b838110156159c15780820151818401526020810190506159a6565b838111156159d0576000848401525b50505050565b60006159e182615998565b6159eb818561446a565b93506159fb8185602086016159a3565b615a04816140cd565b840191505092915050565b6000606082019050615a246000830186613fcd565b8181036020830152615a3681856153a4565b90508181036040830152615a4a81846159d6565b9050949350505050565b6000606082019050615a696000830186613fcd565b615a766020830185613fcd565b615a836040830184613fcd565b94935050505056fe4e6f20636f6e6669726d656420626964646572732061742061756374696f6e207374617274a2646970667358221220f26536c6d42e4975d92c455bdbac9de59582cd03abd4dccd462607ba2bc28f7f64736f6c634300080a0033",
  "immutableReferences": {},
  "source": "// SPDX-License-Identifier: MIT\npragma solidity >=0.4.22 <0.9.0;\n\nimport \"@openzeppelin/contracts/access/Ownable.sol\";\n\n/***\n * This contract implementas public auctions at Supreme Court in Buenos Aires Province @ Argetina.\n * The auction process has an hybrid architecture, where the auction data and administrative flow is centralizad in a \n * traditional web application, and the push process and winner definition happens in the blockchain.\n * \n * Author: Lic. Gustavo Perez Villar @ Buenos Aires - Argentina\n */\n\ncontract AuctionsSCBA is Ownable {\n    \n    // Events\n\n    event evt_bidderConfirmedInscription(address indexed sender, string message);\n    event evt_auctionStart(uint timeStamp, string auctionID);\n    event evt_auctionCanceled(uint timeStamp, string auctionID, string cause);\n    event evt_maximunSecretBidBeaten(uint timeStamp, address beatenBidder);\n    event evt_bidConfirmed(uint timeStamp, uint lotId, uint trancheId, address _bidder);\n    event evt_auctionLotExtended(uint timeStamp, uint lotId, uint newEndDate);\n    event evt_auctionClosed(uint timeStamp, string auctionID);\n\n    // Custom data types\n\n    enum AuctionClass {REAL_STATE,MOBILE,MOBILE_REGISTER}\n    enum AuctionState {NO_INIT,INIT,LOT,STARTED,EXTENDED,ENDED,CANCELED}\n    struct AuctionLot {\n        uint lotId_;\n        uint startDate_;\n        uint endDate_;\n        uint baseValue_;\n        uint extendedEndDate_;\n        uint extensionsCount_;\n        address winner_;\n        uint lastTrancheId_;\n        uint actualTrancheId_;\n    }\n    struct Auction {\n        string auctionCode_;\n        AuctionClass auctionClass_;\n        uint guaranteeDeposit_;\n        uint totalAuctionLots_;\n        uint startDate_;\n        uint endDate_;\n        uint extendedEndDate_;\n    }\n    struct Bidder {\n        uint guaranteeDeposit_; // Deposited amount in wei for confirm auction inscription\n        bool preserveLastBid_;  // If he wants to preserve his last bid in case the winner doesn't confirm the buy. \n                                // if preserve bid is true, the bidder cannot withdraw founds after auction ending.\n        uint[] lotSecretBid_;   // Secrets bid per lot. lotSecretBid_[lotId-1] = secretBid. Secret Bid is expressed as trancheid\n    }\n    struct AuctionTranches {\n        uint trancheId_;\n        uint trancheValue_;\n        address trancheBidder_;\n        bool trancheConfirmed_;\n        uint trancheBidTimestamp_;\n    }\n\n    // State Variables\n\n    AuctionLot[] private _auctionLots; // Auction lots array - Index starts in 0 - (_lotId -1)\n    AuctionState private _auctionState; // Actual auction state\n    Auction private _auctionObject; // Instance of auction data\n    mapping (address => Bidder) private _validBidders; // Valid registered bidders\n    mapping (uint => AuctionTranches[]) private _tranchesPerLot; // Index starts in 0 - ( _lotId -1 )\n    address[] private _bidderList;\n    mapping (address => mapping(uint => bool)) _bidderLotMSBBeaten; // True if bidder's maximun secret bed has bean beaten for a particular lot\n\n   // Constructor\n\n    constructor () {\n        // State variables initialization\n        _auctionState = AuctionState.NO_INIT;\n    }\n\n    // Receive functions\n\n    function confirmBidderInscription(bool _preserveGuranteeDeposit) external payable {\n        _confirmBidderInscription(msg.sender, msg.value, _preserveGuranteeDeposit);\n    }\n\n    // Fallback function\n\n    receive() external payable {\n       _confirmBidderInscription(msg.sender, msg.value,false); \n    } \n\n    // External Functions\n\n    function auctionInit(\n        string memory __auctionCode,\n        AuctionClass __auctionClass, \n        uint __guaranteeDeposit, \n        uint __totalAuctionLots,\n        uint __startDate,\n        uint __endDate \n    ) external onlyOwner  {\n        require(_auctionState  == AuctionState.NO_INIT, \"Auction already initialized\");\n        //require(block.timestamp < __startDate && (__startDate + 10 days) <= __endDate,\"Invalid dates\");\n        _auctionState = AuctionState.INIT;\n        _auctionObject.auctionCode_ = __auctionCode;\n        _auctionObject.auctionClass_ = __auctionClass;\n        _auctionObject.guaranteeDeposit_ = __guaranteeDeposit;\n        _auctionObject.totalAuctionLots_ = __totalAuctionLots;\n        _auctionObject.startDate_ = __startDate;\n        _auctionObject.endDate_ = __endDate;\n        _auctionObject.extendedEndDate_ = __endDate;\n    }\n\n    function auctionAddLot(uint __baseValue) external onlyOwner {\n        require(_auctionState == AuctionState.INIT || _auctionState == AuctionState.LOT ,\"Auction is NOT initialized. Initialize auction before adding lots.\");\n        // Can't add more tha one lot if the auction class is Realstate\n        if (_auctionObject.auctionClass_ == AuctionClass.REAL_STATE && _auctionLots.length == 1) { revert(\"Real State auctions only allows one lot\"); }\n        if (_auctionLots.length > _auctionObject.totalAuctionLots_) { revert(\"Cant't add more lots than definded in totalAuctionLots\"); }\n        AuctionLot memory tmpLot;\n        _auctionState = AuctionState.LOT;\n        tmpLot.lotId_ = _auctionLots.length + 1;  //Start at lot 1\n        tmpLot.extensionsCount_ = 0;\n        tmpLot.startDate_ = _auctionObject.startDate_;\n        tmpLot.endDate_ = _auctionObject.endDate_;\n        tmpLot.extendedEndDate_ = _auctionObject.endDate_;\n        tmpLot.baseValue_ = __baseValue;\n        tmpLot.lastTrancheId_ = 0;\n        _auctionLots.push(tmpLot); // Add lot to lot array\n    }  \n\n    function auctionStart() external onlyOwner {\n        _setAuctionStart();\n    }\n\n    function auctionClose() external onlyOwner {\n        _auctionClose();\n    }\n\n   function auctionCancel(string memory _cause) external onlyOwner {\n        _auctionCancelation(_cause);\n    }\n\n    function withDraw() external  {\n        require(_auctionState == AuctionState.CANCELED || _auctionState == AuctionState.ENDED ,\"The auction MUST be in ENDED or CANCELET ti withdraw founds\");\n        require(_validBidders[msg.sender].guaranteeDeposit_ > 0, \"Bidder NOT confirmed\");\n        require(_validBidders[msg.sender].preserveLastBid_ == false, \"Bidder cannot withdraw because last bid is reserved\");\n        uint _withDrawAmount = _validBidders[msg.sender].guaranteeDeposit_;\n\n        _validBidders[msg.sender].guaranteeDeposit_ = 0;\n        payable(msg.sender).transfer(_withDrawAmount);\n    }\n\n    // Public Functions\n\n    function getAuctionState() public view returns (AuctionState) {\n        return _auctionState;\n    }\n    \n    // Get contract address blance (sum of all guarantee deposits for each confirmed bidder)\n    function getAuctionBalance() public view returns (uint) {\n        return address(this).balance;\n    } \n    \n    function getConfirmedBiddders() public view returns (uint){\n        return _bidderList.length;\n    }\n\n    function isBidderConfirmed(address _queryBidder) public view returns(bool) {   \n        return (_validBidders[_queryBidder].guaranteeDeposit_ > 0);\n    }\n\n    function getAuctionStartDate() public view returns(uint) {     \n        return _auctionObject.startDate_;\n    }\n\n    function getAuctionEndtDate() public view returns(uint) {     \n        return _auctionObject.extendedEndDate_;\n    }\n\n    function getAuctionClass() public view returns(AuctionClass) {     \n        return _auctionObject.auctionClass_;\n    }\n\n    function getActualTranche(uint _lotId) public view returns (uint,uint) {\n        uint retTrancheId_;\n        uint retValue_;\n        retTrancheId_ = _auctionLots[_lotId-1].actualTrancheId_;\n        if (retTrancheId_ > 0 ) {\n            retValue_ = _tranchesPerLot[_lotId-1][retTrancheId_-1].trancheValue_;\n        } else {\n            retValue_ = _tranchesPerLot[_lotId-1][0].trancheValue_;\n        }\n        return (retTrancheId_, retValue_);\n    }\n\n    function getLastTranche(uint _lotId) public view returns (uint,uint,address) {\n        uint retTrancheId_;\n        uint retValue_;\n        address retBidder_;\n        retTrancheId_ = _auctionLots[_lotId-1].lastTrancheId_;\n        if (retTrancheId_ > 0) {\n            retValue_ = _tranchesPerLot[_lotId-1][retTrancheId_-1].trancheValue_;\n        } else {\n            retValue_ = _tranchesPerLot[_lotId-1][0].trancheValue_;\n        }\n        retBidder_ = _tranchesPerLot[_lotId-1][retTrancheId_-1].trancheBidder_;\n        \n        return (retTrancheId_, retValue_, retBidder_);\n    }\n\n    function getBidderMaximunSecretBid(uint _lotId, address _bidder) public view returns (uint,uint) {\n        uint _retTranche = _validBidders[_bidder].lotSecretBid_[_lotId-1];\n        uint _retAmount = _getLotTrancheValue(_lotId,_retTranche);\n        return (_retTranche, _retAmount);\n    }\n        \n    function getLotQuantity() public view returns (uint) {\n        return _auctionLots.length;\n    }\n\n    function getLotBaseValue(uint _lotId) public view returns (uint) {\n        return _auctionLots[_lotId-1].baseValue_;\n    }\n\n    function getLotTrancheValue(uint _lotId, uint _trancheId) public view returns (uint) {\n        \n        return _getLotTrancheValue(_lotId,_trancheId);\n    }\n    \n    function getLotEndDate(uint _lotId) public view returns (uint) {\n        \n        return _auctionLots[_lotId-1].extendedEndDate_;\n    }\n    function getLotExtensionCount(uint _lotId) public view returns (uint) {\n        \n        return _auctionLots[_lotId-1].extensionsCount_;\n    }\n\n    function bidderSetPreservelastBid(bool _value) public {\n        require(_auctionState == AuctionState.LOT,\"Preserve Last Bid - There must be at least one lot defined.\"); \n        require(_validBidders[msg.sender].guaranteeDeposit_ > 0,\"Bidder is not confirmed\"); \n        require((msg.sender != this.owner()));\n        \n        _validBidders[msg.sender].preserveLastBid_ = _value;\n\n    }\n\n    function bidderSetMaximunSecretBidAmount(uint _lotId, uint _value) public {\n        require(_auctionState == AuctionState.LOT,\"Set Maximun Secret Bid - There must be at least one lot defined.\"); \n        require(_validBidders[msg.sender].guaranteeDeposit_ > 0,\"Bidder is not confirmed\"); \n        require((msg.sender != this.owner()),\"Function cannot be called by contract owner\");\n        require(_value > _auctionLots[_lotId-1].baseValue_,\"Maximun Secret Bid MUST be greater than lot base value.\"); \n        uint _msbTranche;\n        uint _fivePercent;\n        \n        _fivePercent = ((_auctionLots[_lotId-1].baseValue_ / 100) * 5);\n        _msbTranche = ((_value - _auctionLots[_lotId-1].baseValue_) / _fivePercent) + 1;\n        _validBidders[msg.sender].lotSecretBid_[_lotId-1] = _msbTranche-1; // -1 for approaching lower tranche.\n        \n    }\n    function bidderSetMaximunSecretBidTranche(uint _lotId, uint _value) public {\n        require(_auctionState == AuctionState.LOT,\"Set MSB x Tranche - There must be at least one lot defined.\"); \n        require(_validBidders[msg.sender].guaranteeDeposit_ > 0,\"Bidder is not confirmed\"); \n        require((msg.sender != this.owner()),\"Function cannot be called by contract owner\");\n        require(_value >= 1 ,\"Tranche MUST be greater than zero.\"); \n        \n        _validBidders[msg.sender].lotSecretBid_[_lotId-1] = _value;\n    }\n\n    function bid(uint _lotId, uint _trancheId) public {\n        _bid(msg.sender, _lotId, _trancheId);\n        _secretBidPush();\n    } \n    // Internal Functions\n\n    function _getLotTrancheValue(uint _lotId, uint _trancheId) internal view returns (uint) {\n        uint _baseValue = _auctionLots[_lotId-1].baseValue_;\n        uint _factor = _trancheId * 5;\n\n        return _baseValue + ((_baseValue * _factor) / 100);\n    }\n\n    function _confirmBidderInscription(address _bidderAddress, uint _depositAmount, bool _preserveGuaranteeDeposit) internal     {\n        Bidder memory _tmpBidder;\n        uint _LotsLength = _auctionLots.length;\n        require(_auctionState == AuctionState.LOT,\"Confirm Inscription - There must be at least one lot defined.\"); \n        require(_validBidders[_bidderAddress].guaranteeDeposit_ == 0,\"Bidder already confirmed\"); \n        require(_depositAmount >= _auctionObject.guaranteeDeposit_,\"The deposit for confirm inscription MUST be equal or greater than teh guarantee deposit.\");\n        require (block.timestamp <= _auctionObject.startDate_,\"Bidder registration window expired.\");\n        require((msg.sender != this.owner()));\n\n        _tmpBidder.guaranteeDeposit_ = _depositAmount;\n        _tmpBidder.preserveLastBid_ = _preserveGuaranteeDeposit;\n        // initialize Maximun Secret Bid array\n        _validBidders[_bidderAddress] = _tmpBidder;\n        for (uint i=0; i<_LotsLength; i++) {\n            _validBidders[_bidderAddress].lotSecretBid_.push(0);\n        }\n        _bidderList.push(_bidderAddress);\n\n        emit evt_bidderConfirmedInscription(_bidderAddress,\"Confirmed bidder inscription.\");\n    }\n\n    function _setAuctionStart() internal  {\n        require(_auctionState == AuctionState.LOT,\"Auction Start - There must be at least one lot defined.\"); \n        require((block.timestamp + 5 seconds) >= _auctionObject.startDate_ && block.timestamp <= _auctionObject.endDate_,\"Actual time outside auction boundaries\");\n        \n        if (_bidderList.length == 0) {\n             _auctionCancelation(\"No confirmed bidders at auction start\");\n        } else {\n            _auctionState = AuctionState.STARTED;\n            _initTranches();\n            _secretBidPush();\n\n            emit evt_auctionStart(block.timestamp, _auctionObject.auctionCode_);        }\n    }\n    \n    function _auctionCancelation(string memory _cause) internal {\n        require(_auctionState != AuctionState.CANCELED,\"The auction was previusly canceled.\"); \n        require(block.timestamp <= _auctionObject.extendedEndDate_,\"Auction end date reached\");\n        \n        _auctionState = AuctionState.CANCELED;\n        emit evt_auctionCanceled(block.timestamp, _auctionObject.auctionCode_, _cause);\n    }\n\n    function _initTranches() internal {\n        require(_auctionState == AuctionState.STARTED,\"The auction MUST be in STARTED state\");\n        uint _LotsLength = _auctionLots.length;\n        AuctionTranches memory _tmpTranche;\n\n        for (uint i=0; i<_LotsLength; i++) {\n            _tmpTranche.trancheId_ = i+1;\n            _tmpTranche.trancheValue_ = _auctionLots[i].baseValue_;\n            _tmpTranche.trancheConfirmed_ = false;\n            _tranchesPerLot[i].push(_tmpTranche);\n            _auctionLots[i].actualTrancheId_ = 1; \n        }\n    }\n\n    /*\n    This function iterates over each bidder for every lot pushing using the Maximun Secret Bid commited before\n    auction start. The push order is related to the inscription order and the loops ends when no maximun secret bid\n    can beat the last valid automatic bid pushed.\n    */\n    function _secretBidPush() internal  {\n        require(_auctionState == AuctionState.STARTED || _auctionState == AuctionState.EXTENDED,\"The auction MUST be in STARTED state\");\n        require(block.timestamp <= _auctionObject.extendedEndDate_,\"Auction end date reached\");\n        bool _doBid = true;        \n        while (_doBid == true) {\n            _doBid = false;\n            for (uint x=0;x<=_auctionLots.length-1;x++) {\n                for (uint i=0; i<=_bidderList.length-1;i++) {\n                    // if the current iteration bidder has a maximun secret bid greater than auction current tranche and the bidder \n                    // is not the winner of te past tranch, the system pushes a bid in his name.\n                    if (_validBidders[_bidderList[i]].lotSecretBid_[x] > 0 && _validBidders[_bidderList[i]].lotSecretBid_[x] >= _auctionLots[x].actualTrancheId_) {\n                        if (_auctionLots[x].lastTrancheId_ == 0) {\n                            _bid(_bidderList[i], x+1, 1);\n                            _doBid = true;\n                            break;\n                        } else {\n                            if ( _tranchesPerLot[x][_auctionLots[x].lastTrancheId_ -1].trancheBidder_ != _bidderList[i] ) {\n                                _bid(_bidderList[i], x+1, _auctionLots[x].actualTrancheId_);\n                                _doBid=true;\n                                break;\n                            }\n                        }\n                    } else {\n                        if (_validBidders[_bidderList[i]].lotSecretBid_[x] >= _auctionLots[x].actualTrancheId_ &&\n                            _bidderLotMSBBeaten[_bidderList[i]][_auctionLots[x].actualTrancheId_] == false) {\n                            //Bidder's maximun secret bid has been beaten                            \n                            _bidderLotMSBBeaten[_bidderList[i]][_auctionLots[x].actualTrancheId_] = true;\n                            emit evt_maximunSecretBidBeaten(block.timestamp, _bidderList[i]);\n                        }\n                    }\n                }\n            }\n        }\n    }\n\n    function _bid(address _bidder, uint _lotId, uint _bidTranche) internal {\n        require(_auctionState == AuctionState.STARTED || _auctionState == AuctionState.EXTENDED ,\"The auction MUST be in STARTED or EXTENDED state\");\n        require(block.timestamp <= _auctionObject.extendedEndDate_,\"Auction end date reached\");\n        require(_tranchesPerLot[_lotId-1][_bidTranche-1].trancheConfirmed_ == false, \"The tranche is already confirmed.\");        \n        require(_validBidders[_bidder].guaranteeDeposit_ > 0, \"Message sender MUST be a valid bidder\");\n        if (_auctionLots[_lotId-1].lastTrancheId_ > 0) {\n            require(_tranchesPerLot[_lotId-1][_auctionLots[_lotId-1].lastTrancheId_-1].trancheBidder_ != _bidder, \"The bidder already has pushed the last valid bid\");\n        }\n        require(_bidTranche == _auctionLots[_lotId-1].actualTrancheId_,\"Invalid tranche\");\n        AuctionTranches memory _tmpTranche;\n        \n        // updates lot info\n        _auctionLots[_lotId-1].lastTrancheId_ += 1;\n        _auctionLots[_lotId-1].actualTrancheId_ += 1;\n\n        \n        // updates tranche info\n        _tranchesPerLot[_lotId-1][_bidTranche-1].trancheBidder_ = _bidder;\n        _tranchesPerLot[_lotId-1][_bidTranche-1].trancheConfirmed_ = true;\n        _tranchesPerLot[_lotId-1][_bidTranche-1].trancheBidTimestamp_ = block.timestamp;\n\n        // Init next tranche\n        _tmpTranche.trancheId_ = _auctionLots[_lotId-1].actualTrancheId_;\n        _tmpTranche.trancheValue_ = _getLotTrancheValue(_lotId,_auctionLots[_lotId-1].actualTrancheId_);\n        _tmpTranche.trancheConfirmed_ = false;\n        _tranchesPerLot[_lotId-1].push(_tmpTranche);\n\n        // check extension period\n        _extendAuction(_lotId);\n\n        // generates events\n        emit evt_bidConfirmed(block.timestamp, _lotId, _bidTranche, _bidder);\n        \n    }\n\n    function _extendAuction(uint _lotId) internal {\n        require(_auctionState == AuctionState.STARTED || _auctionState == AuctionState.EXTENDED ,\"The auction MUST be in STARTED or EXTENDED state\");\n        require(block.timestamp <= _auctionObject.extendedEndDate_,\"Auction end date reached\");\n        uint extensionPeriod = (_auctionLots[_lotId-1].extendedEndDate_ - 3 minutes);\n\n        // the current bid should be in the last 3 minutes near the end to extend the auction.\n        if (block.timestamp >= extensionPeriod) {\n            _auctionLots[_lotId-1].extendedEndDate_ = ( _auctionLots[_lotId-1].endDate_ + 2 minutes);\n            _auctionLots[_lotId-1].extensionsCount_ += 1;\n            _auctionObject.extendedEndDate_ = ( _auctionLots[_lotId-1].endDate_ + 2 minutes);\n            emit evt_auctionLotExtended(block.timestamp, _lotId, _auctionObject.extendedEndDate_);\n        }\n    } \n    \n    function _auctionClose() internal {\n        require(_auctionState == AuctionState.STARTED || _auctionState == AuctionState.EXTENDED ,\"The auction MUST be in STARTED or EXTENDED state\");\n        require(block.timestamp >= _auctionObject.extendedEndDate_,\"Auction end date still not reahced\");\n\n        // Set the winner for each tranche and enable withdraw\n        for (uint i=0;i<=_auctionLots.length-1;i++) {\n            _auctionLots[i].winner_ =_tranchesPerLot[i][_auctionLots[i].lastTrancheId_ -1].trancheBidder_;            \n        }\n        // Change auction state to CLOSED\n        _auctionState = AuctionState.ENDED;\n        // Emit close event\n        emit evt_auctionClosed(block.timestamp, _auctionObject.auctionCode_);        \n    }\n}\n",
  "sourcePath": "/home/gperez/proyectos/scba-auction-ethereum/contracts/AuctionsSCBA.sol",
  "compiler": {
    "name": "solc",
    "version": "0.8.10+commit.fc410830.Emscripten.clang"
  },
  "schemaVersion": "3.4.3",
  "updatedAt": "2021-12-21T16:16:30.490Z",
  "devdoc": {
    "kind": "dev",
    "methods": {
      "owner()": {
        "details": "Returns the address of the current owner."
      },
      "renounceOwnership()": {
        "details": "Leaves the contract without owner. It will not be possible to call `onlyOwner` functions anymore. Can only be called by the current owner. NOTE: Renouncing ownership will leave the contract without an owner, thereby removing any functionality that is only available to the owner."
      },
      "transferOwnership(address)": {
        "details": "Transfers ownership of the contract to a new account (`newOwner`). Can only be called by the current owner."
      }
    },
    "version": 1
  },
  "userdoc": {
    "kind": "user",
    "methods": {},
    "version": 1
  }
}