{
  "contractName": "AuctionsSCBA",
  "abi": [
    {
      "inputs": [],
      "stateMutability": "nonpayable",
      "type": "constructor"
    },
    {
      "anonymous": false,
      "inputs": [
        {
          "indexed": true,
          "internalType": "address",
          "name": "previousOwner",
          "type": "address"
        },
        {
          "indexed": true,
          "internalType": "address",
          "name": "newOwner",
          "type": "address"
        }
      ],
      "name": "OwnershipTransferred",
      "type": "event"
    },
    {
      "anonymous": false,
      "inputs": [
        {
          "indexed": true,
          "internalType": "address",
          "name": "sender",
          "type": "address"
        },
        {
          "indexed": false,
          "internalType": "string",
          "name": "message",
          "type": "string"
        }
      ],
      "name": "evt_bidderConfirmedInscription",
      "type": "event"
    },
    {
      "inputs": [],
      "name": "owner",
      "outputs": [
        {
          "internalType": "address",
          "name": "",
          "type": "address"
        }
      ],
      "stateMutability": "view",
      "type": "function"
    },
    {
      "inputs": [],
      "name": "renounceOwnership",
      "outputs": [],
      "stateMutability": "nonpayable",
      "type": "function"
    },
    {
      "inputs": [
        {
          "internalType": "address",
          "name": "newOwner",
          "type": "address"
        }
      ],
      "name": "transferOwnership",
      "outputs": [],
      "stateMutability": "nonpayable",
      "type": "function"
    },
    {
      "stateMutability": "payable",
      "type": "receive"
    },
    {
      "inputs": [
        {
          "internalType": "bool",
          "name": "_preserveGuranteeDeposit",
          "type": "bool"
        }
      ],
      "name": "confirmBidderInscription",
      "outputs": [],
      "stateMutability": "payable",
      "type": "function"
    },
    {
      "inputs": [
        {
          "internalType": "string",
          "name": "__auctionCode",
          "type": "string"
        },
        {
          "internalType": "enum AuctionsSCBA.AuctionClass",
          "name": "__auctionClass",
          "type": "uint8"
        },
        {
          "internalType": "uint256",
          "name": "__guaranteeDeposit",
          "type": "uint256"
        },
        {
          "internalType": "uint256",
          "name": "__totalAuctionLots",
          "type": "uint256"
        }
      ],
      "name": "auctionInit",
      "outputs": [],
      "stateMutability": "nonpayable",
      "type": "function"
    },
    {
      "inputs": [
        {
          "internalType": "uint256",
          "name": "__startDate",
          "type": "uint256"
        },
        {
          "internalType": "uint256",
          "name": "__endDate",
          "type": "uint256"
        },
        {
          "internalType": "uint256",
          "name": "__baseValue",
          "type": "uint256"
        }
      ],
      "name": "auctionAddLot",
      "outputs": [],
      "stateMutability": "nonpayable",
      "type": "function"
    },
    {
      "inputs": [],
      "name": "getAuctionState",
      "outputs": [
        {
          "internalType": "enum AuctionsSCBA.AuctionState",
          "name": "",
          "type": "uint8"
        }
      ],
      "stateMutability": "view",
      "type": "function"
    },
    {
      "inputs": [],
      "name": "getAuctionBalance",
      "outputs": [
        {
          "internalType": "uint256",
          "name": "",
          "type": "uint256"
        }
      ],
      "stateMutability": "view",
      "type": "function"
    },
    {
      "inputs": [
        {
          "internalType": "bool",
          "name": "_value",
          "type": "bool"
        }
      ],
      "name": "bidderSetPreservelastBid",
      "outputs": [],
      "stateMutability": "nonpayable",
      "type": "function"
    },
    {
      "inputs": [
        {
          "internalType": "uint256",
          "name": "_value",
          "type": "uint256"
        }
      ],
      "name": "bidderSetMaximunSecretBid",
      "outputs": [],
      "stateMutability": "nonpayable",
      "type": "function"
    }
  ],
  "bytecode": "0x60806040523480156200001157600080fd5b5062000032620000266200006e60201b60201c565b6200007660201b60201c565b6000600260006101000a81548160ff021916908360058111156200005b576200005a6200013a565b5b0217905550600060098190555062000169565b600033905090565b60008060009054906101000a900473ffffffffffffffffffffffffffffffffffffffff169050816000806101000a81548173ffffffffffffffffffffffffffffffffffffffff021916908373ffffffffffffffffffffffffffffffffffffffff1602179055508173ffffffffffffffffffffffffffffffffffffffff168173ffffffffffffffffffffffffffffffffffffffff167f8be0079c531659141344cd1fd0a4f28419497f9722a3daafe3b4186f6b6457e060405160405180910390a35050565b7f4e487b7100000000000000000000000000000000000000000000000000000000600052602160045260246000fd5b611e7b80620001796000396000f3fe6080604052600436106100955760003560e01c8063715018a611610059578063715018a61461017e5780638da5cb5b14610195578063a9a484ef146101c0578063d6985621146101e9578063f2fde38b14610205576100a8565b806308bfc300146100ad57806311cef4f4146100d857806325a35e7314610101578063367435d61461012c57806361dd3bcc14610155576100a8565b366100a8576100a63334600061022e565b005b600080fd5b3480156100b957600080fd5b506100c2610523565b6040516100cf9190611321565b60405180910390f35b3480156100e457600080fd5b506100ff60048036038101906100fa91906114f1565b61053a565b005b34801561010d57600080fd5b506101166106b7565b6040516101239190611583565b60405180910390f35b34801561013857600080fd5b50610153600480360381019061014e919061159e565b6106bf565b005b34801561016157600080fd5b5061017c60048036038101906101779190611629565b610ad6565b005b34801561018a57600080fd5b50610193610cd5565b005b3480156101a157600080fd5b506101aa610d5d565b6040516101b79190611697565b60405180910390f35b3480156101cc57600080fd5b506101e760048036038101906101e291906116b2565b610d86565b005b61020360048036038101906101fe9190611629565b610f72565b005b34801561021157600080fd5b5061022c6004803603810190610227919061170b565b610f80565b005b610236611144565b8281600001818152505081816020019015159081151581525050600081604001818152505060008160600181815250506002600581111561027a576102796112aa565b5b600260009054906101000a900460ff16600581111561029c5761029b6112aa565b5b146102dc576040517f08c379a00000000000000000000000000000000000000000000000000000000081526004016102d3906117bb565b60405180910390fd5b6000600760008673ffffffffffffffffffffffffffffffffffffffff1673ffffffffffffffffffffffffffffffffffffffff1681526020019081526020016000206000015414610361576040517f08c379a000000000000000000000000000000000000000000000000000000000815260040161035890611827565b60405180910390fd5b6003600201548310156103a9576040517f08c379a00000000000000000000000000000000000000000000000000000000081526004016103a0906118df565b60405180910390fd5b3073ffffffffffffffffffffffffffffffffffffffff16638da5cb5b6040518163ffffffff1660e01b8152600401602060405180830381865afa1580156103f4573d6000803e3d6000fd5b505050506040513d601f19601f820116820180604052508101906104189190611914565b73ffffffffffffffffffffffffffffffffffffffff163373ffffffffffffffffffffffffffffffffffffffff16141561045057600080fd5b80600760008673ffffffffffffffffffffffffffffffffffffffff1673ffffffffffffffffffffffffffffffffffffffff1681526020019081526020016000206000820151816000015560208201518160010160006101000a81548160ff02191690831515021790555060408201518160020155606082015181600301559050508373ffffffffffffffffffffffffffffffffffffffff167f2bcb2fe5b94813e883d2308e17a49fb21fb91863c646b56c2dbeb3069bd739116040516105159061198d565b60405180910390a250505050565b6000600260009054906101000a900460ff16905090565b610542611078565b73ffffffffffffffffffffffffffffffffffffffff16610560610d5d565b73ffffffffffffffffffffffffffffffffffffffff16146105b6576040517f08c379a00000000000000000000000000000000000000000000000000000000081526004016105ad906119f9565b60405180910390fd5b600060058111156105ca576105c96112aa565b5b600260009054906101000a900460ff1660058111156105ec576105eb6112aa565b5b1461062c576040517f08c379a000000000000000000000000000000000000000000000000000000000815260040161062390611a65565b60405180910390fd5b6001600260006101000a81548160ff02191690836005811115610652576106516112aa565b5b0217905550836003600001908051906020019061067092919061116e565b5082600360010160006101000a81548160ff02191690836002811115610699576106986112aa565b5b02179055508160036002018190555080600380018190555050505050565b600047905090565b6106c7611078565b73ffffffffffffffffffffffffffffffffffffffff166106e5610d5d565b73ffffffffffffffffffffffffffffffffffffffff161461073b576040517f08c379a0000000000000000000000000000000000000000000000000000000008152600401610732906119f9565b60405180910390fd5b6001600581111561074f5761074e6112aa565b5b600260009054906101000a900460ff166005811115610771576107706112aa565b5b14806107b057506002600581111561078c5761078b6112aa565b5b600260009054906101000a900460ff1660058111156107ae576107ad6112aa565b5b145b6107ef576040517f08c379a00000000000000000000000000000000000000000000000000000000081526004016107e690611b1d565b60405180910390fd5b60006002811115610803576108026112aa565b5b600360010160009054906101000a900460ff166002811115610828576108276112aa565b5b148015610839575060018080549050145b15610879576040517f08c379a000000000000000000000000000000000000000000000000000000000815260040161087090611baf565b60405180910390fd5b600380015460018054905011156108c5576040517f08c379a00000000000000000000000000000000000000000000000000000000081526004016108bc90611c41565b60405180910390fd5b6108cd6111f4565b6108d5611256565b60028060006101000a81548160ff021916908360058111156108fa576108f96112aa565b5b02179055506001600960008282546109129190611c90565b925050819055506001808054905061092a9190611c90565b82600001818152505060008260a001818152505084826020018181525050838260400181815250508382608001818152505060008260e0018181525050828260600181815250506000826101000181815250506001829080600181540180825580915050600190039060005260206000209060090201600090919091909150600082015181600001556020820151816001015560408201518160020155606082015181600301556080820151816004015560a0820151816005015560c08201518160060160006101000a81548173ffffffffffffffffffffffffffffffffffffffff021916908373ffffffffffffffffffffffffffffffffffffffff16021790555060e082015181600701556101008201518160080155505060095481600001818152505082816020018181525050806008600083600001518152602001908152602001600020600082015181600001556020820151816001015560408201518160020160006101000a81548173ffffffffffffffffffffffffffffffffffffffff021916908373ffffffffffffffffffffffffffffffffffffffff1602179055509050505050505050565b60026005811115610aea57610ae96112aa565b5b600260009054906101000a900460ff166005811115610b0c57610b0b6112aa565b5b14610b4c576040517f08c379a0000000000000000000000000000000000000000000000000000000008152600401610b43906117bb565b60405180910390fd5b6000600760003373ffffffffffffffffffffffffffffffffffffffff1673ffffffffffffffffffffffffffffffffffffffff1681526020019081526020016000206000015411610bd1576040517f08c379a0000000000000000000000000000000000000000000000000000000008152600401610bc890611d32565b60405180910390fd5b3073ffffffffffffffffffffffffffffffffffffffff16638da5cb5b6040518163ffffffff1660e01b8152600401602060405180830381865afa158015610c1c573d6000803e3d6000fd5b505050506040513d601f19601f82011682018060405250810190610c409190611914565b73ffffffffffffffffffffffffffffffffffffffff163373ffffffffffffffffffffffffffffffffffffffff161415610c7857600080fd5b80600760003373ffffffffffffffffffffffffffffffffffffffff1673ffffffffffffffffffffffffffffffffffffffff16815260200190815260200160002060010160006101000a81548160ff02191690831515021790555050565b610cdd611078565b73ffffffffffffffffffffffffffffffffffffffff16610cfb610d5d565b73ffffffffffffffffffffffffffffffffffffffff1614610d51576040517f08c379a0000000000000000000000000000000000000000000000000000000008152600401610d48906119f9565b60405180910390fd5b610d5b6000611080565b565b60008060009054906101000a900473ffffffffffffffffffffffffffffffffffffffff16905090565b60026005811115610d9a57610d996112aa565b5b600260009054906101000a900460ff166005811115610dbc57610dbb6112aa565b5b14610dfc576040517f08c379a0000000000000000000000000000000000000000000000000000000008152600401610df3906117bb565b60405180910390fd5b6000600760003373ffffffffffffffffffffffffffffffffffffffff1673ffffffffffffffffffffffffffffffffffffffff1681526020019081526020016000206000015411610e81576040517f08c379a0000000000000000000000000000000000000000000000000000000008152600401610e7890611d32565b60405180910390fd5b3073ffffffffffffffffffffffffffffffffffffffff16638da5cb5b6040518163ffffffff1660e01b8152600401602060405180830381865afa158015610ecc573d6000803e3d6000fd5b505050506040513d601f19601f82011682018060405250810190610ef09190611914565b73ffffffffffffffffffffffffffffffffffffffff163373ffffffffffffffffffffffffffffffffffffffff161415610f2857600080fd5b80600760003373ffffffffffffffffffffffffffffffffffffffff1673ffffffffffffffffffffffffffffffffffffffff1681526020019081526020016000206002018190555050565b610f7d33348361022e565b50565b610f88611078565b73ffffffffffffffffffffffffffffffffffffffff16610fa6610d5d565b73ffffffffffffffffffffffffffffffffffffffff1614610ffc576040517f08c379a0000000000000000000000000000000000000000000000000000000008152600401610ff3906119f9565b60405180910390fd5b600073ffffffffffffffffffffffffffffffffffffffff168173ffffffffffffffffffffffffffffffffffffffff16141561106c576040517f08c379a000000000000000000000000000000000000000000000000000000000815260040161106390611dc4565b60405180910390fd5b61107581611080565b50565b600033905090565b60008060009054906101000a900473ffffffffffffffffffffffffffffffffffffffff169050816000806101000a81548173ffffffffffffffffffffffffffffffffffffffff021916908373ffffffffffffffffffffffffffffffffffffffff1602179055508173ffffffffffffffffffffffffffffffffffffffff168173ffffffffffffffffffffffffffffffffffffffff167f8be0079c531659141344cd1fd0a4f28419497f9722a3daafe3b4186f6b6457e060405160405180910390a35050565b60405180608001604052806000815260200160001515815260200160008152602001600081525090565b82805461117a90611e13565b90600052602060002090601f01602090048101928261119c57600085556111e3565b82601f106111b557805160ff19168380011785556111e3565b828001600101855582156111e3579182015b828111156111e25782518255916020019190600101906111c7565b5b5090506111f0919061128d565b5090565b604051806101200160405280600081526020016000815260200160008152602001600081526020016000815260200160008152602001600073ffffffffffffffffffffffffffffffffffffffff16815260200160008152602001600081525090565b60405180606001604052806000815260200160008152602001600073ffffffffffffffffffffffffffffffffffffffff1681525090565b5b808211156112a657600081600090555060010161128e565b5090565b7f4e487b7100000000000000000000000000000000000000000000000000000000600052602160045260246000fd5b600681106112ea576112e96112aa565b5b50565b60008190506112fb826112d9565b919050565b600061130b826112ed565b9050919050565b61131b81611300565b82525050565b60006020820190506113366000830184611312565b92915050565b6000604051905090565b600080fd5b600080fd5b600080fd5b600080fd5b6000601f19601f8301169050919050565b7f4e487b7100000000000000000000000000000000000000000000000000000000600052604160045260246000fd5b6113a38261135a565b810181811067ffffffffffffffff821117156113c2576113c161136b565b5b80604052505050565b60006113d561133c565b90506113e1828261139a565b919050565b600067ffffffffffffffff8211156114015761140061136b565b5b61140a8261135a565b9050602081019050919050565b82818337600083830152505050565b6000611439611434846113e6565b6113cb565b90508281526020810184848401111561145557611454611355565b5b611460848285611417565b509392505050565b600082601f83011261147d5761147c611350565b5b813561148d848260208601611426565b91505092915050565b600381106114a357600080fd5b50565b6000813590506114b581611496565b92915050565b6000819050919050565b6114ce816114bb565b81146114d957600080fd5b50565b6000813590506114eb816114c5565b92915050565b6000806000806080858703121561150b5761150a611346565b5b600085013567ffffffffffffffff8111156115295761152861134b565b5b61153587828801611468565b9450506020611546878288016114a6565b9350506040611557878288016114dc565b9250506060611568878288016114dc565b91505092959194509250565b61157d816114bb565b82525050565b60006020820190506115986000830184611574565b92915050565b6000806000606084860312156115b7576115b6611346565b5b60006115c5868287016114dc565b93505060206115d6868287016114dc565b92505060406115e7868287016114dc565b9150509250925092565b60008115159050919050565b611606816115f1565b811461161157600080fd5b50565b600081359050611623816115fd565b92915050565b60006020828403121561163f5761163e611346565b5b600061164d84828501611614565b91505092915050565b600073ffffffffffffffffffffffffffffffffffffffff82169050919050565b600061168182611656565b9050919050565b61169181611676565b82525050565b60006020820190506116ac6000830184611688565b92915050565b6000602082840312156116c8576116c7611346565b5b60006116d6848285016114dc565b91505092915050565b6116e881611676565b81146116f357600080fd5b50565b600081359050611705816116df565b92915050565b60006020828403121561172157611720611346565b5b600061172f848285016116f6565b91505092915050565b600082825260208201905092915050565b7f5468657265206d757374206265206174206c65617374206f6e65206c6f74206460008201527f6566696e65642e00000000000000000000000000000000000000000000000000602082015250565b60006117a5602783611738565b91506117b082611749565b604082019050919050565b600060208201905081810360008301526117d481611798565b9050919050565b7f42696464657220616c726561647920636f6e6669726d65640000000000000000600082015250565b6000611811601883611738565b915061181c826117db565b602082019050919050565b6000602082019050818103600083015261184081611804565b9050919050565b7f546865206465706f73697420666f7220636f6e6669726d20696e73637269707460008201527f696f6e204d55535420626520657175616c206f7220677265617465722074686160208201527f6e207465682067756172616e746565206465706f7369742e0000000000000000604082015250565b60006118c9605883611738565b91506118d482611847565b606082019050919050565b600060208201905081810360008301526118f8816118bc565b9050919050565b60008151905061190e816116df565b92915050565b60006020828403121561192a57611929611346565b5b6000611938848285016118ff565b91505092915050565b7f436f6e6669726d65642062696464657220696e736372697074696f6e2e000000600082015250565b6000611977601d83611738565b915061198282611941565b602082019050919050565b600060208201905081810360008301526119a68161196a565b9050919050565b7f4f776e61626c653a2063616c6c6572206973206e6f7420746865206f776e6572600082015250565b60006119e3602083611738565b91506119ee826119ad565b602082019050919050565b60006020820190508181036000830152611a12816119d6565b9050919050565b7f41756374696f6e20616c726561647920696e697469616c697a65640000000000600082015250565b6000611a4f601b83611738565b9150611a5a82611a19565b602082019050919050565b60006020820190508181036000830152611a7e81611a42565b9050919050565b7f41756374696f6e206973204e4f5420696e697469616c697a65642e20496e697460008201527f69616c697a652061756374696f6e206265666f726520616464696e67206c6f7460208201527f732e000000000000000000000000000000000000000000000000000000000000604082015250565b6000611b07604283611738565b9150611b1282611a85565b606082019050919050565b60006020820190508181036000830152611b3681611afa565b9050919050565b7f5265616c2053746174652061756374696f6e73206f6e6c7920616c6c6f77732060008201527f6f6e65206c6f7400000000000000000000000000000000000000000000000000602082015250565b6000611b99602783611738565b9150611ba482611b3d565b604082019050919050565b60006020820190508181036000830152611bc881611b8c565b9050919050565b7f43616e74277420616464206d6f7265206c6f7473207468616e20646566696e6460008201527f656420696e20746f74616c41756374696f6e4c6f747300000000000000000000602082015250565b6000611c2b603683611738565b9150611c3682611bcf565b604082019050919050565b60006020820190508181036000830152611c5a81611c1e565b9050919050565b7f4e487b7100000000000000000000000000000000000000000000000000000000600052601160045260246000fd5b6000611c9b826114bb565b9150611ca6836114bb565b9250827fffffffffffffffffffffffffffffffffffffffffffffffffffffffffffffffff03821115611cdb57611cda611c61565b5b828201905092915050565b7f426964646572206973206e6f7420636f6e6669726d6564000000000000000000600082015250565b6000611d1c601783611738565b9150611d2782611ce6565b602082019050919050565b60006020820190508181036000830152611d4b81611d0f565b9050919050565b7f4f776e61626c653a206e6577206f776e657220697320746865207a65726f206160008201527f6464726573730000000000000000000000000000000000000000000000000000602082015250565b6000611dae602683611738565b9150611db982611d52565b604082019050919050565b60006020820190508181036000830152611ddd81611da1565b9050919050565b7f4e487b7100000000000000000000000000000000000000000000000000000000600052602260045260246000fd5b60006002820490506001821680611e2b57607f821691505b60208210811415611e3f57611e3e611de4565b5b5091905056fea26469706673582212209f99cb6297db75fe17614e48a4db73b4169f5a046706f840efcbacc07d7213dd64736f6c634300080a0033",
  "immutableReferences": {},
  "source": "// SPDX-License-Identifier: MIT\npragma solidity >=0.4.22 <0.9.0;\n\nimport \"@openzeppelin/contracts/access/Ownable.sol\";\n\n/***\n * This contract implementas public auctions at Supreme Court in Buenos Aires Province @ Argetina.\n */\n\ncontract AuctionsSCBA is Ownable {\n    \n    // Events\n\n    event evt_bidderConfirmedInscription(address indexed sender, string message);\n    \n    // Custom data types\n\n    enum AuctionClass {REAL_STATE,MOBILE,MOBILE_REGISTER}\n    enum AuctionState {NO_INIT,INIT,LOT,STARTED,EXTENDED,ENDED}\n    struct AuctionLot {\n        uint lotId_;\n        uint startDate_;\n        uint endDate_;\n        uint baseValue_;\n        uint extendedEndDate_;\n        uint extensionsCount_;\n        address winner_;\n        uint winnerTranche_;\n        uint lastTrancheId_;\n    }\n    struct Auction {\n        string auctionCode_;\n        AuctionClass auctionClass_;\n        uint guaranteeDeposit_;\n        uint totalAuctionLots_;\n    }\n    struct Bidder {\n        uint guaranteeDeposit_; // Deposited amount in wei for confirm auction inscription\n        bool preserveLastBid_;  // If he wants to preserve his last bid in case the winner doesn't confirm the buy. \n                               // if preserve bid is true, the bidder cannot withdraw founds after auction ending.\n        uint secretBidAmount_;  // top limit amount for wich the contract will push bids in behalf the bidder. \n        uint lastBidderTrancheId_; // last correct bid amount for this bidder.\n    }\n    struct AuctionTranches {\n        uint trancheId_;\n        uint trancheValue_;\n        address trancheBidder_;\n    }\n\n    // State Variables\n\n    AuctionLot[] private _auctionLots; // Auction lots array\n    AuctionState private _auctionState; // Actual auction state\n    Auction private _auctionObject; // Instance of auction data\n    mapping (address => Bidder) private _validBidders; // Valid registered bidders\n    mapping (uint => AuctionTranches) private _tranchesPerLot;\n    uint private  _lastTrancheId; // Last valid received bid \n    address private _lastBidderAddress; // Last bidder with a valid bid accepted\n\n   // Constructor\n\n    constructor () {\n      _auctionState = AuctionState.NO_INIT;\n      _lastTrancheId = 0;\n    }\n\n    // Receive functions\n\n    function confirmBidderInscription(bool _preserveGuranteeDeposit) external payable {\n        _confirmBidderInscription(msg.sender, msg.value, _preserveGuranteeDeposit);\n    }\n\n    // Fallback function\n\n    receive() external payable {\n       _confirmBidderInscription(msg.sender, msg.value,false); \n    } \n\n    // External Functions\n\n    function auctionInit(\n        string memory __auctionCode,\n        AuctionClass __auctionClass, \n        uint __guaranteeDeposit, \n        uint __totalAuctionLots\n    ) external onlyOwner  {\n        require(_auctionState  == AuctionState.NO_INIT, \"Auction already initialized\");\n        _auctionState = AuctionState.INIT;\n        _auctionObject.auctionCode_ = __auctionCode;\n        _auctionObject.auctionClass_ = __auctionClass;\n        _auctionObject.guaranteeDeposit_ = __guaranteeDeposit;\n        _auctionObject.totalAuctionLots_ = __totalAuctionLots;\n    }\n\n    function auctionAddLot(uint __startDate, uint __endDate, uint __baseValue) external onlyOwner {\n        require(_auctionState == AuctionState.INIT || _auctionState == AuctionState.LOT ,\"Auction is NOT initialized. Initialize auction before adding lots.\");\n        // Can't add more tha one lot if the auction class is Realstate\n        if (_auctionObject.auctionClass_ == AuctionClass.REAL_STATE && _auctionLots.length == 1) { revert(\"Real State auctions only allows one lot\"); }\n        if (_auctionLots.length > _auctionObject.totalAuctionLots_) { revert(\"Cant't add more lots than definded in totalAuctionLots\"); }\n        AuctionLot memory tmpLot;\n        AuctionTranches memory tmpTranches;\n        _auctionState = AuctionState.LOT;\n         _lastTrancheId += 1;\n        tmpLot.lotId_ = _auctionLots.length + 1;  //Start at lot 1\n        tmpLot.extensionsCount_ = 0;\n        tmpLot.startDate_ = __startDate;\n        tmpLot.endDate_ = __endDate;\n        tmpLot.extendedEndDate_ = __endDate;\n        tmpLot.winnerTranche_ = 0;\n        tmpLot.baseValue_ = __baseValue;\n        tmpLot.lastTrancheId_ = 0;\n        _auctionLots.push(tmpLot); // Add lot to lot array\n        tmpTranches.trancheId_ = _lastTrancheId; // Start at tranche 1\n        tmpTranches.trancheValue_ = __baseValue;\n        _tranchesPerLot[tmpTranches.trancheId_] = tmpTranches; // add tranche data to auctionTranches mapping;\n    }  \n\n    // Public Functions\n\n    function getAuctionState() public view returns (AuctionState) {\n        return _auctionState;\n    }\n    \n    // Get contract address blance (sum of all guarantee deposits for each confirmed bidder)\n    function getAuctionBalance() public view returns(uint) {\n        return address(this).balance;\n    }\n    \n    function bidderSetPreservelastBid(bool _value) public {\n        require(_auctionState == AuctionState.LOT,\"There must be at least one lot defined.\"); \n        require(_validBidders[msg.sender].guaranteeDeposit_ > 0,\"Bidder is not confirmed\"); \n        require((msg.sender != this.owner()));\n        \n        _validBidders[msg.sender].preserveLastBid_ = _value;\n\n    }\n\n    function bidderSetMaximunSecretBid(uint _value) public {\n        require(_auctionState == AuctionState.LOT,\"There must be at least one lot defined.\"); \n        require(_validBidders[msg.sender].guaranteeDeposit_ > 0,\"Bidder is not confirmed\"); \n        require((msg.sender != this.owner()));\n        \n        _validBidders[msg.sender].secretBidAmount_ = _value;\n\n    }\n\n    // Internal Functions\n\n    function _confirmBidderInscription(address _bidderAddress, uint _depositAmount, bool _preserveGuaranteeDeposit) internal     {\n        Bidder memory _tmpBidder;\n        _tmpBidder.guaranteeDeposit_ = _depositAmount;\n        _tmpBidder.preserveLastBid_ = _preserveGuaranteeDeposit;\n        _tmpBidder.secretBidAmount_ = 0;\n        _tmpBidder.lastBidderTrancheId_ = 0;\n\n        require(_auctionState == AuctionState.LOT,\"There must be at least one lot defined.\"); \n        require(_validBidders[_bidderAddress].guaranteeDeposit_ == 0,\"Bidder already confirmed\"); \n        require(_depositAmount >= _auctionObject.guaranteeDeposit_,\"The deposit for confirm inscription MUST be equal or greater than teh guarantee deposit.\");\n        require((msg.sender != this.owner()));\n\n        _validBidders[_bidderAddress] = _tmpBidder;\n        emit evt_bidderConfirmedInscription(_bidderAddress,\"Confirmed bidder inscription.\");\n    }\n\n    // Implementar funciones para obtener info de la subasta\n    // Lotes\n    // Tramos\n    // Postores inscriptos\n}\n",
  "sourcePath": "/home/gperez/proyectos/subastas/contracts/AuctionsSCBA.sol",
  "compiler": {
    "name": "solc",
    "version": "0.8.10+commit.fc410830.Emscripten.clang"
  },
  "schemaVersion": "3.4.3",
  "updatedAt": "2021-12-11T22:36:51.819Z",
  "devdoc": {
    "kind": "dev",
    "methods": {
      "owner()": {
        "details": "Returns the address of the current owner."
      },
      "renounceOwnership()": {
        "details": "Leaves the contract without owner. It will not be possible to call `onlyOwner` functions anymore. Can only be called by the current owner. NOTE: Renouncing ownership will leave the contract without an owner, thereby removing any functionality that is only available to the owner."
      },
      "transferOwnership(address)": {
        "details": "Transfers ownership of the contract to a new account (`newOwner`). Can only be called by the current owner."
      }
    },
    "version": 1
  },
  "userdoc": {
    "kind": "user",
    "methods": {},
    "version": 1
  }
}