{
  "contractName": "AuctionsSCBA",
  "abi": [
    {
      "inputs": [],
      "stateMutability": "nonpayable",
      "type": "constructor"
    },
    {
      "anonymous": false,
      "inputs": [
        {
          "indexed": true,
          "internalType": "address",
          "name": "previousOwner",
          "type": "address"
        },
        {
          "indexed": true,
          "internalType": "address",
          "name": "newOwner",
          "type": "address"
        }
      ],
      "name": "OwnershipTransferred",
      "type": "event"
    },
    {
      "anonymous": false,
      "inputs": [
        {
          "indexed": false,
          "internalType": "uint256",
          "name": "timeStamp",
          "type": "uint256"
        },
        {
          "indexed": false,
          "internalType": "string",
          "name": "auctionID",
          "type": "string"
        },
        {
          "indexed": false,
          "internalType": "string",
          "name": "cause",
          "type": "string"
        }
      ],
      "name": "evt_auctionCanceled",
      "type": "event"
    },
    {
      "anonymous": false,
      "inputs": [
        {
          "indexed": false,
          "internalType": "uint256",
          "name": "timeStamp",
          "type": "uint256"
        },
        {
          "indexed": false,
          "internalType": "string",
          "name": "auctionID",
          "type": "string"
        }
      ],
      "name": "evt_auctionStart",
      "type": "event"
    },
    {
      "anonymous": false,
      "inputs": [
        {
          "indexed": true,
          "internalType": "address",
          "name": "sender",
          "type": "address"
        },
        {
          "indexed": false,
          "internalType": "string",
          "name": "message",
          "type": "string"
        }
      ],
      "name": "evt_bidderConfirmedInscription",
      "type": "event"
    },
    {
      "inputs": [],
      "name": "owner",
      "outputs": [
        {
          "internalType": "address",
          "name": "",
          "type": "address"
        }
      ],
      "stateMutability": "view",
      "type": "function"
    },
    {
      "inputs": [],
      "name": "renounceOwnership",
      "outputs": [],
      "stateMutability": "nonpayable",
      "type": "function"
    },
    {
      "inputs": [
        {
          "internalType": "address",
          "name": "newOwner",
          "type": "address"
        }
      ],
      "name": "transferOwnership",
      "outputs": [],
      "stateMutability": "nonpayable",
      "type": "function"
    },
    {
      "stateMutability": "payable",
      "type": "receive"
    },
    {
      "inputs": [
        {
          "internalType": "bool",
          "name": "_preserveGuranteeDeposit",
          "type": "bool"
        }
      ],
      "name": "confirmBidderInscription",
      "outputs": [],
      "stateMutability": "payable",
      "type": "function"
    },
    {
      "inputs": [
        {
          "internalType": "string",
          "name": "__auctionCode",
          "type": "string"
        },
        {
          "internalType": "enum AuctionsSCBA.AuctionClass",
          "name": "__auctionClass",
          "type": "uint8"
        },
        {
          "internalType": "uint256",
          "name": "__guaranteeDeposit",
          "type": "uint256"
        },
        {
          "internalType": "uint256",
          "name": "__totalAuctionLots",
          "type": "uint256"
        },
        {
          "internalType": "uint256",
          "name": "__startDate",
          "type": "uint256"
        },
        {
          "internalType": "uint256",
          "name": "__endDate",
          "type": "uint256"
        }
      ],
      "name": "auctionInit",
      "outputs": [],
      "stateMutability": "nonpayable",
      "type": "function"
    },
    {
      "inputs": [
        {
          "internalType": "uint256",
          "name": "__baseValue",
          "type": "uint256"
        }
      ],
      "name": "auctionAddLot",
      "outputs": [],
      "stateMutability": "nonpayable",
      "type": "function"
    },
    {
      "inputs": [],
      "name": "auctionStart",
      "outputs": [],
      "stateMutability": "nonpayable",
      "type": "function"
    },
    {
      "inputs": [
        {
          "internalType": "string",
          "name": "_cause",
          "type": "string"
        }
      ],
      "name": "auctionCancel",
      "outputs": [],
      "stateMutability": "nonpayable",
      "type": "function"
    },
    {
      "inputs": [],
      "name": "getAuctionState",
      "outputs": [
        {
          "internalType": "enum AuctionsSCBA.AuctionState",
          "name": "",
          "type": "uint8"
        }
      ],
      "stateMutability": "view",
      "type": "function"
    },
    {
      "inputs": [],
      "name": "getAuctionBalance",
      "outputs": [
        {
          "internalType": "uint256",
          "name": "",
          "type": "uint256"
        }
      ],
      "stateMutability": "view",
      "type": "function"
    },
    {
      "inputs": [],
      "name": "getConfirmedBiddders",
      "outputs": [
        {
          "internalType": "uint256",
          "name": "",
          "type": "uint256"
        }
      ],
      "stateMutability": "view",
      "type": "function"
    },
    {
      "inputs": [
        {
          "internalType": "address",
          "name": "_queryBidder",
          "type": "address"
        }
      ],
      "name": "isBidderConfirmed",
      "outputs": [
        {
          "internalType": "bool",
          "name": "",
          "type": "bool"
        }
      ],
      "stateMutability": "view",
      "type": "function"
    },
    {
      "inputs": [],
      "name": "getAuctionStartDate",
      "outputs": [
        {
          "internalType": "uint256",
          "name": "",
          "type": "uint256"
        }
      ],
      "stateMutability": "view",
      "type": "function"
    },
    {
      "inputs": [],
      "name": "getAuctionEndtDate",
      "outputs": [
        {
          "internalType": "uint256",
          "name": "",
          "type": "uint256"
        }
      ],
      "stateMutability": "view",
      "type": "function"
    },
    {
      "inputs": [],
      "name": "getAuctionClass",
      "outputs": [
        {
          "internalType": "enum AuctionsSCBA.AuctionClass",
          "name": "",
          "type": "uint8"
        }
      ],
      "stateMutability": "view",
      "type": "function"
    },
    {
      "inputs": [
        {
          "internalType": "uint256",
          "name": "_lotId",
          "type": "uint256"
        }
      ],
      "name": "getActualTranche",
      "outputs": [
        {
          "internalType": "uint256",
          "name": "",
          "type": "uint256"
        },
        {
          "internalType": "uint256",
          "name": "",
          "type": "uint256"
        }
      ],
      "stateMutability": "view",
      "type": "function"
    },
    {
      "inputs": [
        {
          "internalType": "uint256",
          "name": "_lotId",
          "type": "uint256"
        }
      ],
      "name": "getLastTranche",
      "outputs": [
        {
          "internalType": "uint256",
          "name": "",
          "type": "uint256"
        },
        {
          "internalType": "uint256",
          "name": "",
          "type": "uint256"
        },
        {
          "internalType": "address",
          "name": "",
          "type": "address"
        }
      ],
      "stateMutability": "view",
      "type": "function"
    },
    {
      "inputs": [
        {
          "internalType": "uint256",
          "name": "_lotId",
          "type": "uint256"
        },
        {
          "internalType": "address",
          "name": "_bidder",
          "type": "address"
        }
      ],
      "name": "getBidderMaximunSecretBidTranche",
      "outputs": [
        {
          "internalType": "uint256",
          "name": "",
          "type": "uint256"
        }
      ],
      "stateMutability": "view",
      "type": "function"
    },
    {
      "inputs": [
        {
          "internalType": "uint256",
          "name": "_lotId",
          "type": "uint256"
        },
        {
          "internalType": "address",
          "name": "_bidder",
          "type": "address"
        }
      ],
      "name": "getBidderMaximunSecretBidAmount",
      "outputs": [
        {
          "internalType": "uint256",
          "name": "",
          "type": "uint256"
        }
      ],
      "stateMutability": "view",
      "type": "function"
    },
    {
      "inputs": [],
      "name": "getLotQuantity",
      "outputs": [
        {
          "internalType": "uint256",
          "name": "",
          "type": "uint256"
        }
      ],
      "stateMutability": "view",
      "type": "function"
    },
    {
      "inputs": [
        {
          "internalType": "uint256",
          "name": "_lotId",
          "type": "uint256"
        }
      ],
      "name": "getLotBaseValue",
      "outputs": [
        {
          "internalType": "uint256",
          "name": "",
          "type": "uint256"
        }
      ],
      "stateMutability": "view",
      "type": "function"
    },
    {
      "inputs": [
        {
          "internalType": "uint256",
          "name": "_lotId",
          "type": "uint256"
        },
        {
          "internalType": "uint256",
          "name": "_trancheId",
          "type": "uint256"
        }
      ],
      "name": "getLotTrancheValue",
      "outputs": [
        {
          "internalType": "uint256",
          "name": "",
          "type": "uint256"
        }
      ],
      "stateMutability": "view",
      "type": "function"
    },
    {
      "inputs": [
        {
          "internalType": "bool",
          "name": "_value",
          "type": "bool"
        }
      ],
      "name": "bidderSetPreservelastBid",
      "outputs": [],
      "stateMutability": "nonpayable",
      "type": "function"
    },
    {
      "inputs": [
        {
          "internalType": "uint256",
          "name": "_lotId",
          "type": "uint256"
        },
        {
          "internalType": "uint256",
          "name": "_value",
          "type": "uint256"
        }
      ],
      "name": "bidderSetMaximunSecretBidAmount",
      "outputs": [],
      "stateMutability": "nonpayable",
      "type": "function"
    },
    {
      "inputs": [
        {
          "internalType": "uint256",
          "name": "_lotId",
          "type": "uint256"
        },
        {
          "internalType": "uint256",
          "name": "_value",
          "type": "uint256"
        }
      ],
      "name": "bidderSetMaximunSecretBidTranche",
      "outputs": [],
      "stateMutability": "nonpayable",
      "type": "function"
    }
  ],
  "bytecode": "0x60806040523480156200001157600080fd5b5062000032620000266200006e60201b60201c565b6200007660201b60201c565b6000600260006101000a81548160ff021916908360068111156200005b576200005a6200013a565b5b02179055506000600b8190555062000169565b600033905090565b60008060009054906101000a900473ffffffffffffffffffffffffffffffffffffffff169050816000806101000a81548173ffffffffffffffffffffffffffffffffffffffff021916908373ffffffffffffffffffffffffffffffffffffffff1602179055508173ffffffffffffffffffffffffffffffffffffffff168173ffffffffffffffffffffffffffffffffffffffff167f8be0079c531659141344cd1fd0a4f28419497f9722a3daafe3b4186f6b6457e060405160405180910390a35050565b7f4e487b7100000000000000000000000000000000000000000000000000000000600052602160045260246000fd5b613b4d80620001796000396000f3fe60806040526004361061016a5760003560e01c806376b8d8c7116100d1578063c455d0cb1161008a578063dad7277c11610064578063dad7277c14610525578063f0c019df14610562578063f1c7823f1461058b578063f2fde38b146105c85761017d565b8063c455d0cb146104b5578063d262c0e5146104e0578063d6985621146105095761017d565b806376b8d8c7146103905780637786ce34146103bb5780637e360c41146103e657806387368926146104245780638da5cb5b1461044d57806395791d2e146104785761017d565b806359ec35d81161012357806359ec35d8146102825780635e464d51146102bf57806361dd3bcc146102e8578063634763b614610311578063715018a61461033a578063728194ee146103515761017d565b806308bfc3001461018257806314558c26146101ad5780631499cf11146101ea57806325a35e73146102155780634a8bb6ed146102405780634f245ef71461026b5761017d565b3661017d5761017b333460006105f1565b005b600080fd5b34801561018e57600080fd5b506101976109cf565b6040516101a491906126f4565b60405180910390f35b3480156101b957600080fd5b506101d460048036038101906101cf91906127b7565b6109e6565b6040516101e19190612806565b60405180910390f35b3480156101f657600080fd5b506101ff610ae0565b60405161020c9190612806565b60405180910390f35b34801561022157600080fd5b5061022a610aed565b6040516102379190612806565b60405180910390f35b34801561024c57600080fd5b50610255610af5565b6040516102629190612806565b60405180910390f35b34801561027757600080fd5b50610280610aff565b005b34801561028e57600080fd5b506102a960048036038101906102a49190612821565b610b85565b6040516102b69190612869565b60405180910390f35b3480156102cb57600080fd5b506102e660048036038101906102e191906129ca565b610c4a565b005b3480156102f457600080fd5b5061030f600480360381019061030a9190612a3f565b610cd2565b005b34801561031d57600080fd5b5061033860048036038101906103339190612a6c565b610ed1565b005b34801561034657600080fd5b5061034f611160565b005b34801561035d57600080fd5b5061037860048036038101906103739190612aac565b6111e8565b60405161038793929190612ae8565b60405180910390f35b34801561039c57600080fd5b506103a5611317565b6040516103b29190612806565b60405180910390f35b3480156103c757600080fd5b506103d0611324565b6040516103dd9190612806565b60405180910390f35b3480156103f257600080fd5b5061040d60048036038101906104089190612aac565b611331565b60405161041b929190612b1f565b60405180910390f35b34801561043057600080fd5b5061044b60048036038101906104469190612a6c565b611412565b005b34801561045957600080fd5b50610462611780565b60405161046f9190612b48565b60405180910390f35b34801561048457600080fd5b5061049f600480360381019061049a91906127b7565b6117a9565b6040516104ac9190612806565b60405180910390f35b3480156104c157600080fd5b506104ca611894565b6040516104d79190612bab565b60405180910390f35b3480156104ec57600080fd5b5061050760048036038101906105029190612aac565b6118ae565b005b610523600480360381019061051e9190612a3f565b611c2e565b005b34801561053157600080fd5b5061054c60048036038101906105479190612a6c565b611c3c565b6040516105599190612806565b60405180910390f35b34801561056e57600080fd5b5061058960048036038101906105849190612beb565b611c50565b005b34801561059757600080fd5b506105b260048036038101906105ad9190612aac565b611de3565b6040516105bf9190612806565b60405180910390f35b3480156105d457600080fd5b506105ef60048036038101906105ea9190612821565b611e1d565b005b6105f96124ba565b60006001805490509050600260068111156106175761061661267d565b5b600260009054906101000a900460ff1660068111156106395761063861267d565b5b14610679576040517f08c379a000000000000000000000000000000000000000000000000000000000815260040161067090612d17565b60405180910390fd5b6000600960008773ffffffffffffffffffffffffffffffffffffffff1673ffffffffffffffffffffffffffffffffffffffff16815260200190815260200160002060000154146106fe576040517f08c379a00000000000000000000000000000000000000000000000000000000081526004016106f590612d83565b60405180910390fd5b600360020154841015610746576040517f08c379a000000000000000000000000000000000000000000000000000000000815260040161073d90612e3b565b60405180910390fd5b60036004015442111561078e576040517f08c379a000000000000000000000000000000000000000000000000000000000815260040161078590612ecd565b60405180910390fd5b3073ffffffffffffffffffffffffffffffffffffffff16638da5cb5b6040518163ffffffff1660e01b8152600401602060405180830381865afa1580156107d9573d6000803e3d6000fd5b505050506040513d601f19601f820116820180604052508101906107fd9190612f02565b73ffffffffffffffffffffffffffffffffffffffff163373ffffffffffffffffffffffffffffffffffffffff16141561083557600080fd5b838260000181815250508282602001901515908115158152505081600960008773ffffffffffffffffffffffffffffffffffffffff1673ffffffffffffffffffffffffffffffffffffffff1681526020019081526020016000206000820151816000015560208201518160010160006101000a81548160ff02191690831515021790555060408201518160020190805190602001906108d59291906124dd565b5090505060005b8181101561096157600960008773ffffffffffffffffffffffffffffffffffffffff1673ffffffffffffffffffffffffffffffffffffffff16815260200190815260200160002060020160009080600181540180825580915050600190039060005260206000200160009091909190915055808061095990612f5e565b9150506108dc565b506001600b60008282546109759190612fa7565b925050819055508473ffffffffffffffffffffffffffffffffffffffff167f2bcb2fe5b94813e883d2308e17a49fb21fb91863c646b56c2dbeb3069bd739116040516109c090613049565b60405180910390a25050505050565b6000600260009054906101000a900460ff16905090565b6000600260068111156109fc576109fb61267d565b5b600260009054906101000a900460ff166006811115610a1e57610a1d61267d565b5b14610a5e576040517f08c379a0000000000000000000000000000000000000000000000000000000008152600401610a5590612d17565b60405180910390fd5b6000600960008473ffffffffffffffffffffffffffffffffffffffff1673ffffffffffffffffffffffffffffffffffffffff168152602001908152602001600020600201600185610aaf9190613069565b81548110610ac057610abf61309d565b5b90600052602060002001549050610ad78482611f15565b91505092915050565b6000600360040154905090565b600047905090565b6000600b54905090565b610b07611f89565b73ffffffffffffffffffffffffffffffffffffffff16610b25611780565b73ffffffffffffffffffffffffffffffffffffffff1614610b7b576040517f08c379a0000000000000000000000000000000000000000000000000000000008152600401610b7290613118565b60405180910390fd5b610b83611f91565b565b600060026006811115610b9b57610b9a61267d565b5b600260009054906101000a900460ff166006811115610bbd57610bbc61267d565b5b14610bfd576040517f08c379a0000000000000000000000000000000000000000000000000000000008152600401610bf490612d17565b60405180910390fd5b6000600960008473ffffffffffffffffffffffffffffffffffffffff1673ffffffffffffffffffffffffffffffffffffffff16815260200190815260200160002060000154119050919050565b610c52611f89565b73ffffffffffffffffffffffffffffffffffffffff16610c70611780565b73ffffffffffffffffffffffffffffffffffffffff1614610cc6576040517f08c379a0000000000000000000000000000000000000000000000000000000008152600401610cbd90613118565b60405180910390fd5b610ccf81612104565b50565b60026006811115610ce657610ce561267d565b5b600260009054906101000a900460ff166006811115610d0857610d0761267d565b5b14610d48576040517f08c379a0000000000000000000000000000000000000000000000000000000008152600401610d3f90612d17565b60405180910390fd5b6000600960003373ffffffffffffffffffffffffffffffffffffffff1673ffffffffffffffffffffffffffffffffffffffff1681526020019081526020016000206000015411610dcd576040517f08c379a0000000000000000000000000000000000000000000000000000000008152600401610dc490613184565b60405180910390fd5b3073ffffffffffffffffffffffffffffffffffffffff16638da5cb5b6040518163ffffffff1660e01b8152600401602060405180830381865afa158015610e18573d6000803e3d6000fd5b505050506040513d601f19601f82011682018060405250810190610e3c9190612f02565b73ffffffffffffffffffffffffffffffffffffffff163373ffffffffffffffffffffffffffffffffffffffff161415610e7457600080fd5b80600960003373ffffffffffffffffffffffffffffffffffffffff1673ffffffffffffffffffffffffffffffffffffffff16815260200190815260200160002060010160006101000a81548160ff02191690831515021790555050565b60026006811115610ee557610ee461267d565b5b600260009054906101000a900460ff166006811115610f0757610f0661267d565b5b14610f47576040517f08c379a0000000000000000000000000000000000000000000000000000000008152600401610f3e90612d17565b60405180910390fd5b6000600960003373ffffffffffffffffffffffffffffffffffffffff1673ffffffffffffffffffffffffffffffffffffffff1681526020019081526020016000206000015411610fcc576040517f08c379a0000000000000000000000000000000000000000000000000000000008152600401610fc390613184565b60405180910390fd5b3073ffffffffffffffffffffffffffffffffffffffff16638da5cb5b6040518163ffffffff1660e01b8152600401602060405180830381865afa158015611017573d6000803e3d6000fd5b505050506040513d601f19601f8201168201806040525081019061103b9190612f02565b73ffffffffffffffffffffffffffffffffffffffff163373ffffffffffffffffffffffffffffffffffffffff1614156110a9576040517f08c379a00000000000000000000000000000000000000000000000000000000081526004016110a090613216565b60405180910390fd5b60018110156110ed576040517f08c379a00000000000000000000000000000000000000000000000000000000081526004016110e4906132a8565b60405180910390fd5b80600960003373ffffffffffffffffffffffffffffffffffffffff1673ffffffffffffffffffffffffffffffffffffffff16815260200190815260200160002060020160018461113d9190613069565b8154811061114e5761114d61309d565b5b90600052602060002001819055505050565b611168611f89565b73ffffffffffffffffffffffffffffffffffffffff16611186611780565b73ffffffffffffffffffffffffffffffffffffffff16146111dc576040517f08c379a00000000000000000000000000000000000000000000000000000000081526004016111d390613118565b60405180910390fd5b6111e6600061222f565b565b600080600080600080600260068111156112055761120461267d565b5b600260009054906101000a900460ff1660068111156112275761122661267d565b5b14611267576040517f08c379a000000000000000000000000000000000000000000000000000000000815260040161125e90612d17565b60405180910390fd5b600180886112759190613069565b815481106112865761128561309d565b5b90600052602060002090600a0201600901549250600a60006001896112ab9190613069565b8152602001908152602001600020600101549150600a60006001896112d09190613069565b815260200190815260200160002060020160009054906101000a900473ffffffffffffffffffffffffffffffffffffffff1690508282829550955095505050509193909250565b6000600180549050905090565b6000600360050154905090565b6000806000806002600681111561134b5761134a61267d565b5b600260009054906101000a900460ff16600681111561136d5761136c61267d565b5b146113ad576040517f08c379a00000000000000000000000000000000000000000000000000000000081526004016113a490612d17565b60405180910390fd5b600180866113bb9190613069565b815481106113cc576113cb61309d565b5b90600052602060002090600a0201600901549150600a60006001876113f19190613069565b81526020019081526020016000206001015490508181935093505050915091565b600260068111156114265761142561267d565b5b600260009054906101000a900460ff1660068111156114485761144761267d565b5b14611488576040517f08c379a000000000000000000000000000000000000000000000000000000000815260040161147f90612d17565b60405180910390fd5b6000600960003373ffffffffffffffffffffffffffffffffffffffff1673ffffffffffffffffffffffffffffffffffffffff168152602001908152602001600020600001541161150d576040517f08c379a000000000000000000000000000000000000000000000000000000000815260040161150490613184565b60405180910390fd5b3073ffffffffffffffffffffffffffffffffffffffff16638da5cb5b6040518163ffffffff1660e01b8152600401602060405180830381865afa158015611558573d6000803e3d6000fd5b505050506040513d601f19601f8201168201806040525081019061157c9190612f02565b73ffffffffffffffffffffffffffffffffffffffff163373ffffffffffffffffffffffffffffffffffffffff1614156115ea576040517f08c379a00000000000000000000000000000000000000000000000000000000081526004016115e190613216565b60405180910390fd5b600180836115f89190613069565b815481106116095761160861309d565b5b90600052602060002090600a020160030154811161165c576040517f08c379a00000000000000000000000000000000000000000000000000000000081526004016116539061333a565b60405180910390fd5b60008060056064600180876116719190613069565b815481106116825761168161309d565b5b90600052602060002090600a02016003015461169e9190613389565b6116a891906133ba565b9050600181600180876116bb9190613069565b815481106116cc576116cb61309d565b5b90600052602060002090600a020160030154856116e99190613069565b6116f39190613389565b6116fd9190612fa7565b915060018261170c9190613069565b600960003373ffffffffffffffffffffffffffffffffffffffff1673ffffffffffffffffffffffffffffffffffffffff16815260200190815260200160002060020160018661175b9190613069565b8154811061176c5761176b61309d565b5b906000526020600020018190555050505050565b60008060009054906101000a900473ffffffffffffffffffffffffffffffffffffffff16905090565b6000600260068111156117bf576117be61267d565b5b600260009054906101000a900460ff1660068111156117e1576117e061267d565b5b14611821576040517f08c379a000000000000000000000000000000000000000000000000000000000815260040161181890612d17565b60405180910390fd5b600960008373ffffffffffffffffffffffffffffffffffffffff1673ffffffffffffffffffffffffffffffffffffffff1681526020019081526020016000206002016001846118709190613069565b815481106118815761188061309d565b5b9060005260206000200154905092915050565b6000600360010160009054906101000a900460ff16905090565b6118b6611f89565b73ffffffffffffffffffffffffffffffffffffffff166118d4611780565b73ffffffffffffffffffffffffffffffffffffffff161461192a576040517f08c379a000000000000000000000000000000000000000000000000000000000815260040161192190613118565b60405180910390fd5b6001600681111561193e5761193d61267d565b5b600260009054906101000a900460ff1660068111156119605761195f61267d565b5b148061199f57506002600681111561197b5761197a61267d565b5b600260009054906101000a900460ff16600681111561199d5761199c61267d565b5b145b6119de576040517f08c379a00000000000000000000000000000000000000000000000000000000081526004016119d5906134ac565b60405180910390fd5b600060028111156119f2576119f161267d565b5b600360010160009054906101000a900460ff166002811115611a1757611a1661267d565b5b148015611a28575060018080549050145b15611a68576040517f08c379a0000000000000000000000000000000000000000000000000000000008152600401611a5f9061353e565b60405180910390fd5b60038001546001805490501115611ab4576040517f08c379a0000000000000000000000000000000000000000000000000000000008152600401611aab906135d0565b60405180910390fd5b611abc61252a565b60028060006101000a81548160ff02191690836006811115611ae157611ae061267d565b5b021790555060018080549050611af79190612fa7565b81600001818152505060008160a001818152505060036004015481602001818152505060036005015481604001818152505060036005015481608001818152505060008160e00181815250508181606001818152505060008161010001818152505060018190806001815401808255809150506001900390600052602060002090600a0201600090919091909150600082015181600001556020820151816001015560408201518160020155606082015181600301556080820151816004015560a0820151816005015560c08201518160060160006101000a81548173ffffffffffffffffffffffffffffffffffffffff021916908373ffffffffffffffffffffffffffffffffffffffff16021790555060e082015181600701556101008201518160080155610120820151816009015550505050565b611c393334836105f1565b50565b6000611c488383611f15565b905092915050565b611c58611f89565b73ffffffffffffffffffffffffffffffffffffffff16611c76611780565b73ffffffffffffffffffffffffffffffffffffffff1614611ccc576040517f08c379a0000000000000000000000000000000000000000000000000000000008152600401611cc390613118565b60405180910390fd5b60006006811115611ce057611cdf61267d565b5b600260009054906101000a900460ff166006811115611d0257611d0161267d565b5b14611d42576040517f08c379a0000000000000000000000000000000000000000000000000000000008152600401611d399061363c565b60405180910390fd5b6001600260006101000a81548160ff02191690836006811115611d6857611d6761267d565b5b02179055508560036000019080519060200190611d86929190612593565b5084600360010160006101000a81548160ff02191690836002811115611daf57611dae61267d565b5b0217905550836003600201819055508260038001819055508160036004018190555080600360050181905550505050505050565b600060018083611df39190613069565b81548110611e0457611e0361309d565b5b90600052602060002090600a0201600301549050919050565b611e25611f89565b73ffffffffffffffffffffffffffffffffffffffff16611e43611780565b73ffffffffffffffffffffffffffffffffffffffff1614611e99576040517f08c379a0000000000000000000000000000000000000000000000000000000008152600401611e9090613118565b60405180910390fd5b600073ffffffffffffffffffffffffffffffffffffffff168173ffffffffffffffffffffffffffffffffffffffff161415611f09576040517f08c379a0000000000000000000000000000000000000000000000000000000008152600401611f00906136ce565b60405180910390fd5b611f128161222f565b50565b60008060018085611f269190613069565b81548110611f3757611f3661309d565b5b90600052602060002090600a02016003015490506000600584611f5a91906133ba565b905060648183611f6a91906133ba565b611f749190613389565b82611f7f9190612fa7565b9250505092915050565b600033905090565b60026006811115611fa557611fa461267d565b5b600260009054906101000a900460ff166006811115611fc757611fc661267d565b5b14612007576040517f08c379a0000000000000000000000000000000000000000000000000000000008152600401611ffe90612d17565b60405180910390fd5b600360040154421015801561202157506003600501544211155b612060576040517f08c379a000000000000000000000000000000000000000000000000000000000815260040161205790613760565b60405180910390fd5b6000600b5414156120915761208c604051806060016040528060258152602001613af360259139612104565b612102565b6003600260006101000a81548160ff021916908360068111156120b7576120b661267d565b5b02179055506120c46122f3565b7fb7dc4d36b2ca1a9476d5e4f14a23c3e629a0fd4f3af8c71c176f1c69d99952634260036000016040516120f9929190613876565b60405180910390a15b565b6006808111156121175761211661267d565b5b600260009054906101000a900460ff1660068111156121395761213861267d565b5b141561217a576040517f08c379a000000000000000000000000000000000000000000000000000000000815260040161217190613918565b60405180910390fd5b6003600501544211156121c2576040517f08c379a00000000000000000000000000000000000000000000000000000000081526004016121b990613984565b60405180910390fd5b6006600260006101000a81548160ff021916908360068111156121e8576121e761267d565b5b02179055507f699708c90a98fcdcc8862c08ac7a618790cf0bb5f4b50bca7487f71263bd92634260036000018360405161222493929190613a1b565b60405180910390a150565b60008060009054906101000a900473ffffffffffffffffffffffffffffffffffffffff169050816000806101000a81548173ffffffffffffffffffffffffffffffffffffffff021916908373ffffffffffffffffffffffffffffffffffffffff1602179055508173ffffffffffffffffffffffffffffffffffffffff168173ffffffffffffffffffffffffffffffffffffffff167f8be0079c531659141344cd1fd0a4f28419497f9722a3daafe3b4186f6b6457e060405160405180910390a35050565b600360068111156123075761230661267d565b5b600260009054906101000a900460ff1660068111156123295761232861267d565b5b14612369576040517f08c379a000000000000000000000000000000000000000000000000000000000815260040161236090613ad2565b60405180910390fd5b6000600180549050905061237b612619565b60005b828110156124b5576001816123939190612fa7565b826000018181525050600181815481106123b0576123af61309d565b5b90600052602060002090600a020160030154826020018181525050600082606001901515908115158152505081600a6000838152602001908152602001600020600082015181600001556020820151816001015560408201518160020160006101000a81548173ffffffffffffffffffffffffffffffffffffffff021916908373ffffffffffffffffffffffffffffffffffffffff16021790555060608201518160020160146101000a81548160ff02191690831515021790555060808201518160030155905050600180828154811061248d5761248c61309d565b5b90600052602060002090600a02016009018190555080806124ad90612f5e565b91505061237e565b505050565b604051806060016040528060008152602001600015158152602001606081525090565b828054828255906000526020600020908101928215612519579160200282015b828111156125185782518255916020019190600101906124fd565b5b5090506125269190612660565b5090565b604051806101400160405280600081526020016000815260200160008152602001600081526020016000815260200160008152602001600073ffffffffffffffffffffffffffffffffffffffff1681526020016000815260200160008152602001600081525090565b82805461259f906137af565b90600052602060002090601f0160209004810192826125c15760008555612608565b82601f106125da57805160ff1916838001178555612608565b82800160010185558215612608579182015b828111156126075782518255916020019190600101906125ec565b5b5090506126159190612660565b5090565b6040518060a001604052806000815260200160008152602001600073ffffffffffffffffffffffffffffffffffffffff168152602001600015158152602001600081525090565b5b80821115612679576000816000905550600101612661565b5090565b7f4e487b7100000000000000000000000000000000000000000000000000000000600052602160045260246000fd5b600781106126bd576126bc61267d565b5b50565b60008190506126ce826126ac565b919050565b60006126de826126c0565b9050919050565b6126ee816126d3565b82525050565b600060208201905061270960008301846126e5565b92915050565b6000604051905090565b600080fd5b600080fd5b6000819050919050565b61273681612723565b811461274157600080fd5b50565b6000813590506127538161272d565b92915050565b600073ffffffffffffffffffffffffffffffffffffffff82169050919050565b600061278482612759565b9050919050565b61279481612779565b811461279f57600080fd5b50565b6000813590506127b18161278b565b92915050565b600080604083850312156127ce576127cd612719565b5b60006127dc85828601612744565b92505060206127ed858286016127a2565b9150509250929050565b61280081612723565b82525050565b600060208201905061281b60008301846127f7565b92915050565b60006020828403121561283757612836612719565b5b6000612845848285016127a2565b91505092915050565b60008115159050919050565b6128638161284e565b82525050565b600060208201905061287e600083018461285a565b92915050565b600080fd5b600080fd5b6000601f19601f8301169050919050565b7f4e487b7100000000000000000000000000000000000000000000000000000000600052604160045260246000fd5b6128d78261288e565b810181811067ffffffffffffffff821117156128f6576128f561289f565b5b80604052505050565b600061290961270f565b905061291582826128ce565b919050565b600067ffffffffffffffff8211156129355761293461289f565b5b61293e8261288e565b9050602081019050919050565b82818337600083830152505050565b600061296d6129688461291a565b6128ff565b90508281526020810184848401111561298957612988612889565b5b61299484828561294b565b509392505050565b600082601f8301126129b1576129b0612884565b5b81356129c184826020860161295a565b91505092915050565b6000602082840312156129e0576129df612719565b5b600082013567ffffffffffffffff8111156129fe576129fd61271e565b5b612a0a8482850161299c565b91505092915050565b612a1c8161284e565b8114612a2757600080fd5b50565b600081359050612a3981612a13565b92915050565b600060208284031215612a5557612a54612719565b5b6000612a6384828501612a2a565b91505092915050565b60008060408385031215612a8357612a82612719565b5b6000612a9185828601612744565b9250506020612aa285828601612744565b9150509250929050565b600060208284031215612ac257612ac1612719565b5b6000612ad084828501612744565b91505092915050565b612ae281612779565b82525050565b6000606082019050612afd60008301866127f7565b612b0a60208301856127f7565b612b176040830184612ad9565b949350505050565b6000604082019050612b3460008301856127f7565b612b4160208301846127f7565b9392505050565b6000602082019050612b5d6000830184612ad9565b92915050565b60038110612b7457612b7361267d565b5b50565b6000819050612b8582612b63565b919050565b6000612b9582612b77565b9050919050565b612ba581612b8a565b82525050565b6000602082019050612bc06000830184612b9c565b92915050565b60038110612bd357600080fd5b50565b600081359050612be581612bc6565b92915050565b60008060008060008060c08789031215612c0857612c07612719565b5b600087013567ffffffffffffffff811115612c2657612c2561271e565b5b612c3289828a0161299c565b9650506020612c4389828a01612bd6565b9550506040612c5489828a01612744565b9450506060612c6589828a01612744565b9350506080612c7689828a01612744565b92505060a0612c8789828a01612744565b9150509295509295509295565b600082825260208201905092915050565b7f5468657265206d757374206265206174206c65617374206f6e65206c6f74206460008201527f6566696e65642e00000000000000000000000000000000000000000000000000602082015250565b6000612d01602783612c94565b9150612d0c82612ca5565b604082019050919050565b60006020820190508181036000830152612d3081612cf4565b9050919050565b7f42696464657220616c726561647920636f6e6669726d65640000000000000000600082015250565b6000612d6d601883612c94565b9150612d7882612d37565b602082019050919050565b60006020820190508181036000830152612d9c81612d60565b9050919050565b7f546865206465706f73697420666f7220636f6e6669726d20696e73637269707460008201527f696f6e204d55535420626520657175616c206f7220677265617465722074686160208201527f6e207465682067756172616e746565206465706f7369742e0000000000000000604082015250565b6000612e25605883612c94565b9150612e3082612da3565b606082019050919050565b60006020820190508181036000830152612e5481612e18565b9050919050565b7f42696464657220726567697374726174696f6e2077696e646f7720657870697260008201527f65642e0000000000000000000000000000000000000000000000000000000000602082015250565b6000612eb7602383612c94565b9150612ec282612e5b565b604082019050919050565b60006020820190508181036000830152612ee681612eaa565b9050919050565b600081519050612efc8161278b565b92915050565b600060208284031215612f1857612f17612719565b5b6000612f2684828501612eed565b91505092915050565b7f4e487b7100000000000000000000000000000000000000000000000000000000600052601160045260246000fd5b6000612f6982612723565b91507fffffffffffffffffffffffffffffffffffffffffffffffffffffffffffffffff821415612f9c57612f9b612f2f565b5b600182019050919050565b6000612fb282612723565b9150612fbd83612723565b9250827fffffffffffffffffffffffffffffffffffffffffffffffffffffffffffffffff03821115612ff257612ff1612f2f565b5b828201905092915050565b7f436f6e6669726d65642062696464657220696e736372697074696f6e2e000000600082015250565b6000613033601d83612c94565b915061303e82612ffd565b602082019050919050565b6000602082019050818103600083015261306281613026565b9050919050565b600061307482612723565b915061307f83612723565b92508282101561309257613091612f2f565b5b828203905092915050565b7f4e487b7100000000000000000000000000000000000000000000000000000000600052603260045260246000fd5b7f4f776e61626c653a2063616c6c6572206973206e6f7420746865206f776e6572600082015250565b6000613102602083612c94565b915061310d826130cc565b602082019050919050565b60006020820190508181036000830152613131816130f5565b9050919050565b7f426964646572206973206e6f7420636f6e6669726d6564000000000000000000600082015250565b600061316e601783612c94565b915061317982613138565b602082019050919050565b6000602082019050818103600083015261319d81613161565b9050919050565b7f46756e6374696f6e2063616e6e6f742062652063616c6c656420627920636f6e60008201527f7472616374206f776e6572000000000000000000000000000000000000000000602082015250565b6000613200602b83612c94565b915061320b826131a4565b604082019050919050565b6000602082019050818103600083015261322f816131f3565b9050919050565b7f5472616e636865204d5553542062652067726561746572207468616e207a657260008201527f6f2e000000000000000000000000000000000000000000000000000000000000602082015250565b6000613292602283612c94565b915061329d82613236565b604082019050919050565b600060208201905081810360008301526132c181613285565b9050919050565b7f4d6178696d756e2053656372657420426964204d55535420626520677265617460008201527f6572207468616e206c6f7420626173652076616c75652e000000000000000000602082015250565b6000613324603783612c94565b915061332f826132c8565b604082019050919050565b6000602082019050818103600083015261335381613317565b9050919050565b7f4e487b7100000000000000000000000000000000000000000000000000000000600052601260045260246000fd5b600061339482612723565b915061339f83612723565b9250826133af576133ae61335a565b5b828204905092915050565b60006133c582612723565b91506133d083612723565b9250817fffffffffffffffffffffffffffffffffffffffffffffffffffffffffffffffff048311821515161561340957613408612f2f565b5b828202905092915050565b7f41756374696f6e206973204e4f5420696e697469616c697a65642e20496e697460008201527f69616c697a652061756374696f6e206265666f726520616464696e67206c6f7460208201527f732e000000000000000000000000000000000000000000000000000000000000604082015250565b6000613496604283612c94565b91506134a182613414565b606082019050919050565b600060208201905081810360008301526134c581613489565b9050919050565b7f5265616c2053746174652061756374696f6e73206f6e6c7920616c6c6f77732060008201527f6f6e65206c6f7400000000000000000000000000000000000000000000000000602082015250565b6000613528602783612c94565b9150613533826134cc565b604082019050919050565b600060208201905081810360008301526135578161351b565b9050919050565b7f43616e74277420616464206d6f7265206c6f7473207468616e20646566696e6460008201527f656420696e20746f74616c41756374696f6e4c6f747300000000000000000000602082015250565b60006135ba603683612c94565b91506135c58261355e565b604082019050919050565b600060208201905081810360008301526135e9816135ad565b9050919050565b7f41756374696f6e20616c726561647920696e697469616c697a65640000000000600082015250565b6000613626601b83612c94565b9150613631826135f0565b602082019050919050565b6000602082019050818103600083015261365581613619565b9050919050565b7f4f776e61626c653a206e6577206f776e657220697320746865207a65726f206160008201527f6464726573730000000000000000000000000000000000000000000000000000602082015250565b60006136b8602683612c94565b91506136c38261365c565b604082019050919050565b600060208201905081810360008301526136e7816136ab565b9050919050565b7f41637475616c2074696d65206f7574736964652061756374696f6e20626f756e60008201527f6461726965730000000000000000000000000000000000000000000000000000602082015250565b600061374a602683612c94565b9150613755826136ee565b604082019050919050565b600060208201905081810360008301526137798161373d565b9050919050565b7f4e487b7100000000000000000000000000000000000000000000000000000000600052602260045260246000fd5b600060028204905060018216806137c757607f821691505b602082108114156137db576137da613780565b5b50919050565b60008190508160005260206000209050919050565b60008154613803816137af565b61380d8186612c94565b94506001821660008114613828576001811461383a5761386d565b60ff198316865260208601935061386d565b613843856137e1565b60005b8381101561386557815481890152600182019150602081019050613846565b808801955050505b50505092915050565b600060408201905061388b60008301856127f7565b818103602083015261389d81846137f6565b90509392505050565b7f5468652061756374696f6e2077617320707265766975736c792063616e63656c60008201527f65642e0000000000000000000000000000000000000000000000000000000000602082015250565b6000613902602383612c94565b915061390d826138a6565b604082019050919050565b60006020820190508181036000830152613931816138f5565b9050919050565b7f41756374696f6e20656e64206461746520726561636865640000000000000000600082015250565b600061396e601883612c94565b915061397982613938565b602082019050919050565b6000602082019050818103600083015261399d81613961565b9050919050565b600081519050919050565b60005b838110156139cd5780820151818401526020810190506139b2565b838111156139dc576000848401525b50505050565b60006139ed826139a4565b6139f78185612c94565b9350613a078185602086016139af565b613a108161288e565b840191505092915050565b6000606082019050613a3060008301866127f7565b8181036020830152613a4281856137f6565b90508181036040830152613a5681846139e2565b9050949350505050565b7f5468652061756374696f6e204d55535420626520696e2053544152544544207360008201527f7461746500000000000000000000000000000000000000000000000000000000602082015250565b6000613abc602483612c94565b9150613ac782613a60565b604082019050919050565b60006020820190508181036000830152613aeb81613aaf565b905091905056fe4e6f20636f6e6669726d656420626f64646572732061742061756374696f6e207374617274a26469706673582212206be5022585780092a7969ba21844dc4e16aa787fa9fb10bd522258d0e9d1c0b664736f6c634300080a0033",
  "immutableReferences": {},
  "source": "// SPDX-License-Identifier: MIT\npragma solidity >=0.4.22 <0.9.0;\n\nimport \"@openzeppelin/contracts/access/Ownable.sol\";\n\n/***\n * This contract implementas public auctions at Supreme Court in Buenos Aires Province @ Argetina.\n * The auction process has an hybrid architecture, where the auction data and administrative flow is centralizad in a \n * traditional web application, and the push process and winner definition happens in the blockchain.\n * \n * Author: Lic. Gustavo Perez Villar @ Buenos Aires - Argentina\n */\n\ncontract AuctionsSCBA is Ownable {\n    \n    // Events\n\n    event evt_bidderConfirmedInscription(address indexed sender, string message);\n    event evt_auctionStart(uint timeStamp, string auctionID);\n    event evt_auctionCanceled(uint timeStamp, string auctionID, string cause);\n\n    // Custom data types\n\n    enum AuctionClass {REAL_STATE,MOBILE,MOBILE_REGISTER}\n    enum AuctionState {NO_INIT,INIT,LOT,STARTED,EXTENDED,ENDED,CANCELED}\n    struct AuctionLot {\n        uint lotId_;\n        uint startDate_;\n        uint endDate_;\n        uint baseValue_;\n        uint extendedEndDate_;\n        uint extensionsCount_;\n        address winner_;\n        uint winnerTranche_;\n        uint lastTrancheId_;\n        uint actualTrancheId_;\n    }\n    struct Auction {\n        string auctionCode_;\n        AuctionClass auctionClass_;\n        uint guaranteeDeposit_;\n        uint totalAuctionLots_;\n        uint startDate_;\n        uint endDate_;\n    }\n    struct Bidder {\n        uint guaranteeDeposit_; // Deposited amount in wei for confirm auction inscription\n        bool preserveLastBid_;  // If he wants to preserve his last bid in case the winner doesn't confirm the buy. \n                                // if preserve bid is true, the bidder cannot withdraw founds after auction ending.\n        uint[] lotSecretBid_;   // Secrets bid per lot. lotSecretBid_[lotId-1] = secretBid. Secret Bid is expressed as trancheid\n    }\n    struct AuctionTranches {\n        uint trancheId_;\n        uint trancheValue_;\n        address trancheBidder_;\n        bool trancheConfirmed_;\n        uint trancheBidTimestamp;\n    }\n\n    // State Variables\n\n    AuctionLot[] private _auctionLots; // Auction lots array\n    AuctionState private _auctionState; // Actual auction state\n    Auction private _auctionObject; // Instance of auction data\n    mapping (address => Bidder) private _validBidders; // Valid registered bidders\n    mapping (uint => AuctionTranches) private _tranchesPerLot;\n    uint private _confirmedBidders;\n\n   // Constructor\n\n    constructor () {\n        // State variables initialization\n        _auctionState = AuctionState.NO_INIT;\n        _confirmedBidders = 0;\n    }\n\n    // Receive functions\n\n    function confirmBidderInscription(bool _preserveGuranteeDeposit) external payable {\n        _confirmBidderInscription(msg.sender, msg.value, _preserveGuranteeDeposit);\n    }\n\n    // Fallback function\n\n    receive() external payable {\n       _confirmBidderInscription(msg.sender, msg.value,false); \n    } \n\n    // External Functions\n\n    function auctionInit(\n        string memory __auctionCode,\n        AuctionClass __auctionClass, \n        uint __guaranteeDeposit, \n        uint __totalAuctionLots,\n        uint __startDate,\n        uint __endDate \n    ) external onlyOwner  {\n        require(_auctionState  == AuctionState.NO_INIT, \"Auction already initialized\");\n        //require(block.timestamp < __startDate && (__startDate + 10 days) <= __endDate,\"Invalid dates\");\n        _auctionState = AuctionState.INIT;\n        _auctionObject.auctionCode_ = __auctionCode;\n        _auctionObject.auctionClass_ = __auctionClass;\n        _auctionObject.guaranteeDeposit_ = __guaranteeDeposit;\n        _auctionObject.totalAuctionLots_ = __totalAuctionLots;\n        _auctionObject.startDate_ = __startDate;\n        _auctionObject.endDate_ = __endDate;\n    }\n\n    function auctionAddLot(uint __baseValue) external onlyOwner {\n        require(_auctionState == AuctionState.INIT || _auctionState == AuctionState.LOT ,\"Auction is NOT initialized. Initialize auction before adding lots.\");\n        // Can't add more tha one lot if the auction class is Realstate\n        if (_auctionObject.auctionClass_ == AuctionClass.REAL_STATE && _auctionLots.length == 1) { revert(\"Real State auctions only allows one lot\"); }\n        if (_auctionLots.length > _auctionObject.totalAuctionLots_) { revert(\"Cant't add more lots than definded in totalAuctionLots\"); }\n        AuctionLot memory tmpLot;\n        _auctionState = AuctionState.LOT;\n        tmpLot.lotId_ = _auctionLots.length + 1;  //Start at lot 1\n        tmpLot.extensionsCount_ = 0;\n        tmpLot.startDate_ = _auctionObject.startDate_;\n        tmpLot.endDate_ = _auctionObject.endDate_;\n        tmpLot.extendedEndDate_ = _auctionObject.endDate_;\n        tmpLot.winnerTranche_ = 0;\n        tmpLot.baseValue_ = __baseValue;\n        tmpLot.lastTrancheId_ = 0;\n        _auctionLots.push(tmpLot); // Add lot to lot array\n    }  \n\n    function auctionStart() external onlyOwner {\n        _setAuctionStart();\n    }\n\n   function auctionCancel(string memory _cause) external onlyOwner {\n        _auctionCancelation(_cause);\n    }\n\n    // Public Functions\n\n    function getAuctionState() public view returns (AuctionState) {\n        return _auctionState;\n    }\n    \n    // Get contract address blance (sum of all guarantee deposits for each confirmed bidder)\n    function getAuctionBalance() public view returns (uint) {\n        return address(this).balance;\n    } \n    \n    function getConfirmedBiddders() public view returns (uint){\n        return _confirmedBidders;\n    }\n\n    function isBidderConfirmed(address _queryBidder) public view returns(bool) {   \n        require(_auctionState == AuctionState.LOT,\"There must be at least one lot defined.\");   \n        return (_validBidders[_queryBidder].guaranteeDeposit_ > 0);\n    }\n\n    function getAuctionStartDate() public view returns(uint) {     \n        return _auctionObject.startDate_;\n    }\n\n    function getAuctionEndtDate() public view returns(uint) {     \n        return _auctionObject.endDate_;\n    }\n\n    function getAuctionClass() public view returns(AuctionClass) {     \n        return _auctionObject.auctionClass_;\n    }\n\n    function getActualTranche(uint _lotId) public view returns (uint,uint) {\n        uint retTrancheId_;\n        uint retValue_;\n        require(_auctionState == AuctionState.LOT,\"There must be at least one lot defined.\"); \n        retTrancheId_ = _auctionLots[_lotId-1].actualTrancheId_;\n        retValue_ = _tranchesPerLot[_lotId-1].trancheValue_;\n        \n        return (retTrancheId_, retValue_);\n    }\n\n    function getLastTranche(uint _lotId) public view returns (uint,uint,address) {\n        uint retTrancheId_;\n        uint retValue_;\n        address retBidder_;\n        require(_auctionState == AuctionState.LOT,\"There must be at least one lot defined.\"); \n        retTrancheId_ = _auctionLots[_lotId-1].actualTrancheId_;\n        retValue_ = _tranchesPerLot[_lotId-1].trancheValue_;\n        retBidder_ = _tranchesPerLot[_lotId-1].trancheBidder_;\n        \n        return (retTrancheId_, retValue_, retBidder_);\n    }\n\n    function getBidderMaximunSecretBidTranche(uint _lotId, address _bidder) public view returns (uint) {\n        require(_auctionState == AuctionState.LOT,\"There must be at least one lot defined.\");        \n        return _validBidders[_bidder].lotSecretBid_[_lotId-1];\n    }\n        \n    function getBidderMaximunSecretBidAmount(uint _lotId, address _bidder) public view returns (uint) {\n        require(_auctionState == AuctionState.LOT,\"There must be at least one lot defined.\");        \n        uint msbTranche = _validBidders[_bidder].lotSecretBid_[_lotId-1];\n        \n        return _getLotTrancheValue(_lotId,msbTranche);\n    }\n\n    function getLotQuantity() public view returns (uint) {\n        return _auctionLots.length;\n    }\n\n    function getLotBaseValue(uint _lotId) public view returns (uint) {\n        return _auctionLots[_lotId-1].baseValue_;\n    }\n\n    function getLotTrancheValue(uint _lotId, uint _trancheId) public view returns (uint) {\n        \n        return _getLotTrancheValue(_lotId,_trancheId);\n    }\n\n    function bidderSetPreservelastBid(bool _value) public {\n        require(_auctionState == AuctionState.LOT,\"There must be at least one lot defined.\"); \n        require(_validBidders[msg.sender].guaranteeDeposit_ > 0,\"Bidder is not confirmed\"); \n        require((msg.sender != this.owner()));\n        \n        _validBidders[msg.sender].preserveLastBid_ = _value;\n\n    }\n\n    function bidderSetMaximunSecretBidAmount(uint _lotId, uint _value) public {\n        require(_auctionState == AuctionState.LOT,\"There must be at least one lot defined.\"); \n        require(_validBidders[msg.sender].guaranteeDeposit_ > 0,\"Bidder is not confirmed\"); \n        require((msg.sender != this.owner()),\"Function cannot be called by contract owner\");\n        require(_value > _auctionLots[_lotId-1].baseValue_,\"Maximun Secret Bid MUST be greater than lot base value.\"); \n        uint _msbTranche;\n        uint _fivePercent;\n        \n        _fivePercent = ((_auctionLots[_lotId-1].baseValue_ / 100) * 5);\n        _msbTranche = ((_value - _auctionLots[_lotId-1].baseValue_) / _fivePercent) + 1;\n        _validBidders[msg.sender].lotSecretBid_[_lotId-1] = _msbTranche-1; // -1 for approaching lower tranche.\n        \n    }\n    function bidderSetMaximunSecretBidTranche(uint _lotId, uint _value) public {\n        require(_auctionState == AuctionState.LOT,\"There must be at least one lot defined.\"); \n        require(_validBidders[msg.sender].guaranteeDeposit_ > 0,\"Bidder is not confirmed\"); \n        require((msg.sender != this.owner()),\"Function cannot be called by contract owner\");\n        require(_value >= 1 ,\"Tranche MUST be greater than zero.\"); \n        \n        _validBidders[msg.sender].lotSecretBid_[_lotId-1] = _value;\n    }\n    // Internal Functions\n\n    function _getLotTrancheValue(uint _lotId, uint _trancheId) internal view returns (uint) {\n        uint _baseValue = _auctionLots[_lotId-1].baseValue_;\n        uint _factor = _trancheId * 5;\n\n        return _baseValue + ((_baseValue * _factor) / 100);\n    }\n\n    function _confirmBidderInscription(address _bidderAddress, uint _depositAmount, bool _preserveGuaranteeDeposit) internal     {\n        Bidder memory _tmpBidder;\n        uint _LotsLength = _auctionLots.length;\n        require(_auctionState == AuctionState.LOT,\"There must be at least one lot defined.\"); \n        require(_validBidders[_bidderAddress].guaranteeDeposit_ == 0,\"Bidder already confirmed\"); \n        require(_depositAmount >= _auctionObject.guaranteeDeposit_,\"The deposit for confirm inscription MUST be equal or greater than teh guarantee deposit.\");\n        require (block.timestamp <= _auctionObject.startDate_,\"Bidder registration window expired.\");\n        require((msg.sender != this.owner()));\n\n        _tmpBidder.guaranteeDeposit_ = _depositAmount;\n        _tmpBidder.preserveLastBid_ = _preserveGuaranteeDeposit;\n        // initialize Maximun Secret Bid array\n        _validBidders[_bidderAddress] = _tmpBidder;\n        for (uint i=0; i<_LotsLength; i++) {\n            _validBidders[_bidderAddress].lotSecretBid_.push(0);\n        }\n        _confirmedBidders += 1;\n\n        emit evt_bidderConfirmedInscription(_bidderAddress,\"Confirmed bidder inscription.\");\n    }\n\n    function _setAuctionStart() internal  {\n        require(_auctionState == AuctionState.LOT,\"There must be at least one lot defined.\"); \n        require(block.timestamp >= _auctionObject.startDate_ && block.timestamp <= _auctionObject.endDate_,\"Actual time outside auction boundaries\");\n        \n        if (_confirmedBidders == 0) {\n             _auctionCancelation(\"No confirmed bodders at auction start\");\n        } else {\n            _auctionState = AuctionState.STARTED;\n            _initTranches();\n            emit evt_auctionStart(block.timestamp, _auctionObject.auctionCode_);\n        }\n    }\n    \n    function _auctionCancelation(string memory _cause) internal {\n        require(_auctionState != AuctionState.CANCELED,\"The auction was previusly canceled.\"); \n        require(block.timestamp <= _auctionObject.endDate_,\"Auction end date reached\");\n        \n        _auctionState = AuctionState.CANCELED;\n        emit evt_auctionCanceled(block.timestamp, _auctionObject.auctionCode_, _cause);\n    }\n\n    function _initTranches() internal {\n        require(_auctionState == AuctionState.STARTED,\"The auction MUST be in STARTED state\");\n        uint _LotsLength = _auctionLots.length;\n        AuctionTranches memory _tmpTranche;\n\n        for (uint i=0; i<_LotsLength; i++) {\n            _tmpTranche.trancheId_ = i+1;\n            _tmpTranche.trancheValue_ = _auctionLots[i].baseValue_;\n            _tmpTranche.trancheConfirmed_ = false;\n            _tranchesPerLot[i] = _tmpTranche;\n            _auctionLots[i].actualTrancheId_ = 1; \n        }\n    }\n\n}\n",
  "sourcePath": "/home/gperez/proyectos/subastas/contracts/AuctionsSCBA.sol",
  "compiler": {
    "name": "solc",
    "version": "0.8.10+commit.fc410830.Emscripten.clang"
  },
  "schemaVersion": "3.4.3",
  "updatedAt": "2021-12-15T16:13:43.052Z",
  "devdoc": {
    "kind": "dev",
    "methods": {
      "owner()": {
        "details": "Returns the address of the current owner."
      },
      "renounceOwnership()": {
        "details": "Leaves the contract without owner. It will not be possible to call `onlyOwner` functions anymore. Can only be called by the current owner. NOTE: Renouncing ownership will leave the contract without an owner, thereby removing any functionality that is only available to the owner."
      },
      "transferOwnership(address)": {
        "details": "Transfers ownership of the contract to a new account (`newOwner`). Can only be called by the current owner."
      }
    },
    "version": 1
  },
  "userdoc": {
    "kind": "user",
    "methods": {},
    "version": 1
  }
}