{
  "contractName": "AuctionsSCBA",
  "abi": [
    {
      "inputs": [],
      "stateMutability": "nonpayable",
      "type": "constructor"
    },
    {
      "anonymous": false,
      "inputs": [
        {
          "indexed": true,
          "internalType": "address",
          "name": "previousOwner",
          "type": "address"
        },
        {
          "indexed": true,
          "internalType": "address",
          "name": "newOwner",
          "type": "address"
        }
      ],
      "name": "OwnershipTransferred",
      "type": "event"
    },
    {
      "anonymous": false,
      "inputs": [
        {
          "indexed": false,
          "internalType": "uint256",
          "name": "timeStamp",
          "type": "uint256"
        },
        {
          "indexed": false,
          "internalType": "string",
          "name": "auctionID",
          "type": "string"
        },
        {
          "indexed": false,
          "internalType": "string",
          "name": "cause",
          "type": "string"
        }
      ],
      "name": "evt_auctionCanceled",
      "type": "event"
    },
    {
      "anonymous": false,
      "inputs": [
        {
          "indexed": false,
          "internalType": "uint256",
          "name": "timeStamp",
          "type": "uint256"
        },
        {
          "indexed": false,
          "internalType": "uint256",
          "name": "lotId",
          "type": "uint256"
        },
        {
          "indexed": false,
          "internalType": "uint256",
          "name": "newEndDate",
          "type": "uint256"
        }
      ],
      "name": "evt_auctionLotExtended",
      "type": "event"
    },
    {
      "anonymous": false,
      "inputs": [
        {
          "indexed": false,
          "internalType": "uint256",
          "name": "timeStamp",
          "type": "uint256"
        },
        {
          "indexed": false,
          "internalType": "string",
          "name": "auctionID",
          "type": "string"
        }
      ],
      "name": "evt_auctionStart",
      "type": "event"
    },
    {
      "anonymous": false,
      "inputs": [
        {
          "indexed": false,
          "internalType": "uint256",
          "name": "timeStamp",
          "type": "uint256"
        },
        {
          "indexed": false,
          "internalType": "uint256",
          "name": "lotId",
          "type": "uint256"
        },
        {
          "indexed": false,
          "internalType": "uint256",
          "name": "trancheId",
          "type": "uint256"
        },
        {
          "indexed": false,
          "internalType": "address",
          "name": "_bidder",
          "type": "address"
        }
      ],
      "name": "evt_bidConfirmed",
      "type": "event"
    },
    {
      "anonymous": false,
      "inputs": [
        {
          "indexed": true,
          "internalType": "address",
          "name": "sender",
          "type": "address"
        },
        {
          "indexed": false,
          "internalType": "string",
          "name": "message",
          "type": "string"
        }
      ],
      "name": "evt_bidderConfirmedInscription",
      "type": "event"
    },
    {
      "anonymous": false,
      "inputs": [
        {
          "indexed": false,
          "internalType": "uint256",
          "name": "timeStamp",
          "type": "uint256"
        },
        {
          "indexed": false,
          "internalType": "address",
          "name": "beatenBidder",
          "type": "address"
        }
      ],
      "name": "evt_maximunSecretBidBeaten",
      "type": "event"
    },
    {
      "inputs": [],
      "name": "owner",
      "outputs": [
        {
          "internalType": "address",
          "name": "",
          "type": "address"
        }
      ],
      "stateMutability": "view",
      "type": "function",
      "constant": true
    },
    {
      "inputs": [],
      "name": "renounceOwnership",
      "outputs": [],
      "stateMutability": "nonpayable",
      "type": "function"
    },
    {
      "inputs": [
        {
          "internalType": "address",
          "name": "newOwner",
          "type": "address"
        }
      ],
      "name": "transferOwnership",
      "outputs": [],
      "stateMutability": "nonpayable",
      "type": "function"
    },
    {
      "stateMutability": "payable",
      "type": "receive",
      "payable": true
    },
    {
      "inputs": [
        {
          "internalType": "bool",
          "name": "_preserveGuranteeDeposit",
          "type": "bool"
        }
      ],
      "name": "confirmBidderInscription",
      "outputs": [],
      "stateMutability": "payable",
      "type": "function",
      "payable": true
    },
    {
      "inputs": [
        {
          "internalType": "string",
          "name": "__auctionCode",
          "type": "string"
        },
        {
          "internalType": "enum AuctionsSCBA.AuctionClass",
          "name": "__auctionClass",
          "type": "uint8"
        },
        {
          "internalType": "uint256",
          "name": "__guaranteeDeposit",
          "type": "uint256"
        },
        {
          "internalType": "uint256",
          "name": "__totalAuctionLots",
          "type": "uint256"
        },
        {
          "internalType": "uint256",
          "name": "__startDate",
          "type": "uint256"
        },
        {
          "internalType": "uint256",
          "name": "__endDate",
          "type": "uint256"
        }
      ],
      "name": "auctionInit",
      "outputs": [],
      "stateMutability": "nonpayable",
      "type": "function"
    },
    {
      "inputs": [
        {
          "internalType": "uint256",
          "name": "__baseValue",
          "type": "uint256"
        }
      ],
      "name": "auctionAddLot",
      "outputs": [],
      "stateMutability": "nonpayable",
      "type": "function"
    },
    {
      "inputs": [],
      "name": "auctionStart",
      "outputs": [],
      "stateMutability": "nonpayable",
      "type": "function"
    },
    {
      "inputs": [
        {
          "internalType": "string",
          "name": "_cause",
          "type": "string"
        }
      ],
      "name": "auctionCancel",
      "outputs": [],
      "stateMutability": "nonpayable",
      "type": "function"
    },
    {
      "inputs": [],
      "name": "getAuctionState",
      "outputs": [
        {
          "internalType": "enum AuctionsSCBA.AuctionState",
          "name": "",
          "type": "uint8"
        }
      ],
      "stateMutability": "view",
      "type": "function",
      "constant": true
    },
    {
      "inputs": [],
      "name": "getAuctionBalance",
      "outputs": [
        {
          "internalType": "uint256",
          "name": "",
          "type": "uint256"
        }
      ],
      "stateMutability": "view",
      "type": "function",
      "constant": true
    },
    {
      "inputs": [],
      "name": "getConfirmedBiddders",
      "outputs": [
        {
          "internalType": "uint256",
          "name": "",
          "type": "uint256"
        }
      ],
      "stateMutability": "view",
      "type": "function",
      "constant": true
    },
    {
      "inputs": [
        {
          "internalType": "address",
          "name": "_queryBidder",
          "type": "address"
        }
      ],
      "name": "isBidderConfirmed",
      "outputs": [
        {
          "internalType": "bool",
          "name": "",
          "type": "bool"
        }
      ],
      "stateMutability": "view",
      "type": "function",
      "constant": true
    },
    {
      "inputs": [],
      "name": "getAuctionStartDate",
      "outputs": [
        {
          "internalType": "uint256",
          "name": "",
          "type": "uint256"
        }
      ],
      "stateMutability": "view",
      "type": "function",
      "constant": true
    },
    {
      "inputs": [],
      "name": "getAuctionEndtDate",
      "outputs": [
        {
          "internalType": "uint256",
          "name": "",
          "type": "uint256"
        }
      ],
      "stateMutability": "view",
      "type": "function",
      "constant": true
    },
    {
      "inputs": [],
      "name": "getAuctionClass",
      "outputs": [
        {
          "internalType": "enum AuctionsSCBA.AuctionClass",
          "name": "",
          "type": "uint8"
        }
      ],
      "stateMutability": "view",
      "type": "function",
      "constant": true
    },
    {
      "inputs": [
        {
          "internalType": "uint256",
          "name": "_lotId",
          "type": "uint256"
        }
      ],
      "name": "getActualTranche",
      "outputs": [
        {
          "internalType": "uint256",
          "name": "",
          "type": "uint256"
        },
        {
          "internalType": "uint256",
          "name": "",
          "type": "uint256"
        }
      ],
      "stateMutability": "view",
      "type": "function",
      "constant": true
    },
    {
      "inputs": [
        {
          "internalType": "uint256",
          "name": "_lotId",
          "type": "uint256"
        }
      ],
      "name": "getLastTranche",
      "outputs": [
        {
          "internalType": "uint256",
          "name": "",
          "type": "uint256"
        },
        {
          "internalType": "uint256",
          "name": "",
          "type": "uint256"
        },
        {
          "internalType": "address",
          "name": "",
          "type": "address"
        }
      ],
      "stateMutability": "view",
      "type": "function",
      "constant": true
    },
    {
      "inputs": [
        {
          "internalType": "uint256",
          "name": "_lotId",
          "type": "uint256"
        },
        {
          "internalType": "address",
          "name": "_bidder",
          "type": "address"
        }
      ],
      "name": "getBidderMaximunSecretBid",
      "outputs": [
        {
          "internalType": "uint256",
          "name": "",
          "type": "uint256"
        },
        {
          "internalType": "uint256",
          "name": "",
          "type": "uint256"
        }
      ],
      "stateMutability": "view",
      "type": "function",
      "constant": true
    },
    {
      "inputs": [],
      "name": "getLotQuantity",
      "outputs": [
        {
          "internalType": "uint256",
          "name": "",
          "type": "uint256"
        }
      ],
      "stateMutability": "view",
      "type": "function",
      "constant": true
    },
    {
      "inputs": [
        {
          "internalType": "uint256",
          "name": "_lotId",
          "type": "uint256"
        }
      ],
      "name": "getLotBaseValue",
      "outputs": [
        {
          "internalType": "uint256",
          "name": "",
          "type": "uint256"
        }
      ],
      "stateMutability": "view",
      "type": "function",
      "constant": true
    },
    {
      "inputs": [
        {
          "internalType": "uint256",
          "name": "_lotId",
          "type": "uint256"
        },
        {
          "internalType": "uint256",
          "name": "_trancheId",
          "type": "uint256"
        }
      ],
      "name": "getLotTrancheValue",
      "outputs": [
        {
          "internalType": "uint256",
          "name": "",
          "type": "uint256"
        }
      ],
      "stateMutability": "view",
      "type": "function",
      "constant": true
    },
    {
      "inputs": [
        {
          "internalType": "uint256",
          "name": "_lotId",
          "type": "uint256"
        }
      ],
      "name": "getLotEndDate",
      "outputs": [
        {
          "internalType": "uint256",
          "name": "",
          "type": "uint256"
        }
      ],
      "stateMutability": "view",
      "type": "function",
      "constant": true
    },
    {
      "inputs": [
        {
          "internalType": "uint256",
          "name": "_lotId",
          "type": "uint256"
        }
      ],
      "name": "getLotExtensionCount",
      "outputs": [
        {
          "internalType": "uint256",
          "name": "",
          "type": "uint256"
        }
      ],
      "stateMutability": "view",
      "type": "function",
      "constant": true
    },
    {
      "inputs": [
        {
          "internalType": "bool",
          "name": "_value",
          "type": "bool"
        }
      ],
      "name": "bidderSetPreservelastBid",
      "outputs": [],
      "stateMutability": "nonpayable",
      "type": "function"
    },
    {
      "inputs": [
        {
          "internalType": "uint256",
          "name": "_lotId",
          "type": "uint256"
        },
        {
          "internalType": "uint256",
          "name": "_value",
          "type": "uint256"
        }
      ],
      "name": "bidderSetMaximunSecretBidAmount",
      "outputs": [],
      "stateMutability": "nonpayable",
      "type": "function"
    },
    {
      "inputs": [
        {
          "internalType": "uint256",
          "name": "_lotId",
          "type": "uint256"
        },
        {
          "internalType": "uint256",
          "name": "_value",
          "type": "uint256"
        }
      ],
      "name": "bidderSetMaximunSecretBidTranche",
      "outputs": [],
      "stateMutability": "nonpayable",
      "type": "function"
    },
    {
      "inputs": [
        {
          "internalType": "uint256",
          "name": "_lotId",
          "type": "uint256"
        },
        {
          "internalType": "uint256",
          "name": "_trancheId",
          "type": "uint256"
        }
      ],
      "name": "bid",
      "outputs": [],
      "stateMutability": "nonpayable",
      "type": "function"
    }
  ],
  "bytecode": "0x60806040523480156200001157600080fd5b5062000032620000266200006660201b60201c565b6200006e60201b60201c565b6000600260006101000a81548160ff021916908360068111156200005b576200005a62000132565b5b021790555062000161565b600033905090565b60008060009054906101000a900473ffffffffffffffffffffffffffffffffffffffff169050816000806101000a81548173ffffffffffffffffffffffffffffffffffffffff021916908373ffffffffffffffffffffffffffffffffffffffff1602179055508173ffffffffffffffffffffffffffffffffffffffff168173ffffffffffffffffffffffffffffffffffffffff167f8be0079c531659141344cd1fd0a4f28419497f9722a3daafe3b4186f6b6457e060405160405180910390a35050565b7f4e487b7100000000000000000000000000000000000000000000000000000000600052602160045260246000fd5b6152c580620001716000396000f3fe6080604052600436106101a05760003560e01c8063728194ee116100ec578063d262c0e51161008a578063dad7277c11610064578063dad7277c146105c2578063f0c019df146105ff578063f1c7823f14610628578063f2fde38b14610665576101b3565b8063d262c0e514610540578063d698562114610569578063d6c8d05814610585576101b3565b80637e360c41116100c65780637e360c411461048357806387368926146104c15780638da5cb5b146104ea578063c455d0cb14610515576101b3565b8063728194ee146103ee57806376b8d8c71461042d5780637786ce3414610458576101b3565b8063598647f81161015957806361dd3bcc1161013357806361dd3bcc14610348578063634763b6146103715780636ee68ef71461039a578063715018a6146103d7576101b3565b8063598647f8146102b957806359ec35d8146102e25780635e464d511461031f576101b3565b806308bfc300146101b857806309d23ba1146101e35780631499cf111461022157806325a35e731461024c5780634a8bb6ed146102775780634f245ef7146102a2576101b3565b366101b3576101b13334600061068e565b005b600080fd5b3480156101c457600080fd5b506101cd610ab5565b6040516101da91906138cb565b60405180910390f35b3480156101ef57600080fd5b5061020a6004803603810190610205919061398e565b610acc565b6040516102189291906139dd565b60405180910390f35b34801561022d57600080fd5b50610236610b5b565b6040516102439190613a06565b60405180910390f35b34801561025857600080fd5b50610261610b68565b60405161026e9190613a06565b60405180910390f35b34801561028357600080fd5b5061028c610b70565b6040516102999190613a06565b60405180910390f35b3480156102ae57600080fd5b506102b7610b7d565b005b3480156102c557600080fd5b506102e060048036038101906102db9190613a21565b610c03565b005b3480156102ee57600080fd5b5061030960048036038101906103049190613a61565b610c1a565b6040516103169190613aa9565b60405180910390f35b34801561032b57600080fd5b5061034660048036038101906103419190613c0a565b610c68565b005b34801561035457600080fd5b5061036f600480360381019061036a9190613c7f565b610cf0565b005b34801561037d57600080fd5b5061039860048036038101906103939190613a21565b610eef565b005b3480156103a657600080fd5b506103c160048036038101906103bc9190613cac565b61117e565b6040516103ce9190613a06565b60405180910390f35b3480156103e357600080fd5b506103ec6111b8565b005b3480156103fa57600080fd5b5061041560048036038101906104109190613cac565b611240565b60405161042493929190613ce8565b60405180910390f35b34801561043957600080fd5b506104426113a6565b60405161044f9190613a06565b60405180910390f35b34801561046457600080fd5b5061046d6113b3565b60405161047a9190613a06565b60405180910390f35b34801561048f57600080fd5b506104aa60048036038101906104a59190613cac565b6113c0565b6040516104b89291906139dd565b60405180910390f35b3480156104cd57600080fd5b506104e860048036038101906104e39190613a21565b6114ac565b005b3480156104f657600080fd5b506104ff61181a565b60405161050c9190613d1f565b60405180910390f35b34801561052157600080fd5b5061052a611843565b6040516105379190613d82565b60405180910390f35b34801561054c57600080fd5b5061056760048036038101906105629190613cac565b61185d565b005b610583600480360381019061057e9190613c7f565b611bc6565b005b34801561059157600080fd5b506105ac60048036038101906105a79190613cac565b611bd4565b6040516105b99190613a06565b60405180910390f35b3480156105ce57600080fd5b506105e960048036038101906105e49190613a21565b611c0e565b6040516105f69190613a06565b60405180910390f35b34801561060b57600080fd5b5061062660048036038101906106219190613dc2565b611c22565b005b34801561063457600080fd5b5061064f600480360381019061064a9190613cac565b611dbf565b60405161065c9190613a06565b60405180910390f35b34801561067157600080fd5b5061068c60048036038101906106879190613a61565b611df9565b005b610696613698565b60006001805490509050600260068111156106b4576106b3613854565b5b600260009054906101000a900460ff1660068111156106d6576106d5613854565b5b14610716576040517f08c379a000000000000000000000000000000000000000000000000000000000815260040161070d90613eee565b60405180910390fd5b6000600a60008773ffffffffffffffffffffffffffffffffffffffff1673ffffffffffffffffffffffffffffffffffffffff168152602001908152602001600020600001541461079b576040517f08c379a000000000000000000000000000000000000000000000000000000000815260040161079290613f5a565b60405180910390fd5b6003600201548410156107e3576040517f08c379a00000000000000000000000000000000000000000000000000000000081526004016107da90614012565b60405180910390fd5b60036004015442111561082b576040517f08c379a0000000000000000000000000000000000000000000000000000000008152600401610822906140a4565b60405180910390fd5b3073ffffffffffffffffffffffffffffffffffffffff16638da5cb5b6040518163ffffffff1660e01b8152600401602060405180830381865afa158015610876573d6000803e3d6000fd5b505050506040513d601f19601f8201168201806040525081019061089a91906140d9565b73ffffffffffffffffffffffffffffffffffffffff163373ffffffffffffffffffffffffffffffffffffffff1614156108d257600080fd5b838260000181815250508282602001901515908115158152505081600a60008773ffffffffffffffffffffffffffffffffffffffff1673ffffffffffffffffffffffffffffffffffffffff1681526020019081526020016000206000820151816000015560208201518160010160006101000a81548160ff02191690831515021790555060408201518160020190805190602001906109729291906136bb565b5090505060005b818110156109fe57600a60008773ffffffffffffffffffffffffffffffffffffffff1673ffffffffffffffffffffffffffffffffffffffff1681526020019081526020016000206002016000908060018154018082558091505060019003906000526020600020016000909190919091505580806109f690614135565b915050610979565b50600c859080600181540180825580915050600190039060005260206000200160009091909190916101000a81548173ffffffffffffffffffffffffffffffffffffffff021916908373ffffffffffffffffffffffffffffffffffffffff1602179055508473ffffffffffffffffffffffffffffffffffffffff167f2bcb2fe5b94813e883d2308e17a49fb21fb91863c646b56c2dbeb3069bd73911604051610aa6906141ca565b60405180910390a25050505050565b6000600260009054906101000a900460ff16905090565b6000806000600a60008573ffffffffffffffffffffffffffffffffffffffff1673ffffffffffffffffffffffffffffffffffffffff168152602001908152602001600020600201600186610b2091906141ea565b81548110610b3157610b3061421e565b5b906000526020600020015490506000610b4a8683611ef1565b905081819350935050509250929050565b6000600360040154905090565b600047905090565b6000600c80549050905090565b610b85611f65565b73ffffffffffffffffffffffffffffffffffffffff16610ba361181a565b73ffffffffffffffffffffffffffffffffffffffff1614610bf9576040517f08c379a0000000000000000000000000000000000000000000000000000000008152600401610bf090614299565b60405180910390fd5b610c01611f6d565b565b610c0e3383836120f7565b610c1661285c565b5050565b600080600a60008473ffffffffffffffffffffffffffffffffffffffff1673ffffffffffffffffffffffffffffffffffffffff16815260200190815260200160002060000154119050919050565b610c70611f65565b73ffffffffffffffffffffffffffffffffffffffff16610c8e61181a565b73ffffffffffffffffffffffffffffffffffffffff1614610ce4576040517f08c379a0000000000000000000000000000000000000000000000000000000008152600401610cdb90614299565b60405180910390fd5b610ced81613032565b50565b60026006811115610d0457610d03613854565b5b600260009054906101000a900460ff166006811115610d2657610d25613854565b5b14610d66576040517f08c379a0000000000000000000000000000000000000000000000000000000008152600401610d5d9061432b565b60405180910390fd5b6000600a60003373ffffffffffffffffffffffffffffffffffffffff1673ffffffffffffffffffffffffffffffffffffffff1681526020019081526020016000206000015411610deb576040517f08c379a0000000000000000000000000000000000000000000000000000000008152600401610de290614397565b60405180910390fd5b3073ffffffffffffffffffffffffffffffffffffffff16638da5cb5b6040518163ffffffff1660e01b8152600401602060405180830381865afa158015610e36573d6000803e3d6000fd5b505050506040513d601f19601f82011682018060405250810190610e5a91906140d9565b73ffffffffffffffffffffffffffffffffffffffff163373ffffffffffffffffffffffffffffffffffffffff161415610e9257600080fd5b80600a60003373ffffffffffffffffffffffffffffffffffffffff1673ffffffffffffffffffffffffffffffffffffffff16815260200190815260200160002060010160006101000a81548160ff02191690831515021790555050565b60026006811115610f0357610f02613854565b5b600260009054906101000a900460ff166006811115610f2557610f24613854565b5b14610f65576040517f08c379a0000000000000000000000000000000000000000000000000000000008152600401610f5c90614429565b60405180910390fd5b6000600a60003373ffffffffffffffffffffffffffffffffffffffff1673ffffffffffffffffffffffffffffffffffffffff1681526020019081526020016000206000015411610fea576040517f08c379a0000000000000000000000000000000000000000000000000000000008152600401610fe190614397565b60405180910390fd5b3073ffffffffffffffffffffffffffffffffffffffff16638da5cb5b6040518163ffffffff1660e01b8152600401602060405180830381865afa158015611035573d6000803e3d6000fd5b505050506040513d601f19601f8201168201806040525081019061105991906140d9565b73ffffffffffffffffffffffffffffffffffffffff163373ffffffffffffffffffffffffffffffffffffffff1614156110c7576040517f08c379a00000000000000000000000000000000000000000000000000000000081526004016110be906144bb565b60405180910390fd5b600181101561110b576040517f08c379a00000000000000000000000000000000000000000000000000000000081526004016111029061454d565b60405180910390fd5b80600a60003373ffffffffffffffffffffffffffffffffffffffff1673ffffffffffffffffffffffffffffffffffffffff16815260200190815260200160002060020160018461115b91906141ea565b8154811061116c5761116b61421e565b5b90600052602060002001819055505050565b60006001808361118e91906141ea565b8154811061119f5761119e61421e565b5b9060005260206000209060090201600401549050919050565b6111c0611f65565b73ffffffffffffffffffffffffffffffffffffffff166111de61181a565b73ffffffffffffffffffffffffffffffffffffffff1614611234576040517f08c379a000000000000000000000000000000000000000000000000000000000815260040161122b90614299565b60405180910390fd5b61123e600061315d565b565b6000806000806000806001808861125791906141ea565b815481106112685761126761421e565b5b906000526020600020906009020160070154925060008311156112db57600b600060018961129691906141ea565b81526020019081526020016000206001846112b191906141ea565b815481106112c2576112c161421e565b5b9060005260206000209060040201600101549150611322565b600b60006001896112ec91906141ea565b815260200190815260200160002060008154811061130d5761130c61421e565b5b90600052602060002090600402016001015491505b600b600060018961133391906141ea565b815260200190815260200160002060018461134e91906141ea565b8154811061135f5761135e61421e565b5b906000526020600020906004020160020160009054906101000a900473ffffffffffffffffffffffffffffffffffffffff1690508282829550955095505050509193909250565b6000600180549050905090565b6000600360060154905090565b600080600080600180866113d491906141ea565b815481106113e5576113e461421e565b5b9060005260206000209060090201600801549150600082111561145857600b600060018761141391906141ea565b815260200190815260200160002060018361142e91906141ea565b8154811061143f5761143e61421e565b5b906000526020600020906004020160010154905061149f565b600b600060018761146991906141ea565b815260200190815260200160002060008154811061148a5761148961421e565b5b90600052602060002090600402016001015490505b8181935093505050915091565b600260068111156114c0576114bf613854565b5b600260009054906101000a900460ff1660068111156114e2576114e1613854565b5b14611522576040517f08c379a0000000000000000000000000000000000000000000000000000000008152600401611519906145df565b60405180910390fd5b6000600a60003373ffffffffffffffffffffffffffffffffffffffff1673ffffffffffffffffffffffffffffffffffffffff16815260200190815260200160002060000154116115a7576040517f08c379a000000000000000000000000000000000000000000000000000000000815260040161159e90614397565b60405180910390fd5b3073ffffffffffffffffffffffffffffffffffffffff16638da5cb5b6040518163ffffffff1660e01b8152600401602060405180830381865afa1580156115f2573d6000803e3d6000fd5b505050506040513d601f19601f8201168201806040525081019061161691906140d9565b73ffffffffffffffffffffffffffffffffffffffff163373ffffffffffffffffffffffffffffffffffffffff161415611684576040517f08c379a000000000000000000000000000000000000000000000000000000000815260040161167b906144bb565b60405180910390fd5b6001808361169291906141ea565b815481106116a3576116a261421e565b5b90600052602060002090600902016003015481116116f6576040517f08c379a00000000000000000000000000000000000000000000000000000000081526004016116ed90614671565b60405180910390fd5b600080600560646001808761170b91906141ea565b8154811061171c5761171b61421e565b5b90600052602060002090600902016003015461173891906146c0565b61174291906146f1565b90506001816001808761175591906141ea565b815481106117665761176561421e565b5b9060005260206000209060090201600301548561178391906141ea565b61178d91906146c0565b611797919061474b565b91506001826117a691906141ea565b600a60003373ffffffffffffffffffffffffffffffffffffffff1673ffffffffffffffffffffffffffffffffffffffff1681526020019081526020016000206002016001866117f591906141ea565b815481106118065761180561421e565b5b906000526020600020018190555050505050565b60008060009054906101000a900473ffffffffffffffffffffffffffffffffffffffff16905090565b6000600360010160009054906101000a900460ff16905090565b611865611f65565b73ffffffffffffffffffffffffffffffffffffffff1661188361181a565b73ffffffffffffffffffffffffffffffffffffffff16146118d9576040517f08c379a00000000000000000000000000000000000000000000000000000000081526004016118d090614299565b60405180910390fd5b600160068111156118ed576118ec613854565b5b600260009054906101000a900460ff16600681111561190f5761190e613854565b5b148061194e57506002600681111561192a57611929613854565b5b600260009054906101000a900460ff16600681111561194c5761194b613854565b5b145b61198d576040517f08c379a000000000000000000000000000000000000000000000000000000000815260040161198490614839565b60405180910390fd5b600060028111156119a1576119a0613854565b5b600360010160009054906101000a900460ff1660028111156119c6576119c5613854565b5b1480156119d7575060018080549050145b15611a17576040517f08c379a0000000000000000000000000000000000000000000000000000000008152600401611a0e906148cb565b60405180910390fd5b60038001546001805490501115611a63576040517f08c379a0000000000000000000000000000000000000000000000000000000008152600401611a5a9061495d565b60405180910390fd5b611a6b613708565b60028060006101000a81548160ff02191690836006811115611a9057611a8f613854565b5b021790555060018080549050611aa6919061474b565b81600001818152505060008160a00181815250506003600401548160200181815250506003600501548160400181815250506003600501548160800181815250508181606001818152505060008160e00181815250506001819080600181540180825580915050600190039060005260206000209060090201600090919091909150600082015181600001556020820151816001015560408201518160020155606082015181600301556080820151816004015560a0820151816005015560c08201518160060160006101000a81548173ffffffffffffffffffffffffffffffffffffffff021916908373ffffffffffffffffffffffffffffffffffffffff16021790555060e08201518160070155610100820151816008015550505050565b611bd133348361068e565b50565b600060018083611be491906141ea565b81548110611bf557611bf461421e565b5b9060005260206000209060090201600501549050919050565b6000611c1a8383611ef1565b905092915050565b611c2a611f65565b73ffffffffffffffffffffffffffffffffffffffff16611c4861181a565b73ffffffffffffffffffffffffffffffffffffffff1614611c9e576040517f08c379a0000000000000000000000000000000000000000000000000000000008152600401611c9590614299565b60405180910390fd5b60006006811115611cb257611cb1613854565b5b600260009054906101000a900460ff166006811115611cd457611cd3613854565b5b14611d14576040517f08c379a0000000000000000000000000000000000000000000000000000000008152600401611d0b906149c9565b60405180910390fd5b6001600260006101000a81548160ff02191690836006811115611d3a57611d39613854565b5b02179055508560036000019080519060200190611d5892919061376a565b5084600360010160006101000a81548160ff02191690836002811115611d8157611d80613854565b5b021790555083600360020181905550826003800181905550816003600401819055508060036005018190555080600360060181905550505050505050565b600060018083611dcf91906141ea565b81548110611de057611ddf61421e565b5b9060005260206000209060090201600301549050919050565b611e01611f65565b73ffffffffffffffffffffffffffffffffffffffff16611e1f61181a565b73ffffffffffffffffffffffffffffffffffffffff1614611e75576040517f08c379a0000000000000000000000000000000000000000000000000000000008152600401611e6c90614299565b60405180910390fd5b600073ffffffffffffffffffffffffffffffffffffffff168173ffffffffffffffffffffffffffffffffffffffff161415611ee5576040517f08c379a0000000000000000000000000000000000000000000000000000000008152600401611edc90614a5b565b60405180910390fd5b611eee8161315d565b50565b60008060018085611f0291906141ea565b81548110611f1357611f1261421e565b5b90600052602060002090600902016003015490506000600584611f3691906146f1565b905060648183611f4691906146f1565b611f5091906146c0565b82611f5b919061474b565b9250505092915050565b600033905090565b60026006811115611f8157611f80613854565b5b600260009054906101000a900460ff166006811115611fa357611fa2613854565b5b14611fe3576040517f08c379a0000000000000000000000000000000000000000000000000000000008152600401611fda90614aed565b60405180910390fd5b600360040154600542611ff6919061474b565b1015801561200957506003600501544211155b612048576040517f08c379a000000000000000000000000000000000000000000000000000000000815260040161203f90614b7f565b60405180910390fd5b6000600c80549050141561207c5761207760405180606001604052806025815260200161526b60259139613032565b6120f5565b6003600260006101000a81548160ff021916908360068111156120a2576120a1613854565b5b02179055506120af613221565b6120b761285c565b7fb7dc4d36b2ca1a9476d5e4f14a23c3e629a0fd4f3af8c71c176f1c69d99952634260036000016040516120ec929190614c95565b60405180910390a15b565b6003600681111561210b5761210a613854565b5b600260009054906101000a900460ff16600681111561212d5761212c613854565b5b148061216c57506004600681111561214857612147613854565b5b600260009054906101000a900460ff16600681111561216a57612169613854565b5b145b6121ab576040517f08c379a00000000000000000000000000000000000000000000000000000000081526004016121a290614d37565b60405180910390fd5b6003600601544211156121f3576040517f08c379a00000000000000000000000000000000000000000000000000000000081526004016121ea90614da3565b60405180910390fd5b60001515600b600060018561220891906141ea565b815260200190815260200160002060018361222391906141ea565b815481106122345761223361421e565b5b906000526020600020906004020160020160149054906101000a900460ff16151514612295576040517f08c379a000000000000000000000000000000000000000000000000000000000815260040161228c90614e35565b60405180910390fd5b6000600a60008573ffffffffffffffffffffffffffffffffffffffff1673ffffffffffffffffffffffffffffffffffffffff168152602001908152602001600020600001541161231a576040517f08c379a000000000000000000000000000000000000000000000000000000000815260040161231190614ec7565b60405180910390fd5b60006001808461232a91906141ea565b8154811061233b5761233a61421e565b5b9060005260206000209060090201600701541115612461578273ffffffffffffffffffffffffffffffffffffffff16600b600060018561237b91906141ea565b815260200190815260200160002060018060018661239991906141ea565b815481106123aa576123a961421e565b5b9060005260206000209060090201600701546123c691906141ea565b815481106123d7576123d661421e565b5b906000526020600020906004020160020160009054906101000a900473ffffffffffffffffffffffffffffffffffffffff1673ffffffffffffffffffffffffffffffffffffffff161415612460576040517f08c379a000000000000000000000000000000000000000000000000000000000815260040161245790614f59565b60405180910390fd5b5b6001808361246f91906141ea565b815481106124805761247f61421e565b5b90600052602060002090600902016008015481146124d3576040517f08c379a00000000000000000000000000000000000000000000000000000000081526004016124ca90614fc5565b60405180910390fd5b6124db6137f0565b6001806001856124eb91906141ea565b815481106124fc576124fb61421e565b5b9060005260206000209060090201600701600082825461251c919061474b565b9250508190555060018060018561253391906141ea565b815481106125445761254361421e565b5b90600052602060002090600902016008016000828254612564919061474b565b9250508190555083600b600060018661257d91906141ea565b815260200190815260200160002060018461259891906141ea565b815481106125a9576125a861421e565b5b906000526020600020906004020160020160006101000a81548173ffffffffffffffffffffffffffffffffffffffff021916908373ffffffffffffffffffffffffffffffffffffffff1602179055506001600b600060018661260b91906141ea565b815260200190815260200160002060018461262691906141ea565b815481106126375761263661421e565b5b906000526020600020906004020160020160146101000a81548160ff02191690831515021790555042600b600060018661267191906141ea565b815260200190815260200160002060018461268c91906141ea565b8154811061269d5761269c61421e565b5b906000526020600020906004020160030181905550600180846126c091906141ea565b815481106126d1576126d061421e565b5b90600052602060002090600902016008015481600001818152505061272683600180866126fe91906141ea565b8154811061270f5761270e61421e565b5b906000526020600020906009020160080154611ef1565b8160200181815250506000816060019015159081151581525050600b600060018561275191906141ea565b8152602001908152602001600020819080600181540180825580915050600190039060005260206000209060040201600090919091909150600082015181600001556020820151816001015560408201518160020160006101000a81548173ffffffffffffffffffffffffffffffffffffffff021916908373ffffffffffffffffffffffffffffffffffffffff16021790555060608201518160020160146101000a81548160ff02191690831515021790555060808201518160030155505061281983613410565b7fafe56db8459de2bc286545368ecdfb556e2eb2afe7bbc3c01e7ada1775ba7b0d4284848760405161284e9493929190614fe5565b60405180910390a150505050565b600360068111156128705761286f613854565b5b600260009054906101000a900460ff16600681111561289257612891613854565b5b14806128d15750600460068111156128ad576128ac613854565b5b600260009054906101000a900460ff1660068111156128cf576128ce613854565b5b145b612910576040517f08c379a00000000000000000000000000000000000000000000000000000000081526004016129079061509c565b60405180910390fd5b600360060154421115612958576040517f08c379a000000000000000000000000000000000000000000000000000000000815260040161294f90614da3565b60405180910390fd5b6000600190505b60011515811515141561302f576000905060005b6001808054905061298491906141ea565b81116130295760005b6001600c8054905061299f91906141ea565b8111613015576000600a6000600c84815481106129bf576129be61421e565b5b9060005260206000200160009054906101000a900473ffffffffffffffffffffffffffffffffffffffff1673ffffffffffffffffffffffffffffffffffffffff1673ffffffffffffffffffffffffffffffffffffffff1681526020019081526020016000206002018381548110612a3957612a3861421e565b5b9060005260206000200154118015612b12575060018281548110612a6057612a5f61421e565b5b906000526020600020906009020160080154600a6000600c8481548110612a8a57612a8961421e565b5b9060005260206000200160009054906101000a900473ffffffffffffffffffffffffffffffffffffffff1673ffffffffffffffffffffffffffffffffffffffff1673ffffffffffffffffffffffffffffffffffffffff1681526020019081526020016000206002018381548110612b0457612b0361421e565b5b906000526020600020015410155b15612d2357600060018381548110612b2d57612b2c61421e565b5b9060005260206000209060090201600701541415612ba457612b9b600c8281548110612b5c57612b5b61421e565b5b9060005260206000200160009054906101000a900473ffffffffffffffffffffffffffffffffffffffff16600184612b94919061474b565b60016120f7565b60019250613015565b600c8181548110612bb857612bb761421e565b5b9060005260206000200160009054906101000a900473ffffffffffffffffffffffffffffffffffffffff1673ffffffffffffffffffffffffffffffffffffffff16600b60008481526020019081526020016000206001808581548110612c2157612c2061421e565b5b906000526020600020906009020160070154612c3d91906141ea565b81548110612c4e57612c4d61421e565b5b906000526020600020906004020160020160009054906101000a900473ffffffffffffffffffffffffffffffffffffffff1673ffffffffffffffffffffffffffffffffffffffff1614612d1e57612d15600c8281548110612cb257612cb161421e565b5b9060005260206000200160009054906101000a900473ffffffffffffffffffffffffffffffffffffffff16600184612cea919061474b565b60018581548110612cfe57612cfd61421e565b5b9060005260206000209060090201600801546120f7565b60019250613015565b613002565b60018281548110612d3757612d3661421e565b5b906000526020600020906009020160080154600a6000600c8481548110612d6157612d6061421e565b5b9060005260206000200160009054906101000a900473ffffffffffffffffffffffffffffffffffffffff1673ffffffffffffffffffffffffffffffffffffffff1673ffffffffffffffffffffffffffffffffffffffff1681526020019081526020016000206002018381548110612ddb57612dda61421e565b5b906000526020600020015410158015612eb8575060001515600d6000600c8481548110612e0b57612e0a61421e565b5b9060005260206000200160009054906101000a900473ffffffffffffffffffffffffffffffffffffffff1673ffffffffffffffffffffffffffffffffffffffff1673ffffffffffffffffffffffffffffffffffffffff168152602001908152602001600020600060018581548110612e8657612e8561421e565b5b906000526020600020906009020160080154815260200190815260200160002060009054906101000a900460ff161515145b15613001576001600d6000600c8481548110612ed757612ed661421e565b5b9060005260206000200160009054906101000a900473ffffffffffffffffffffffffffffffffffffffff1673ffffffffffffffffffffffffffffffffffffffff1673ffffffffffffffffffffffffffffffffffffffff168152602001908152602001600020600060018581548110612f5257612f5161421e565b5b906000526020600020906009020160080154815260200190815260200160002060006101000a81548160ff0219169083151502179055507fee6262a536cf634ae97311b7bbd1683e27211dec8f08d03129fa726928c8b61842600c8381548110612fbf57612fbe61421e565b5b9060005260206000200160009054906101000a900473ffffffffffffffffffffffffffffffffffffffff16604051612ff89291906150bc565b60405180910390a15b5b808061300d90614135565b91505061298d565b50808061302190614135565b915050612973565b5061295f565b50565b60068081111561304557613044613854565b5b600260009054906101000a900460ff16600681111561306757613066613854565b5b14156130a8576040517f08c379a000000000000000000000000000000000000000000000000000000000815260040161309f90615157565b60405180910390fd5b6003600601544211156130f0576040517f08c379a00000000000000000000000000000000000000000000000000000000081526004016130e790614da3565b60405180910390fd5b6006600260006101000a81548160ff0219169083600681111561311657613115613854565b5b02179055507f699708c90a98fcdcc8862c08ac7a618790cf0bb5f4b50bca7487f71263bd926342600360000183604051613152939291906151ee565b60405180910390a150565b60008060009054906101000a900473ffffffffffffffffffffffffffffffffffffffff169050816000806101000a81548173ffffffffffffffffffffffffffffffffffffffff021916908373ffffffffffffffffffffffffffffffffffffffff1602179055508173ffffffffffffffffffffffffffffffffffffffff168173ffffffffffffffffffffffffffffffffffffffff167f8be0079c531659141344cd1fd0a4f28419497f9722a3daafe3b4186f6b6457e060405160405180910390a35050565b6003600681111561323557613234613854565b5b600260009054906101000a900460ff16600681111561325757613256613854565b5b14613297576040517f08c379a000000000000000000000000000000000000000000000000000000000815260040161328e9061509c565b60405180910390fd5b600060018054905090506132a96137f0565b60005b8281101561340b576001816132c1919061474b565b826000018181525050600181815481106132de576132dd61421e565b5b9060005260206000209060090201600301548260200181815250506000826060019015159081151581525050600b6000828152602001908152602001600020829080600181540180825580915050600190039060005260206000209060040201600090919091909150600082015181600001556020820151816001015560408201518160020160006101000a81548173ffffffffffffffffffffffffffffffffffffffff021916908373ffffffffffffffffffffffffffffffffffffffff16021790555060608201518160020160146101000a81548160ff02191690831515021790555060808201518160030155505060018082815481106133e3576133e261421e565b5b906000526020600020906009020160080181905550808061340390614135565b9150506132ac565b505050565b6003600681111561342457613423613854565b5b600260009054906101000a900460ff16600681111561344657613445613854565b5b148061348557506004600681111561346157613460613854565b5b600260009054906101000a900460ff16600681111561348357613482613854565b5b145b6134c4576040517f08c379a00000000000000000000000000000000000000000000000000000000081526004016134bb90614d37565b60405180910390fd5b60036006015442111561350c576040517f08c379a000000000000000000000000000000000000000000000000000000000815260040161350390614da3565b60405180910390fd5b600060b46001808461351e91906141ea565b8154811061352f5761352e61421e565b5b90600052602060002090600902016004015461354b91906141ea565b90508042106136945760786001808461356491906141ea565b815481106135755761357461421e565b5b906000526020600020906009020160020154613591919061474b565b6001808461359f91906141ea565b815481106135b0576135af61421e565b5b9060005260206000209060090201600401819055506001806001846135d591906141ea565b815481106135e6576135e561421e565b5b90600052602060002090600902016005016000828254613606919061474b565b9250508190555060786001808461361d91906141ea565b8154811061362e5761362d61421e565b5b90600052602060002090600902016002015461364a919061474b565b6003600601819055507fdd7e3f4d9bd4d3b593506c23426f3d6b9db956fdb8cc306be21fd2088afefbf1428360036006015460405161368b93929190615233565b60405180910390a15b5050565b604051806060016040528060008152602001600015158152602001606081525090565b8280548282559060005260206000209081019282156136f7579160200282015b828111156136f65782518255916020019190600101906136db565b5b5090506137049190613837565b5090565b604051806101200160405280600081526020016000815260200160008152602001600081526020016000815260200160008152602001600073ffffffffffffffffffffffffffffffffffffffff16815260200160008152602001600081525090565b82805461377690614bce565b90600052602060002090601f01602090048101928261379857600085556137df565b82601f106137b157805160ff19168380011785556137df565b828001600101855582156137df579182015b828111156137de5782518255916020019190600101906137c3565b5b5090506137ec9190613837565b5090565b6040518060a001604052806000815260200160008152602001600073ffffffffffffffffffffffffffffffffffffffff168152602001600015158152602001600081525090565b5b80821115613850576000816000905550600101613838565b5090565b7f4e487b7100000000000000000000000000000000000000000000000000000000600052602160045260246000fd5b6007811061389457613893613854565b5b50565b60008190506138a582613883565b919050565b60006138b582613897565b9050919050565b6138c5816138aa565b82525050565b60006020820190506138e060008301846138bc565b92915050565b6000604051905090565b600080fd5b600080fd5b6000819050919050565b61390d816138fa565b811461391857600080fd5b50565b60008135905061392a81613904565b92915050565b600073ffffffffffffffffffffffffffffffffffffffff82169050919050565b600061395b82613930565b9050919050565b61396b81613950565b811461397657600080fd5b50565b60008135905061398881613962565b92915050565b600080604083850312156139a5576139a46138f0565b5b60006139b38582860161391b565b92505060206139c485828601613979565b9150509250929050565b6139d7816138fa565b82525050565b60006040820190506139f260008301856139ce565b6139ff60208301846139ce565b9392505050565b6000602082019050613a1b60008301846139ce565b92915050565b60008060408385031215613a3857613a376138f0565b5b6000613a468582860161391b565b9250506020613a578582860161391b565b9150509250929050565b600060208284031215613a7757613a766138f0565b5b6000613a8584828501613979565b91505092915050565b60008115159050919050565b613aa381613a8e565b82525050565b6000602082019050613abe6000830184613a9a565b92915050565b600080fd5b600080fd5b6000601f19601f8301169050919050565b7f4e487b7100000000000000000000000000000000000000000000000000000000600052604160045260246000fd5b613b1782613ace565b810181811067ffffffffffffffff82111715613b3657613b35613adf565b5b80604052505050565b6000613b496138e6565b9050613b558282613b0e565b919050565b600067ffffffffffffffff821115613b7557613b74613adf565b5b613b7e82613ace565b9050602081019050919050565b82818337600083830152505050565b6000613bad613ba884613b5a565b613b3f565b905082815260208101848484011115613bc957613bc8613ac9565b5b613bd4848285613b8b565b509392505050565b600082601f830112613bf157613bf0613ac4565b5b8135613c01848260208601613b9a565b91505092915050565b600060208284031215613c2057613c1f6138f0565b5b600082013567ffffffffffffffff811115613c3e57613c3d6138f5565b5b613c4a84828501613bdc565b91505092915050565b613c5c81613a8e565b8114613c6757600080fd5b50565b600081359050613c7981613c53565b92915050565b600060208284031215613c9557613c946138f0565b5b6000613ca384828501613c6a565b91505092915050565b600060208284031215613cc257613cc16138f0565b5b6000613cd08482850161391b565b91505092915050565b613ce281613950565b82525050565b6000606082019050613cfd60008301866139ce565b613d0a60208301856139ce565b613d176040830184613cd9565b949350505050565b6000602082019050613d346000830184613cd9565b92915050565b60038110613d4b57613d4a613854565b5b50565b6000819050613d5c82613d3a565b919050565b6000613d6c82613d4e565b9050919050565b613d7c81613d61565b82525050565b6000602082019050613d976000830184613d73565b92915050565b60038110613daa57600080fd5b50565b600081359050613dbc81613d9d565b92915050565b60008060008060008060c08789031215613ddf57613dde6138f0565b5b600087013567ffffffffffffffff811115613dfd57613dfc6138f5565b5b613e0989828a01613bdc565b9650506020613e1a89828a01613dad565b9550506040613e2b89828a0161391b565b9450506060613e3c89828a0161391b565b9350506080613e4d89828a0161391b565b92505060a0613e5e89828a0161391b565b9150509295509295509295565b600082825260208201905092915050565b7f436f6e6669726d20496e736372697074696f6e202d205468657265206d75737460008201527f206265206174206c65617374206f6e65206c6f7420646566696e65642e000000602082015250565b6000613ed8603d83613e6b565b9150613ee382613e7c565b604082019050919050565b60006020820190508181036000830152613f0781613ecb565b9050919050565b7f42696464657220616c726561647920636f6e6669726d65640000000000000000600082015250565b6000613f44601883613e6b565b9150613f4f82613f0e565b602082019050919050565b60006020820190508181036000830152613f7381613f37565b9050919050565b7f546865206465706f73697420666f7220636f6e6669726d20696e73637269707460008201527f696f6e204d55535420626520657175616c206f7220677265617465722074686160208201527f6e207465682067756172616e746565206465706f7369742e0000000000000000604082015250565b6000613ffc605883613e6b565b915061400782613f7a565b606082019050919050565b6000602082019050818103600083015261402b81613fef565b9050919050565b7f42696464657220726567697374726174696f6e2077696e646f7720657870697260008201527f65642e0000000000000000000000000000000000000000000000000000000000602082015250565b600061408e602383613e6b565b915061409982614032565b604082019050919050565b600060208201905081810360008301526140bd81614081565b9050919050565b6000815190506140d381613962565b92915050565b6000602082840312156140ef576140ee6138f0565b5b60006140fd848285016140c4565b91505092915050565b7f4e487b7100000000000000000000000000000000000000000000000000000000600052601160045260246000fd5b6000614140826138fa565b91507fffffffffffffffffffffffffffffffffffffffffffffffffffffffffffffffff82141561417357614172614106565b5b600182019050919050565b7f436f6e6669726d65642062696464657220696e736372697074696f6e2e000000600082015250565b60006141b4601d83613e6b565b91506141bf8261417e565b602082019050919050565b600060208201905081810360008301526141e3816141a7565b9050919050565b60006141f5826138fa565b9150614200836138fa565b92508282101561421357614212614106565b5b828203905092915050565b7f4e487b7100000000000000000000000000000000000000000000000000000000600052603260045260246000fd5b7f4f776e61626c653a2063616c6c6572206973206e6f7420746865206f776e6572600082015250565b6000614283602083613e6b565b915061428e8261424d565b602082019050919050565b600060208201905081810360008301526142b281614276565b9050919050565b7f5072657365727665204c61737420426964202d205468657265206d757374206260008201527f65206174206c65617374206f6e65206c6f7420646566696e65642e0000000000602082015250565b6000614315603b83613e6b565b9150614320826142b9565b604082019050919050565b6000602082019050818103600083015261434481614308565b9050919050565b7f426964646572206973206e6f7420636f6e6669726d6564000000000000000000600082015250565b6000614381601783613e6b565b915061438c8261434b565b602082019050919050565b600060208201905081810360008301526143b081614374565b9050919050565b7f536574204d53422078205472616e636865202d205468657265206d757374206260008201527f65206174206c65617374206f6e65206c6f7420646566696e65642e0000000000602082015250565b6000614413603b83613e6b565b915061441e826143b7565b604082019050919050565b6000602082019050818103600083015261444281614406565b9050919050565b7f46756e6374696f6e2063616e6e6f742062652063616c6c656420627920636f6e60008201527f7472616374206f776e6572000000000000000000000000000000000000000000602082015250565b60006144a5602b83613e6b565b91506144b082614449565b604082019050919050565b600060208201905081810360008301526144d481614498565b9050919050565b7f5472616e636865204d5553542062652067726561746572207468616e207a657260008201527f6f2e000000000000000000000000000000000000000000000000000000000000602082015250565b6000614537602283613e6b565b9150614542826144db565b604082019050919050565b600060208201905081810360008301526145668161452a565b9050919050565b7f536574204d6178696d756e2053656372657420426964202d205468657265206d60008201527f757374206265206174206c65617374206f6e65206c6f7420646566696e65642e602082015250565b60006145c9604083613e6b565b91506145d48261456d565b604082019050919050565b600060208201905081810360008301526145f8816145bc565b9050919050565b7f4d6178696d756e2053656372657420426964204d55535420626520677265617460008201527f6572207468616e206c6f7420626173652076616c75652e000000000000000000602082015250565b600061465b603783613e6b565b9150614666826145ff565b604082019050919050565b6000602082019050818103600083015261468a8161464e565b9050919050565b7f4e487b7100000000000000000000000000000000000000000000000000000000600052601260045260246000fd5b60006146cb826138fa565b91506146d6836138fa565b9250826146e6576146e5614691565b5b828204905092915050565b60006146fc826138fa565b9150614707836138fa565b9250817fffffffffffffffffffffffffffffffffffffffffffffffffffffffffffffffff04831182151516156147405761473f614106565b5b828202905092915050565b6000614756826138fa565b9150614761836138fa565b9250827fffffffffffffffffffffffffffffffffffffffffffffffffffffffffffffffff0382111561479657614795614106565b5b828201905092915050565b7f41756374696f6e206973204e4f5420696e697469616c697a65642e20496e697460008201527f69616c697a652061756374696f6e206265666f726520616464696e67206c6f7460208201527f732e000000000000000000000000000000000000000000000000000000000000604082015250565b6000614823604283613e6b565b915061482e826147a1565b606082019050919050565b6000602082019050818103600083015261485281614816565b9050919050565b7f5265616c2053746174652061756374696f6e73206f6e6c7920616c6c6f77732060008201527f6f6e65206c6f7400000000000000000000000000000000000000000000000000602082015250565b60006148b5602783613e6b565b91506148c082614859565b604082019050919050565b600060208201905081810360008301526148e4816148a8565b9050919050565b7f43616e74277420616464206d6f7265206c6f7473207468616e20646566696e6460008201527f656420696e20746f74616c41756374696f6e4c6f747300000000000000000000602082015250565b6000614947603683613e6b565b9150614952826148eb565b604082019050919050565b600060208201905081810360008301526149768161493a565b9050919050565b7f41756374696f6e20616c726561647920696e697469616c697a65640000000000600082015250565b60006149b3601b83613e6b565b91506149be8261497d565b602082019050919050565b600060208201905081810360008301526149e2816149a6565b9050919050565b7f4f776e61626c653a206e6577206f776e657220697320746865207a65726f206160008201527f6464726573730000000000000000000000000000000000000000000000000000602082015250565b6000614a45602683613e6b565b9150614a50826149e9565b604082019050919050565b60006020820190508181036000830152614a7481614a38565b9050919050565b7f41756374696f6e205374617274202d205468657265206d75737420626520617460008201527f206c65617374206f6e65206c6f7420646566696e65642e000000000000000000602082015250565b6000614ad7603783613e6b565b9150614ae282614a7b565b604082019050919050565b60006020820190508181036000830152614b0681614aca565b9050919050565b7f41637475616c2074696d65206f7574736964652061756374696f6e20626f756e60008201527f6461726965730000000000000000000000000000000000000000000000000000602082015250565b6000614b69602683613e6b565b9150614b7482614b0d565b604082019050919050565b60006020820190508181036000830152614b9881614b5c565b9050919050565b7f4e487b7100000000000000000000000000000000000000000000000000000000600052602260045260246000fd5b60006002820490506001821680614be657607f821691505b60208210811415614bfa57614bf9614b9f565b5b50919050565b60008190508160005260206000209050919050565b60008154614c2281614bce565b614c2c8186613e6b565b94506001821660008114614c475760018114614c5957614c8c565b60ff1983168652602086019350614c8c565b614c6285614c00565b60005b83811015614c8457815481890152600182019150602081019050614c65565b808801955050505b50505092915050565b6000604082019050614caa60008301856139ce565b8181036020830152614cbc8184614c15565b90509392505050565b7f5468652061756374696f6e204d55535420626520696e2053544152544544206f60008201527f7220455854454e44454420737461746500000000000000000000000000000000602082015250565b6000614d21603083613e6b565b9150614d2c82614cc5565b604082019050919050565b60006020820190508181036000830152614d5081614d14565b9050919050565b7f41756374696f6e20656e64206461746520726561636865640000000000000000600082015250565b6000614d8d601883613e6b565b9150614d9882614d57565b602082019050919050565b60006020820190508181036000830152614dbc81614d80565b9050919050565b7f546865207472616e63686520697320616c726561647920636f6e6669726d656460008201527f2e00000000000000000000000000000000000000000000000000000000000000602082015250565b6000614e1f602183613e6b565b9150614e2a82614dc3565b604082019050919050565b60006020820190508181036000830152614e4e81614e12565b9050919050565b7f4d6573736167652073656e646572204d55535420626520612076616c6964206260008201527f6964646572000000000000000000000000000000000000000000000000000000602082015250565b6000614eb1602583613e6b565b9150614ebc82614e55565b604082019050919050565b60006020820190508181036000830152614ee081614ea4565b9050919050565b7f5468652062696464657220616c7265616479206861732070757368656420746860008201527f65206c6173742076616c69642062696400000000000000000000000000000000602082015250565b6000614f43603083613e6b565b9150614f4e82614ee7565b604082019050919050565b60006020820190508181036000830152614f7281614f36565b9050919050565b7f496e76616c6964207472616e6368650000000000000000000000000000000000600082015250565b6000614faf600f83613e6b565b9150614fba82614f79565b602082019050919050565b60006020820190508181036000830152614fde81614fa2565b9050919050565b6000608082019050614ffa60008301876139ce565b61500760208301866139ce565b61501460408301856139ce565b6150216060830184613cd9565b95945050505050565b7f5468652061756374696f6e204d55535420626520696e2053544152544544207360008201527f7461746500000000000000000000000000000000000000000000000000000000602082015250565b6000615086602483613e6b565b91506150918261502a565b604082019050919050565b600060208201905081810360008301526150b581615079565b9050919050565b60006040820190506150d160008301856139ce565b6150de6020830184613cd9565b9392505050565b7f5468652061756374696f6e2077617320707265766975736c792063616e63656c60008201527f65642e0000000000000000000000000000000000000000000000000000000000602082015250565b6000615141602383613e6b565b915061514c826150e5565b604082019050919050565b6000602082019050818103600083015261517081615134565b9050919050565b600081519050919050565b60005b838110156151a0578082015181840152602081019050615185565b838111156151af576000848401525b50505050565b60006151c082615177565b6151ca8185613e6b565b93506151da818560208601615182565b6151e381613ace565b840191505092915050565b600060608201905061520360008301866139ce565b81810360208301526152158185614c15565b9050818103604083015261522981846151b5565b9050949350505050565b600060608201905061524860008301866139ce565b61525560208301856139ce565b61526260408301846139ce565b94935050505056fe4e6f20636f6e6669726d656420626964646572732061742061756374696f6e207374617274a2646970667358221220eeb6579d7bc5d515f206e6d92bb24fc7f0ec255073e1a190b8a4a60ea6bade8e64736f6c634300080a0033",
  "immutableReferences": {},
  "source": "// SPDX-License-Identifier: MIT\npragma solidity >=0.4.22 <0.9.0;\n\nimport \"@openzeppelin/contracts/access/Ownable.sol\";\n\n/***\n * This contract implementas public auctions at Supreme Court in Buenos Aires Province @ Argetina.\n * The auction process has an hybrid architecture, where the auction data and administrative flow is centralizad in a \n * traditional web application, and the push process and winner definition happens in the blockchain.\n * \n * Author: Lic. Gustavo Perez Villar @ Buenos Aires - Argentina\n */\n\ncontract AuctionsSCBA is Ownable {\n    \n    // Events\n\n    event evt_bidderConfirmedInscription(address indexed sender, string message);\n    event evt_auctionStart(uint timeStamp, string auctionID);\n    event evt_auctionCanceled(uint timeStamp, string auctionID, string cause);\n    event evt_maximunSecretBidBeaten(uint timeStamp, address beatenBidder);\n    event evt_bidConfirmed(uint timeStamp, uint lotId, uint trancheId, address _bidder);\n    event evt_auctionLotExtended(uint timeStamp, uint lotId, uint newEndDate);\n\n    // Custom data types\n\n    enum AuctionClass {REAL_STATE,MOBILE,MOBILE_REGISTER}\n    enum AuctionState {NO_INIT,INIT,LOT,STARTED,EXTENDED,ENDED,CANCELED}\n    struct AuctionLot {\n        uint lotId_;\n        uint startDate_;\n        uint endDate_;\n        uint baseValue_;\n        uint extendedEndDate_;\n        uint extensionsCount_;\n        address winner_;\n        uint lastTrancheId_;\n        uint actualTrancheId_;\n    }\n    struct Auction {\n        string auctionCode_;\n        AuctionClass auctionClass_;\n        uint guaranteeDeposit_;\n        uint totalAuctionLots_;\n        uint startDate_;\n        uint endDate_;\n        uint extendedEndDate_;\n    }\n    struct Bidder {\n        uint guaranteeDeposit_; // Deposited amount in wei for confirm auction inscription\n        bool preserveLastBid_;  // If he wants to preserve his last bid in case the winner doesn't confirm the buy. \n                                // if preserve bid is true, the bidder cannot withdraw founds after auction ending.\n        uint[] lotSecretBid_;   // Secrets bid per lot. lotSecretBid_[lotId-1] = secretBid. Secret Bid is expressed as trancheid\n    }\n    struct AuctionTranches {\n        uint trancheId_;\n        uint trancheValue_;\n        address trancheBidder_;\n        bool trancheConfirmed_;\n        uint trancheBidTimestamp_;\n    }\n\n    // State Variables\n\n    AuctionLot[] private _auctionLots; // Auction lots array\n    AuctionState private _auctionState; // Actual auction state\n    Auction private _auctionObject; // Instance of auction data\n    mapping (address => Bidder) private _validBidders; // Valid registered bidders\n    mapping (uint => AuctionTranches[]) private _tranchesPerLot;\n    address[] private _bidderList;\n    mapping (address => mapping(uint => bool)) _bidderLotMSBBeaten; // True if bidder's maximun secret bed has bean beaten for a particular lot\n\n   // Constructor\n\n    constructor () {\n        // State variables initialization\n        _auctionState = AuctionState.NO_INIT;\n    }\n\n    // Receive functions\n\n    function confirmBidderInscription(bool _preserveGuranteeDeposit) external payable {\n        _confirmBidderInscription(msg.sender, msg.value, _preserveGuranteeDeposit);\n    }\n\n    // Fallback function\n\n    receive() external payable {\n       _confirmBidderInscription(msg.sender, msg.value,false); \n    } \n\n    // External Functions\n\n    function auctionInit(\n        string memory __auctionCode,\n        AuctionClass __auctionClass, \n        uint __guaranteeDeposit, \n        uint __totalAuctionLots,\n        uint __startDate,\n        uint __endDate \n    ) external onlyOwner  {\n        require(_auctionState  == AuctionState.NO_INIT, \"Auction already initialized\");\n        //require(block.timestamp < __startDate && (__startDate + 10 days) <= __endDate,\"Invalid dates\");\n        _auctionState = AuctionState.INIT;\n        _auctionObject.auctionCode_ = __auctionCode;\n        _auctionObject.auctionClass_ = __auctionClass;\n        _auctionObject.guaranteeDeposit_ = __guaranteeDeposit;\n        _auctionObject.totalAuctionLots_ = __totalAuctionLots;\n        _auctionObject.startDate_ = __startDate;\n        _auctionObject.endDate_ = __endDate;\n        _auctionObject.extendedEndDate_ = __endDate;\n    }\n\n    function auctionAddLot(uint __baseValue) external onlyOwner {\n        require(_auctionState == AuctionState.INIT || _auctionState == AuctionState.LOT ,\"Auction is NOT initialized. Initialize auction before adding lots.\");\n        // Can't add more tha one lot if the auction class is Realstate\n        if (_auctionObject.auctionClass_ == AuctionClass.REAL_STATE && _auctionLots.length == 1) { revert(\"Real State auctions only allows one lot\"); }\n        if (_auctionLots.length > _auctionObject.totalAuctionLots_) { revert(\"Cant't add more lots than definded in totalAuctionLots\"); }\n        AuctionLot memory tmpLot;\n        _auctionState = AuctionState.LOT;\n        tmpLot.lotId_ = _auctionLots.length + 1;  //Start at lot 1\n        tmpLot.extensionsCount_ = 0;\n        tmpLot.startDate_ = _auctionObject.startDate_;\n        tmpLot.endDate_ = _auctionObject.endDate_;\n        tmpLot.extendedEndDate_ = _auctionObject.endDate_;\n        tmpLot.baseValue_ = __baseValue;\n        tmpLot.lastTrancheId_ = 0;\n        _auctionLots.push(tmpLot); // Add lot to lot array\n    }  \n\n    function auctionStart() external onlyOwner {\n        _setAuctionStart();\n    }\n\n   function auctionCancel(string memory _cause) external onlyOwner {\n        _auctionCancelation(_cause);\n    }\n\n    // Public Functions\n\n    function getAuctionState() public view returns (AuctionState) {\n        return _auctionState;\n    }\n    \n    // Get contract address blance (sum of all guarantee deposits for each confirmed bidder)\n    function getAuctionBalance() public view returns (uint) {\n        return address(this).balance;\n    } \n    \n    function getConfirmedBiddders() public view returns (uint){\n        return _bidderList.length;\n    }\n\n    function isBidderConfirmed(address _queryBidder) public view returns(bool) {   \n        return (_validBidders[_queryBidder].guaranteeDeposit_ > 0);\n    }\n\n    function getAuctionStartDate() public view returns(uint) {     \n        return _auctionObject.startDate_;\n    }\n\n    function getAuctionEndtDate() public view returns(uint) {     \n        return _auctionObject.extendedEndDate_;\n    }\n\n    function getAuctionClass() public view returns(AuctionClass) {     \n        return _auctionObject.auctionClass_;\n    }\n\n    function getActualTranche(uint _lotId) public view returns (uint,uint) {\n        uint retTrancheId_;\n        uint retValue_;\n        retTrancheId_ = _auctionLots[_lotId-1].actualTrancheId_;\n        if (retTrancheId_ > 0 ) {\n            retValue_ = _tranchesPerLot[_lotId-1][retTrancheId_-1].trancheValue_;\n        } else {\n            retValue_ = _tranchesPerLot[_lotId-1][0].trancheValue_;\n        }\n        return (retTrancheId_, retValue_);\n    }\n\n    function getLastTranche(uint _lotId) public view returns (uint,uint,address) {\n        uint retTrancheId_;\n        uint retValue_;\n        address retBidder_;\n        retTrancheId_ = _auctionLots[_lotId-1].lastTrancheId_;\n        if (retTrancheId_ > 0) {\n            retValue_ = _tranchesPerLot[_lotId-1][retTrancheId_-1].trancheValue_;\n        } else {\n            retValue_ = _tranchesPerLot[_lotId-1][0].trancheValue_;\n        }\n        retBidder_ = _tranchesPerLot[_lotId-1][retTrancheId_-1].trancheBidder_;\n        \n        return (retTrancheId_, retValue_, retBidder_);\n    }\n\n    function getBidderMaximunSecretBid(uint _lotId, address _bidder) public view returns (uint,uint) {\n        uint _retTranche = _validBidders[_bidder].lotSecretBid_[_lotId-1];\n        uint _retAmount = _getLotTrancheValue(_lotId,_retTranche);\n        return (_retTranche, _retAmount);\n    }\n        \n    function getLotQuantity() public view returns (uint) {\n        return _auctionLots.length;\n    }\n\n    function getLotBaseValue(uint _lotId) public view returns (uint) {\n        return _auctionLots[_lotId-1].baseValue_;\n    }\n\n    function getLotTrancheValue(uint _lotId, uint _trancheId) public view returns (uint) {\n        \n        return _getLotTrancheValue(_lotId,_trancheId);\n    }\n    \n    function getLotEndDate(uint _lotId) public view returns (uint) {\n        \n        return _auctionLots[_lotId-1].extendedEndDate_;\n    }\n    function getLotExtensionCount(uint _lotId) public view returns (uint) {\n        \n        return _auctionLots[_lotId-1].extensionsCount_;\n    }\n\n    function bidderSetPreservelastBid(bool _value) public {\n        require(_auctionState == AuctionState.LOT,\"Preserve Last Bid - There must be at least one lot defined.\"); \n        require(_validBidders[msg.sender].guaranteeDeposit_ > 0,\"Bidder is not confirmed\"); \n        require((msg.sender != this.owner()));\n        \n        _validBidders[msg.sender].preserveLastBid_ = _value;\n\n    }\n\n    function bidderSetMaximunSecretBidAmount(uint _lotId, uint _value) public {\n        require(_auctionState == AuctionState.LOT,\"Set Maximun Secret Bid - There must be at least one lot defined.\"); \n        require(_validBidders[msg.sender].guaranteeDeposit_ > 0,\"Bidder is not confirmed\"); \n        require((msg.sender != this.owner()),\"Function cannot be called by contract owner\");\n        require(_value > _auctionLots[_lotId-1].baseValue_,\"Maximun Secret Bid MUST be greater than lot base value.\"); \n        uint _msbTranche;\n        uint _fivePercent;\n        \n        _fivePercent = ((_auctionLots[_lotId-1].baseValue_ / 100) * 5);\n        _msbTranche = ((_value - _auctionLots[_lotId-1].baseValue_) / _fivePercent) + 1;\n        _validBidders[msg.sender].lotSecretBid_[_lotId-1] = _msbTranche-1; // -1 for approaching lower tranche.\n        \n    }\n    function bidderSetMaximunSecretBidTranche(uint _lotId, uint _value) public {\n        require(_auctionState == AuctionState.LOT,\"Set MSB x Tranche - There must be at least one lot defined.\"); \n        require(_validBidders[msg.sender].guaranteeDeposit_ > 0,\"Bidder is not confirmed\"); \n        require((msg.sender != this.owner()),\"Function cannot be called by contract owner\");\n        require(_value >= 1 ,\"Tranche MUST be greater than zero.\"); \n        \n        _validBidders[msg.sender].lotSecretBid_[_lotId-1] = _value;\n    }\n\n    function bid(uint _lotId, uint _trancheId) public {\n        _bid(msg.sender, _lotId, _trancheId);\n        _secretBidPush();\n    } \n    // Internal Functions\n\n    function _getLotTrancheValue(uint _lotId, uint _trancheId) internal view returns (uint) {\n        uint _baseValue = _auctionLots[_lotId-1].baseValue_;\n        uint _factor = _trancheId * 5;\n\n        return _baseValue + ((_baseValue * _factor) / 100);\n    }\n\n    function _confirmBidderInscription(address _bidderAddress, uint _depositAmount, bool _preserveGuaranteeDeposit) internal     {\n        Bidder memory _tmpBidder;\n        uint _LotsLength = _auctionLots.length;\n        require(_auctionState == AuctionState.LOT,\"Confirm Inscription - There must be at least one lot defined.\"); \n        require(_validBidders[_bidderAddress].guaranteeDeposit_ == 0,\"Bidder already confirmed\"); \n        require(_depositAmount >= _auctionObject.guaranteeDeposit_,\"The deposit for confirm inscription MUST be equal or greater than teh guarantee deposit.\");\n        require (block.timestamp <= _auctionObject.startDate_,\"Bidder registration window expired.\");\n        require((msg.sender != this.owner()));\n\n        _tmpBidder.guaranteeDeposit_ = _depositAmount;\n        _tmpBidder.preserveLastBid_ = _preserveGuaranteeDeposit;\n        // initialize Maximun Secret Bid array\n        _validBidders[_bidderAddress] = _tmpBidder;\n        for (uint i=0; i<_LotsLength; i++) {\n            _validBidders[_bidderAddress].lotSecretBid_.push(0);\n        }\n        _bidderList.push(_bidderAddress);\n\n        emit evt_bidderConfirmedInscription(_bidderAddress,\"Confirmed bidder inscription.\");\n    }\n\n    function _setAuctionStart() internal  {\n        require(_auctionState == AuctionState.LOT,\"Auction Start - There must be at least one lot defined.\"); \n        require((block.timestamp + 5 seconds) >= _auctionObject.startDate_ && block.timestamp <= _auctionObject.endDate_,\"Actual time outside auction boundaries\");\n        \n        if (_bidderList.length == 0) {\n             _auctionCancelation(\"No confirmed bidders at auction start\");\n        } else {\n            _auctionState = AuctionState.STARTED;\n            _initTranches();\n            _secretBidPush();\n\n            emit evt_auctionStart(block.timestamp, _auctionObject.auctionCode_);        }\n    }\n    \n    function _auctionCancelation(string memory _cause) internal {\n        require(_auctionState != AuctionState.CANCELED,\"The auction was previusly canceled.\"); \n        require(block.timestamp <= _auctionObject.extendedEndDate_,\"Auction end date reached\");\n        \n        _auctionState = AuctionState.CANCELED;\n        emit evt_auctionCanceled(block.timestamp, _auctionObject.auctionCode_, _cause);\n    }\n\n    function _initTranches() internal {\n        require(_auctionState == AuctionState.STARTED,\"The auction MUST be in STARTED state\");\n        uint _LotsLength = _auctionLots.length;\n        AuctionTranches memory _tmpTranche;\n\n        for (uint i=0; i<_LotsLength; i++) {\n            _tmpTranche.trancheId_ = i+1;\n            _tmpTranche.trancheValue_ = _auctionLots[i].baseValue_;\n            _tmpTranche.trancheConfirmed_ = false;\n            _tranchesPerLot[i].push(_tmpTranche);\n            _auctionLots[i].actualTrancheId_ = 1; \n        }\n    }\n\n    /*\n    This function iterates over each bidder for every lot pushing using the Maximun Secret Bid commited before\n    auction start. The push order is related to the inscription order and the loops ends when no maximun secret bid\n    can beat the last valid automatic bid pushed.\n    */\n    function _secretBidPush() internal  {\n        require(_auctionState == AuctionState.STARTED || _auctionState == AuctionState.EXTENDED,\"The auction MUST be in STARTED state\");\n        require(block.timestamp <= _auctionObject.extendedEndDate_,\"Auction end date reached\");\n        bool _doBid = true;        \n        while (_doBid == true) {\n            _doBid = false;\n            for (uint x=0;x<=_auctionLots.length-1;x++) {\n                for (uint i=0; i<=_bidderList.length-1;i++) {\n                    // if the current iteration bidder has a maximun secret bid greater than auction current tranche and the bidder \n                    // is not the winner of te past tranch, the system pushes a bid in his name.\n                    if (_validBidders[_bidderList[i]].lotSecretBid_[x] > 0 && _validBidders[_bidderList[i]].lotSecretBid_[x] >= _auctionLots[x].actualTrancheId_) {\n                        if (_auctionLots[x].lastTrancheId_ == 0) {\n                            _bid(_bidderList[i], x+1, 1);\n                            _doBid = true;\n                            break;\n                        } else {\n                            if ( _tranchesPerLot[x][_auctionLots[x].lastTrancheId_ -1].trancheBidder_ != _bidderList[i] ) {\n                                _bid(_bidderList[i], x+1, _auctionLots[x].actualTrancheId_);\n                                _doBid=true;\n                                break;\n                            }\n                        }\n                    } else {\n                        if (_validBidders[_bidderList[i]].lotSecretBid_[x] >= _auctionLots[x].actualTrancheId_ &&\n                            _bidderLotMSBBeaten[_bidderList[i]][_auctionLots[x].actualTrancheId_] == false) {\n                            //Bidder's maximun secret bid has been beaten                            \n                            _bidderLotMSBBeaten[_bidderList[i]][_auctionLots[x].actualTrancheId_] = true;\n                            emit evt_maximunSecretBidBeaten(block.timestamp, _bidderList[i]);\n                        }\n                    }\n                }\n            }\n        }\n    }\n\n    function _bid(address _bidder, uint _lotId, uint _bidTranche) internal {\n        require(_auctionState == AuctionState.STARTED || _auctionState == AuctionState.EXTENDED ,\"The auction MUST be in STARTED or EXTENDED state\");\n        require(block.timestamp <= _auctionObject.extendedEndDate_,\"Auction end date reached\");\n        require(_tranchesPerLot[_lotId-1][_bidTranche-1].trancheConfirmed_ == false, \"The tranche is already confirmed.\");        \n        require(_validBidders[_bidder].guaranteeDeposit_ > 0, \"Message sender MUST be a valid bidder\");\n        if (_auctionLots[_lotId-1].lastTrancheId_ > 0) {\n            require(_tranchesPerLot[_lotId-1][_auctionLots[_lotId-1].lastTrancheId_-1].trancheBidder_ != _bidder, \"The bidder already has pushed the last valid bid\");\n        }\n        require(_bidTranche == _auctionLots[_lotId-1].actualTrancheId_,\"Invalid tranche\");\n        AuctionTranches memory _tmpTranche;\n        \n        // updates lot info\n        _auctionLots[_lotId-1].lastTrancheId_ += 1;\n        _auctionLots[_lotId-1].actualTrancheId_ += 1;\n\n        \n        // updates tranche info\n        _tranchesPerLot[_lotId-1][_bidTranche-1].trancheBidder_ = _bidder;\n        _tranchesPerLot[_lotId-1][_bidTranche-1].trancheConfirmed_ = true;\n        _tranchesPerLot[_lotId-1][_bidTranche-1].trancheBidTimestamp_ = block.timestamp;\n\n        // Init next tranche\n        _tmpTranche.trancheId_ = _auctionLots[_lotId-1].actualTrancheId_;\n        _tmpTranche.trancheValue_ = _getLotTrancheValue(_lotId,_auctionLots[_lotId-1].actualTrancheId_);\n        _tmpTranche.trancheConfirmed_ = false;\n        _tranchesPerLot[_lotId-1].push(_tmpTranche);\n\n        // check extension period\n        _extendAuction(_lotId);\n\n        // generates events\n        emit evt_bidConfirmed(block.timestamp, _lotId, _bidTranche, _bidder);\n        \n    }\n\n    function _extendAuction(uint _lotId) internal {\n        require(_auctionState == AuctionState.STARTED || _auctionState == AuctionState.EXTENDED ,\"The auction MUST be in STARTED or EXTENDED state\");\n        require(block.timestamp <= _auctionObject.extendedEndDate_,\"Auction end date reached\");\n        uint extensionPeriod = (_auctionLots[_lotId-1].extendedEndDate_ - 3 minutes);\n\n        // the current bid should be in the last 3 minutes near the end to extend the auction.\n        if (block.timestamp >= extensionPeriod) {\n            _auctionLots[_lotId-1].extendedEndDate_ = ( _auctionLots[_lotId-1].endDate_ + 2 minutes);\n            _auctionLots[_lotId-1].extensionsCount_ += 1;\n            _auctionObject.extendedEndDate_ = ( _auctionLots[_lotId-1].endDate_ + 2 minutes);\n            emit evt_auctionLotExtended(block.timestamp, _lotId, _auctionObject.extendedEndDate_);\n        }\n    } \n    \n\n}\n",
  "sourcePath": "/home/gperez/proyectos/scba-auction-ethereum/contracts/AuctionsSCBA.sol",
  "compiler": {
    "name": "solc",
    "version": "0.8.10+commit.fc410830.Emscripten.clang"
  },
  "schemaVersion": "3.4.4",
  "updatedAt": "2021-12-23T22:29:31.656Z",
  "networkType": "ethereum",
  "devdoc": {
    "kind": "dev",
    "methods": {
      "owner()": {
        "details": "Returns the address of the current owner."
      },
      "renounceOwnership()": {
        "details": "Leaves the contract without owner. It will not be possible to call `onlyOwner` functions anymore. Can only be called by the current owner. NOTE: Renouncing ownership will leave the contract without an owner, thereby removing any functionality that is only available to the owner."
      },
      "transferOwnership(address)": {
        "details": "Transfers ownership of the contract to a new account (`newOwner`). Can only be called by the current owner."
      }
    },
    "version": 1
  },
  "userdoc": {
    "kind": "user",
    "methods": {},
    "version": 1
  }
}