{
  "contractName": "AuctionsSCBA",
  "abi": [
    {
      "inputs": [],
      "stateMutability": "nonpayable",
      "type": "constructor"
    },
    {
      "anonymous": false,
      "inputs": [
        {
          "indexed": true,
          "internalType": "address",
          "name": "previousOwner",
          "type": "address"
        },
        {
          "indexed": true,
          "internalType": "address",
          "name": "newOwner",
          "type": "address"
        }
      ],
      "name": "OwnershipTransferred",
      "type": "event"
    },
    {
      "anonymous": false,
      "inputs": [
        {
          "indexed": false,
          "internalType": "uint256",
          "name": "timeStamp",
          "type": "uint256"
        },
        {
          "indexed": false,
          "internalType": "string",
          "name": "auctionID",
          "type": "string"
        },
        {
          "indexed": false,
          "internalType": "string",
          "name": "cause",
          "type": "string"
        }
      ],
      "name": "evt_auctionCanceled",
      "type": "event"
    },
    {
      "anonymous": false,
      "inputs": [
        {
          "indexed": false,
          "internalType": "uint256",
          "name": "timeStamp",
          "type": "uint256"
        },
        {
          "indexed": false,
          "internalType": "string",
          "name": "auctionID",
          "type": "string"
        }
      ],
      "name": "evt_auctionStart",
      "type": "event"
    },
    {
      "anonymous": false,
      "inputs": [
        {
          "indexed": true,
          "internalType": "address",
          "name": "sender",
          "type": "address"
        },
        {
          "indexed": false,
          "internalType": "string",
          "name": "message",
          "type": "string"
        }
      ],
      "name": "evt_bidderConfirmedInscription",
      "type": "event"
    },
    {
      "inputs": [],
      "name": "owner",
      "outputs": [
        {
          "internalType": "address",
          "name": "",
          "type": "address"
        }
      ],
      "stateMutability": "view",
      "type": "function"
    },
    {
      "inputs": [],
      "name": "renounceOwnership",
      "outputs": [],
      "stateMutability": "nonpayable",
      "type": "function"
    },
    {
      "inputs": [
        {
          "internalType": "address",
          "name": "newOwner",
          "type": "address"
        }
      ],
      "name": "transferOwnership",
      "outputs": [],
      "stateMutability": "nonpayable",
      "type": "function"
    },
    {
      "stateMutability": "payable",
      "type": "receive"
    },
    {
      "inputs": [
        {
          "internalType": "bool",
          "name": "_preserveGuranteeDeposit",
          "type": "bool"
        }
      ],
      "name": "confirmBidderInscription",
      "outputs": [],
      "stateMutability": "payable",
      "type": "function"
    },
    {
      "inputs": [
        {
          "internalType": "string",
          "name": "__auctionCode",
          "type": "string"
        },
        {
          "internalType": "enum AuctionsSCBA.AuctionClass",
          "name": "__auctionClass",
          "type": "uint8"
        },
        {
          "internalType": "uint256",
          "name": "__guaranteeDeposit",
          "type": "uint256"
        },
        {
          "internalType": "uint256",
          "name": "__totalAuctionLots",
          "type": "uint256"
        },
        {
          "internalType": "uint256",
          "name": "__startDate",
          "type": "uint256"
        },
        {
          "internalType": "uint256",
          "name": "__endDate",
          "type": "uint256"
        }
      ],
      "name": "auctionInit",
      "outputs": [],
      "stateMutability": "nonpayable",
      "type": "function"
    },
    {
      "inputs": [
        {
          "internalType": "uint256",
          "name": "__baseValue",
          "type": "uint256"
        }
      ],
      "name": "auctionAddLot",
      "outputs": [],
      "stateMutability": "nonpayable",
      "type": "function"
    },
    {
      "inputs": [],
      "name": "auctionStart",
      "outputs": [],
      "stateMutability": "nonpayable",
      "type": "function"
    },
    {
      "inputs": [
        {
          "internalType": "string",
          "name": "_cause",
          "type": "string"
        }
      ],
      "name": "auctionCancel",
      "outputs": [],
      "stateMutability": "nonpayable",
      "type": "function"
    },
    {
      "inputs": [],
      "name": "getAuctionState",
      "outputs": [
        {
          "internalType": "enum AuctionsSCBA.AuctionState",
          "name": "",
          "type": "uint8"
        }
      ],
      "stateMutability": "view",
      "type": "function"
    },
    {
      "inputs": [],
      "name": "getAuctionBalance",
      "outputs": [
        {
          "internalType": "uint256",
          "name": "",
          "type": "uint256"
        }
      ],
      "stateMutability": "view",
      "type": "function"
    },
    {
      "inputs": [],
      "name": "getConfirmedBiddders",
      "outputs": [
        {
          "internalType": "uint256",
          "name": "",
          "type": "uint256"
        }
      ],
      "stateMutability": "view",
      "type": "function"
    },
    {
      "inputs": [
        {
          "internalType": "address",
          "name": "_queryBidder",
          "type": "address"
        }
      ],
      "name": "isBidderConfirmed",
      "outputs": [
        {
          "internalType": "bool",
          "name": "",
          "type": "bool"
        }
      ],
      "stateMutability": "view",
      "type": "function"
    },
    {
      "inputs": [],
      "name": "getAuctionStartDate",
      "outputs": [
        {
          "internalType": "uint256",
          "name": "",
          "type": "uint256"
        }
      ],
      "stateMutability": "view",
      "type": "function"
    },
    {
      "inputs": [],
      "name": "getAuctionEndtDate",
      "outputs": [
        {
          "internalType": "uint256",
          "name": "",
          "type": "uint256"
        }
      ],
      "stateMutability": "view",
      "type": "function"
    },
    {
      "inputs": [],
      "name": "getAuctionClass",
      "outputs": [
        {
          "internalType": "enum AuctionsSCBA.AuctionClass",
          "name": "",
          "type": "uint8"
        }
      ],
      "stateMutability": "view",
      "type": "function"
    },
    {
      "inputs": [
        {
          "internalType": "bool",
          "name": "_value",
          "type": "bool"
        }
      ],
      "name": "bidderSetPreservelastBid",
      "outputs": [],
      "stateMutability": "nonpayable",
      "type": "function"
    },
    {
      "inputs": [
        {
          "internalType": "uint256",
          "name": "_value",
          "type": "uint256"
        }
      ],
      "name": "bidderSetMaximunSecretBid",
      "outputs": [],
      "stateMutability": "nonpayable",
      "type": "function"
    }
  ],
  "bytecode": "0x60806040523480156200001157600080fd5b5062000032620000266200007e60201b60201c565b6200008660201b60201c565b6000600260006101000a81548160ff021916908360068111156200005b576200005a6200014a565b5b02179055506000600b819055506000600c819055506000600e8190555062000179565b600033905090565b60008060009054906101000a900473ffffffffffffffffffffffffffffffffffffffff169050816000806101000a81548173ffffffffffffffffffffffffffffffffffffffff021916908373ffffffffffffffffffffffffffffffffffffffff1602179055508173ffffffffffffffffffffffffffffffffffffffff168173ffffffffffffffffffffffffffffffffffffffff167f8be0079c531659141344cd1fd0a4f28419497f9722a3daafe3b4186f6b6457e060405160405180910390a35050565b7f4e487b7100000000000000000000000000000000000000000000000000000000600052602160045260246000fd5b6128d880620001896000396000f3fe6080604052600436106101025760003560e01c8063715018a611610095578063c455d0cb11610064578063c455d0cb14610302578063d262c0e51461032d578063d698562114610356578063f0c019df14610372578063f2fde38b1461039b57610115565b8063715018a61461026c5780637786ce34146102835780638da5cb5b146102ae578063a9a484ef146102d957610115565b80634f245ef7116100d15780634f245ef7146101c657806359ec35d8146101dd5780635e464d511461021a57806361dd3bcc1461024357610115565b806308bfc3001461011a5780631499cf111461014557806325a35e73146101705780634a8bb6ed1461019b57610115565b3661011557610113333460006103c4565b005b600080fd5b34801561012657600080fd5b5061012f6106d3565b60405161013c919061199f565b60405180910390f35b34801561015157600080fd5b5061015a6106ea565b60405161016791906119d3565b60405180910390f35b34801561017c57600080fd5b506101856106f7565b60405161019291906119d3565b60405180910390f35b3480156101a757600080fd5b506101b06106ff565b6040516101bd91906119d3565b60405180910390f35b3480156101d257600080fd5b506101db610709565b005b3480156101e957600080fd5b5061020460048036038101906101ff9190611a60565b61078f565b6040516102119190611aa8565b60405180910390f35b34801561022657600080fd5b50610241600480360381019061023c9190611c09565b6107dd565b005b34801561024f57600080fd5b5061026a60048036038101906102659190611c7e565b610865565b005b34801561027857600080fd5b50610281610a64565b005b34801561028f57600080fd5b50610298610aec565b6040516102a591906119d3565b60405180910390f35b3480156102ba57600080fd5b506102c3610af9565b6040516102d09190611cba565b60405180910390f35b3480156102e557600080fd5b5061030060048036038101906102fb9190611d01565b610b22565b005b34801561030e57600080fd5b50610317610d0e565b6040516103249190611d76565b60405180910390f35b34801561033957600080fd5b50610354600480360381019061034f9190611d01565b610d28565b005b610370600480360381019061036b9190611c7e565b61114c565b005b34801561037e57600080fd5b5061039960048036038101906103949190611db6565b61115a565b005b3480156103a757600080fd5b506103c260048036038101906103bd9190611a60565b611349565b005b6103cc6117c2565b828160000181815250508181602001901515908115158152505060008160400181815250506000816060018181525050600260068111156104105761040f611928565b5b600260009054906101000a900460ff16600681111561043257610431611928565b5b14610472576040517f08c379a000000000000000000000000000000000000000000000000000000000815260040161046990611ee2565b60405180910390fd5b6000600960008673ffffffffffffffffffffffffffffffffffffffff1673ffffffffffffffffffffffffffffffffffffffff16815260200190815260200160002060000154146104f7576040517f08c379a00000000000000000000000000000000000000000000000000000000081526004016104ee90611f4e565b60405180910390fd5b60036002015483101561053f576040517f08c379a000000000000000000000000000000000000000000000000000000000815260040161053690612006565b60405180910390fd5b3073ffffffffffffffffffffffffffffffffffffffff16638da5cb5b6040518163ffffffff1660e01b8152600401602060405180830381865afa15801561058a573d6000803e3d6000fd5b505050506040513d601f19601f820116820180604052508101906105ae919061203b565b73ffffffffffffffffffffffffffffffffffffffff163373ffffffffffffffffffffffffffffffffffffffff1614156105e657600080fd5b80600960008673ffffffffffffffffffffffffffffffffffffffff1673ffffffffffffffffffffffffffffffffffffffff1681526020019081526020016000206000820151816000015560208201518160010160006101000a81548160ff02191690831515021790555060408201518160020155606082015181600301559050506001600e600082825461067a9190612097565b925050819055508373ffffffffffffffffffffffffffffffffffffffff167f2bcb2fe5b94813e883d2308e17a49fb21fb91863c646b56c2dbeb3069bd739116040516106c590612139565b60405180910390a250505050565b6000600260009054906101000a900460ff16905090565b6000600360040154905090565b600047905090565b6000600e54905090565b610711611441565b73ffffffffffffffffffffffffffffffffffffffff1661072f610af9565b73ffffffffffffffffffffffffffffffffffffffff1614610785576040517f08c379a000000000000000000000000000000000000000000000000000000000815260040161077c906121a5565b60405180910390fd5b61078d611449565b565b600080600960008473ffffffffffffffffffffffffffffffffffffffff1673ffffffffffffffffffffffffffffffffffffffff16815260200190815260200160002060000154119050919050565b6107e5611441565b73ffffffffffffffffffffffffffffffffffffffff16610803610af9565b73ffffffffffffffffffffffffffffffffffffffff1614610859576040517f08c379a0000000000000000000000000000000000000000000000000000000008152600401610850906121a5565b60405180910390fd5b610862816115b4565b50565b6002600681111561087957610878611928565b5b600260009054906101000a900460ff16600681111561089b5761089a611928565b5b146108db576040517f08c379a00000000000000000000000000000000000000000000000000000000081526004016108d290611ee2565b60405180910390fd5b6000600960003373ffffffffffffffffffffffffffffffffffffffff1673ffffffffffffffffffffffffffffffffffffffff1681526020019081526020016000206000015411610960576040517f08c379a000000000000000000000000000000000000000000000000000000000815260040161095790612211565b60405180910390fd5b3073ffffffffffffffffffffffffffffffffffffffff16638da5cb5b6040518163ffffffff1660e01b8152600401602060405180830381865afa1580156109ab573d6000803e3d6000fd5b505050506040513d601f19601f820116820180604052508101906109cf919061203b565b73ffffffffffffffffffffffffffffffffffffffff163373ffffffffffffffffffffffffffffffffffffffff161415610a0757600080fd5b80600960003373ffffffffffffffffffffffffffffffffffffffff1673ffffffffffffffffffffffffffffffffffffffff16815260200190815260200160002060010160006101000a81548160ff02191690831515021790555050565b610a6c611441565b73ffffffffffffffffffffffffffffffffffffffff16610a8a610af9565b73ffffffffffffffffffffffffffffffffffffffff1614610ae0576040517f08c379a0000000000000000000000000000000000000000000000000000000008152600401610ad7906121a5565b60405180910390fd5b610aea60006116fe565b565b6000600360050154905090565b60008060009054906101000a900473ffffffffffffffffffffffffffffffffffffffff16905090565b60026006811115610b3657610b35611928565b5b600260009054906101000a900460ff166006811115610b5857610b57611928565b5b14610b98576040517f08c379a0000000000000000000000000000000000000000000000000000000008152600401610b8f90611ee2565b60405180910390fd5b6000600960003373ffffffffffffffffffffffffffffffffffffffff1673ffffffffffffffffffffffffffffffffffffffff1681526020019081526020016000206000015411610c1d576040517f08c379a0000000000000000000000000000000000000000000000000000000008152600401610c1490612211565b60405180910390fd5b3073ffffffffffffffffffffffffffffffffffffffff16638da5cb5b6040518163ffffffff1660e01b8152600401602060405180830381865afa158015610c68573d6000803e3d6000fd5b505050506040513d601f19601f82011682018060405250810190610c8c919061203b565b73ffffffffffffffffffffffffffffffffffffffff163373ffffffffffffffffffffffffffffffffffffffff161415610cc457600080fd5b80600960003373ffffffffffffffffffffffffffffffffffffffff1673ffffffffffffffffffffffffffffffffffffffff1681526020019081526020016000206002018190555050565b6000600360010160009054906101000a900460ff16905090565b610d30611441565b73ffffffffffffffffffffffffffffffffffffffff16610d4e610af9565b73ffffffffffffffffffffffffffffffffffffffff1614610da4576040517f08c379a0000000000000000000000000000000000000000000000000000000008152600401610d9b906121a5565b60405180910390fd5b60016006811115610db857610db7611928565b5b600260009054906101000a900460ff166006811115610dda57610dd9611928565b5b1480610e19575060026006811115610df557610df4611928565b5b600260009054906101000a900460ff166006811115610e1757610e16611928565b5b145b610e58576040517f08c379a0000000000000000000000000000000000000000000000000000000008152600401610e4f906122c9565b60405180910390fd5b60006002811115610e6c57610e6b611928565b5b600360010160009054906101000a900460ff166002811115610e9157610e90611928565b5b148015610ea2575060018080549050145b15610ee2576040517f08c379a0000000000000000000000000000000000000000000000000000000008152600401610ed99061235b565b60405180910390fd5b60038001546001805490501115610f2e576040517f08c379a0000000000000000000000000000000000000000000000000000000008152600401610f25906123ed565b60405180910390fd5b610f366117ec565b610f3e61184e565b60028060006101000a81548160ff02191690836006811115610f6357610f62611928565b5b02179055506001600b6000828254610f7b9190612097565b9250508190555060018080549050610f939190612097565b82600001818152505060008260a001818152505060036004015482602001818152505060036005015482604001818152505060036005015482608001818152505060008260e0018181525050828260600181815250506000826101000181815250506001829080600181540180825580915050600190039060005260206000209060090201600090919091909150600082015181600001556020820151816001015560408201518160020155606082015181600301556080820151816004015560a0820151816005015560c08201518160060160006101000a81548173ffffffffffffffffffffffffffffffffffffffff021916908373ffffffffffffffffffffffffffffffffffffffff16021790555060e0820151816007015561010082015181600801555050600b548160000181815250508281602001818152505080600a600083600001518152602001908152602001600020600082015181600001556020820151816001015560408201518160020160006101000a81548173ffffffffffffffffffffffffffffffffffffffff021916908373ffffffffffffffffffffffffffffffffffffffff160217905550905050505050565b6111573334836103c4565b50565b611162611441565b73ffffffffffffffffffffffffffffffffffffffff16611180610af9565b73ffffffffffffffffffffffffffffffffffffffff16146111d6576040517f08c379a00000000000000000000000000000000000000000000000000000000081526004016111cd906121a5565b60405180910390fd5b600060068111156111ea576111e9611928565b5b600260009054906101000a900460ff16600681111561120c5761120b611928565b5b1461124c576040517f08c379a000000000000000000000000000000000000000000000000000000000815260040161124390612459565b60405180910390fd5b8142108015611269575080620d2f00836112669190612097565b11155b6112a8576040517f08c379a000000000000000000000000000000000000000000000000000000000815260040161129f906124c5565b60405180910390fd5b6001600260006101000a81548160ff021916908360068111156112ce576112cd611928565b5b021790555085600360000190805190602001906112ec929190611885565b5084600360010160006101000a81548160ff0219169083600281111561131557611314611928565b5b0217905550836003600201819055508260038001819055508160036004018190555080600360050181905550505050505050565b611351611441565b73ffffffffffffffffffffffffffffffffffffffff1661136f610af9565b73ffffffffffffffffffffffffffffffffffffffff16146113c5576040517f08c379a00000000000000000000000000000000000000000000000000000000081526004016113bc906121a5565b60405180910390fd5b600073ffffffffffffffffffffffffffffffffffffffff168173ffffffffffffffffffffffffffffffffffffffff161415611435576040517f08c379a000000000000000000000000000000000000000000000000000000000815260040161142c90612557565b60405180910390fd5b61143e816116fe565b50565b600033905090565b6002600681111561145d5761145c611928565b5b600260009054906101000a900460ff16600681111561147f5761147e611928565b5b146114bf576040517f08c379a00000000000000000000000000000000000000000000000000000000081526004016114b690611ee2565b60405180910390fd5b60036004015442101580156114d957506003600501544211155b611518576040517f08c379a000000000000000000000000000000000000000000000000000000000815260040161150f906125e9565b60405180910390fd5b6000600e5414156115495761154460405180606001604052806025815260200161287e602591396115b4565b6115b2565b6003600260006101000a81548160ff0219169083600681111561156f5761156e611928565b5b02179055507fb7dc4d36b2ca1a9476d5e4f14a23c3e629a0fd4f3af8c71c176f1c69d99952634260036000016040516115a99291906126ff565b60405180910390a15b565b600360068111156115c8576115c7611928565b5b600260009054906101000a900460ff1660068111156115ea576115e9611928565b5b1480156115f957506000600e54115b611638576040517f08c379a000000000000000000000000000000000000000000000000000000000815260040161162f906127a1565b60405180910390fd5b600360040154421015801561165257506003600501544211155b611691576040517f08c379a0000000000000000000000000000000000000000000000000000000008152600401611688906125e9565b60405180910390fd5b6006600260006101000a81548160ff021916908360068111156116b7576116b6611928565b5b02179055507f699708c90a98fcdcc8862c08ac7a618790cf0bb5f4b50bca7487f71263bd9263426003600001836040516116f393929190612838565b60405180910390a150565b60008060009054906101000a900473ffffffffffffffffffffffffffffffffffffffff169050816000806101000a81548173ffffffffffffffffffffffffffffffffffffffff021916908373ffffffffffffffffffffffffffffffffffffffff1602179055508173ffffffffffffffffffffffffffffffffffffffff168173ffffffffffffffffffffffffffffffffffffffff167f8be0079c531659141344cd1fd0a4f28419497f9722a3daafe3b4186f6b6457e060405160405180910390a35050565b60405180608001604052806000815260200160001515815260200160008152602001600081525090565b604051806101200160405280600081526020016000815260200160008152602001600081526020016000815260200160008152602001600073ffffffffffffffffffffffffffffffffffffffff16815260200160008152602001600081525090565b60405180606001604052806000815260200160008152602001600073ffffffffffffffffffffffffffffffffffffffff1681525090565b82805461189190612638565b90600052602060002090601f0160209004810192826118b357600085556118fa565b82601f106118cc57805160ff19168380011785556118fa565b828001600101855582156118fa579182015b828111156118f95782518255916020019190600101906118de565b5b509050611907919061190b565b5090565b5b8082111561192457600081600090555060010161190c565b5090565b7f4e487b7100000000000000000000000000000000000000000000000000000000600052602160045260246000fd5b6007811061196857611967611928565b5b50565b600081905061197982611957565b919050565b60006119898261196b565b9050919050565b6119998161197e565b82525050565b60006020820190506119b46000830184611990565b92915050565b6000819050919050565b6119cd816119ba565b82525050565b60006020820190506119e860008301846119c4565b92915050565b6000604051905090565b600080fd5b600080fd5b600073ffffffffffffffffffffffffffffffffffffffff82169050919050565b6000611a2d82611a02565b9050919050565b611a3d81611a22565b8114611a4857600080fd5b50565b600081359050611a5a81611a34565b92915050565b600060208284031215611a7657611a756119f8565b5b6000611a8484828501611a4b565b91505092915050565b60008115159050919050565b611aa281611a8d565b82525050565b6000602082019050611abd6000830184611a99565b92915050565b600080fd5b600080fd5b6000601f19601f8301169050919050565b7f4e487b7100000000000000000000000000000000000000000000000000000000600052604160045260246000fd5b611b1682611acd565b810181811067ffffffffffffffff82111715611b3557611b34611ade565b5b80604052505050565b6000611b486119ee565b9050611b548282611b0d565b919050565b600067ffffffffffffffff821115611b7457611b73611ade565b5b611b7d82611acd565b9050602081019050919050565b82818337600083830152505050565b6000611bac611ba784611b59565b611b3e565b905082815260208101848484011115611bc857611bc7611ac8565b5b611bd3848285611b8a565b509392505050565b600082601f830112611bf057611bef611ac3565b5b8135611c00848260208601611b99565b91505092915050565b600060208284031215611c1f57611c1e6119f8565b5b600082013567ffffffffffffffff811115611c3d57611c3c6119fd565b5b611c4984828501611bdb565b91505092915050565b611c5b81611a8d565b8114611c6657600080fd5b50565b600081359050611c7881611c52565b92915050565b600060208284031215611c9457611c936119f8565b5b6000611ca284828501611c69565b91505092915050565b611cb481611a22565b82525050565b6000602082019050611ccf6000830184611cab565b92915050565b611cde816119ba565b8114611ce957600080fd5b50565b600081359050611cfb81611cd5565b92915050565b600060208284031215611d1757611d166119f8565b5b6000611d2584828501611cec565b91505092915050565b60038110611d3f57611d3e611928565b5b50565b6000819050611d5082611d2e565b919050565b6000611d6082611d42565b9050919050565b611d7081611d55565b82525050565b6000602082019050611d8b6000830184611d67565b92915050565b60038110611d9e57600080fd5b50565b600081359050611db081611d91565b92915050565b60008060008060008060c08789031215611dd357611dd26119f8565b5b600087013567ffffffffffffffff811115611df157611df06119fd565b5b611dfd89828a01611bdb565b9650506020611e0e89828a01611da1565b9550506040611e1f89828a01611cec565b9450506060611e3089828a01611cec565b9350506080611e4189828a01611cec565b92505060a0611e5289828a01611cec565b9150509295509295509295565b600082825260208201905092915050565b7f5468657265206d757374206265206174206c65617374206f6e65206c6f74206460008201527f6566696e65642e00000000000000000000000000000000000000000000000000602082015250565b6000611ecc602783611e5f565b9150611ed782611e70565b604082019050919050565b60006020820190508181036000830152611efb81611ebf565b9050919050565b7f42696464657220616c726561647920636f6e6669726d65640000000000000000600082015250565b6000611f38601883611e5f565b9150611f4382611f02565b602082019050919050565b60006020820190508181036000830152611f6781611f2b565b9050919050565b7f546865206465706f73697420666f7220636f6e6669726d20696e73637269707460008201527f696f6e204d55535420626520657175616c206f7220677265617465722074686160208201527f6e207465682067756172616e746565206465706f7369742e0000000000000000604082015250565b6000611ff0605883611e5f565b9150611ffb82611f6e565b606082019050919050565b6000602082019050818103600083015261201f81611fe3565b9050919050565b60008151905061203581611a34565b92915050565b600060208284031215612051576120506119f8565b5b600061205f84828501612026565b91505092915050565b7f4e487b7100000000000000000000000000000000000000000000000000000000600052601160045260246000fd5b60006120a2826119ba565b91506120ad836119ba565b9250827fffffffffffffffffffffffffffffffffffffffffffffffffffffffffffffffff038211156120e2576120e1612068565b5b828201905092915050565b7f436f6e6669726d65642062696464657220696e736372697074696f6e2e000000600082015250565b6000612123601d83611e5f565b915061212e826120ed565b602082019050919050565b6000602082019050818103600083015261215281612116565b9050919050565b7f4f776e61626c653a2063616c6c6572206973206e6f7420746865206f776e6572600082015250565b600061218f602083611e5f565b915061219a82612159565b602082019050919050565b600060208201905081810360008301526121be81612182565b9050919050565b7f426964646572206973206e6f7420636f6e6669726d6564000000000000000000600082015250565b60006121fb601783611e5f565b9150612206826121c5565b602082019050919050565b6000602082019050818103600083015261222a816121ee565b9050919050565b7f41756374696f6e206973204e4f5420696e697469616c697a65642e20496e697460008201527f69616c697a652061756374696f6e206265666f726520616464696e67206c6f7460208201527f732e000000000000000000000000000000000000000000000000000000000000604082015250565b60006122b3604283611e5f565b91506122be82612231565b606082019050919050565b600060208201905081810360008301526122e2816122a6565b9050919050565b7f5265616c2053746174652061756374696f6e73206f6e6c7920616c6c6f77732060008201527f6f6e65206c6f7400000000000000000000000000000000000000000000000000602082015250565b6000612345602783611e5f565b9150612350826122e9565b604082019050919050565b6000602082019050818103600083015261237481612338565b9050919050565b7f43616e74277420616464206d6f7265206c6f7473207468616e20646566696e6460008201527f656420696e20746f74616c41756374696f6e4c6f747300000000000000000000602082015250565b60006123d7603683611e5f565b91506123e28261237b565b604082019050919050565b60006020820190508181036000830152612406816123ca565b9050919050565b7f41756374696f6e20616c726561647920696e697469616c697a65640000000000600082015250565b6000612443601b83611e5f565b915061244e8261240d565b602082019050919050565b6000602082019050818103600083015261247281612436565b9050919050565b7f496e76616c696420646174657300000000000000000000000000000000000000600082015250565b60006124af600d83611e5f565b91506124ba82612479565b602082019050919050565b600060208201905081810360008301526124de816124a2565b9050919050565b7f4f776e61626c653a206e6577206f776e657220697320746865207a65726f206160008201527f6464726573730000000000000000000000000000000000000000000000000000602082015250565b6000612541602683611e5f565b915061254c826124e5565b604082019050919050565b6000602082019050818103600083015261257081612534565b9050919050565b7f41637475616c2074696d65206f7574736964652061756374696f6e20626f756e60008201527f6461726965730000000000000000000000000000000000000000000000000000602082015250565b60006125d3602683611e5f565b91506125de82612577565b604082019050919050565b60006020820190508181036000830152612602816125c6565b9050919050565b7f4e487b7100000000000000000000000000000000000000000000000000000000600052602260045260246000fd5b6000600282049050600182168061265057607f821691505b6020821081141561266457612663612609565b5b50919050565b60008190508160005260206000209050919050565b6000815461268c81612638565b6126968186611e5f565b945060018216600081146126b157600181146126c3576126f6565b60ff19831686526020860193506126f6565b6126cc8561266a565b60005b838110156126ee578154818901526001820191506020810190506126cf565b808801955050505b50505092915050565b600060408201905061271460008301856119c4565b8181036020830152612726818461267f565b90509392505050565b7f5468652061756374696f6e204d55535420626520696e2053544152544544207360008201527f746174652e000000000000000000000000000000000000000000000000000000602082015250565b600061278b602583611e5f565b91506127968261272f565b604082019050919050565b600060208201905081810360008301526127ba8161277e565b9050919050565b600081519050919050565b60005b838110156127ea5780820151818401526020810190506127cf565b838111156127f9576000848401525b50505050565b600061280a826127c1565b6128148185611e5f565b93506128248185602086016127cc565b61282d81611acd565b840191505092915050565b600060608201905061284d60008301866119c4565b818103602083015261285f818561267f565b9050818103604083015261287381846127ff565b905094935050505056fe4e6f20636f6e6669726d656420626f64646572732061742061756374696f6e207374617274a26469706673582212203428a6ac40f6ea6f5159b24525ea4914f12473e6c23c7a9b8ab3d15e751827e664736f6c634300080a0033",
  "immutableReferences": {},
  "source": "// SPDX-License-Identifier: MIT\npragma solidity >=0.4.22 <0.9.0;\n\nimport \"@openzeppelin/contracts/access/Ownable.sol\";\n\n/***\n * This contract implementas public auctions at Supreme Court in Buenos Aires Province @ Argetina.\n */\n\ncontract AuctionsSCBA is Ownable {\n    \n    // Events\n\n    event evt_bidderConfirmedInscription(address indexed sender, string message);\n    event evt_auctionStart(uint timeStamp, string auctionID);\n    event evt_auctionCanceled(uint timeStamp, string auctionID, string cause);\n\n    // Custom data types\n\n    enum AuctionClass {REAL_STATE,MOBILE,MOBILE_REGISTER}\n    enum AuctionState {NO_INIT,INIT,LOT,STARTED,EXTENDED,ENDED,CANCELED}\n    struct AuctionLot {\n        uint lotId_;\n        uint startDate_;\n        uint endDate_;\n        uint baseValue_;\n        uint extendedEndDate_;\n        uint extensionsCount_;\n        address winner_;\n        uint winnerTranche_;\n        uint lastTrancheId_;\n    }\n    struct Auction {\n        string auctionCode_;\n        AuctionClass auctionClass_;\n        uint guaranteeDeposit_;\n        uint totalAuctionLots_;\n        uint startDate_;\n        uint endDate_;\n    }\n    struct Bidder {\n        uint guaranteeDeposit_; // Deposited amount in wei for confirm auction inscription\n        bool preserveLastBid_;  // If he wants to preserve his last bid in case the winner doesn't confirm the buy. \n                               // if preserve bid is true, the bidder cannot withdraw founds after auction ending.\n        uint secretBidAmount_;  // top limit amount for wich the contract will push bids in behalf the bidder. \n        uint lastBidderTrancheId_; // last correct bid amount for this bidder.\n    }\n    struct AuctionTranches {\n        uint trancheId_;\n        uint trancheValue_;\n        address trancheBidder_;\n    }\n\n    // State Variables\n\n    AuctionLot[] private _auctionLots; // Auction lots array\n    AuctionState private _auctionState; // Actual auction state\n    Auction private _auctionObject; // Instance of auction data\n    mapping (address => Bidder) private _validBidders; // Valid registered bidders\n    mapping (uint => AuctionTranches) private _tranchesPerLot;\n    uint private  _lastTrancheId; // Last valid received bid\n    uint private  _lastTrancheValue;  \n    address private _lastBidderAddress; // Last bidder with a valid bid accepted\n    uint private _confirmedBidders;\n\n   // Constructor\n\n    constructor () {\n        // State variables initialization\n        _auctionState = AuctionState.NO_INIT;\n        _lastTrancheId = 0;\n        _lastTrancheValue = 0;\n        _confirmedBidders = 0;\n    }\n\n    // Receive functions\n\n    function confirmBidderInscription(bool _preserveGuranteeDeposit) external payable {\n        _confirmBidderInscription(msg.sender, msg.value, _preserveGuranteeDeposit);\n    }\n\n    // Fallback function\n\n    receive() external payable {\n       _confirmBidderInscription(msg.sender, msg.value,false); \n    } \n\n    // External Functions\n\n    function auctionInit(\n        string memory __auctionCode,\n        AuctionClass __auctionClass, \n        uint __guaranteeDeposit, \n        uint __totalAuctionLots,\n        uint __startDate,\n        uint __endDate \n    ) external onlyOwner  {\n        require(_auctionState  == AuctionState.NO_INIT, \"Auction already initialized\");\n        require(block.timestamp < __startDate && (__startDate + 10 days) <= __endDate,\"Invalid dates\");\n        _auctionState = AuctionState.INIT;\n        _auctionObject.auctionCode_ = __auctionCode;\n        _auctionObject.auctionClass_ = __auctionClass;\n        _auctionObject.guaranteeDeposit_ = __guaranteeDeposit;\n        _auctionObject.totalAuctionLots_ = __totalAuctionLots;\n        _auctionObject.startDate_ = __startDate;\n        _auctionObject.endDate_ = __endDate;\n    }\n\n    function auctionAddLot(uint __baseValue) external onlyOwner {\n        require(_auctionState == AuctionState.INIT || _auctionState == AuctionState.LOT ,\"Auction is NOT initialized. Initialize auction before adding lots.\");\n        // Can't add more tha one lot if the auction class is Realstate\n        if (_auctionObject.auctionClass_ == AuctionClass.REAL_STATE && _auctionLots.length == 1) { revert(\"Real State auctions only allows one lot\"); }\n        if (_auctionLots.length > _auctionObject.totalAuctionLots_) { revert(\"Cant't add more lots than definded in totalAuctionLots\"); }\n        AuctionLot memory tmpLot;\n        AuctionTranches memory tmpTranches;\n        _auctionState = AuctionState.LOT;\n        _lastTrancheId += 1;\n        tmpLot.lotId_ = _auctionLots.length + 1;  //Start at lot 1\n        tmpLot.extensionsCount_ = 0;\n        tmpLot.startDate_ = _auctionObject.startDate_;\n        tmpLot.endDate_ = _auctionObject.endDate_;\n        tmpLot.extendedEndDate_ = _auctionObject.endDate_;\n        tmpLot.winnerTranche_ = 0;\n        tmpLot.baseValue_ = __baseValue;\n        tmpLot.lastTrancheId_ = 0;\n        _auctionLots.push(tmpLot); // Add lot to lot array\n        tmpTranches.trancheId_ = _lastTrancheId; // Start at tranche 1\n        tmpTranches.trancheValue_ = __baseValue;\n        _tranchesPerLot[tmpTranches.trancheId_] = tmpTranches; // add tranche data to auctionTranches mapping;\n    }  \n\n    function auctionStart() external onlyOwner {\n        _setAuctionStart();\n    }\n\n   function auctionCancel(string memory _cause) external onlyOwner {\n        _auctionCancelation(_cause);\n    }\n\n    // Public Functions\n\n    function getAuctionState() public view returns (AuctionState) {\n        return _auctionState;\n    }\n    \n    // Get contract address blance (sum of all guarantee deposits for each confirmed bidder)\n    function getAuctionBalance() public view returns (uint) {\n        return address(this).balance;\n    } \n    \n    function getConfirmedBiddders() public view returns (uint){\n        return _confirmedBidders;\n    }\n\n    function isBidderConfirmed(address _queryBidder) public view returns(bool) {     \n        return (_validBidders[_queryBidder].guaranteeDeposit_ > 0);\n    }\n\n    function getAuctionStartDate() public view returns(uint) {     \n        return _auctionObject.startDate_;\n    }\n\n    function getAuctionEndtDate() public view returns(uint) {     \n        return _auctionObject.endDate_;\n    }\n\n    function getAuctionClass() public view returns(AuctionClass) {     \n        return _auctionObject.auctionClass_;\n    }\n\n    function bidderSetPreservelastBid(bool _value) public {\n        require(_auctionState == AuctionState.LOT,\"There must be at least one lot defined.\"); \n        require(_validBidders[msg.sender].guaranteeDeposit_ > 0,\"Bidder is not confirmed\"); \n        require((msg.sender != this.owner()));\n        \n        _validBidders[msg.sender].preserveLastBid_ = _value;\n\n    }\n\n    function bidderSetMaximunSecretBid(uint _value) public {\n        require(_auctionState == AuctionState.LOT,\"There must be at least one lot defined.\"); \n        require(_validBidders[msg.sender].guaranteeDeposit_ > 0,\"Bidder is not confirmed\"); \n        require((msg.sender != this.owner()));\n        \n        _validBidders[msg.sender].secretBidAmount_ = _value;\n\n    }\n\n    // Internal Functions\n\n    function _confirmBidderInscription(address _bidderAddress, uint _depositAmount, bool _preserveGuaranteeDeposit) internal     {\n        Bidder memory _tmpBidder;\n        _tmpBidder.guaranteeDeposit_ = _depositAmount;\n        _tmpBidder.preserveLastBid_ = _preserveGuaranteeDeposit;\n        _tmpBidder.secretBidAmount_ = 0;\n        _tmpBidder.lastBidderTrancheId_ = 0;\n\n        require(_auctionState == AuctionState.LOT,\"There must be at least one lot defined.\"); \n        require(_validBidders[_bidderAddress].guaranteeDeposit_ == 0,\"Bidder already confirmed\"); \n        require(_depositAmount >= _auctionObject.guaranteeDeposit_,\"The deposit for confirm inscription MUST be equal or greater than teh guarantee deposit.\");\n        require((msg.sender != this.owner()));\n\n        _validBidders[_bidderAddress] = _tmpBidder;\n        _confirmedBidders += 1;\n\n        emit evt_bidderConfirmedInscription(_bidderAddress,\"Confirmed bidder inscription.\");\n    }\n\n    function _setAuctionStart() internal  {\n        require(_auctionState == AuctionState.LOT,\"There must be at least one lot defined.\"); \n        require(block.timestamp >= _auctionObject.startDate_ && block.timestamp <= _auctionObject.endDate_,\"Actual time outside auction boundaries\");\n        \n        if (_confirmedBidders == 0) {\n             _auctionCancelation(\"No confirmed bodders at auction start\");\n        } else {\n            _auctionState = AuctionState.STARTED;\n            emit evt_auctionStart(block.timestamp, _auctionObject.auctionCode_);\n        }\n    }\n    \n    function _auctionCancelation(string memory _cause) internal {\n        require(_auctionState == AuctionState.STARTED && _confirmedBidders > 0,\"The auction MUST be in STARTED state.\"); \n        require(block.timestamp >= _auctionObject.startDate_ && block.timestamp <= _auctionObject.endDate_,\"Actual time outside auction boundaries\");\n        \n        _auctionState = AuctionState.CANCELED;\n        emit evt_auctionCanceled(block.timestamp, _auctionObject.auctionCode_, _cause);\n    }\n\n    // Implementar funciones para obtener info de la subasta\n    // Lotes\n    // Tramos\n}\n",
  "sourcePath": "/home/gperez/proyectos/subastas/contracts/AuctionsSCBA.sol",
  "compiler": {
    "name": "solc",
    "version": "0.8.10+commit.fc410830.Emscripten.clang"
  },
  "schemaVersion": "3.4.3",
  "updatedAt": "2021-12-12T12:15:11.433Z",
  "devdoc": {
    "kind": "dev",
    "methods": {
      "owner()": {
        "details": "Returns the address of the current owner."
      },
      "renounceOwnership()": {
        "details": "Leaves the contract without owner. It will not be possible to call `onlyOwner` functions anymore. Can only be called by the current owner. NOTE: Renouncing ownership will leave the contract without an owner, thereby removing any functionality that is only available to the owner."
      },
      "transferOwnership(address)": {
        "details": "Transfers ownership of the contract to a new account (`newOwner`). Can only be called by the current owner."
      }
    },
    "version": 1
  },
  "userdoc": {
    "kind": "user",
    "methods": {},
    "version": 1
  }
}