{
  "contractName": "QuickSort",
  "abi": [
    {
      "inputs": [
        {
          "internalType": "uint256[]",
          "name": "data",
          "type": "uint256[]"
        }
      ],
      "name": "sort",
      "outputs": [
        {
          "internalType": "uint256[]",
          "name": "",
          "type": "uint256[]"
        }
      ],
      "stateMutability": "nonpayable",
      "type": "function"
    }
  ],
  "bytecode": "0x608060405234801561001057600080fd5b50610810806100206000396000f3fe608060405234801561001057600080fd5b506004361061002b5760003560e01c80639ec8b02614610030575b600080fd5b61004a600480360381019061004591906103c2565b610060565b60405161005791906104c9565b60405180910390f35b606061007b82600060018551610076919061051a565b610083565b819050919050565b600082905060008290508082141561009c57505061021a565b600085600286866100ad9190610558565b6100b7919061061b565b866100c29190610685565b815181106100d3576100d2610719565b5b602002602001015190505b8183136101ee575b808684815181106100fa576100f9610719565b5b6020026020010151101561011b57828061011390610748565b9350506100e6565b5b85828151811061012f5761012e610719565b5b602002602001015181101561015157818061014990610791565b92505061011c565b8183136101e95785828151811061016b5761016a610719565b5b602002602001015186848151811061018657610185610719565b5b60200260200101518785815181106101a1576101a0610719565b5b602002602001018885815181106101bb576101ba610719565b5b602002602001018281525082815250505082806101d790610748565b93505081806101e590610791565b9250505b6100de565b8185121561020257610201868684610083565b5b8383121561021657610215868486610083565b5b5050505b505050565b6000604051905090565b600080fd5b600080fd5b600080fd5b6000601f19601f8301169050919050565b7f4e487b7100000000000000000000000000000000000000000000000000000000600052604160045260246000fd5b61028182610238565b810181811067ffffffffffffffff821117156102a05761029f610249565b5b80604052505050565b60006102b361021f565b90506102bf8282610278565b919050565b600067ffffffffffffffff8211156102df576102de610249565b5b602082029050602081019050919050565b600080fd5b6000819050919050565b610308816102f5565b811461031357600080fd5b50565b600081359050610325816102ff565b92915050565b600061033e610339846102c4565b6102a9565b90508083825260208201905060208402830185811115610361576103606102f0565b5b835b8181101561038a57806103768882610316565b845260208401935050602081019050610363565b5050509392505050565b600082601f8301126103a9576103a8610233565b5b81356103b984826020860161032b565b91505092915050565b6000602082840312156103d8576103d7610229565b5b600082013567ffffffffffffffff8111156103f6576103f561022e565b5b61040284828501610394565b91505092915050565b600081519050919050565b600082825260208201905092915050565b6000819050602082019050919050565b610440816102f5565b82525050565b60006104528383610437565b60208301905092915050565b6000602082019050919050565b60006104768261040b565b6104808185610416565b935061048b83610427565b8060005b838110156104bc5781516104a38882610446565b97506104ae8361045e565b92505060018101905061048f565b5085935050505092915050565b600060208201905081810360008301526104e3818461046b565b905092915050565b7f4e487b7100000000000000000000000000000000000000000000000000000000600052601160045260246000fd5b6000610525826102f5565b9150610530836102f5565b925082821015610543576105426104eb565b5b828203905092915050565b6000819050919050565b60006105638261054e565b915061056e8361054e565b9250827f8000000000000000000000000000000000000000000000000000000000000000018212600084121516156105a9576105a86104eb565b5b827f7fffffffffffffffffffffffffffffffffffffffffffffffffffffffffffffff0182136000841216156105e1576105e06104eb565b5b828203905092915050565b7f4e487b7100000000000000000000000000000000000000000000000000000000600052601260045260246000fd5b60006106268261054e565b91506106318361054e565b925082610641576106406105ec565b5b600160000383147f80000000000000000000000000000000000000000000000000000000000000008314161561067a576106796104eb565b5b828205905092915050565b60006106908261054e565b915061069b8361054e565b9250817f7fffffffffffffffffffffffffffffffffffffffffffffffffffffffffffffff038313600083121516156106d6576106d56104eb565b5b817f800000000000000000000000000000000000000000000000000000000000000003831260008312161561070e5761070d6104eb565b5b828201905092915050565b7f4e487b7100000000000000000000000000000000000000000000000000000000600052603260045260246000fd5b60006107538261054e565b91507f7fffffffffffffffffffffffffffffffffffffffffffffffffffffffffffffff821415610786576107856104eb565b5b600182019050919050565b600061079c8261054e565b91507f80000000000000000000000000000000000000000000000000000000000000008214156107cf576107ce6104eb565b5b60018203905091905056fea26469706673582212202b7ee5e574181686c063aa62c03328e6c129743b7c52723f76ea2ffee20be0f964736f6c634300080a0033",
  "immutableReferences": {},
  "source": "// SPDX-License-Identifier: MIT\npragma solidity >=0.4.22 <0.9.0;\n\ncontract QuickSort {\n    \n    function sort(uint[] memory data) public returns(uint[] memory) {\n       quickSort(data, int(0), int(data.length - 1));\n       return data;\n    }\n    \n    function quickSort(uint[] memory arr, int left, int right) internal{\n        int i = left;\n        int j = right;\n        if(i==j) return;\n        uint pivot = arr[uint(left + (right - left) / 2)];\n        while (i <= j) {\n            while (arr[uint(i)] < pivot) i++;\n            while (pivot < arr[uint(j)]) j--;\n            if (i <= j) {\n                (arr[uint(i)], arr[uint(j)]) = (arr[uint(j)], arr[uint(i)]);\n                i++;\n                j--;\n            }\n        }\n        if (left < j)\n            quickSort(arr, left, j);\n        if (i < right)\n            quickSort(arr, i, right);\n    }\n}",
  "sourcePath": "/home/gperez/proyectos/scba-auction-ethereum/contracts/QuickSort.sol",
  "compiler": {
    "name": "solc",
    "version": "0.8.10+commit.fc410830.Emscripten.clang"
  },
  "schemaVersion": "3.4.4",
  "updatedAt": "2021-12-18T08:05:04.602Z",
  "devdoc": {
    "kind": "dev",
    "methods": {},
    "version": 1
  },
  "userdoc": {
    "kind": "user",
    "methods": {},
    "version": 1
  }
}