{
  "contractName": "SubastasSCBA",
  "abi": [
    {
      "inputs": [],
      "stateMutability": "nonpayable",
      "type": "constructor"
    },
    {
      "anonymous": false,
      "inputs": [
        {
          "indexed": true,
          "internalType": "address",
          "name": "previousOwner",
          "type": "address"
        },
        {
          "indexed": true,
          "internalType": "address",
          "name": "newOwner",
          "type": "address"
        }
      ],
      "name": "OwnershipTransferred",
      "type": "event"
    },
    {
      "inputs": [],
      "name": "owner",
      "outputs": [
        {
          "internalType": "address",
          "name": "",
          "type": "address"
        }
      ],
      "stateMutability": "view",
      "type": "function",
      "constant": true
    },
    {
      "inputs": [],
      "name": "renounceOwnership",
      "outputs": [],
      "stateMutability": "nonpayable",
      "type": "function"
    },
    {
      "inputs": [
        {
          "internalType": "address",
          "name": "newOwner",
          "type": "address"
        }
      ],
      "name": "transferOwnership",
      "outputs": [],
      "stateMutability": "nonpayable",
      "type": "function"
    },
    {
      "inputs": [],
      "name": "get_estado_subasta",
      "outputs": [
        {
          "internalType": "uint256",
          "name": "",
          "type": "uint256"
        }
      ],
      "stateMutability": "view",
      "type": "function",
      "constant": true
    },
    {
      "inputs": [
        {
          "internalType": "string",
          "name": "_codigo_subasta",
          "type": "string"
        },
        {
          "internalType": "uint256",
          "name": "_tipo_subasta",
          "type": "uint256"
        },
        {
          "internalType": "uint256",
          "name": "_deposito_garantia",
          "type": "uint256"
        },
        {
          "internalType": "uint256",
          "name": "_cant_lotes",
          "type": "uint256"
        }
      ],
      "name": "InitSubasta",
      "outputs": [],
      "stateMutability": "nonpayable",
      "type": "function"
    },
    {
      "inputs": [
        {
          "internalType": "uint256",
          "name": "_fecha_inicio",
          "type": "uint256"
        },
        {
          "internalType": "uint256",
          "name": "_fecha_fin",
          "type": "uint256"
        },
        {
          "internalType": "uint256",
          "name": "_valor_base",
          "type": "uint256"
        }
      ],
      "name": "AgregaLote",
      "outputs": [],
      "stateMutability": "nonpayable",
      "type": "function"
    }
  ],
  "bytecode": "0x608060405234801561001057600080fd5b5061002d61002261003a60201b60201c565b61004260201b60201c565b6000600281905550610106565b600033905090565b60008060009054906101000a900473ffffffffffffffffffffffffffffffffffffffff169050816000806101000a81548173ffffffffffffffffffffffffffffffffffffffff021916908373ffffffffffffffffffffffffffffffffffffffff1602179055508173ffffffffffffffffffffffffffffffffffffffff168173ffffffffffffffffffffffffffffffffffffffff167f8be0079c531659141344cd1fd0a4f28419497f9722a3daafe3b4186f6b6457e060405160405180910390a35050565b610d33806101156000396000f3fe608060405234801561001057600080fd5b50600436106100625760003560e01c806311e22a4414610067578063715018a6146100855780638da5cb5b1461008f578063afe8f46c146100ad578063c7b26ec6146100c9578063f2fde38b146100e5575b600080fd5b61006f610101565b60405161007c9190610789565b60405180910390f35b61008d61010b565b005b610097610193565b6040516100a491906107e5565b60405180910390f35b6100c760048036038101906100c29190610840565b6101bc565b005b6100e360048036038101906100de91906109d9565b6103b0565b005b6100ff60048036038101906100fa9190610a88565b6104b6565b005b6000600254905090565b6101136105ae565b73ffffffffffffffffffffffffffffffffffffffff16610131610193565b73ffffffffffffffffffffffffffffffffffffffff1614610187576040517f08c379a000000000000000000000000000000000000000000000000000000000815260040161017e90610b12565b60405180910390fd5b61019160006105b6565b565b60008060009054906101000a900473ffffffffffffffffffffffffffffffffffffffff16905090565b6101c46105ae565b73ffffffffffffffffffffffffffffffffffffffff166101e2610193565b73ffffffffffffffffffffffffffffffffffffffff1614610238576040517f08c379a000000000000000000000000000000000000000000000000000000000815260040161022f90610b12565b60405180910390fd5b6001600254148061024a575060028054145b610289576040517f08c379a000000000000000000000000000000000000000000000000000000000815260040161028090610b7e565b60405180910390fd5b60006003600101541480156102a2575060018080549050145b156102ac57600080fd5b600280819055506102bb61067a565b600081608001818152505083816000018181525050828160200181815250508281606001818152505060008160c0018181525050818160400181815250506001819080600181540180825580915050600190039060005260206000209060070201600090919091909150600082015181600001556020820151816001015560408201518160020155606082015181600301556080820151816004015560a08201518160050160006101000a81548173ffffffffffffffffffffffffffffffffffffffff021916908373ffffffffffffffffffffffffffffffffffffffff16021790555060c08201518160060155505050505050565b6103b86105ae565b73ffffffffffffffffffffffffffffffffffffffff166103d6610193565b73ffffffffffffffffffffffffffffffffffffffff161461042c576040517f08c379a000000000000000000000000000000000000000000000000000000000815260040161042390610b12565b60405180910390fd5b600060025414610471576040517f08c379a000000000000000000000000000000000000000000000000000000000815260040161046890610bea565b60405180910390fd5b600160028190555083600360000190805190602001906104929291906106cd565b50826003600101819055508160036002018190555080600380018190555050505050565b6104be6105ae565b73ffffffffffffffffffffffffffffffffffffffff166104dc610193565b73ffffffffffffffffffffffffffffffffffffffff1614610532576040517f08c379a000000000000000000000000000000000000000000000000000000000815260040161052990610b12565b60405180910390fd5b600073ffffffffffffffffffffffffffffffffffffffff168173ffffffffffffffffffffffffffffffffffffffff1614156105a2576040517f08c379a000000000000000000000000000000000000000000000000000000000815260040161059990610c7c565b60405180910390fd5b6105ab816105b6565b50565b600033905090565b60008060009054906101000a900473ffffffffffffffffffffffffffffffffffffffff169050816000806101000a81548173ffffffffffffffffffffffffffffffffffffffff021916908373ffffffffffffffffffffffffffffffffffffffff1602179055508173ffffffffffffffffffffffffffffffffffffffff168173ffffffffffffffffffffffffffffffffffffffff167f8be0079c531659141344cd1fd0a4f28419497f9722a3daafe3b4186f6b6457e060405160405180910390a35050565b6040518060e001604052806000815260200160008152602001600081526020016000815260200160008152602001600073ffffffffffffffffffffffffffffffffffffffff168152602001600081525090565b8280546106d990610ccb565b90600052602060002090601f0160209004810192826106fb5760008555610742565b82601f1061071457805160ff1916838001178555610742565b82800160010185558215610742579182015b82811115610741578251825591602001919060010190610726565b5b50905061074f9190610753565b5090565b5b8082111561076c576000816000905550600101610754565b5090565b6000819050919050565b61078381610770565b82525050565b600060208201905061079e600083018461077a565b92915050565b600073ffffffffffffffffffffffffffffffffffffffff82169050919050565b60006107cf826107a4565b9050919050565b6107df816107c4565b82525050565b60006020820190506107fa60008301846107d6565b92915050565b6000604051905090565b600080fd5b600080fd5b61081d81610770565b811461082857600080fd5b50565b60008135905061083a81610814565b92915050565b6000806000606084860312156108595761085861080a565b5b60006108678682870161082b565b93505060206108788682870161082b565b92505060406108898682870161082b565b9150509250925092565b600080fd5b600080fd5b6000601f19601f8301169050919050565b7f4e487b7100000000000000000000000000000000000000000000000000000000600052604160045260246000fd5b6108e68261089d565b810181811067ffffffffffffffff82111715610905576109046108ae565b5b80604052505050565b6000610918610800565b905061092482826108dd565b919050565b600067ffffffffffffffff821115610944576109436108ae565b5b61094d8261089d565b9050602081019050919050565b82818337600083830152505050565b600061097c61097784610929565b61090e565b90508281526020810184848401111561099857610997610898565b5b6109a384828561095a565b509392505050565b600082601f8301126109c0576109bf610893565b5b81356109d0848260208601610969565b91505092915050565b600080600080608085870312156109f3576109f261080a565b5b600085013567ffffffffffffffff811115610a1157610a1061080f565b5b610a1d878288016109ab565b9450506020610a2e8782880161082b565b9350506040610a3f8782880161082b565b9250506060610a508782880161082b565b91505092959194509250565b610a65816107c4565b8114610a7057600080fd5b50565b600081359050610a8281610a5c565b92915050565b600060208284031215610a9e57610a9d61080a565b5b6000610aac84828501610a73565b91505092915050565b600082825260208201905092915050565b7f4f776e61626c653a2063616c6c6572206973206e6f7420746865206f776e6572600082015250565b6000610afc602083610ab5565b9150610b0782610ac6565b602082019050919050565b60006020820190508181036000830152610b2b81610aef565b9050919050565b7f4c612073756261737461206465626520657374617220696e6369616461000000600082015250565b6000610b68601d83610ab5565b9150610b7382610b32565b602082019050919050565b60006020820190508181036000830152610b9781610b5b565b9050919050565b7f4c6120737562617374612079612066756520696e696369616c69616461000000600082015250565b6000610bd4601d83610ab5565b9150610bdf82610b9e565b602082019050919050565b60006020820190508181036000830152610c0381610bc7565b9050919050565b7f4f776e61626c653a206e6577206f776e657220697320746865207a65726f206160008201527f6464726573730000000000000000000000000000000000000000000000000000602082015250565b6000610c66602683610ab5565b9150610c7182610c0a565b604082019050919050565b60006020820190508181036000830152610c9581610c59565b9050919050565b7f4e487b7100000000000000000000000000000000000000000000000000000000600052602260045260246000fd5b60006002820490506001821680610ce357607f821691505b60208210811415610cf757610cf6610c9c565b5b5091905056fea264697066735822122002df21216212b8f2128fe879bbd81c8c366cb1ce57dd09185940d29b6943135764736f6c634300080a0033",
  "immutableReferences": {},
  "source": "// SPDX-License-Identifier: MIT\npragma solidity >=0.4.22 <0.9.0;\n\nimport \"@openzeppelin/contracts/access/Ownable.sol\";\n\ncontract SubastasSCBA is Ownable {\n\n  \n  struct Lote {\n    uint FechaInicio;\n    uint FechaFin;\n    uint ValorBase;\n    uint FechaFinExt;\n    uint cant_extensiones;\n    address winner;\n    uint tramo_ganador;\n  }\n  struct Subasta {\n    string codigo_subasta;\n    /*\n    Tipo subasta\n    0 - Mieble\n    1 - Inmueble\n    2 - Mieble Registrable\n    */\n    uint tipo_de_subasta;\n    uint DepositoGarantia;\n    uint CantidadLotes;\n  }\n\n  // Lotes de la subasta, si es inmuble hay un unico Lote\n  Lote[] private lotes;\n  /*\n  Estado Subasta\n  0 - No Inicializada\n  1 - Inicializada\n  2 - Lotes definidos\n  3 - Iniciada\n  4 - Extendida\n  5 - Finalizada\n  */\n  uint estado_subasta;\n\n  Subasta private obj_subasta;\n  uint private ultimo_lote;\n  constructor () {\n    estado_subasta = 0;\n  }\n  //Deberia ser solo llamada por el owner (ver mas adelante)\n\n  function get_estado_subasta() public view returns(uint) {\n    return estado_subasta;\n  }\n\n  function InitSubasta(string memory _codigo_subasta,uint _tipo_subasta, uint _deposito_garantia, uint _cant_lotes) public onlyOwner  {\n    require(estado_subasta  == 0, \"La subasta ya fue inicialiada\");\n\n    estado_subasta = 1;\n    obj_subasta.codigo_subasta = _codigo_subasta;\n    obj_subasta.tipo_de_subasta = _tipo_subasta;\n    obj_subasta.DepositoGarantia = _deposito_garantia;\n    obj_subasta.CantidadLotes = _cant_lotes;\n  }\n  //Deberia ser solo llamada por el owner (ver mas adelante)\n  function AgregaLote(uint _fecha_inicio, uint _fecha_fin, uint _valor_base) public onlyOwner {\n    require(estado_subasta == 1 || estado_subasta == 2,\"La subasta debe estar inciada\");\n    if (obj_subasta.tipo_de_subasta == 0 && lotes.length == 1) { revert(); }\n    estado_subasta = 2;\n    Lote memory tmpLote;\n    tmpLote.cant_extensiones = 0;\n    tmpLote.FechaInicio = _fecha_inicio;\n    tmpLote.FechaFin = _fecha_fin;\n    tmpLote.FechaFinExt = _fecha_fin;\n    tmpLote.tramo_ganador = 0;\n    tmpLote.ValorBase = _valor_base;\n    \n    lotes.push(tmpLote);\n\n  }  \n\n}\n",
  "sourcePath": "/home/gperez/proyectos/subastas/contracts/SubastasSCBA.sol",
  "compiler": {
    "name": "solc",
    "version": "0.8.10+commit.fc410830.Emscripten.clang"
  },
  "schemaVersion": "3.4.3",
  "updatedAt": "2021-12-10T20:34:54.108Z",
  "networkType": "ethereum",
  "devdoc": {
    "kind": "dev",
    "methods": {
      "owner()": {
        "details": "Returns the address of the current owner."
      },
      "renounceOwnership()": {
        "details": "Leaves the contract without owner. It will not be possible to call `onlyOwner` functions anymore. Can only be called by the current owner. NOTE: Renouncing ownership will leave the contract without an owner, thereby removing any functionality that is only available to the owner."
      },
      "transferOwnership(address)": {
        "details": "Transfers ownership of the contract to a new account (`newOwner`). Can only be called by the current owner."
      }
    },
    "version": 1
  },
  "userdoc": {
    "kind": "user",
    "methods": {},
    "version": 1
  }
}